{
	"exercices/exo7/Boucles.sol": {
		"Array": {
			"abi": [
				{
					"inputs": [
						{
							"internalType": "uint256",
							"name": "",
							"type": "uint256"
						}
					],
					"name": "array",
					"outputs": [
						{
							"internalType": "int256",
							"name": "",
							"type": "int256"
						}
					],
					"stateMutability": "view",
					"type": "function"
				},
				{
					"inputs": [
						{
							"internalType": "uint8",
							"name": "index",
							"type": "uint8"
						}
					],
					"name": "get",
					"outputs": [
						{
							"internalType": "int256",
							"name": "",
							"type": "int256"
						}
					],
					"stateMutability": "view",
					"type": "function"
				},
				{
					"inputs": [],
					"name": "icrementArrayFor",
					"outputs": [],
					"stateMutability": "nonpayable",
					"type": "function"
				},
				{
					"inputs": [],
					"name": "incrementArrayWhile",
					"outputs": [],
					"stateMutability": "nonpayable",
					"type": "function"
				},
				{
					"inputs": [
						{
							"internalType": "uint8",
							"name": "index",
							"type": "uint8"
						},
						{
							"internalType": "int256",
							"name": "value",
							"type": "int256"
						}
					],
					"name": "set",
					"outputs": [],
					"stateMutability": "nonpayable",
					"type": "function"
				}
			],
			"devdoc": {
				"kind": "dev",
				"methods": {},
				"version": 1
			},
			"evm": {
				"assembly": "    /* \"exercices/exo7/Boucles.sol\":87:232  int256[10] public array= [int256(42), int256(-86), int256(69), int256(30), int256(-85563), int256(0), int256(0), int256(0), int256(0), int256(0)] */\n  0x01c0\n    /* \"exercices/exo7/Boucles.sol\":62:741  contract Array {... */\n  0x40\n    /* \"exercices/exo7/Boucles.sol\":87:232  int256[10] public array= [int256(42), int256(-86), int256(69), int256(30), int256(-85563), int256(0), int256(0), int256(0), int256(0), int256(0)] */\n  mstore\n    /* \"exercices/exo7/Boucles.sol\":120:122  42 */\n  0x2a\n    /* \"exercices/exo7/Boucles.sol\":62:741  contract Array {... */\n  0x80\n    /* \"exercices/exo7/Boucles.sol\":87:232  int256[10] public array= [int256(42), int256(-86), int256(69), int256(30), int256(-85563), int256(0), int256(0), int256(0), int256(0), int256(0)] */\n  swap1\n  dup2\n  mstore\n  mstore(0xa0, not(0x55))\n    /* \"exercices/exo7/Boucles.sol\":145:147  69 */\n  0x45\n    /* \"exercices/exo7/Boucles.sol\":87:232  int256[10] public array= [int256(42), int256(-86), int256(69), int256(30), int256(-85563), int256(0), int256(0), int256(0), int256(0), int256(0)] */\n  0xc0\n  mstore\n    /* \"exercices/exo7/Boucles.sol\":157:159  30 */\n  0x1e\n    /* \"exercices/exo7/Boucles.sol\":87:232  int256[10] public array= [int256(42), int256(-86), int256(69), int256(30), int256(-85563), int256(0), int256(0), int256(0), int256(0), int256(0)] */\n  0xe0\n  mstore\n  mstore(0x0100, not(0x014e3a))\n  0x00\n  0x0120\n  dup2\n  swap1\n  mstore\n  0x0140\n  dup2\n  swap1\n  mstore\n  0x0160\n  dup2\n  swap1\n  mstore\n  0x0180\n  dup2\n  swap1\n  mstore\n  0x01a0\n  dup2\n  swap1\n  mstore\n  tag_1\n  swap2\n  0x0a\n  tag_2\n  jump\t// in\ntag_1:\n  pop\n    /* \"exercices/exo7/Boucles.sol\":62:741  contract Array {... */\n  callvalue\n  dup1\n  iszero\n  tag_3\n  jumpi\n  0x00\n  dup1\n  revert\ntag_3:\n  pop\n  jump(tag_4)\ntag_2:\n  dup3\n  0x0a\n  dup2\n  add\n  swap3\n  dup3\n  iszero\n  tag_7\n  jumpi\n  swap2\n  0x20\n  mul\n  dup3\n  add\ntag_6:\n  dup3\n  dup2\n  gt\n  iszero\n  tag_7\n  jumpi\n  dup3\n  mload\n  dup3\n  sstore\n  swap2\n  0x20\n  add\n  swap2\n  swap1\n  0x01\n  add\n  swap1\n  jump(tag_6)\ntag_7:\n  pop\n  tag_8\n  swap3\n  swap2\n  pop\n  tag_9\n  jump\t// in\ntag_8:\n  pop\n  swap1\n  jump\t// out\ntag_9:\ntag_10:\n  dup1\n  dup3\n  gt\n  iszero\n  tag_8\n  jumpi\n  0x00\n  dup2\n  sstore\n  0x01\n  add\n  jump(tag_10)\ntag_4:\n  dataSize(sub_0)\n  dup1\n  dataOffset(sub_0)\n  0x00\n  codecopy\n  0x00\n  return\nstop\n\nsub_0: assembly {\n        /* \"exercices/exo7/Boucles.sol\":62:741  contract Array {... */\n      mstore(0x40, 0x80)\n      callvalue\n      dup1\n      iszero\n      tag_1\n      jumpi\n      0x00\n      dup1\n      revert\n    tag_1:\n      pop\n      jumpi(tag_2, lt(calldatasize, 0x04))\n      shr(0xe0, calldataload(0x00))\n      dup1\n      0x05608df5\n      eq\n      tag_3\n      jumpi\n      dup1\n      0x125570a2\n      eq\n      tag_4\n      jumpi\n      dup1\n      0x38d94193\n      eq\n      tag_5\n      jumpi\n      dup1\n      0x4ac56d57\n      eq\n      tag_6\n      jumpi\n      dup1\n      0xf72d0b3b\n      eq\n      tag_7\n      jumpi\n    tag_2:\n      0x00\n      dup1\n      revert\n        /* \"exercices/exo7/Boucles.sol\":565:739  function incrementArrayWhile() public {... */\n    tag_3:\n      tag_8\n      tag_9\n      jump\t// in\n    tag_8:\n      stop\n        /* \"exercices/exo7/Boucles.sol\":427:555  function icrementArrayFor() public {... */\n    tag_4:\n      tag_8\n      tag_11\n      jump\t// in\n        /* \"exercices/exo7/Boucles.sol\":87:232  int256[10] public array= [int256(42), int256(-86), int256(69), int256(30), int256(-85563), int256(0), int256(0), int256(0), int256(0), int256(0)] */\n    tag_5:\n      tag_12\n      tag_13\n      calldatasize\n      0x04\n      tag_14\n      jump\t// in\n    tag_13:\n      tag_15\n      jump\t// in\n    tag_12:\n      mload(0x40)\n        /* \"#utility.yul\":975:1000   */\n      swap1\n      dup2\n      mstore\n        /* \"#utility.yul\":963:965   */\n      0x20\n        /* \"#utility.yul\":948:966   */\n      add\n        /* \"exercices/exo7/Boucles.sol\":87:232  int256[10] public array= [int256(42), int256(-86), int256(69), int256(30), int256(-85563), int256(0), int256(0), int256(0), int256(0), int256(0)] */\n      mload(0x40)\n      dup1\n      swap2\n      sub\n      swap1\n      return\n        /* \"exercices/exo7/Boucles.sol\":336:421  function set(uint8 index, int256 value) public {... */\n    tag_6:\n      tag_8\n      tag_19\n      calldatasize\n      0x04\n      tag_20\n      jump\t// in\n    tag_19:\n      tag_21\n      jump\t// in\n        /* \"exercices/exo7/Boucles.sol\":239:330  function get(uint8 index) public view returns (int256) {... */\n    tag_7:\n      tag_12\n      tag_23\n      calldatasize\n      0x04\n      tag_24\n      jump\t// in\n    tag_23:\n      tag_25\n      jump\t// in\n        /* \"exercices/exo7/Boucles.sol\":565:739  function incrementArrayWhile() public {... */\n    tag_9:\n        /* \"exercices/exo7/Boucles.sol\":617:624  uint8 j */\n      0x00\n        /* \"exercices/exo7/Boucles.sol\":638:728  while (j < array.length){... */\n    tag_28:\n        /* \"exercices/exo7/Boucles.sol\":649:661  array.length */\n      0x0a\n        /* \"exercices/exo7/Boucles.sol\":645:646  j */\n      dup2\n        /* \"exercices/exo7/Boucles.sol\":645:661  j < array.length */\n      0xff\n      and\n      lt\n        /* \"exercices/exo7/Boucles.sol\":638:728  while (j < array.length){... */\n      iszero\n      tag_29\n      jumpi\n        /* \"exercices/exo7/Boucles.sol\":691:692  1 */\n      0x01\n        /* \"exercices/exo7/Boucles.sol\":680:685  array */\n      0x00\n        /* \"exercices/exo7/Boucles.sol\":686:687  j */\n      dup3\n        /* \"exercices/exo7/Boucles.sol\":680:688  array[j] */\n      0xff\n      and\n      0x0a\n      dup2\n      lt\n      tag_30\n      jumpi\n      mstore(0x00, shl(0xe0, 0x4e487b71))\n      mstore(0x04, 0x32)\n      revert(0x00, 0x24)\n    tag_30:\n      add\n      0x00\n        /* \"exercices/exo7/Boucles.sol\":680:692  array[j] +=1 */\n      dup3\n      dup3\n      sload\n      tag_32\n      swap2\n      swap1\n      tag_33\n      jump\t// in\n    tag_32:\n      swap1\n      swap2\n      sstore\n      pop\n        /* \"exercices/exo7/Boucles.sol\":710:713  j++ */\n      dup2\n      swap1\n      pop\n      tag_34\n      dup2\n      tag_35\n      jump\t// in\n    tag_34:\n      swap2\n      pop\n      pop\n        /* \"exercices/exo7/Boucles.sol\":638:728  while (j < array.length){... */\n      jump(tag_28)\n    tag_29:\n        /* \"exercices/exo7/Boucles.sol\":565:739  function incrementArrayWhile() public {... */\n      pop\n      jump\t// out\n        /* \"exercices/exo7/Boucles.sol\":427:555  function icrementArrayFor() public {... */\n    tag_11:\n        /* \"exercices/exo7/Boucles.sol\":477:484  uint8 i */\n      0x00\n        /* \"exercices/exo7/Boucles.sol\":472:549  for (uint8 i = 0; i < array.length; i++){... */\n    tag_37:\n        /* \"exercices/exo7/Boucles.sol\":494:506  array.length */\n      0x0a\n        /* \"exercices/exo7/Boucles.sol\":490:491  i */\n      dup2\n        /* \"exercices/exo7/Boucles.sol\":490:506  i < array.length */\n      0xff\n      and\n      lt\n        /* \"exercices/exo7/Boucles.sol\":472:549  for (uint8 i = 0; i < array.length; i++){... */\n      iszero\n      tag_29\n      jumpi\n        /* \"exercices/exo7/Boucles.sol\":537:538  1 */\n      0x01\n        /* \"exercices/exo7/Boucles.sol\":526:531  array */\n      0x00\n        /* \"exercices/exo7/Boucles.sol\":532:533  i */\n      dup3\n        /* \"exercices/exo7/Boucles.sol\":526:534  array[i] */\n      0xff\n      and\n      0x0a\n      dup2\n      lt\n      tag_40\n      jumpi\n      mstore(0x00, shl(0xe0, 0x4e487b71))\n      mstore(0x04, 0x32)\n      revert(0x00, 0x24)\n    tag_40:\n      add\n      0x00\n        /* \"exercices/exo7/Boucles.sol\":526:538  array[i] +=1 */\n      dup3\n      dup3\n      sload\n      tag_42\n      swap2\n      swap1\n      tag_33\n      jump\t// in\n    tag_42:\n      swap1\n      swap2\n      sstore\n      pop\n        /* \"exercices/exo7/Boucles.sol\":508:511  i++ */\n      dup2\n      swap1\n      pop\n      tag_43\n      dup2\n      tag_35\n      jump\t// in\n    tag_43:\n      swap2\n      pop\n      pop\n        /* \"exercices/exo7/Boucles.sol\":472:549  for (uint8 i = 0; i < array.length; i++){... */\n      jump(tag_37)\n        /* \"exercices/exo7/Boucles.sol\":87:232  int256[10] public array= [int256(42), int256(-86), int256(69), int256(30), int256(-85563), int256(0), int256(0), int256(0), int256(0), int256(0)] */\n    tag_15:\n      0x00\n      dup2\n      0x0a\n      dup2\n      lt\n      tag_44\n      jumpi\n      0x00\n      dup1\n      revert\n    tag_44:\n      add\n      sload\n      swap1\n      pop\n      dup2\n      jump\t// out\n        /* \"exercices/exo7/Boucles.sol\":336:421  function set(uint8 index, int256 value) public {... */\n    tag_21:\n        /* \"exercices/exo7/Boucles.sol\":409:414  value */\n      dup1\n        /* \"exercices/exo7/Boucles.sol\":394:399  array */\n      0x00\n        /* \"exercices/exo7/Boucles.sol\":400:405  index */\n      dup4\n        /* \"exercices/exo7/Boucles.sol\":394:406  array[index] */\n      0xff\n      and\n      0x0a\n      dup2\n      lt\n      tag_47\n      jumpi\n      mstore(0x00, shl(0xe0, 0x4e487b71))\n      mstore(0x04, 0x32)\n      revert(0x00, 0x24)\n    tag_47:\n      add\n        /* \"exercices/exo7/Boucles.sol\":394:414  array[index] = value */\n      sstore\n      pop\n      pop\n        /* \"exercices/exo7/Boucles.sol\":336:421  function set(uint8 index, int256 value) public {... */\n      jump\t// out\n        /* \"exercices/exo7/Boucles.sol\":239:330  function get(uint8 index) public view returns (int256) {... */\n    tag_25:\n        /* \"exercices/exo7/Boucles.sol\":286:292  int256 */\n      0x00\n        /* \"exercices/exo7/Boucles.sol\":311:316  array */\n      dup1\n        /* \"exercices/exo7/Boucles.sol\":317:322  index */\n      dup3\n        /* \"exercices/exo7/Boucles.sol\":311:323  array[index] */\n      0xff\n      and\n      0x0a\n      dup2\n      lt\n      tag_50\n      jumpi\n      mstore(0x00, shl(0xe0, 0x4e487b71))\n      mstore(0x04, 0x32)\n      revert(0x00, 0x24)\n    tag_50:\n      add\n      sload\n      swap3\n        /* \"exercices/exo7/Boucles.sol\":239:330  function get(uint8 index) public view returns (int256) {... */\n      swap2\n      pop\n      pop\n      jump\t// out\n        /* \"#utility.yul\":14:170   */\n    tag_53:\n        /* \"#utility.yul\":80:100   */\n      dup1\n      calldataload\n        /* \"#utility.yul\":140:144   */\n      0xff\n        /* \"#utility.yul\":129:145   */\n      dup2\n      and\n        /* \"#utility.yul\":119:146   */\n      dup2\n      eq\n        /* \"#utility.yul\":109:111   */\n      tag_55\n      jumpi\n        /* \"#utility.yul\":160:161   */\n      0x00\n        /* \"#utility.yul\":157:158   */\n      dup1\n        /* \"#utility.yul\":150:162   */\n      revert\n        /* \"#utility.yul\":109:111   */\n    tag_55:\n        /* \"#utility.yul\":61:170   */\n      swap2\n      swap1\n      pop\n      jump\t// out\n        /* \"#utility.yul\":175:365   */\n    tag_14:\n        /* \"#utility.yul\":234:240   */\n      0x00\n        /* \"#utility.yul\":287:289   */\n      0x20\n        /* \"#utility.yul\":275:284   */\n      dup3\n        /* \"#utility.yul\":266:273   */\n      dup5\n        /* \"#utility.yul\":262:285   */\n      sub\n        /* \"#utility.yul\":258:290   */\n      slt\n        /* \"#utility.yul\":255:257   */\n      iszero\n      tag_57\n      jumpi\n        /* \"#utility.yul\":308:314   */\n      dup1\n        /* \"#utility.yul\":300:306   */\n      dup2\n        /* \"#utility.yul\":293:315   */\n      revert\n        /* \"#utility.yul\":255:257   */\n    tag_57:\n      pop\n        /* \"#utility.yul\":336:359   */\n      calldataload\n      swap2\n        /* \"#utility.yul\":245:365   */\n      swap1\n      pop\n      jump\t// out\n        /* \"#utility.yul\":370:562   */\n    tag_24:\n        /* \"#utility.yul\":427:433   */\n      0x00\n        /* \"#utility.yul\":480:482   */\n      0x20\n        /* \"#utility.yul\":468:477   */\n      dup3\n        /* \"#utility.yul\":459:466   */\n      dup5\n        /* \"#utility.yul\":455:478   */\n      sub\n        /* \"#utility.yul\":451:483   */\n      slt\n        /* \"#utility.yul\":448:450   */\n      iszero\n      tag_59\n      jumpi\n        /* \"#utility.yul\":501:507   */\n      dup1\n        /* \"#utility.yul\":493:499   */\n      dup2\n        /* \"#utility.yul\":486:508   */\n      revert\n        /* \"#utility.yul\":448:450   */\n    tag_59:\n        /* \"#utility.yul\":529:556   */\n      tag_60\n        /* \"#utility.yul\":546:555   */\n      dup3\n        /* \"#utility.yul\":529:556   */\n      tag_53\n      jump\t// in\n    tag_60:\n        /* \"#utility.yul\":519:556   */\n      swap4\n        /* \"#utility.yul\":438:562   */\n      swap3\n      pop\n      pop\n      pop\n      jump\t// out\n        /* \"#utility.yul\":567:826   */\n    tag_20:\n        /* \"#utility.yul\":632:638   */\n      0x00\n        /* \"#utility.yul\":640:646   */\n      dup1\n        /* \"#utility.yul\":693:695   */\n      0x40\n        /* \"#utility.yul\":681:690   */\n      dup4\n        /* \"#utility.yul\":672:679   */\n      dup6\n        /* \"#utility.yul\":668:691   */\n      sub\n        /* \"#utility.yul\":664:696   */\n      slt\n        /* \"#utility.yul\":661:663   */\n      iszero\n      tag_62\n      jumpi\n        /* \"#utility.yul\":714:720   */\n      dup1\n        /* \"#utility.yul\":706:712   */\n      dup2\n        /* \"#utility.yul\":699:721   */\n      revert\n        /* \"#utility.yul\":661:663   */\n    tag_62:\n        /* \"#utility.yul\":742:769   */\n      tag_63\n        /* \"#utility.yul\":759:768   */\n      dup4\n        /* \"#utility.yul\":742:769   */\n      tag_53\n      jump\t// in\n    tag_63:\n        /* \"#utility.yul\":732:769   */\n      swap5\n        /* \"#utility.yul\":816:818   */\n      0x20\n        /* \"#utility.yul\":801:819   */\n      swap4\n      swap1\n      swap4\n      add\n        /* \"#utility.yul\":788:820   */\n      calldataload\n      swap4\n      pop\n      pop\n      pop\n        /* \"#utility.yul\":651:826   */\n      jump\t// out\n        /* \"#utility.yul\":1011:1278   */\n    tag_33:\n        /* \"#utility.yul\":1050:1053   */\n      0x00\n        /* \"#utility.yul\":1078:1089   */\n      dup1\n      dup3\n      slt\n        /* \"#utility.yul\":1105:1115   */\n      dup1\n      iszero\n      sub(shl(0xff, 0x01), 0x01)\n        /* \"#utility.yul\":1124:1151   */\n      dup5\n      swap1\n      sub\n        /* \"#utility.yul\":1117:1152   */\n      dup6\n      sgt\n        /* \"#utility.yul\":1101:1153   */\n      and\n        /* \"#utility.yul\":1098:1100   */\n      iszero\n      tag_67\n      jumpi\n        /* \"#utility.yul\":1156:1174   */\n      tag_67\n      tag_68\n      jump\t// in\n    tag_67:\n      shl(0xff, 0x01)\n        /* \"#utility.yul\":1203:1222   */\n      dup4\n      swap1\n      sub\n        /* \"#utility.yul\":1196:1223   */\n      dup5\n      slt\n        /* \"#utility.yul\":1188:1224   */\n      dup2\n      and\n        /* \"#utility.yul\":1185:1187   */\n      iszero\n      tag_70\n      jumpi\n        /* \"#utility.yul\":1227:1245   */\n      tag_70\n      tag_68\n      jump\t// in\n    tag_70:\n      pop\n      pop\n        /* \"#utility.yul\":1263:1272   */\n      add\n      swap1\n        /* \"#utility.yul\":1058:1278   */\n      jump\t// out\n        /* \"#utility.yul\":1283:1458   */\n    tag_35:\n        /* \"#utility.yul\":1320:1323   */\n      0x00\n        /* \"#utility.yul\":1364:1368   */\n      0xff\n        /* \"#utility.yul\":1357:1362   */\n      dup3\n        /* \"#utility.yul\":1353:1369   */\n      and\n        /* \"#utility.yul\":1393:1397   */\n      0xff\n        /* \"#utility.yul\":1384:1391   */\n      dup2\n        /* \"#utility.yul\":1381:1398   */\n      eq\n        /* \"#utility.yul\":1378:1380   */\n      iszero\n      tag_73\n      jumpi\n        /* \"#utility.yul\":1401:1419   */\n      tag_73\n      tag_68\n      jump\t// in\n    tag_73:\n        /* \"#utility.yul\":1450:1451   */\n      0x01\n        /* \"#utility.yul\":1437:1452   */\n      add\n      swap3\n        /* \"#utility.yul\":1328:1458   */\n      swap2\n      pop\n      pop\n      jump\t// out\n        /* \"#utility.yul\":1463:1590   */\n    tag_68:\n        /* \"#utility.yul\":1524:1534   */\n      0x4e487b71\n        /* \"#utility.yul\":1519:1522   */\n      0xe0\n        /* \"#utility.yul\":1515:1535   */\n      shl\n        /* \"#utility.yul\":1512:1513   */\n      0x00\n        /* \"#utility.yul\":1505:1536   */\n      mstore\n        /* \"#utility.yul\":1555:1559   */\n      0x11\n        /* \"#utility.yul\":1552:1553   */\n      0x04\n        /* \"#utility.yul\":1545:1560   */\n      mstore\n        /* \"#utility.yul\":1579:1583   */\n      0x24\n        /* \"#utility.yul\":1576:1577   */\n      0x00\n        /* \"#utility.yul\":1569:1584   */\n      revert\n\n    auxdata: 0xa264697066735822122088da685613601262bc81d52d82e3275252200a5714191c02e82f6d5e14a68af464736f6c63430008040033\n}\n",
				"bytecode": {
					"linkReferences": {},
					"object": "6101c0604052602a608090815260551960a052604560c052601e60e05262014e3a196101005260006101208190526101408190526101608190526101808190526101a081905261005091600a610063565b5034801561005d57600080fd5b506100b6565b82600a8101928215610091579160200282015b82811115610091578251825591602001919060010190610076565b5061009d9291506100a1565b5090565b5b8082111561009d57600081556001016100a2565b61030a806100c56000396000f3fe608060405234801561001057600080fd5b50600436106100575760003560e01c806305608df51461005c578063125570a21461006657806338d941931461006e5780634ac56d5714610093578063f72d0b3b146100a6575b600080fd5b6100646100b9565b005b610064610119565b61008161007c3660046101fb565b610176565b60405190815260200160405180910390f35b6100646100a1366004610234565b61018d565b6100816100b4366004610213565b6101b8565b60005b600a8160ff16101561011657600160008260ff16600a81106100ee57634e487b7160e01b600052603260045260246000fd5b0160008282546100fe919061025d565b9091555081905061010e8161029e565b9150506100bc565b50565b60005b600a8160ff16101561011657600160008260ff16600a811061014e57634e487b7160e01b600052603260045260246000fd5b01600082825461015e919061025d565b9091555081905061016e8161029e565b91505061011c565b600081600a811061018657600080fd5b0154905081565b8060008360ff16600a81106101b257634e487b7160e01b600052603260045260246000fd5b01555050565b6000808260ff16600a81106101dd57634e487b7160e01b600052603260045260246000fd5b015492915050565b803560ff811681146101f657600080fd5b919050565b60006020828403121561020c578081fd5b5035919050565b600060208284031215610224578081fd5b61022d826101e5565b9392505050565b60008060408385031215610246578081fd5b61024f836101e5565b946020939093013593505050565b600080821280156001600160ff1b038490038513161561027f5761027f6102be565b600160ff1b8390038412811615610298576102986102be565b50500190565b600060ff821660ff8114156102b5576102b56102be565b60010192915050565b634e487b7160e01b600052601160045260246000fdfea264697066735822122088da685613601262bc81d52d82e3275252200a5714191c02e82f6d5e14a68af464736f6c63430008040033",
					"opcodes": "PUSH2 0x1C0 PUSH1 0x40 MSTORE PUSH1 0x2A PUSH1 0x80 SWAP1 DUP2 MSTORE PUSH1 0x55 NOT PUSH1 0xA0 MSTORE PUSH1 0x45 PUSH1 0xC0 MSTORE PUSH1 0x1E PUSH1 0xE0 MSTORE PUSH3 0x14E3A NOT PUSH2 0x100 MSTORE PUSH1 0x0 PUSH2 0x120 DUP2 SWAP1 MSTORE PUSH2 0x140 DUP2 SWAP1 MSTORE PUSH2 0x160 DUP2 SWAP1 MSTORE PUSH2 0x180 DUP2 SWAP1 MSTORE PUSH2 0x1A0 DUP2 SWAP1 MSTORE PUSH2 0x50 SWAP2 PUSH1 0xA PUSH2 0x63 JUMP JUMPDEST POP CALLVALUE DUP1 ISZERO PUSH2 0x5D JUMPI PUSH1 0x0 DUP1 REVERT JUMPDEST POP PUSH2 0xB6 JUMP JUMPDEST DUP3 PUSH1 0xA DUP2 ADD SWAP3 DUP3 ISZERO PUSH2 0x91 JUMPI SWAP2 PUSH1 0x20 MUL DUP3 ADD JUMPDEST DUP3 DUP2 GT ISZERO PUSH2 0x91 JUMPI DUP3 MLOAD DUP3 SSTORE SWAP2 PUSH1 0x20 ADD SWAP2 SWAP1 PUSH1 0x1 ADD SWAP1 PUSH2 0x76 JUMP JUMPDEST POP PUSH2 0x9D SWAP3 SWAP2 POP PUSH2 0xA1 JUMP JUMPDEST POP SWAP1 JUMP JUMPDEST JUMPDEST DUP1 DUP3 GT ISZERO PUSH2 0x9D JUMPI PUSH1 0x0 DUP2 SSTORE PUSH1 0x1 ADD PUSH2 0xA2 JUMP JUMPDEST PUSH2 0x30A DUP1 PUSH2 0xC5 PUSH1 0x0 CODECOPY PUSH1 0x0 RETURN INVALID PUSH1 0x80 PUSH1 0x40 MSTORE CALLVALUE DUP1 ISZERO PUSH2 0x10 JUMPI PUSH1 0x0 DUP1 REVERT JUMPDEST POP PUSH1 0x4 CALLDATASIZE LT PUSH2 0x57 JUMPI PUSH1 0x0 CALLDATALOAD PUSH1 0xE0 SHR DUP1 PUSH4 0x5608DF5 EQ PUSH2 0x5C JUMPI DUP1 PUSH4 0x125570A2 EQ PUSH2 0x66 JUMPI DUP1 PUSH4 0x38D94193 EQ PUSH2 0x6E JUMPI DUP1 PUSH4 0x4AC56D57 EQ PUSH2 0x93 JUMPI DUP1 PUSH4 0xF72D0B3B EQ PUSH2 0xA6 JUMPI JUMPDEST PUSH1 0x0 DUP1 REVERT JUMPDEST PUSH2 0x64 PUSH2 0xB9 JUMP JUMPDEST STOP JUMPDEST PUSH2 0x64 PUSH2 0x119 JUMP JUMPDEST PUSH2 0x81 PUSH2 0x7C CALLDATASIZE PUSH1 0x4 PUSH2 0x1FB JUMP JUMPDEST PUSH2 0x176 JUMP JUMPDEST PUSH1 0x40 MLOAD SWAP1 DUP2 MSTORE PUSH1 0x20 ADD PUSH1 0x40 MLOAD DUP1 SWAP2 SUB SWAP1 RETURN JUMPDEST PUSH2 0x64 PUSH2 0xA1 CALLDATASIZE PUSH1 0x4 PUSH2 0x234 JUMP JUMPDEST PUSH2 0x18D JUMP JUMPDEST PUSH2 0x81 PUSH2 0xB4 CALLDATASIZE PUSH1 0x4 PUSH2 0x213 JUMP JUMPDEST PUSH2 0x1B8 JUMP JUMPDEST PUSH1 0x0 JUMPDEST PUSH1 0xA DUP2 PUSH1 0xFF AND LT ISZERO PUSH2 0x116 JUMPI PUSH1 0x1 PUSH1 0x0 DUP3 PUSH1 0xFF AND PUSH1 0xA DUP2 LT PUSH2 0xEE JUMPI PUSH4 0x4E487B71 PUSH1 0xE0 SHL PUSH1 0x0 MSTORE PUSH1 0x32 PUSH1 0x4 MSTORE PUSH1 0x24 PUSH1 0x0 REVERT JUMPDEST ADD PUSH1 0x0 DUP3 DUP3 SLOAD PUSH2 0xFE SWAP2 SWAP1 PUSH2 0x25D JUMP JUMPDEST SWAP1 SWAP2 SSTORE POP DUP2 SWAP1 POP PUSH2 0x10E DUP2 PUSH2 0x29E JUMP JUMPDEST SWAP2 POP POP PUSH2 0xBC JUMP JUMPDEST POP JUMP JUMPDEST PUSH1 0x0 JUMPDEST PUSH1 0xA DUP2 PUSH1 0xFF AND LT ISZERO PUSH2 0x116 JUMPI PUSH1 0x1 PUSH1 0x0 DUP3 PUSH1 0xFF AND PUSH1 0xA DUP2 LT PUSH2 0x14E JUMPI PUSH4 0x4E487B71 PUSH1 0xE0 SHL PUSH1 0x0 MSTORE PUSH1 0x32 PUSH1 0x4 MSTORE PUSH1 0x24 PUSH1 0x0 REVERT JUMPDEST ADD PUSH1 0x0 DUP3 DUP3 SLOAD PUSH2 0x15E SWAP2 SWAP1 PUSH2 0x25D JUMP JUMPDEST SWAP1 SWAP2 SSTORE POP DUP2 SWAP1 POP PUSH2 0x16E DUP2 PUSH2 0x29E JUMP JUMPDEST SWAP2 POP POP PUSH2 0x11C JUMP JUMPDEST PUSH1 0x0 DUP2 PUSH1 0xA DUP2 LT PUSH2 0x186 JUMPI PUSH1 0x0 DUP1 REVERT JUMPDEST ADD SLOAD SWAP1 POP DUP2 JUMP JUMPDEST DUP1 PUSH1 0x0 DUP4 PUSH1 0xFF AND PUSH1 0xA DUP2 LT PUSH2 0x1B2 JUMPI PUSH4 0x4E487B71 PUSH1 0xE0 SHL PUSH1 0x0 MSTORE PUSH1 0x32 PUSH1 0x4 MSTORE PUSH1 0x24 PUSH1 0x0 REVERT JUMPDEST ADD SSTORE POP POP JUMP JUMPDEST PUSH1 0x0 DUP1 DUP3 PUSH1 0xFF AND PUSH1 0xA DUP2 LT PUSH2 0x1DD JUMPI PUSH4 0x4E487B71 PUSH1 0xE0 SHL PUSH1 0x0 MSTORE PUSH1 0x32 PUSH1 0x4 MSTORE PUSH1 0x24 PUSH1 0x0 REVERT JUMPDEST ADD SLOAD SWAP3 SWAP2 POP POP JUMP JUMPDEST DUP1 CALLDATALOAD PUSH1 0xFF DUP2 AND DUP2 EQ PUSH2 0x1F6 JUMPI PUSH1 0x0 DUP1 REVERT JUMPDEST SWAP2 SWAP1 POP JUMP JUMPDEST PUSH1 0x0 PUSH1 0x20 DUP3 DUP5 SUB SLT ISZERO PUSH2 0x20C JUMPI DUP1 DUP2 REVERT JUMPDEST POP CALLDATALOAD SWAP2 SWAP1 POP JUMP JUMPDEST PUSH1 0x0 PUSH1 0x20 DUP3 DUP5 SUB SLT ISZERO PUSH2 0x224 JUMPI DUP1 DUP2 REVERT JUMPDEST PUSH2 0x22D DUP3 PUSH2 0x1E5 JUMP JUMPDEST SWAP4 SWAP3 POP POP POP JUMP JUMPDEST PUSH1 0x0 DUP1 PUSH1 0x40 DUP4 DUP6 SUB SLT ISZERO PUSH2 0x246 JUMPI DUP1 DUP2 REVERT JUMPDEST PUSH2 0x24F DUP4 PUSH2 0x1E5 JUMP JUMPDEST SWAP5 PUSH1 0x20 SWAP4 SWAP1 SWAP4 ADD CALLDATALOAD SWAP4 POP POP POP JUMP JUMPDEST PUSH1 0x0 DUP1 DUP3 SLT DUP1 ISZERO PUSH1 0x1 PUSH1 0x1 PUSH1 0xFF SHL SUB DUP5 SWAP1 SUB DUP6 SGT AND ISZERO PUSH2 0x27F JUMPI PUSH2 0x27F PUSH2 0x2BE JUMP JUMPDEST PUSH1 0x1 PUSH1 0xFF SHL DUP4 SWAP1 SUB DUP5 SLT DUP2 AND ISZERO PUSH2 0x298 JUMPI PUSH2 0x298 PUSH2 0x2BE JUMP JUMPDEST POP POP ADD SWAP1 JUMP JUMPDEST PUSH1 0x0 PUSH1 0xFF DUP3 AND PUSH1 0xFF DUP2 EQ ISZERO PUSH2 0x2B5 JUMPI PUSH2 0x2B5 PUSH2 0x2BE JUMP JUMPDEST PUSH1 0x1 ADD SWAP3 SWAP2 POP POP JUMP JUMPDEST PUSH4 0x4E487B71 PUSH1 0xE0 SHL PUSH1 0x0 MSTORE PUSH1 0x11 PUSH1 0x4 MSTORE PUSH1 0x24 PUSH1 0x0 REVERT INVALID LOG2 PUSH5 0x6970667358 0x22 SLT KECCAK256 DUP9 0xDA PUSH9 0x5613601262BC81D52D DUP3 0xE3 0x27 MSTORE MSTORE KECCAK256 EXP JUMPI EQ NOT SHR MUL 0xE8 0x2F PUSH14 0x5E14A68AF464736F6C6343000804 STOP CALLER "
				},
				"gasEstimates": {
					"creation": {
						"codeDepositCost": "155600",
						"executionCost": "infinite",
						"totalCost": "infinite"
					},
					"external": {
						"array(uint256)": "1128",
						"get(uint8)": "1252",
						"icrementArrayFor()": "infinite",
						"incrementArrayWhile()": "infinite",
						"set(uint8,int256)": "20400"
					}
				},
				"methodIdentifiers": {
					"array(uint256)": "38d94193",
					"get(uint8)": "f72d0b3b",
					"icrementArrayFor()": "125570a2",
					"incrementArrayWhile()": "05608df5",
					"set(uint8,int256)": "4ac56d57"
				}
			},
			"storageLayout": {
				"storage": [
					{
						"astId": 48,
						"contract": "exercices/exo7/Boucles.sol:Array",
						"label": "array",
						"offset": 0,
						"slot": "0",
						"type": "t_array(t_int256)10_storage"
					}
				],
				"types": {
					"t_array(t_int256)10_storage": {
						"base": "t_int256",
						"encoding": "inplace",
						"label": "int256[10]",
						"numberOfBytes": "320"
					},
					"t_int256": {
						"encoding": "inplace",
						"label": "int256",
						"numberOfBytes": "32"
					}
				}
			},
			"userdoc": {
				"kind": "user",
				"methods": {},
				"version": 1
			}
		}
	}
}