{
	"data": {
		"bytecode": {
			"linkReferences": {},
			"object": "6080604052602a60015534801561001557600080fd5b506108c0806100256000396000f3fe608060405234801561001057600080fd5b506004361061004c5760003560e01c80633c010a3e146100515780638d65df2a1461006f578063c332c3be146100a0578063c79cf758146100d2575b600080fd5b610059610103565b6040516100669190610457565b60405180910390f35b610089600480360381019061008491906104c8565b610109565b604051610097929190610508565b60405180910390f35b6100ba60048036038101906100b591906104c8565b6102be565b6040516100c9939291906105a8565b60405180910390f35b6100ec60048036038101906100e791906105df565b61041a565b6040516100fa929190610508565b60405180910390f35b60015481565b6000806000831161014f576040517f08c379a00000000000000000000000000000000000000000000000000000000081526004016101469061068f565b60405180910390fd5b6001548360008087600481111561016957610168610531565b5b600481111561017b5761017a610531565b5b81526020019081526020016000206000015461019791906106de565b11156101d8576040517f08c379a00000000000000000000000000000000000000000000000000000000081526004016101cf9061075e565b60405180910390fd5b826000808660048111156101ef576101ee610531565b5b600481111561020157610200610531565b5b8152602001908152602001600020600001600082825461022191906106de565b925050819055508260008086600481111561023f5761023e610531565b5b600481111561025157610250610531565b5b8152602001908152602001600020600101600082825461027191906106de565b9250508190555060008085600481111561028e5761028d610531565b5b60048111156102a05761029f610531565b5b81526020019081526020016000206001015483915091509250929050565b6000806000808410610305576040517f08c379a00000000000000000000000000000000000000000000000000000000081526004016102fc906107ca565b60405180910390fd5b8360008087600481111561031c5761031b610531565b5b600481111561032e5761032d610531565b5b8152602001908152602001600020600101541015610381576040517f08c379a000000000000000000000000000000000000000000000000000000000815260040161037890610836565b60405180910390fd5b8360008087600481111561039857610397610531565b5b60048111156103aa576103a9610531565b5b815260200190815260200160002060010160008282546103ca9190610856565b9250508190555084846000808860048111156103e9576103e8610531565b5b60048111156103fb576103fa610531565b5b8152602001908152602001600020600101549250925092509250925092565b60006020528060005260406000206000915090508060000154908060010154905082565b6000819050919050565b6104518161043e565b82525050565b600060208201905061046c6000830184610448565b92915050565b600080fd5b6005811061048457600080fd5b50565b60008135905061049681610477565b92915050565b6104a58161043e565b81146104b057600080fd5b50565b6000813590506104c28161049c565b92915050565b600080604083850312156104df576104de610472565b5b60006104ed85828601610487565b92505060206104fe858286016104b3565b9150509250929050565b600060408201905061051d6000830185610448565b61052a6020830184610448565b9392505050565b7f4e487b7100000000000000000000000000000000000000000000000000000000600052602160045260246000fd5b6005811061057157610570610531565b5b50565b600081905061058282610560565b919050565b600061059282610574565b9050919050565b6105a281610587565b82525050565b60006060820190506105bd6000830186610599565b6105ca6020830185610448565b6105d76040830184610448565b949350505050565b6000602082840312156105f5576105f4610472565b5b600061060384828501610487565b91505092915050565b600082825260208201905092915050565b7f4c61207175616e7469746520646f69742065747265207375706572696575726560008201527f2061203000000000000000000000000000000000000000000000000000000000602082015250565b600061067960248361060c565b91506106848261061d565b604082019050919050565b600060208201905081810360008301526106a88161066c565b9050919050565b7f4e487b7100000000000000000000000000000000000000000000000000000000600052601160045260246000fd5b60006106e98261043e565b91506106f48361043e565b925082820190508082111561070c5761070b6106af565b5b92915050565b7f54726f7020616a6f757465000000000000000000000000000000000000000000600082015250565b6000610748600b8361060c565b915061075382610712565b602082019050919050565b600060208201905081810360008301526107778161073b565b9050919050565b7f50617320617373657a20646520706c61747320646973706f0000000000000000600082015250565b60006107b460188361060c565b91506107bf8261077e565b602082019050919050565b600060208201905081810360008301526107e3816107a7565b9050919050565b7f506c757320646520706c61747300000000000000000000000000000000000000600082015250565b6000610820600d8361060c565b915061082b826107ea565b602082019050919050565b6000602082019050818103600083015261084f81610813565b9050919050565b60006108618261043e565b915061086c8361043e565b9250828203905081811115610884576108836106af565b5b9291505056fea2646970667358221220f19e9fbe18dcc61a92614648dc106a475bcce19e7f82a68b5f2e5384da07473f64736f6c63430008120033",
			"opcodes": "PUSH1 0x80 PUSH1 0x40 MSTORE PUSH1 0x2A PUSH1 0x1 SSTORE CALLVALUE DUP1 ISZERO PUSH2 0x15 JUMPI PUSH1 0x0 DUP1 REVERT JUMPDEST POP PUSH2 0x8C0 DUP1 PUSH2 0x25 PUSH1 0x0 CODECOPY PUSH1 0x0 RETURN INVALID PUSH1 0x80 PUSH1 0x40 MSTORE CALLVALUE DUP1 ISZERO PUSH2 0x10 JUMPI PUSH1 0x0 DUP1 REVERT JUMPDEST POP PUSH1 0x4 CALLDATASIZE LT PUSH2 0x4C JUMPI PUSH1 0x0 CALLDATALOAD PUSH1 0xE0 SHR DUP1 PUSH4 0x3C010A3E EQ PUSH2 0x51 JUMPI DUP1 PUSH4 0x8D65DF2A EQ PUSH2 0x6F JUMPI DUP1 PUSH4 0xC332C3BE EQ PUSH2 0xA0 JUMPI DUP1 PUSH4 0xC79CF758 EQ PUSH2 0xD2 JUMPI JUMPDEST PUSH1 0x0 DUP1 REVERT JUMPDEST PUSH2 0x59 PUSH2 0x103 JUMP JUMPDEST PUSH1 0x40 MLOAD PUSH2 0x66 SWAP2 SWAP1 PUSH2 0x457 JUMP JUMPDEST PUSH1 0x40 MLOAD DUP1 SWAP2 SUB SWAP1 RETURN JUMPDEST PUSH2 0x89 PUSH1 0x4 DUP1 CALLDATASIZE SUB DUP2 ADD SWAP1 PUSH2 0x84 SWAP2 SWAP1 PUSH2 0x4C8 JUMP JUMPDEST PUSH2 0x109 JUMP JUMPDEST PUSH1 0x40 MLOAD PUSH2 0x97 SWAP3 SWAP2 SWAP1 PUSH2 0x508 JUMP JUMPDEST PUSH1 0x40 MLOAD DUP1 SWAP2 SUB SWAP1 RETURN JUMPDEST PUSH2 0xBA PUSH1 0x4 DUP1 CALLDATASIZE SUB DUP2 ADD SWAP1 PUSH2 0xB5 SWAP2 SWAP1 PUSH2 0x4C8 JUMP JUMPDEST PUSH2 0x2BE JUMP JUMPDEST PUSH1 0x40 MLOAD PUSH2 0xC9 SWAP4 SWAP3 SWAP2 SWAP1 PUSH2 0x5A8 JUMP JUMPDEST PUSH1 0x40 MLOAD DUP1 SWAP2 SUB SWAP1 RETURN JUMPDEST PUSH2 0xEC PUSH1 0x4 DUP1 CALLDATASIZE SUB DUP2 ADD SWAP1 PUSH2 0xE7 SWAP2 SWAP1 PUSH2 0x5DF JUMP JUMPDEST PUSH2 0x41A JUMP JUMPDEST PUSH1 0x40 MLOAD PUSH2 0xFA SWAP3 SWAP2 SWAP1 PUSH2 0x508 JUMP JUMPDEST PUSH1 0x40 MLOAD DUP1 SWAP2 SUB SWAP1 RETURN JUMPDEST PUSH1 0x1 SLOAD DUP2 JUMP JUMPDEST PUSH1 0x0 DUP1 PUSH1 0x0 DUP4 GT PUSH2 0x14F JUMPI PUSH1 0x40 MLOAD PUSH32 0x8C379A000000000000000000000000000000000000000000000000000000000 DUP2 MSTORE PUSH1 0x4 ADD PUSH2 0x146 SWAP1 PUSH2 0x68F JUMP JUMPDEST PUSH1 0x40 MLOAD DUP1 SWAP2 SUB SWAP1 REVERT JUMPDEST PUSH1 0x1 SLOAD DUP4 PUSH1 0x0 DUP1 DUP8 PUSH1 0x4 DUP2 GT ISZERO PUSH2 0x169 JUMPI PUSH2 0x168 PUSH2 0x531 JUMP JUMPDEST JUMPDEST PUSH1 0x4 DUP2 GT ISZERO PUSH2 0x17B JUMPI PUSH2 0x17A PUSH2 0x531 JUMP JUMPDEST JUMPDEST DUP2 MSTORE PUSH1 0x20 ADD SWAP1 DUP2 MSTORE PUSH1 0x20 ADD PUSH1 0x0 KECCAK256 PUSH1 0x0 ADD SLOAD PUSH2 0x197 SWAP2 SWAP1 PUSH2 0x6DE JUMP JUMPDEST GT ISZERO PUSH2 0x1D8 JUMPI PUSH1 0x40 MLOAD PUSH32 0x8C379A000000000000000000000000000000000000000000000000000000000 DUP2 MSTORE PUSH1 0x4 ADD PUSH2 0x1CF SWAP1 PUSH2 0x75E JUMP JUMPDEST PUSH1 0x40 MLOAD DUP1 SWAP2 SUB SWAP1 REVERT JUMPDEST DUP3 PUSH1 0x0 DUP1 DUP7 PUSH1 0x4 DUP2 GT ISZERO PUSH2 0x1EF JUMPI PUSH2 0x1EE PUSH2 0x531 JUMP JUMPDEST JUMPDEST PUSH1 0x4 DUP2 GT ISZERO PUSH2 0x201 JUMPI PUSH2 0x200 PUSH2 0x531 JUMP JUMPDEST JUMPDEST DUP2 MSTORE PUSH1 0x20 ADD SWAP1 DUP2 MSTORE PUSH1 0x20 ADD PUSH1 0x0 KECCAK256 PUSH1 0x0 ADD PUSH1 0x0 DUP3 DUP3 SLOAD PUSH2 0x221 SWAP2 SWAP1 PUSH2 0x6DE JUMP JUMPDEST SWAP3 POP POP DUP2 SWAP1 SSTORE POP DUP3 PUSH1 0x0 DUP1 DUP7 PUSH1 0x4 DUP2 GT ISZERO PUSH2 0x23F JUMPI PUSH2 0x23E PUSH2 0x531 JUMP JUMPDEST JUMPDEST PUSH1 0x4 DUP2 GT ISZERO PUSH2 0x251 JUMPI PUSH2 0x250 PUSH2 0x531 JUMP JUMPDEST JUMPDEST DUP2 MSTORE PUSH1 0x20 ADD SWAP1 DUP2 MSTORE PUSH1 0x20 ADD PUSH1 0x0 KECCAK256 PUSH1 0x1 ADD PUSH1 0x0 DUP3 DUP3 SLOAD PUSH2 0x271 SWAP2 SWAP1 PUSH2 0x6DE JUMP JUMPDEST SWAP3 POP POP DUP2 SWAP1 SSTORE POP PUSH1 0x0 DUP1 DUP6 PUSH1 0x4 DUP2 GT ISZERO PUSH2 0x28E JUMPI PUSH2 0x28D PUSH2 0x531 JUMP JUMPDEST JUMPDEST PUSH1 0x4 DUP2 GT ISZERO PUSH2 0x2A0 JUMPI PUSH2 0x29F PUSH2 0x531 JUMP JUMPDEST JUMPDEST DUP2 MSTORE PUSH1 0x20 ADD SWAP1 DUP2 MSTORE PUSH1 0x20 ADD PUSH1 0x0 KECCAK256 PUSH1 0x1 ADD SLOAD DUP4 SWAP2 POP SWAP2 POP SWAP3 POP SWAP3 SWAP1 POP JUMP JUMPDEST PUSH1 0x0 DUP1 PUSH1 0x0 DUP1 DUP5 LT PUSH2 0x305 JUMPI PUSH1 0x40 MLOAD PUSH32 0x8C379A000000000000000000000000000000000000000000000000000000000 DUP2 MSTORE PUSH1 0x4 ADD PUSH2 0x2FC SWAP1 PUSH2 0x7CA JUMP JUMPDEST PUSH1 0x40 MLOAD DUP1 SWAP2 SUB SWAP1 REVERT JUMPDEST DUP4 PUSH1 0x0 DUP1 DUP8 PUSH1 0x4 DUP2 GT ISZERO PUSH2 0x31C JUMPI PUSH2 0x31B PUSH2 0x531 JUMP JUMPDEST JUMPDEST PUSH1 0x4 DUP2 GT ISZERO PUSH2 0x32E JUMPI PUSH2 0x32D PUSH2 0x531 JUMP JUMPDEST JUMPDEST DUP2 MSTORE PUSH1 0x20 ADD SWAP1 DUP2 MSTORE PUSH1 0x20 ADD PUSH1 0x0 KECCAK256 PUSH1 0x1 ADD SLOAD LT ISZERO PUSH2 0x381 JUMPI PUSH1 0x40 MLOAD PUSH32 0x8C379A000000000000000000000000000000000000000000000000000000000 DUP2 MSTORE PUSH1 0x4 ADD PUSH2 0x378 SWAP1 PUSH2 0x836 JUMP JUMPDEST PUSH1 0x40 MLOAD DUP1 SWAP2 SUB SWAP1 REVERT JUMPDEST DUP4 PUSH1 0x0 DUP1 DUP8 PUSH1 0x4 DUP2 GT ISZERO PUSH2 0x398 JUMPI PUSH2 0x397 PUSH2 0x531 JUMP JUMPDEST JUMPDEST PUSH1 0x4 DUP2 GT ISZERO PUSH2 0x3AA JUMPI PUSH2 0x3A9 PUSH2 0x531 JUMP JUMPDEST JUMPDEST DUP2 MSTORE PUSH1 0x20 ADD SWAP1 DUP2 MSTORE PUSH1 0x20 ADD PUSH1 0x0 KECCAK256 PUSH1 0x1 ADD PUSH1 0x0 DUP3 DUP3 SLOAD PUSH2 0x3CA SWAP2 SWAP1 PUSH2 0x856 JUMP JUMPDEST SWAP3 POP POP DUP2 SWAP1 SSTORE POP DUP5 DUP5 PUSH1 0x0 DUP1 DUP9 PUSH1 0x4 DUP2 GT ISZERO PUSH2 0x3E9 JUMPI PUSH2 0x3E8 PUSH2 0x531 JUMP JUMPDEST JUMPDEST PUSH1 0x4 DUP2 GT ISZERO PUSH2 0x3FB JUMPI PUSH2 0x3FA PUSH2 0x531 JUMP JUMPDEST JUMPDEST DUP2 MSTORE PUSH1 0x20 ADD SWAP1 DUP2 MSTORE PUSH1 0x20 ADD PUSH1 0x0 KECCAK256 PUSH1 0x1 ADD SLOAD SWAP3 POP SWAP3 POP SWAP3 POP SWAP3 POP SWAP3 POP SWAP3 JUMP JUMPDEST PUSH1 0x0 PUSH1 0x20 MSTORE DUP1 PUSH1 0x0 MSTORE PUSH1 0x40 PUSH1 0x0 KECCAK256 PUSH1 0x0 SWAP2 POP SWAP1 POP DUP1 PUSH1 0x0 ADD SLOAD SWAP1 DUP1 PUSH1 0x1 ADD SLOAD SWAP1 POP DUP3 JUMP JUMPDEST PUSH1 0x0 DUP2 SWAP1 POP SWAP2 SWAP1 POP JUMP JUMPDEST PUSH2 0x451 DUP2 PUSH2 0x43E JUMP JUMPDEST DUP3 MSTORE POP POP JUMP JUMPDEST PUSH1 0x0 PUSH1 0x20 DUP3 ADD SWAP1 POP PUSH2 0x46C PUSH1 0x0 DUP4 ADD DUP5 PUSH2 0x448 JUMP JUMPDEST SWAP3 SWAP2 POP POP JUMP JUMPDEST PUSH1 0x0 DUP1 REVERT JUMPDEST PUSH1 0x5 DUP2 LT PUSH2 0x484 JUMPI PUSH1 0x0 DUP1 REVERT JUMPDEST POP JUMP JUMPDEST PUSH1 0x0 DUP2 CALLDATALOAD SWAP1 POP PUSH2 0x496 DUP2 PUSH2 0x477 JUMP JUMPDEST SWAP3 SWAP2 POP POP JUMP JUMPDEST PUSH2 0x4A5 DUP2 PUSH2 0x43E JUMP JUMPDEST DUP2 EQ PUSH2 0x4B0 JUMPI PUSH1 0x0 DUP1 REVERT JUMPDEST POP JUMP JUMPDEST PUSH1 0x0 DUP2 CALLDATALOAD SWAP1 POP PUSH2 0x4C2 DUP2 PUSH2 0x49C JUMP JUMPDEST SWAP3 SWAP2 POP POP JUMP JUMPDEST PUSH1 0x0 DUP1 PUSH1 0x40 DUP4 DUP6 SUB SLT ISZERO PUSH2 0x4DF JUMPI PUSH2 0x4DE PUSH2 0x472 JUMP JUMPDEST JUMPDEST PUSH1 0x0 PUSH2 0x4ED DUP6 DUP3 DUP7 ADD PUSH2 0x487 JUMP JUMPDEST SWAP3 POP POP PUSH1 0x20 PUSH2 0x4FE DUP6 DUP3 DUP7 ADD PUSH2 0x4B3 JUMP JUMPDEST SWAP2 POP POP SWAP3 POP SWAP3 SWAP1 POP JUMP JUMPDEST PUSH1 0x0 PUSH1 0x40 DUP3 ADD SWAP1 POP PUSH2 0x51D PUSH1 0x0 DUP4 ADD DUP6 PUSH2 0x448 JUMP JUMPDEST PUSH2 0x52A PUSH1 0x20 DUP4 ADD DUP5 PUSH2 0x448 JUMP JUMPDEST SWAP4 SWAP3 POP POP POP JUMP JUMPDEST PUSH32 0x4E487B7100000000000000000000000000000000000000000000000000000000 PUSH1 0x0 MSTORE PUSH1 0x21 PUSH1 0x4 MSTORE PUSH1 0x24 PUSH1 0x0 REVERT JUMPDEST PUSH1 0x5 DUP2 LT PUSH2 0x571 JUMPI PUSH2 0x570 PUSH2 0x531 JUMP JUMPDEST JUMPDEST POP JUMP JUMPDEST PUSH1 0x0 DUP2 SWAP1 POP PUSH2 0x582 DUP3 PUSH2 0x560 JUMP JUMPDEST SWAP2 SWAP1 POP JUMP JUMPDEST PUSH1 0x0 PUSH2 0x592 DUP3 PUSH2 0x574 JUMP JUMPDEST SWAP1 POP SWAP2 SWAP1 POP JUMP JUMPDEST PUSH2 0x5A2 DUP2 PUSH2 0x587 JUMP JUMPDEST DUP3 MSTORE POP POP JUMP JUMPDEST PUSH1 0x0 PUSH1 0x60 DUP3 ADD SWAP1 POP PUSH2 0x5BD PUSH1 0x0 DUP4 ADD DUP7 PUSH2 0x599 JUMP JUMPDEST PUSH2 0x5CA PUSH1 0x20 DUP4 ADD DUP6 PUSH2 0x448 JUMP JUMPDEST PUSH2 0x5D7 PUSH1 0x40 DUP4 ADD DUP5 PUSH2 0x448 JUMP JUMPDEST SWAP5 SWAP4 POP POP POP POP JUMP JUMPDEST PUSH1 0x0 PUSH1 0x20 DUP3 DUP5 SUB SLT ISZERO PUSH2 0x5F5 JUMPI PUSH2 0x5F4 PUSH2 0x472 JUMP JUMPDEST JUMPDEST PUSH1 0x0 PUSH2 0x603 DUP5 DUP3 DUP6 ADD PUSH2 0x487 JUMP JUMPDEST SWAP2 POP POP SWAP3 SWAP2 POP POP JUMP JUMPDEST PUSH1 0x0 DUP3 DUP3 MSTORE PUSH1 0x20 DUP3 ADD SWAP1 POP SWAP3 SWAP2 POP POP JUMP JUMPDEST PUSH32 0x4C61207175616E7469746520646F697420657472652073757065726965757265 PUSH1 0x0 DUP3 ADD MSTORE PUSH32 0x2061203000000000000000000000000000000000000000000000000000000000 PUSH1 0x20 DUP3 ADD MSTORE POP JUMP JUMPDEST PUSH1 0x0 PUSH2 0x679 PUSH1 0x24 DUP4 PUSH2 0x60C JUMP JUMPDEST SWAP2 POP PUSH2 0x684 DUP3 PUSH2 0x61D JUMP JUMPDEST PUSH1 0x40 DUP3 ADD SWAP1 POP SWAP2 SWAP1 POP JUMP JUMPDEST PUSH1 0x0 PUSH1 0x20 DUP3 ADD SWAP1 POP DUP2 DUP2 SUB PUSH1 0x0 DUP4 ADD MSTORE PUSH2 0x6A8 DUP2 PUSH2 0x66C JUMP JUMPDEST SWAP1 POP SWAP2 SWAP1 POP JUMP JUMPDEST PUSH32 0x4E487B7100000000000000000000000000000000000000000000000000000000 PUSH1 0x0 MSTORE PUSH1 0x11 PUSH1 0x4 MSTORE PUSH1 0x24 PUSH1 0x0 REVERT JUMPDEST PUSH1 0x0 PUSH2 0x6E9 DUP3 PUSH2 0x43E JUMP JUMPDEST SWAP2 POP PUSH2 0x6F4 DUP4 PUSH2 0x43E JUMP JUMPDEST SWAP3 POP DUP3 DUP3 ADD SWAP1 POP DUP1 DUP3 GT ISZERO PUSH2 0x70C JUMPI PUSH2 0x70B PUSH2 0x6AF JUMP JUMPDEST JUMPDEST SWAP3 SWAP2 POP POP JUMP JUMPDEST PUSH32 0x54726F7020616A6F757465000000000000000000000000000000000000000000 PUSH1 0x0 DUP3 ADD MSTORE POP JUMP JUMPDEST PUSH1 0x0 PUSH2 0x748 PUSH1 0xB DUP4 PUSH2 0x60C JUMP JUMPDEST SWAP2 POP PUSH2 0x753 DUP3 PUSH2 0x712 JUMP JUMPDEST PUSH1 0x20 DUP3 ADD SWAP1 POP SWAP2 SWAP1 POP JUMP JUMPDEST PUSH1 0x0 PUSH1 0x20 DUP3 ADD SWAP1 POP DUP2 DUP2 SUB PUSH1 0x0 DUP4 ADD MSTORE PUSH2 0x777 DUP2 PUSH2 0x73B JUMP JUMPDEST SWAP1 POP SWAP2 SWAP1 POP JUMP JUMPDEST PUSH32 0x50617320617373657A20646520706C61747320646973706F0000000000000000 PUSH1 0x0 DUP3 ADD MSTORE POP JUMP JUMPDEST PUSH1 0x0 PUSH2 0x7B4 PUSH1 0x18 DUP4 PUSH2 0x60C JUMP JUMPDEST SWAP2 POP PUSH2 0x7BF DUP3 PUSH2 0x77E JUMP JUMPDEST PUSH1 0x20 DUP3 ADD SWAP1 POP SWAP2 SWAP1 POP JUMP JUMPDEST PUSH1 0x0 PUSH1 0x20 DUP3 ADD SWAP1 POP DUP2 DUP2 SUB PUSH1 0x0 DUP4 ADD MSTORE PUSH2 0x7E3 DUP2 PUSH2 0x7A7 JUMP JUMPDEST SWAP1 POP SWAP2 SWAP1 POP JUMP JUMPDEST PUSH32 0x506C757320646520706C61747300000000000000000000000000000000000000 PUSH1 0x0 DUP3 ADD MSTORE POP JUMP JUMPDEST PUSH1 0x0 PUSH2 0x820 PUSH1 0xD DUP4 PUSH2 0x60C JUMP JUMPDEST SWAP2 POP PUSH2 0x82B DUP3 PUSH2 0x7EA JUMP JUMPDEST PUSH1 0x20 DUP3 ADD SWAP1 POP SWAP2 SWAP1 POP JUMP JUMPDEST PUSH1 0x0 PUSH1 0x20 DUP3 ADD SWAP1 POP DUP2 DUP2 SUB PUSH1 0x0 DUP4 ADD MSTORE PUSH2 0x84F DUP2 PUSH2 0x813 JUMP JUMPDEST SWAP1 POP SWAP2 SWAP1 POP JUMP JUMPDEST PUSH1 0x0 PUSH2 0x861 DUP3 PUSH2 0x43E JUMP JUMPDEST SWAP2 POP PUSH2 0x86C DUP4 PUSH2 0x43E JUMP JUMPDEST SWAP3 POP DUP3 DUP3 SUB SWAP1 POP DUP2 DUP2 GT ISZERO PUSH2 0x884 JUMPI PUSH2 0x883 PUSH2 0x6AF JUMP JUMPDEST JUMPDEST SWAP3 SWAP2 POP POP JUMP INVALID LOG2 PUSH5 0x6970667358 0x22 SLT KECCAK256 CALL SWAP15 SWAP16 0xBE XOR 0xDC 0xC6 BYTE SWAP3 PUSH2 0x4648 0xDC LT PUSH11 0x475BCCE19E7F82A68B5F2E MSTORE8 DUP5 0xDA SMOD SELFBALANCE EXTCODEHASH PUSH5 0x736F6C6343 STOP ADDMOD SLT STOP CALLER "
		},
		"gasEstimates": {
			"creation": {
				"codeDepositCost": "448000",
				"executionCost": "22586",
				"totalCost": "470586"
			},
			"external": {
				"dishQuantity(uint8)": "infinite",
				"fillDish(uint8,uint256)": "infinite",
				"getDish(uint8,uint256)": "875",
				"maxItems()": "2407"
			}
		},
		"methodIdentifiers": {
			"dishQuantity(uint8)": "c79cf758",
			"fillDish(uint8,uint256)": "8d65df2a",
			"getDish(uint8,uint256)": "c332c3be",
			"maxItems()": "3c010a3e"
		}
	},
	"abi": [
		{
			"inputs": [
				{
					"internalType": "enum RushChapterI.Dish",
					"name": "",
					"type": "uint8"
				}
			],
			"name": "dishQuantity",
			"outputs": [
				{
					"internalType": "uint256",
					"name": "quantity",
					"type": "uint256"
				},
				{
					"internalType": "uint256",
					"name": "remaining",
					"type": "uint256"
				}
			],
			"stateMutability": "view",
			"type": "function"
		},
		{
			"inputs": [
				{
					"internalType": "enum RushChapterI.Dish",
					"name": "dish",
					"type": "uint8"
				},
				{
					"internalType": "uint256",
					"name": "quantity",
					"type": "uint256"
				}
			],
			"name": "fillDish",
			"outputs": [
				{
					"internalType": "uint256",
					"name": "",
					"type": "uint256"
				},
				{
					"internalType": "uint256",
					"name": "",
					"type": "uint256"
				}
			],
			"stateMutability": "nonpayable",
			"type": "function"
		},
		{
			"inputs": [
				{
					"internalType": "enum RushChapterI.Dish",
					"name": "dish",
					"type": "uint8"
				},
				{
					"internalType": "uint256",
					"name": "quantity",
					"type": "uint256"
				}
			],
			"name": "getDish",
			"outputs": [
				{
					"internalType": "enum RushChapterI.Dish",
					"name": "",
					"type": "uint8"
				},
				{
					"internalType": "uint256",
					"name": "",
					"type": "uint256"
				},
				{
					"internalType": "uint256",
					"name": "",
					"type": "uint256"
				}
			],
			"stateMutability": "nonpayable",
			"type": "function"
		},
		{
			"inputs": [],
			"name": "maxItems",
			"outputs": [
				{
					"internalType": "uint256",
					"name": "",
					"type": "uint256"
				}
			],
			"stateMutability": "view",
			"type": "function"
		}
	]
}