{
	"data": {
		"bytecode": {
			"linkReferences": {
				"remix_tests.sol": {
					"Assert": [
						{
							"length": 20,
							"start": 596
						},
						{
							"length": 20,
							"start": 788
						}
					]
				}
			},
			"object": "608060405234801561001057600080fd5b5060405161001d9061005f565b604051809103906000f080158015610039573d6000803e3d6000fd5b50600080546001600160a01b0319166001600160a01b039290921691909117905561006c565b61041e806104dd83390190565b6104628061007b6000396000f3fe608060405234801561001057600080fd5b50600436106100365760003560e01c806336712b1e1461003b5780637f8e9f1a1461006a575b600080fd5b60005461004e906001600160a01b031681565b6040516001600160a01b03909116815260200160405180910390f35b610072610074565b005b600080546040516318f39eeb60e31b815282916001600160a01b03169063c79cf758906100a590849060040161038f565b6040805180830381865afa1580156100c1573d6000803e3d6000fd5b505050506040513d601f19601f820116820180604052508101906100e591906103a3565b600080546040516346b2ef9560e11b81529395509193506001600160a01b0390911691638d65df2a9161011d916005906004016103c7565b60408051808303816000875af115801561013b573d6000803e3d6000fd5b505050506040513d601f19601f8201168201806040525081019061015f91906103a3565b5050600080546040516318f39eeb60e31b815282916001600160a01b03169063c79cf7589061019290849060040161038f565b6040805180830381865afa1580156101ae573d6000803e3d6000fd5b505050506040513d601f19601f820116820180604052508101906101d291906103a3565b909250905073__$acbfb1c35000d78352310b16a054a6b106$__63abcd7960836101fd8760056103e2565b6040516001600160e01b031960e085901b1681526004810192909252602482015260606044820152601a60648201527f496e636f72726563742075706461746564207175616e74697479000000000000608482015260a401602060405180830381865af4158015610272573d6000803e3d6000fd5b505050506040513d601f19601f820116820180604052508101906102969190610403565b5073__$acbfb1c35000d78352310b16a054a6b106$__63abcd7960826102bd8660056103e2565b6040518363ffffffff1660e01b815260040161032592919091825260208201526060604082018190526024908201527f496e636f727265637420757064617465642072656d61696e696e67207175616e6080820152637469747960e01b60a082015260c00190565b602060405180830381865af4158015610342573d6000803e3d6000fd5b505050506040513d601f19601f820116820180604052508101906103669190610403565b5050505050565b6005811061038b57634e487b7160e01b600052602160045260246000fd5b9052565b6020810161039d828461036d565b92915050565b600080604083850312156103b657600080fd5b505080516020909101519092909150565b604081016103d5828561036d565b8260208301529392505050565b8082018082111561039d57634e487b7160e01b600052601160045260246000fd5b60006020828403121561041557600080fd5b8151801515811461042557600080fd5b939250505056fea2646970667358221220321acecd63b72c579b7656b685a11d57747f96e840d9d71bc2dd0c3c7cef38f464736f6c634300081200336080604052602a60015534801561001557600080fd5b506103f9806100256000396000f3fe608060405234801561001057600080fd5b506004361061004c5760003560e01c80633c010a3e146100515780638d65df2a1461006d578063c332c3be14610095578063c79cf758146100b7575b600080fd5b61005a60015481565b6040519081526020015b60405180910390f35b61008061007b3660046102fc565b6100de565b60408051928352602083019190915201610064565b6100a86100a33660046102fc565b61029a565b6040516100649392919061033c565b6100806100c5366004610372565b6000602081905290815260409020805460019091015482565b600080600083116101365760405162461bcd60e51b815260206004820152601760248201527f5175616e74697479206d757374206265206f766572203000000000000000000060448201526064015b60405180910390fd5b6001548360008087600481111561014f5761014f610326565b600481111561016057610160610326565b81526020019081526020016000206000015461017c91906103aa565b11156101be5760405162461bcd60e51b8152602060048201526011602482015270546f6f206d756368207175616e7469747960781b604482015260640161012d565b826000808660048111156101d4576101d4610326565b60048111156101e5576101e5610326565b8152602001908152602001600020600001600082825461020591906103aa565b9091555083905060008086600481111561022157610221610326565b600481111561023257610232610326565b8152602001908152602001600020600101600082825461025291906103aa565b90915550600090508085600481111561026d5761026d610326565b600481111561027e5761027e610326565b8152602081019190915260400160002060010154949293505050565b6000808060405162461bcd60e51b815260040161012d906020808252601b908201527f4e6f7420656e6f7567682064697368657320617661696c61626c650000000000604082015260600190565b8035600581106102f757600080fd5b919050565b6000806040838503121561030f57600080fd5b610318836102e8565b946020939093013593505050565b634e487b7160e01b600052602160045260246000fd5b606081016005851061035e57634e487b7160e01b600052602160045260246000fd5b938152602081019290925260409091015290565b60006020828403121561038457600080fd5b61038d826102e8565b9392505050565b634e487b7160e01b600052601160045260246000fd5b808201808211156103bd576103bd610394565b9291505056fea2646970667358221220cbffb117e57509a29a30a1a57bc2b54e3ee04f404149519cc01b8cb2c268b17264736f6c63430008120033",
			"opcodes": "PUSH1 0x80 PUSH1 0x40 MSTORE CALLVALUE DUP1 ISZERO PUSH2 0x10 JUMPI PUSH1 0x0 DUP1 REVERT JUMPDEST POP PUSH1 0x40 MLOAD PUSH2 0x1D SWAP1 PUSH2 0x5F JUMP JUMPDEST PUSH1 0x40 MLOAD DUP1 SWAP2 SUB SWAP1 PUSH1 0x0 CREATE DUP1 ISZERO DUP1 ISZERO PUSH2 0x39 JUMPI RETURNDATASIZE PUSH1 0x0 DUP1 RETURNDATACOPY RETURNDATASIZE PUSH1 0x0 REVERT JUMPDEST POP PUSH1 0x0 DUP1 SLOAD PUSH1 0x1 PUSH1 0x1 PUSH1 0xA0 SHL SUB NOT AND PUSH1 0x1 PUSH1 0x1 PUSH1 0xA0 SHL SUB SWAP3 SWAP1 SWAP3 AND SWAP2 SWAP1 SWAP2 OR SWAP1 SSTORE PUSH2 0x6C JUMP JUMPDEST PUSH2 0x41E DUP1 PUSH2 0x4DD DUP4 CODECOPY ADD SWAP1 JUMP JUMPDEST PUSH2 0x462 DUP1 PUSH2 0x7B PUSH1 0x0 CODECOPY PUSH1 0x0 RETURN INVALID PUSH1 0x80 PUSH1 0x40 MSTORE CALLVALUE DUP1 ISZERO PUSH2 0x10 JUMPI PUSH1 0x0 DUP1 REVERT JUMPDEST POP PUSH1 0x4 CALLDATASIZE LT PUSH2 0x36 JUMPI PUSH1 0x0 CALLDATALOAD PUSH1 0xE0 SHR DUP1 PUSH4 0x36712B1E EQ PUSH2 0x3B JUMPI DUP1 PUSH4 0x7F8E9F1A EQ PUSH2 0x6A JUMPI JUMPDEST PUSH1 0x0 DUP1 REVERT JUMPDEST PUSH1 0x0 SLOAD PUSH2 0x4E SWAP1 PUSH1 0x1 PUSH1 0x1 PUSH1 0xA0 SHL SUB AND DUP2 JUMP JUMPDEST PUSH1 0x40 MLOAD PUSH1 0x1 PUSH1 0x1 PUSH1 0xA0 SHL SUB SWAP1 SWAP2 AND DUP2 MSTORE PUSH1 0x20 ADD PUSH1 0x40 MLOAD DUP1 SWAP2 SUB SWAP1 RETURN JUMPDEST PUSH2 0x72 PUSH2 0x74 JUMP JUMPDEST STOP JUMPDEST PUSH1 0x0 DUP1 SLOAD PUSH1 0x40 MLOAD PUSH4 0x18F39EEB PUSH1 0xE3 SHL DUP2 MSTORE DUP3 SWAP2 PUSH1 0x1 PUSH1 0x1 PUSH1 0xA0 SHL SUB AND SWAP1 PUSH4 0xC79CF758 SWAP1 PUSH2 0xA5 SWAP1 DUP5 SWAP1 PUSH1 0x4 ADD PUSH2 0x38F JUMP JUMPDEST PUSH1 0x40 DUP1 MLOAD DUP1 DUP4 SUB DUP2 DUP7 GAS STATICCALL ISZERO DUP1 ISZERO PUSH2 0xC1 JUMPI RETURNDATASIZE PUSH1 0x0 DUP1 RETURNDATACOPY RETURNDATASIZE PUSH1 0x0 REVERT JUMPDEST POP POP POP POP PUSH1 0x40 MLOAD RETURNDATASIZE PUSH1 0x1F NOT PUSH1 0x1F DUP3 ADD AND DUP3 ADD DUP1 PUSH1 0x40 MSTORE POP DUP2 ADD SWAP1 PUSH2 0xE5 SWAP2 SWAP1 PUSH2 0x3A3 JUMP JUMPDEST PUSH1 0x0 DUP1 SLOAD PUSH1 0x40 MLOAD PUSH4 0x46B2EF95 PUSH1 0xE1 SHL DUP2 MSTORE SWAP4 SWAP6 POP SWAP2 SWAP4 POP PUSH1 0x1 PUSH1 0x1 PUSH1 0xA0 SHL SUB SWAP1 SWAP2 AND SWAP2 PUSH4 0x8D65DF2A SWAP2 PUSH2 0x11D SWAP2 PUSH1 0x5 SWAP1 PUSH1 0x4 ADD PUSH2 0x3C7 JUMP JUMPDEST PUSH1 0x40 DUP1 MLOAD DUP1 DUP4 SUB DUP2 PUSH1 0x0 DUP8 GAS CALL ISZERO DUP1 ISZERO PUSH2 0x13B JUMPI RETURNDATASIZE PUSH1 0x0 DUP1 RETURNDATACOPY RETURNDATASIZE PUSH1 0x0 REVERT JUMPDEST POP POP POP POP PUSH1 0x40 MLOAD RETURNDATASIZE PUSH1 0x1F NOT PUSH1 0x1F DUP3 ADD AND DUP3 ADD DUP1 PUSH1 0x40 MSTORE POP DUP2 ADD SWAP1 PUSH2 0x15F SWAP2 SWAP1 PUSH2 0x3A3 JUMP JUMPDEST POP POP PUSH1 0x0 DUP1 SLOAD PUSH1 0x40 MLOAD PUSH4 0x18F39EEB PUSH1 0xE3 SHL DUP2 MSTORE DUP3 SWAP2 PUSH1 0x1 PUSH1 0x1 PUSH1 0xA0 SHL SUB AND SWAP1 PUSH4 0xC79CF758 SWAP1 PUSH2 0x192 SWAP1 DUP5 SWAP1 PUSH1 0x4 ADD PUSH2 0x38F JUMP JUMPDEST PUSH1 0x40 DUP1 MLOAD DUP1 DUP4 SUB DUP2 DUP7 GAS STATICCALL ISZERO DUP1 ISZERO PUSH2 0x1AE JUMPI RETURNDATASIZE PUSH1 0x0 DUP1 RETURNDATACOPY RETURNDATASIZE PUSH1 0x0 REVERT JUMPDEST POP POP POP POP PUSH1 0x40 MLOAD RETURNDATASIZE PUSH1 0x1F NOT PUSH1 0x1F DUP3 ADD AND DUP3 ADD DUP1 PUSH1 0x40 MSTORE POP DUP2 ADD SWAP1 PUSH2 0x1D2 SWAP2 SWAP1 PUSH2 0x3A3 JUMP JUMPDEST SWAP1 SWAP3 POP SWAP1 POP PUSH20 0x0 PUSH4 0xABCD7960 DUP4 PUSH2 0x1FD DUP8 PUSH1 0x5 PUSH2 0x3E2 JUMP JUMPDEST PUSH1 0x40 MLOAD PUSH1 0x1 PUSH1 0x1 PUSH1 0xE0 SHL SUB NOT PUSH1 0xE0 DUP6 SWAP1 SHL AND DUP2 MSTORE PUSH1 0x4 DUP2 ADD SWAP3 SWAP1 SWAP3 MSTORE PUSH1 0x24 DUP3 ADD MSTORE PUSH1 0x60 PUSH1 0x44 DUP3 ADD MSTORE PUSH1 0x1A PUSH1 0x64 DUP3 ADD MSTORE PUSH32 0x496E636F72726563742075706461746564207175616E74697479000000000000 PUSH1 0x84 DUP3 ADD MSTORE PUSH1 0xA4 ADD PUSH1 0x20 PUSH1 0x40 MLOAD DUP1 DUP4 SUB DUP2 DUP7 GAS DELEGATECALL ISZERO DUP1 ISZERO PUSH2 0x272 JUMPI RETURNDATASIZE PUSH1 0x0 DUP1 RETURNDATACOPY RETURNDATASIZE PUSH1 0x0 REVERT JUMPDEST POP POP POP POP PUSH1 0x40 MLOAD RETURNDATASIZE PUSH1 0x1F NOT PUSH1 0x1F DUP3 ADD AND DUP3 ADD DUP1 PUSH1 0x40 MSTORE POP DUP2 ADD SWAP1 PUSH2 0x296 SWAP2 SWAP1 PUSH2 0x403 JUMP JUMPDEST POP PUSH20 0x0 PUSH4 0xABCD7960 DUP3 PUSH2 0x2BD DUP7 PUSH1 0x5 PUSH2 0x3E2 JUMP JUMPDEST PUSH1 0x40 MLOAD DUP4 PUSH4 0xFFFFFFFF AND PUSH1 0xE0 SHL DUP2 MSTORE PUSH1 0x4 ADD PUSH2 0x325 SWAP3 SWAP2 SWAP1 SWAP2 DUP3 MSTORE PUSH1 0x20 DUP3 ADD MSTORE PUSH1 0x60 PUSH1 0x40 DUP3 ADD DUP2 SWAP1 MSTORE PUSH1 0x24 SWAP1 DUP3 ADD MSTORE PUSH32 0x496E636F727265637420757064617465642072656D61696E696E67207175616E PUSH1 0x80 DUP3 ADD MSTORE PUSH4 0x74697479 PUSH1 0xE0 SHL PUSH1 0xA0 DUP3 ADD MSTORE PUSH1 0xC0 ADD SWAP1 JUMP JUMPDEST PUSH1 0x20 PUSH1 0x40 MLOAD DUP1 DUP4 SUB DUP2 DUP7 GAS DELEGATECALL ISZERO DUP1 ISZERO PUSH2 0x342 JUMPI RETURNDATASIZE PUSH1 0x0 DUP1 RETURNDATACOPY RETURNDATASIZE PUSH1 0x0 REVERT JUMPDEST POP POP POP POP PUSH1 0x40 MLOAD RETURNDATASIZE PUSH1 0x1F NOT PUSH1 0x1F DUP3 ADD AND DUP3 ADD DUP1 PUSH1 0x40 MSTORE POP DUP2 ADD SWAP1 PUSH2 0x366 SWAP2 SWAP1 PUSH2 0x403 JUMP JUMPDEST POP POP POP POP POP JUMP JUMPDEST PUSH1 0x5 DUP2 LT PUSH2 0x38B JUMPI PUSH4 0x4E487B71 PUSH1 0xE0 SHL PUSH1 0x0 MSTORE PUSH1 0x21 PUSH1 0x4 MSTORE PUSH1 0x24 PUSH1 0x0 REVERT JUMPDEST SWAP1 MSTORE JUMP JUMPDEST PUSH1 0x20 DUP2 ADD PUSH2 0x39D DUP3 DUP5 PUSH2 0x36D JUMP JUMPDEST SWAP3 SWAP2 POP POP JUMP JUMPDEST PUSH1 0x0 DUP1 PUSH1 0x40 DUP4 DUP6 SUB SLT ISZERO PUSH2 0x3B6 JUMPI PUSH1 0x0 DUP1 REVERT JUMPDEST POP POP DUP1 MLOAD PUSH1 0x20 SWAP1 SWAP2 ADD MLOAD SWAP1 SWAP3 SWAP1 SWAP2 POP JUMP JUMPDEST PUSH1 0x40 DUP2 ADD PUSH2 0x3D5 DUP3 DUP6 PUSH2 0x36D JUMP JUMPDEST DUP3 PUSH1 0x20 DUP4 ADD MSTORE SWAP4 SWAP3 POP POP POP JUMP JUMPDEST DUP1 DUP3 ADD DUP1 DUP3 GT ISZERO PUSH2 0x39D JUMPI PUSH4 0x4E487B71 PUSH1 0xE0 SHL PUSH1 0x0 MSTORE PUSH1 0x11 PUSH1 0x4 MSTORE PUSH1 0x24 PUSH1 0x0 REVERT JUMPDEST PUSH1 0x0 PUSH1 0x20 DUP3 DUP5 SUB SLT ISZERO PUSH2 0x415 JUMPI PUSH1 0x0 DUP1 REVERT JUMPDEST DUP2 MLOAD DUP1 ISZERO ISZERO DUP2 EQ PUSH2 0x425 JUMPI PUSH1 0x0 DUP1 REVERT JUMPDEST SWAP4 SWAP3 POP POP POP JUMP INVALID LOG2 PUSH5 0x6970667358 0x22 SLT KECCAK256 ORIGIN BYTE 0xCE 0xCD PUSH4 0xB72C579B PUSH23 0x56B685A11D57747F96E840D9D71BC2DD0C3C7CEF38F464 PUSH20 0x6F6C634300081200336080604052602A60015534 DUP1 ISZERO PUSH2 0x15 JUMPI PUSH1 0x0 DUP1 REVERT JUMPDEST POP PUSH2 0x3F9 DUP1 PUSH2 0x25 PUSH1 0x0 CODECOPY PUSH1 0x0 RETURN INVALID PUSH1 0x80 PUSH1 0x40 MSTORE CALLVALUE DUP1 ISZERO PUSH2 0x10 JUMPI PUSH1 0x0 DUP1 REVERT JUMPDEST POP PUSH1 0x4 CALLDATASIZE LT PUSH2 0x4C JUMPI PUSH1 0x0 CALLDATALOAD PUSH1 0xE0 SHR DUP1 PUSH4 0x3C010A3E EQ PUSH2 0x51 JUMPI DUP1 PUSH4 0x8D65DF2A EQ PUSH2 0x6D JUMPI DUP1 PUSH4 0xC332C3BE EQ PUSH2 0x95 JUMPI DUP1 PUSH4 0xC79CF758 EQ PUSH2 0xB7 JUMPI JUMPDEST PUSH1 0x0 DUP1 REVERT JUMPDEST PUSH2 0x5A PUSH1 0x1 SLOAD DUP2 JUMP JUMPDEST PUSH1 0x40 MLOAD SWAP1 DUP2 MSTORE PUSH1 0x20 ADD JUMPDEST PUSH1 0x40 MLOAD DUP1 SWAP2 SUB SWAP1 RETURN JUMPDEST PUSH2 0x80 PUSH2 0x7B CALLDATASIZE PUSH1 0x4 PUSH2 0x2FC JUMP JUMPDEST PUSH2 0xDE JUMP JUMPDEST PUSH1 0x40 DUP1 MLOAD SWAP3 DUP4 MSTORE PUSH1 0x20 DUP4 ADD SWAP2 SWAP1 SWAP2 MSTORE ADD PUSH2 0x64 JUMP JUMPDEST PUSH2 0xA8 PUSH2 0xA3 CALLDATASIZE PUSH1 0x4 PUSH2 0x2FC JUMP JUMPDEST PUSH2 0x29A JUMP JUMPDEST PUSH1 0x40 MLOAD PUSH2 0x64 SWAP4 SWAP3 SWAP2 SWAP1 PUSH2 0x33C JUMP JUMPDEST PUSH2 0x80 PUSH2 0xC5 CALLDATASIZE PUSH1 0x4 PUSH2 0x372 JUMP JUMPDEST PUSH1 0x0 PUSH1 0x20 DUP2 SWAP1 MSTORE SWAP1 DUP2 MSTORE PUSH1 0x40 SWAP1 KECCAK256 DUP1 SLOAD PUSH1 0x1 SWAP1 SWAP2 ADD SLOAD DUP3 JUMP JUMPDEST PUSH1 0x0 DUP1 PUSH1 0x0 DUP4 GT PUSH2 0x136 JUMPI PUSH1 0x40 MLOAD PUSH3 0x461BCD PUSH1 0xE5 SHL DUP2 MSTORE PUSH1 0x20 PUSH1 0x4 DUP3 ADD MSTORE PUSH1 0x17 PUSH1 0x24 DUP3 ADD MSTORE PUSH32 0x5175616E74697479206D757374206265206F7665722030000000000000000000 PUSH1 0x44 DUP3 ADD MSTORE PUSH1 0x64 ADD JUMPDEST PUSH1 0x40 MLOAD DUP1 SWAP2 SUB SWAP1 REVERT JUMPDEST PUSH1 0x1 SLOAD DUP4 PUSH1 0x0 DUP1 DUP8 PUSH1 0x4 DUP2 GT ISZERO PUSH2 0x14F JUMPI PUSH2 0x14F PUSH2 0x326 JUMP JUMPDEST PUSH1 0x4 DUP2 GT ISZERO PUSH2 0x160 JUMPI PUSH2 0x160 PUSH2 0x326 JUMP JUMPDEST DUP2 MSTORE PUSH1 0x20 ADD SWAP1 DUP2 MSTORE PUSH1 0x20 ADD PUSH1 0x0 KECCAK256 PUSH1 0x0 ADD SLOAD PUSH2 0x17C SWAP2 SWAP1 PUSH2 0x3AA JUMP JUMPDEST GT ISZERO PUSH2 0x1BE JUMPI PUSH1 0x40 MLOAD PUSH3 0x461BCD PUSH1 0xE5 SHL DUP2 MSTORE PUSH1 0x20 PUSH1 0x4 DUP3 ADD MSTORE PUSH1 0x11 PUSH1 0x24 DUP3 ADD MSTORE PUSH17 0x546F6F206D756368207175616E74697479 PUSH1 0x78 SHL PUSH1 0x44 DUP3 ADD MSTORE PUSH1 0x64 ADD PUSH2 0x12D JUMP JUMPDEST DUP3 PUSH1 0x0 DUP1 DUP7 PUSH1 0x4 DUP2 GT ISZERO PUSH2 0x1D4 JUMPI PUSH2 0x1D4 PUSH2 0x326 JUMP JUMPDEST PUSH1 0x4 DUP2 GT ISZERO PUSH2 0x1E5 JUMPI PUSH2 0x1E5 PUSH2 0x326 JUMP JUMPDEST DUP2 MSTORE PUSH1 0x20 ADD SWAP1 DUP2 MSTORE PUSH1 0x20 ADD PUSH1 0x0 KECCAK256 PUSH1 0x0 ADD PUSH1 0x0 DUP3 DUP3 SLOAD PUSH2 0x205 SWAP2 SWAP1 PUSH2 0x3AA JUMP JUMPDEST SWAP1 SWAP2 SSTORE POP DUP4 SWAP1 POP PUSH1 0x0 DUP1 DUP7 PUSH1 0x4 DUP2 GT ISZERO PUSH2 0x221 JUMPI PUSH2 0x221 PUSH2 0x326 JUMP JUMPDEST PUSH1 0x4 DUP2 GT ISZERO PUSH2 0x232 JUMPI PUSH2 0x232 PUSH2 0x326 JUMP JUMPDEST DUP2 MSTORE PUSH1 0x20 ADD SWAP1 DUP2 MSTORE PUSH1 0x20 ADD PUSH1 0x0 KECCAK256 PUSH1 0x1 ADD PUSH1 0x0 DUP3 DUP3 SLOAD PUSH2 0x252 SWAP2 SWAP1 PUSH2 0x3AA JUMP JUMPDEST SWAP1 SWAP2 SSTORE POP PUSH1 0x0 SWAP1 POP DUP1 DUP6 PUSH1 0x4 DUP2 GT ISZERO PUSH2 0x26D JUMPI PUSH2 0x26D PUSH2 0x326 JUMP JUMPDEST PUSH1 0x4 DUP2 GT ISZERO PUSH2 0x27E JUMPI PUSH2 0x27E PUSH2 0x326 JUMP JUMPDEST DUP2 MSTORE PUSH1 0x20 DUP2 ADD SWAP2 SWAP1 SWAP2 MSTORE PUSH1 0x40 ADD PUSH1 0x0 KECCAK256 PUSH1 0x1 ADD SLOAD SWAP5 SWAP3 SWAP4 POP POP POP JUMP JUMPDEST PUSH1 0x0 DUP1 DUP1 PUSH1 0x40 MLOAD PUSH3 0x461BCD PUSH1 0xE5 SHL DUP2 MSTORE PUSH1 0x4 ADD PUSH2 0x12D SWAP1 PUSH1 0x20 DUP1 DUP3 MSTORE PUSH1 0x1B SWAP1 DUP3 ADD MSTORE PUSH32 0x4E6F7420656E6F7567682064697368657320617661696C61626C650000000000 PUSH1 0x40 DUP3 ADD MSTORE PUSH1 0x60 ADD SWAP1 JUMP JUMPDEST DUP1 CALLDATALOAD PUSH1 0x5 DUP2 LT PUSH2 0x2F7 JUMPI PUSH1 0x0 DUP1 REVERT JUMPDEST SWAP2 SWAP1 POP JUMP JUMPDEST PUSH1 0x0 DUP1 PUSH1 0x40 DUP4 DUP6 SUB SLT ISZERO PUSH2 0x30F JUMPI PUSH1 0x0 DUP1 REVERT JUMPDEST PUSH2 0x318 DUP4 PUSH2 0x2E8 JUMP JUMPDEST SWAP5 PUSH1 0x20 SWAP4 SWAP1 SWAP4 ADD CALLDATALOAD SWAP4 POP POP POP JUMP JUMPDEST PUSH4 0x4E487B71 PUSH1 0xE0 SHL PUSH1 0x0 MSTORE PUSH1 0x21 PUSH1 0x4 MSTORE PUSH1 0x24 PUSH1 0x0 REVERT JUMPDEST PUSH1 0x60 DUP2 ADD PUSH1 0x5 DUP6 LT PUSH2 0x35E JUMPI PUSH4 0x4E487B71 PUSH1 0xE0 SHL PUSH1 0x0 MSTORE PUSH1 0x21 PUSH1 0x4 MSTORE PUSH1 0x24 PUSH1 0x0 REVERT JUMPDEST SWAP4 DUP2 MSTORE PUSH1 0x20 DUP2 ADD SWAP3 SWAP1 SWAP3 MSTORE PUSH1 0x40 SWAP1 SWAP2 ADD MSTORE SWAP1 JUMP JUMPDEST PUSH1 0x0 PUSH1 0x20 DUP3 DUP5 SUB SLT ISZERO PUSH2 0x384 JUMPI PUSH1 0x0 DUP1 REVERT JUMPDEST PUSH2 0x38D DUP3 PUSH2 0x2E8 JUMP JUMPDEST SWAP4 SWAP3 POP POP POP JUMP JUMPDEST PUSH4 0x4E487B71 PUSH1 0xE0 SHL PUSH1 0x0 MSTORE PUSH1 0x11 PUSH1 0x4 MSTORE PUSH1 0x24 PUSH1 0x0 REVERT JUMPDEST DUP1 DUP3 ADD DUP1 DUP3 GT ISZERO PUSH2 0x3BD JUMPI PUSH2 0x3BD PUSH2 0x394 JUMP JUMPDEST SWAP3 SWAP2 POP POP JUMP INVALID LOG2 PUSH5 0x6970667358 0x22 SLT KECCAK256 0xCB SELFDESTRUCT 0xB1 OR 0xE5 PUSH22 0x9A29A30A1A57BC2B54E3EE04F404149519CC01B8CB2 0xC2 PUSH9 0xB17264736F6C634300 ADDMOD SLT STOP CALLER "
		},
		"gasEstimates": {
			"creation": {
				"codeDepositCost": "224400",
				"executionCost": "infinite",
				"totalCost": "infinite"
			},
			"external": {
				"rushChapterI()": "2303",
				"testFillDish()": "infinite"
			}
		},
		"methodIdentifiers": {
			"rushChapterI()": "36712b1e",
			"testFillDish()": "7f8e9f1a"
		}
	},
	"abi": [
		{
			"inputs": [],
			"stateMutability": "nonpayable",
			"type": "constructor"
		},
		{
			"inputs": [],
			"name": "rushChapterI",
			"outputs": [
				{
					"internalType": "contract RushChapterI",
					"name": "",
					"type": "address"
				}
			],
			"stateMutability": "view",
			"type": "function"
		},
		{
			"inputs": [],
			"name": "testFillDish",
			"outputs": [],
			"stateMutability": "nonpayable",
			"type": "function"
		}
	]
}