{
	"exercices/exo9/Struct.sol": {
		"Struct": {
			"abi": [
				{
					"inputs": [
						{
							"internalType": "string",
							"name": "_username",
							"type": "string"
						},
						{
							"internalType": "uint256",
							"name": "_age",
							"type": "uint256"
						},
						{
							"internalType": "address",
							"name": "_account",
							"type": "address"
						},
						{
							"internalType": "string",
							"name": "_grade",
							"type": "string"
						},
						{
							"internalType": "bool",
							"name": "_isAlive",
							"type": "bool"
						}
					],
					"name": "addInfo",
					"outputs": [],
					"stateMutability": "nonpayable",
					"type": "function"
				},
				{
					"inputs": [
						{
							"internalType": "uint256",
							"name": "_index",
							"type": "uint256"
						}
					],
					"name": "getUserInfo",
					"outputs": [
						{
							"internalType": "string",
							"name": "",
							"type": "string"
						},
						{
							"internalType": "uint256",
							"name": "",
							"type": "uint256"
						},
						{
							"internalType": "address",
							"name": "",
							"type": "address"
						},
						{
							"internalType": "string",
							"name": "",
							"type": "string"
						},
						{
							"internalType": "bool",
							"name": "",
							"type": "bool"
						}
					],
					"stateMutability": "view",
					"type": "function"
				},
				{
					"inputs": [
						{
							"internalType": "uint256",
							"name": "",
							"type": "uint256"
						}
					],
					"name": "infos",
					"outputs": [
						{
							"internalType": "string",
							"name": "username",
							"type": "string"
						},
						{
							"internalType": "uint256",
							"name": "age",
							"type": "uint256"
						},
						{
							"internalType": "address",
							"name": "account",
							"type": "address"
						},
						{
							"internalType": "string",
							"name": "grade",
							"type": "string"
						},
						{
							"internalType": "bool",
							"name": "isAlive",
							"type": "bool"
						}
					],
					"stateMutability": "view",
					"type": "function"
				},
				{
					"inputs": [
						{
							"internalType": "uint256",
							"name": "_index",
							"type": "uint256"
						}
					],
					"name": "removeInfo",
					"outputs": [],
					"stateMutability": "nonpayable",
					"type": "function"
				},
				{
					"inputs": [
						{
							"internalType": "uint256",
							"name": "_index",
							"type": "uint256"
						},
						{
							"internalType": "string",
							"name": "_username",
							"type": "string"
						},
						{
							"internalType": "uint256",
							"name": "_age",
							"type": "uint256"
						},
						{
							"internalType": "string",
							"name": "_grade",
							"type": "string"
						}
					],
					"name": "updateUser",
					"outputs": [],
					"stateMutability": "nonpayable",
					"type": "function"
				}
			],
			"devdoc": {
				"kind": "dev",
				"methods": {},
				"version": 1
			},
			"evm": {
				"assembly": "    /* \"exercices/exo9/Struct.sol\":62:1203  contract Struct {... */\n  mstore(0x40, 0x80)\n  callvalue\n  dup1\n  iszero\n  tag_1\n  jumpi\n  0x00\n  dup1\n  revert\ntag_1:\n  pop\n  dataSize(sub_0)\n  dup1\n  dataOffset(sub_0)\n  0x00\n  codecopy\n  0x00\n  return\nstop\n\nsub_0: assembly {\n        /* \"exercices/exo9/Struct.sol\":62:1203  contract Struct {... */\n      mstore(0x40, 0x80)\n      callvalue\n      dup1\n      iszero\n      tag_1\n      jumpi\n      0x00\n      dup1\n      revert\n    tag_1:\n      pop\n      jumpi(tag_2, lt(calldatasize, 0x04))\n      shr(0xe0, calldataload(0x00))\n      dup1\n      0x28de3c9b\n      eq\n      tag_3\n      jumpi\n      dup1\n      0x7da3b5c1\n      eq\n      tag_4\n      jumpi\n      dup1\n      0xb3f5d0d7\n      eq\n      tag_5\n      jumpi\n      dup1\n      0xbb18218d\n      eq\n      tag_6\n      jumpi\n      dup1\n      0xd379dadf\n      eq\n      tag_7\n      jumpi\n    tag_2:\n      0x00\n      dup1\n      revert\n        /* \"exercices/exo9/Struct.sol\":227:246  Info[] public infos */\n    tag_3:\n      tag_8\n      tag_9\n      calldatasize\n      0x04\n      tag_10\n      jump\t// in\n    tag_9:\n      tag_11\n      jump\t// in\n    tag_8:\n      mload(0x40)\n      tag_12\n      swap6\n      swap5\n      swap4\n      swap3\n      swap2\n      swap1\n      tag_13\n      jump\t// in\n    tag_12:\n      mload(0x40)\n      dup1\n      swap2\n      sub\n      swap1\n      return\n        /* \"exercices/exo9/Struct.sol\":459:605  function removeInfo(uint256 _index) public{... */\n    tag_4:\n      tag_14\n      tag_15\n      calldatasize\n      0x04\n      tag_10\n      jump\t// in\n    tag_15:\n      tag_16\n      jump\t// in\n    tag_14:\n      stop\n        /* \"exercices/exo9/Struct.sol\":610:894  function updateUser(uint256 _index,string memory _username, uint256 _age, string memory _grade) public {... */\n    tag_5:\n      tag_14\n      tag_18\n      calldatasize\n      0x04\n      tag_19\n      jump\t// in\n    tag_18:\n      tag_20\n      jump\t// in\n        /* \"exercices/exo9/Struct.sol\":254:453  function addInfo(string calldata _username, uint256 _age, address _account, string calldata _grade, bool _isAlive) public{... */\n    tag_6:\n      tag_14\n      tag_22\n      calldatasize\n      0x04\n      tag_23\n      jump\t// in\n    tag_22:\n      tag_24\n      jump\t// in\n        /* \"exercices/exo9/Struct.sol\":899:1197  function getUserInfo(uint _index) public view returns (string memory, uint256, address, string memory, bool) {... */\n    tag_7:\n      tag_8\n      tag_26\n      calldatasize\n      0x04\n      tag_10\n      jump\t// in\n    tag_26:\n      tag_27\n      jump\t// in\n        /* \"exercices/exo9/Struct.sol\":227:246  Info[] public infos */\n    tag_11:\n      0x00\n      dup2\n      dup2\n      sload\n      dup2\n      lt\n      tag_29\n      jumpi\n      0x00\n      dup1\n      revert\n    tag_29:\n      swap1\n      0x00\n      mstore\n      keccak256(0x00, 0x20)\n      swap1\n      0x05\n      mul\n      add\n      0x00\n      swap2\n      pop\n      swap1\n      pop\n      dup1\n      0x00\n      add\n      dup1\n      sload\n      tag_31\n      swap1\n      tag_32\n      jump\t// in\n    tag_31:\n      dup1\n      0x1f\n      add\n      0x20\n      dup1\n      swap2\n      div\n      mul\n      0x20\n      add\n      mload(0x40)\n      swap1\n      dup2\n      add\n      0x40\n      mstore\n      dup1\n      swap3\n      swap2\n      swap1\n      dup2\n      dup2\n      mstore\n      0x20\n      add\n      dup3\n      dup1\n      sload\n      tag_33\n      swap1\n      tag_32\n      jump\t// in\n    tag_33:\n      dup1\n      iszero\n      tag_34\n      jumpi\n      dup1\n      0x1f\n      lt\n      tag_35\n      jumpi\n      0x0100\n      dup1\n      dup4\n      sload\n      div\n      mul\n      dup4\n      mstore\n      swap2\n      0x20\n      add\n      swap2\n      jump(tag_34)\n    tag_35:\n      dup3\n      add\n      swap2\n      swap1\n      0x00\n      mstore\n      keccak256(0x00, 0x20)\n      swap1\n    tag_36:\n      dup2\n      sload\n      dup2\n      mstore\n      swap1\n      0x01\n      add\n      swap1\n      0x20\n      add\n      dup1\n      dup4\n      gt\n      tag_36\n      jumpi\n      dup3\n      swap1\n      sub\n      0x1f\n      and\n      dup3\n      add\n      swap2\n    tag_34:\n      pop\n      pop\n      pop\n      pop\n      0x01\n      dup4\n      add\n      sload\n      0x02\n      dup5\n      add\n      sload\n      0x03\n      dup6\n      add\n      dup1\n      sload\n      swap5\n      swap6\n      swap3\n      swap5\n      sub(shl(0xa0, 0x01), 0x01)\n      swap1\n      swap3\n      and\n      swap4\n      pop\n      swap1\n      tag_37\n      swap1\n      tag_32\n      jump\t// in\n    tag_37:\n      dup1\n      0x1f\n      add\n      0x20\n      dup1\n      swap2\n      div\n      mul\n      0x20\n      add\n      mload(0x40)\n      swap1\n      dup2\n      add\n      0x40\n      mstore\n      dup1\n      swap3\n      swap2\n      swap1\n      dup2\n      dup2\n      mstore\n      0x20\n      add\n      dup3\n      dup1\n      sload\n      tag_38\n      swap1\n      tag_32\n      jump\t// in\n    tag_38:\n      dup1\n      iszero\n      tag_39\n      jumpi\n      dup1\n      0x1f\n      lt\n      tag_40\n      jumpi\n      0x0100\n      dup1\n      dup4\n      sload\n      div\n      mul\n      dup4\n      mstore\n      swap2\n      0x20\n      add\n      swap2\n      jump(tag_39)\n    tag_40:\n      dup3\n      add\n      swap2\n      swap1\n      0x00\n      mstore\n      keccak256(0x00, 0x20)\n      swap1\n    tag_41:\n      dup2\n      sload\n      dup2\n      mstore\n      swap1\n      0x01\n      add\n      swap1\n      0x20\n      add\n      dup1\n      dup4\n      gt\n      tag_41\n      jumpi\n      dup3\n      swap1\n      sub\n      0x1f\n      and\n      dup3\n      add\n      swap2\n    tag_39:\n      pop\n      pop\n      pop\n      0x04\n      swap1\n      swap4\n      add\n      sload\n      swap2\n      swap3\n      pop\n      pop\n      0xff\n      and\n      dup6\n      jump\t// out\n        /* \"exercices/exo9/Struct.sol\":459:605  function removeInfo(uint256 _index) public{... */\n    tag_16:\n        /* \"exercices/exo9/Struct.sol\":529:534  infos */\n      0x00\n        /* \"exercices/exo9/Struct.sol\":529:541  infos.length */\n      sload\n        /* \"exercices/exo9/Struct.sol\":520:541  _index < infos.length */\n      dup2\n      lt\n        /* \"exercices/exo9/Struct.sol\":512:559  require(_index < infos.length, \"Invalid index\") */\n      tag_43\n      jumpi\n      mload(0x40)\n      shl(0xe5, 0x461bcd)\n      dup2\n      mstore\n      0x04\n      add\n      tag_44\n      swap1\n      tag_45\n      jump\t// in\n    tag_44:\n      mload(0x40)\n      dup1\n      swap2\n      sub\n      swap1\n      revert\n    tag_43:\n        /* \"exercices/exo9/Struct.sol\":593:598  false */\n      0x00\n        /* \"exercices/exo9/Struct.sol\":569:574  infos */\n      dup1\n        /* \"exercices/exo9/Struct.sol\":575:581  _index */\n      dup3\n        /* \"exercices/exo9/Struct.sol\":569:582  infos[_index] */\n      dup2\n      sload\n      dup2\n      lt\n      tag_46\n      jumpi\n      mstore(0x00, shl(0xe0, 0x4e487b71))\n      mstore(0x04, 0x32)\n      revert(0x00, 0x24)\n    tag_46:\n      0x00\n      swap2\n      dup3\n      mstore\n      0x20\n      swap1\n      swap2\n      keccak256\n      0x05\n      swap1\n      swap2\n      mul\n      add\n        /* \"exercices/exo9/Struct.sol\":569:590  infos[_index].isAlive */\n      0x04\n      add\n        /* \"exercices/exo9/Struct.sol\":569:598  infos[_index].isAlive = false */\n      dup1\n      sload\n      not(0xff)\n      and\n      swap2\n      iszero\n      iszero\n      swap2\n      swap1\n      swap2\n      or\n      swap1\n      sstore\n      pop\n        /* \"exercices/exo9/Struct.sol\":459:605  function removeInfo(uint256 _index) public{... */\n      jump\t// out\n        /* \"exercices/exo9/Struct.sol\":610:894  function updateUser(uint256 _index,string memory _username, uint256 _age, string memory _grade) public {... */\n    tag_20:\n        /* \"exercices/exo9/Struct.sol\":741:746  infos */\n      0x00\n        /* \"exercices/exo9/Struct.sol\":741:753  infos.length */\n      sload\n        /* \"exercices/exo9/Struct.sol\":732:753  _index < infos.length */\n      dup5\n      lt\n        /* \"exercices/exo9/Struct.sol\":724:771  require(_index < infos.length, \"Invalid index\") */\n      tag_49\n      jumpi\n      mload(0x40)\n      shl(0xe5, 0x461bcd)\n      dup2\n      mstore\n      0x04\n      add\n      tag_44\n      swap1\n      tag_45\n      jump\t// in\n    tag_49:\n        /* \"exercices/exo9/Struct.sol\":806:815  _username */\n      dup3\n        /* \"exercices/exo9/Struct.sol\":781:786  infos */\n      0x00\n        /* \"exercices/exo9/Struct.sol\":787:793  _index */\n      dup6\n        /* \"exercices/exo9/Struct.sol\":781:794  infos[_index] */\n      dup2\n      sload\n      dup2\n      lt\n      tag_51\n      jumpi\n      mstore(0x00, shl(0xe0, 0x4e487b71))\n      mstore(0x04, 0x32)\n      revert(0x00, 0x24)\n    tag_51:\n      swap1\n      0x00\n      mstore\n      keccak256(0x00, 0x20)\n      swap1\n      0x05\n      mul\n      add\n        /* \"exercices/exo9/Struct.sol\":781:803  infos[_index].username */\n      0x00\n      add\n        /* \"exercices/exo9/Struct.sol\":781:815  infos[_index].username = _username */\n      swap1\n      dup1\n      mload\n      swap1\n      0x20\n      add\n      swap1\n      tag_53\n      swap3\n      swap2\n      swap1\n      tag_54\n      jump\t// in\n    tag_53:\n      pop\n        /* \"exercices/exo9/Struct.sol\":845:849  _age */\n      dup2\n        /* \"exercices/exo9/Struct.sol\":825:830  infos */\n      0x00\n        /* \"exercices/exo9/Struct.sol\":831:837  _index */\n      dup6\n        /* \"exercices/exo9/Struct.sol\":825:838  infos[_index] */\n      dup2\n      sload\n      dup2\n      lt\n      tag_55\n      jumpi\n      mstore(0x00, shl(0xe0, 0x4e487b71))\n      mstore(0x04, 0x32)\n      revert(0x00, 0x24)\n    tag_55:\n      swap1\n      0x00\n      mstore\n      keccak256(0x00, 0x20)\n      swap1\n      0x05\n      mul\n      add\n        /* \"exercices/exo9/Struct.sol\":825:842  infos[_index].age */\n      0x01\n      add\n        /* \"exercices/exo9/Struct.sol\":825:849  infos[_index].age = _age */\n      dup2\n      swap1\n      sstore\n      pop\n        /* \"exercices/exo9/Struct.sol\":881:887  _grade */\n      dup1\n        /* \"exercices/exo9/Struct.sol\":859:864  infos */\n      0x00\n        /* \"exercices/exo9/Struct.sol\":865:871  _index */\n      dup6\n        /* \"exercices/exo9/Struct.sol\":859:872  infos[_index] */\n      dup2\n      sload\n      dup2\n      lt\n      tag_57\n      jumpi\n      mstore(0x00, shl(0xe0, 0x4e487b71))\n      mstore(0x04, 0x32)\n      revert(0x00, 0x24)\n    tag_57:\n      swap1\n      0x00\n      mstore\n      keccak256(0x00, 0x20)\n      swap1\n      0x05\n      mul\n      add\n        /* \"exercices/exo9/Struct.sol\":859:878  infos[_index].grade */\n      0x03\n      add\n        /* \"exercices/exo9/Struct.sol\":859:887  infos[_index].grade = _grade */\n      swap1\n      dup1\n      mload\n      swap1\n      0x20\n      add\n      swap1\n      tag_59\n      swap3\n      swap2\n      swap1\n      tag_54\n      jump\t// in\n    tag_59:\n      pop\n        /* \"exercices/exo9/Struct.sol\":610:894  function updateUser(uint256 _index,string memory _username, uint256 _age, string memory _grade) public {... */\n      pop\n      pop\n      pop\n      pop\n      jump\t// out\n        /* \"exercices/exo9/Struct.sol\":254:453  function addInfo(string calldata _username, uint256 _age, address _account, string calldata _grade, bool _isAlive) public{... */\n    tag_24:\n        /* \"exercices/exo9/Struct.sol\":396:445  Info(_username, _age, _account, _grade, _isAlive) */\n      0x40\n      dup1\n      mload\n      0xc0\n      0x20\n      0x1f\n      dup11\n      add\n      dup2\n      swap1\n      div\n      mul\n      dup3\n      add\n      dup2\n      add\n      swap1\n      swap3\n      mstore\n      0xa0\n      dup2\n      add\n      dup9\n      dup2\n      mstore\n        /* \"exercices/exo9/Struct.sol\":385:390  infos */\n      0x00\n      swap3\n        /* \"exercices/exo9/Struct.sol\":396:445  Info(_username, _age, _account, _grade, _isAlive) */\n      dup3\n      swap2\n      swap1\n        /* \"exercices/exo9/Struct.sol\":401:410  _username */\n      dup12\n      swap1\n      dup12\n      swap1\n      dup2\n      swap1\n        /* \"exercices/exo9/Struct.sol\":396:445  Info(_username, _age, _account, _grade, _isAlive) */\n      dup6\n      add\n        /* \"exercices/exo9/Struct.sol\":401:410  _username */\n      dup4\n      dup3\n      dup1\n      dup3\n        /* \"exercices/exo9/Struct.sol\":396:445  Info(_username, _age, _account, _grade, _isAlive) */\n      dup5\n      calldatacopy\n      0x00\n      swap3\n      add\n      swap2\n      swap1\n      swap2\n      mstore\n      pop\n      pop\n      pop\n      swap1\n      dup3\n      mstore\n      pop\n      0x20\n      dup1\n      dup3\n      add\n      dup10\n      swap1\n      mstore\n      sub(shl(0xa0, 0x01), 0x01)\n      dup9\n      and\n      0x40\n      dup1\n      dup5\n      add\n      swap2\n      swap1\n      swap2\n      mstore\n      dup1\n      mload\n      0x1f\n      dup9\n      add\n      dup4\n      swap1\n      div\n      dup4\n      mul\n      dup2\n      add\n      dup4\n      add\n      swap1\n      swap2\n      mstore\n      dup7\n      dup2\n      mstore\n      0x60\n      swap1\n      swap3\n      add\n      swap2\n      swap1\n        /* \"exercices/exo9/Struct.sol\":428:434  _grade */\n      dup8\n      swap1\n      dup8\n      swap1\n      dup2\n      swap1\n        /* \"exercices/exo9/Struct.sol\":396:445  Info(_username, _age, _account, _grade, _isAlive) */\n      dup5\n      add\n        /* \"exercices/exo9/Struct.sol\":428:434  _grade */\n      dup4\n      dup3\n      dup1\n      dup3\n        /* \"exercices/exo9/Struct.sol\":396:445  Info(_username, _age, _account, _grade, _isAlive) */\n      dup5\n      calldatacopy\n      0x00\n      swap3\n      add\n      dup3\n      swap1\n      mstore\n      pop\n      swap4\n      dup6\n      mstore\n      pop\n      pop\n      pop\n      dup5\n      iszero\n      iszero\n      0x20\n      swap3\n      dup4\n      add\n      mstore\n        /* \"exercices/exo9/Struct.sol\":385:446  infos.push(Info(_username, _age, _account, _grade, _isAlive)) */\n      dup4\n      sload\n      0x01\n      dup2\n      add\n      dup6\n      sstore\n      swap4\n      dup2\n      mstore\n      dup2\n      swap1\n      keccak256\n      dup3\n      mload\n      dup1\n      mload\n      swap4\n      swap5\n      0x05\n      mul\n      swap1\n      swap2\n      add\n      swap3\n      tag_62\n      swap3\n      dup5\n      swap3\n      add\n      swap1\n      tag_54\n      jump\t// in\n    tag_62:\n      pop\n      0x20\n      dup3\n      dup2\n      add\n      mload\n      0x01\n      dup4\n      add\n      sstore\n      0x40\n      dup4\n      add\n      mload\n      0x02\n      dup4\n      add\n      dup1\n      sload\n      not(sub(shl(0xa0, 0x01), 0x01))\n      and\n      sub(shl(0xa0, 0x01), 0x01)\n      swap1\n      swap3\n      and\n      swap2\n      swap1\n      swap2\n      or\n      swap1\n      sstore\n      0x60\n      dup4\n      add\n      mload\n      dup1\n      mload\n      tag_63\n      swap3\n      0x03\n      dup6\n      add\n      swap3\n      add\n      swap1\n      tag_54\n      jump\t// in\n    tag_63:\n      pop\n      0x80\n      swap2\n      swap1\n      swap2\n      add\n      mload\n      0x04\n      swap1\n      swap2\n      add\n      dup1\n      sload\n      not(0xff)\n      and\n      swap2\n      iszero\n      iszero\n      swap2\n      swap1\n      swap2\n      or\n      swap1\n      sstore\n      pop\n      pop\n      pop\n      pop\n      pop\n      pop\n      pop\n        /* \"exercices/exo9/Struct.sol\":254:453  function addInfo(string calldata _username, uint256 _age, address _account, string calldata _grade, bool _isAlive) public{... */\n      jump\t// out\n        /* \"exercices/exo9/Struct.sol\":899:1197  function getUserInfo(uint _index) public view returns (string memory, uint256, address, string memory, bool) {... */\n    tag_27:\n        /* \"exercices/exo9/Struct.sol\":954:967  string memory */\n      0x60\n        /* \"exercices/exo9/Struct.sol\":969:976  uint256 */\n      0x00\n        /* \"exercices/exo9/Struct.sol\":978:985  address */\n      dup1\n        /* \"exercices/exo9/Struct.sol\":987:1000  string memory */\n      0x60\n        /* \"exercices/exo9/Struct.sol\":1002:1006  bool */\n      0x00\n        /* \"exercices/exo9/Struct.sol\":1035:1040  infos */\n      dup1\n        /* \"exercices/exo9/Struct.sol\":1035:1047  infos.length */\n      dup1\n      sload\n      swap1\n      pop\n        /* \"exercices/exo9/Struct.sol\":1026:1032  _index */\n      dup7\n        /* \"exercices/exo9/Struct.sol\":1026:1047  _index < infos.length */\n      lt\n        /* \"exercices/exo9/Struct.sol\":1018:1065  require(_index < infos.length, \"Invalid index\") */\n      tag_65\n      jumpi\n      mload(0x40)\n      shl(0xe5, 0x461bcd)\n      dup2\n      mstore\n      0x04\n      add\n      tag_44\n      swap1\n      tag_45\n      jump\t// in\n    tag_65:\n        /* \"exercices/exo9/Struct.sol\":1075:1092  Info storage info */\n      0x00\n        /* \"exercices/exo9/Struct.sol\":1095:1100  infos */\n      dup1\n        /* \"exercices/exo9/Struct.sol\":1101:1107  _index */\n      dup8\n        /* \"exercices/exo9/Struct.sol\":1095:1108  infos[_index] */\n      dup2\n      sload\n      dup2\n      lt\n      tag_67\n      jumpi\n      mstore(0x00, shl(0xe0, 0x4e487b71))\n      mstore(0x04, 0x32)\n      revert(0x00, 0x24)\n    tag_67:\n      0x00\n      swap2\n      dup3\n      mstore\n      0x20\n      swap1\n      swap2\n      keccak256\n      0x05\n      swap1\n      swap2\n      mul\n      add\n        /* \"exercices/exo9/Struct.sol\":1141:1149  info.age */\n      0x01\n      dup2\n      add\n      sload\n        /* \"exercices/exo9/Struct.sol\":1151:1163  info.account */\n      0x02\n      dup3\n      add\n      sload\n        /* \"exercices/exo9/Struct.sol\":1177:1189  info.isAlive */\n      0x04\n      dup4\n      add\n      sload\n        /* \"exercices/exo9/Struct.sol\":1118:1190  return (info.username, info.age, info.account, info.grade, info.isAlive) */\n      dup4\n      sload\n        /* \"exercices/exo9/Struct.sol\":1095:1108  infos[_index] */\n      swap4\n      swap5\n      pop\n      dup5\n      swap4\n      sub(shl(0xa0, 0x01), 0x01)\n        /* \"exercices/exo9/Struct.sol\":1151:1163  info.account */\n      swap1\n      swap3\n      and\n      swap2\n        /* \"exercices/exo9/Struct.sol\":1165:1175  info.grade */\n      0x03\n      dup6\n      add\n      swap2\n        /* \"exercices/exo9/Struct.sol\":1177:1189  info.isAlive */\n      0xff\n      and\n      swap1\n        /* \"exercices/exo9/Struct.sol\":1095:1108  infos[_index] */\n      dup6\n      swap1\n        /* \"exercices/exo9/Struct.sol\":1118:1190  return (info.username, info.age, info.account, info.grade, info.isAlive) */\n      tag_69\n      swap1\n      tag_32\n      jump\t// in\n    tag_69:\n      dup1\n      0x1f\n      add\n      0x20\n      dup1\n      swap2\n      div\n      mul\n      0x20\n      add\n      mload(0x40)\n      swap1\n      dup2\n      add\n      0x40\n      mstore\n      dup1\n      swap3\n      swap2\n      swap1\n      dup2\n      dup2\n      mstore\n      0x20\n      add\n      dup3\n      dup1\n      sload\n      tag_70\n      swap1\n      tag_32\n      jump\t// in\n    tag_70:\n      dup1\n      iszero\n      tag_71\n      jumpi\n      dup1\n      0x1f\n      lt\n      tag_72\n      jumpi\n      0x0100\n      dup1\n      dup4\n      sload\n      div\n      mul\n      dup4\n      mstore\n      swap2\n      0x20\n      add\n      swap2\n      jump(tag_71)\n    tag_72:\n      dup3\n      add\n      swap2\n      swap1\n      0x00\n      mstore\n      keccak256(0x00, 0x20)\n      swap1\n    tag_73:\n      dup2\n      sload\n      dup2\n      mstore\n      swap1\n      0x01\n      add\n      swap1\n      0x20\n      add\n      dup1\n      dup4\n      gt\n      tag_73\n      jumpi\n      dup3\n      swap1\n      sub\n      0x1f\n      and\n      dup3\n      add\n      swap2\n    tag_71:\n      pop\n      pop\n      pop\n      pop\n      pop\n      swap5\n      pop\n      dup2\n      dup1\n      sload\n      tag_74\n      swap1\n      tag_32\n      jump\t// in\n    tag_74:\n      dup1\n      0x1f\n      add\n      0x20\n      dup1\n      swap2\n      div\n      mul\n      0x20\n      add\n      mload(0x40)\n      swap1\n      dup2\n      add\n      0x40\n      mstore\n      dup1\n      swap3\n      swap2\n      swap1\n      dup2\n      dup2\n      mstore\n      0x20\n      add\n      dup3\n      dup1\n      sload\n      tag_75\n      swap1\n      tag_32\n      jump\t// in\n    tag_75:\n      dup1\n      iszero\n      tag_76\n      jumpi\n      dup1\n      0x1f\n      lt\n      tag_77\n      jumpi\n      0x0100\n      dup1\n      dup4\n      sload\n      div\n      mul\n      dup4\n      mstore\n      swap2\n      0x20\n      add\n      swap2\n      jump(tag_76)\n    tag_77:\n      dup3\n      add\n      swap2\n      swap1\n      0x00\n      mstore\n      keccak256(0x00, 0x20)\n      swap1\n    tag_78:\n      dup2\n      sload\n      dup2\n      mstore\n      swap1\n      0x01\n      add\n      swap1\n      0x20\n      add\n      dup1\n      dup4\n      gt\n      tag_78\n      jumpi\n      dup3\n      swap1\n      sub\n      0x1f\n      and\n      dup3\n      add\n      swap2\n    tag_76:\n      pop\n      pop\n      pop\n      pop\n      pop\n      swap2\n      pop\n      swap6\n      pop\n      swap6\n      pop\n      swap6\n      pop\n      swap6\n      pop\n      swap6\n      pop\n      pop\n        /* \"exercices/exo9/Struct.sol\":899:1197  function getUserInfo(uint _index) public view returns (string memory, uint256, address, string memory, bool) {... */\n      swap2\n      swap4\n      swap6\n      swap1\n      swap3\n      swap5\n      pop\n      jump\t// out\n    tag_54:\n      dup3\n      dup1\n      sload\n      tag_79\n      swap1\n      tag_32\n      jump\t// in\n    tag_79:\n      swap1\n      0x00\n      mstore\n      keccak256(0x00, 0x20)\n      swap1\n      0x1f\n      add\n      0x20\n      swap1\n      div\n      dup2\n      add\n      swap3\n      dup3\n      tag_81\n      jumpi\n      0x00\n      dup6\n      sstore\n      jump(tag_84)\n    tag_81:\n      dup3\n      0x1f\n      lt\n      tag_82\n      jumpi\n      dup1\n      mload\n      not(0xff)\n      and\n      dup4\n      dup1\n      add\n      or\n      dup6\n      sstore\n      jump(tag_84)\n    tag_82:\n      dup3\n      dup1\n      add\n      0x01\n      add\n      dup6\n      sstore\n      dup3\n      iszero\n      tag_84\n      jumpi\n      swap2\n      dup3\n      add\n    tag_83:\n      dup3\n      dup2\n      gt\n      iszero\n      tag_84\n      jumpi\n      dup3\n      mload\n      dup3\n      sstore\n      swap2\n      0x20\n      add\n      swap2\n      swap1\n      0x01\n      add\n      swap1\n      jump(tag_83)\n    tag_84:\n      pop\n      tag_85\n      swap3\n      swap2\n      pop\n      tag_86\n      jump\t// in\n    tag_85:\n      pop\n      swap1\n      jump\t// out\n    tag_86:\n    tag_87:\n      dup1\n      dup3\n      gt\n      iszero\n      tag_85\n      jumpi\n      0x00\n      dup2\n      sstore\n      0x01\n      add\n      jump(tag_87)\n        /* \"#utility.yul\":14:386   */\n    tag_90:\n        /* \"#utility.yul\":66:74   */\n      0x00\n        /* \"#utility.yul\":76:82   */\n      dup1\n        /* \"#utility.yul\":130:133   */\n      dup4\n        /* \"#utility.yul\":123:127   */\n      0x1f\n        /* \"#utility.yul\":115:121   */\n      dup5\n        /* \"#utility.yul\":111:128   */\n      add\n        /* \"#utility.yul\":107:134   */\n      slt\n        /* \"#utility.yul\":97:99   */\n      tag_92\n      jumpi\n        /* \"#utility.yul\":153:159   */\n      dup1\n        /* \"#utility.yul\":145:151   */\n      dup2\n        /* \"#utility.yul\":138:160   */\n      revert\n        /* \"#utility.yul\":97:99   */\n    tag_92:\n      pop\n        /* \"#utility.yul\":181:201   */\n      dup2\n      calldataload\n        /* \"#utility.yul\":224:242   */\n      0xffffffffffffffff\n        /* \"#utility.yul\":213:243   */\n      dup2\n      gt\n        /* \"#utility.yul\":210:212   */\n      iszero\n      tag_93\n      jumpi\n        /* \"#utility.yul\":263:271   */\n      dup2\n        /* \"#utility.yul\":253:261   */\n      dup3\n        /* \"#utility.yul\":246:272   */\n      revert\n        /* \"#utility.yul\":210:212   */\n    tag_93:\n        /* \"#utility.yul\":307:311   */\n      0x20\n        /* \"#utility.yul\":299:305   */\n      dup4\n        /* \"#utility.yul\":295:312   */\n      add\n        /* \"#utility.yul\":283:312   */\n      swap2\n      pop\n        /* \"#utility.yul\":359:362   */\n      dup4\n        /* \"#utility.yul\":352:356   */\n      0x20\n        /* \"#utility.yul\":343:349   */\n      dup3\n        /* \"#utility.yul\":335:341   */\n      dup6\n        /* \"#utility.yul\":331:350   */\n      add\n        /* \"#utility.yul\":327:357   */\n      add\n        /* \"#utility.yul\":324:363   */\n      gt\n        /* \"#utility.yul\":321:323   */\n      iszero\n      tag_94\n      jumpi\n        /* \"#utility.yul\":376:377   */\n      0x00\n        /* \"#utility.yul\":373:374   */\n      dup1\n        /* \"#utility.yul\":366:378   */\n      revert\n        /* \"#utility.yul\":321:323   */\n    tag_94:\n        /* \"#utility.yul\":87:386   */\n      swap3\n      pop\n      swap3\n      swap1\n      pop\n      jump\t// out\n        /* \"#utility.yul\":391:1130   */\n    tag_95:\n        /* \"#utility.yul\":434:439   */\n      0x00\n        /* \"#utility.yul\":487:490   */\n      dup3\n        /* \"#utility.yul\":480:484   */\n      0x1f\n        /* \"#utility.yul\":472:478   */\n      dup4\n        /* \"#utility.yul\":468:485   */\n      add\n        /* \"#utility.yul\":464:491   */\n      slt\n        /* \"#utility.yul\":454:456   */\n      tag_97\n      jumpi\n        /* \"#utility.yul\":509:514   */\n      dup1\n        /* \"#utility.yul\":502:507   */\n      dup2\n        /* \"#utility.yul\":495:515   */\n      revert\n        /* \"#utility.yul\":454:456   */\n    tag_97:\n        /* \"#utility.yul\":549:555   */\n      dup2\n        /* \"#utility.yul\":536:556   */\n      calldataload\n        /* \"#utility.yul\":575:593   */\n      0xffffffffffffffff\n        /* \"#utility.yul\":612:614   */\n      dup1\n        /* \"#utility.yul\":608:610   */\n      dup3\n        /* \"#utility.yul\":605:615   */\n      gt\n        /* \"#utility.yul\":602:604   */\n      iszero\n      tag_99\n      jumpi\n        /* \"#utility.yul\":618:636   */\n      tag_99\n      tag_100\n      jump\t// in\n    tag_99:\n        /* \"#utility.yul\":693:695   */\n      0x40\n        /* \"#utility.yul\":687:696   */\n      mload\n        /* \"#utility.yul\":661:663   */\n      0x1f\n        /* \"#utility.yul\":747:760   */\n      dup4\n      add\n      not(0x1f)\n        /* \"#utility.yul\":743:765   */\n      swap1\n      dup2\n      and\n        /* \"#utility.yul\":767:769   */\n      0x3f\n        /* \"#utility.yul\":739:770   */\n      add\n        /* \"#utility.yul\":735:775   */\n      and\n        /* \"#utility.yul\":723:776   */\n      dup2\n      add\n      swap1\n        /* \"#utility.yul\":791:809   */\n      dup3\n      dup3\n      gt\n        /* \"#utility.yul\":811:833   */\n      dup2\n      dup4\n      lt\n        /* \"#utility.yul\":788:834   */\n      or\n        /* \"#utility.yul\":785:787   */\n      iszero\n      tag_102\n      jumpi\n        /* \"#utility.yul\":837:855   */\n      tag_102\n      tag_100\n      jump\t// in\n    tag_102:\n        /* \"#utility.yul\":877:887   */\n      dup2\n        /* \"#utility.yul\":873:875   */\n      0x40\n        /* \"#utility.yul\":866:888   */\n      mstore\n        /* \"#utility.yul\":912:914   */\n      dup4\n        /* \"#utility.yul\":904:910   */\n      dup2\n        /* \"#utility.yul\":897:915   */\n      mstore\n        /* \"#utility.yul\":958:961   */\n      dup7\n        /* \"#utility.yul\":951:955   */\n      0x20\n        /* \"#utility.yul\":946:948   */\n      dup6\n        /* \"#utility.yul\":938:944   */\n      dup9\n        /* \"#utility.yul\":934:949   */\n      add\n        /* \"#utility.yul\":930:956   */\n      add\n        /* \"#utility.yul\":927:962   */\n      gt\n        /* \"#utility.yul\":924:926   */\n      iszero\n      tag_103\n      jumpi\n        /* \"#utility.yul\":979:984   */\n      dup5\n        /* \"#utility.yul\":972:977   */\n      dup6\n        /* \"#utility.yul\":965:985   */\n      revert\n        /* \"#utility.yul\":924:926   */\n    tag_103:\n        /* \"#utility.yul\":1047:1049   */\n      dup4\n        /* \"#utility.yul\":1040:1044   */\n      0x20\n        /* \"#utility.yul\":1032:1038   */\n      dup8\n        /* \"#utility.yul\":1028:1045   */\n      add\n        /* \"#utility.yul\":1021:1025   */\n      0x20\n        /* \"#utility.yul\":1013:1019   */\n      dup4\n        /* \"#utility.yul\":1009:1026   */\n      add\n        /* \"#utility.yul\":996:1050   */\n      calldatacopy\n        /* \"#utility.yul\":1070:1085   */\n      swap3\n      dup4\n      add\n        /* \"#utility.yul\":1087:1091   */\n      0x20\n        /* \"#utility.yul\":1066:1092   */\n      add\n        /* \"#utility.yul\":1059:1100   */\n      swap4\n      swap1\n      swap4\n      mstore\n      pop\n        /* \"#utility.yul\":1074:1080   */\n      swap4\n        /* \"#utility.yul\":444:1130   */\n      swap3\n      pop\n      pop\n      pop\n      jump\t// out\n        /* \"#utility.yul\":1135:2319   */\n    tag_23:\n        /* \"#utility.yul\":1251:1257   */\n      0x00\n        /* \"#utility.yul\":1259:1265   */\n      dup1\n        /* \"#utility.yul\":1267:1273   */\n      0x00\n        /* \"#utility.yul\":1275:1281   */\n      dup1\n        /* \"#utility.yul\":1283:1289   */\n      0x00\n        /* \"#utility.yul\":1291:1297   */\n      dup1\n        /* \"#utility.yul\":1299:1305   */\n      0x00\n        /* \"#utility.yul\":1352:1355   */\n      0xa0\n        /* \"#utility.yul\":1340:1349   */\n      dup9\n        /* \"#utility.yul\":1331:1338   */\n      dup11\n        /* \"#utility.yul\":1327:1350   */\n      sub\n        /* \"#utility.yul\":1323:1356   */\n      slt\n        /* \"#utility.yul\":1320:1322   */\n      iszero\n      tag_105\n      jumpi\n        /* \"#utility.yul\":1374:1380   */\n      dup3\n        /* \"#utility.yul\":1366:1372   */\n      dup4\n        /* \"#utility.yul\":1359:1381   */\n      revert\n        /* \"#utility.yul\":1320:1322   */\n    tag_105:\n        /* \"#utility.yul\":1419:1428   */\n      dup8\n        /* \"#utility.yul\":1406:1429   */\n      calldataload\n        /* \"#utility.yul\":1448:1466   */\n      0xffffffffffffffff\n        /* \"#utility.yul\":1489:1491   */\n      dup1\n        /* \"#utility.yul\":1481:1487   */\n      dup3\n        /* \"#utility.yul\":1478:1492   */\n      gt\n        /* \"#utility.yul\":1475:1477   */\n      iszero\n      tag_106\n      jumpi\n        /* \"#utility.yul\":1510:1516   */\n      dup5\n        /* \"#utility.yul\":1502:1508   */\n      dup6\n        /* \"#utility.yul\":1495:1517   */\n      revert\n        /* \"#utility.yul\":1475:1477   */\n    tag_106:\n        /* \"#utility.yul\":1554:1613   */\n      tag_107\n        /* \"#utility.yul\":1605:1612   */\n      dup12\n        /* \"#utility.yul\":1596:1602   */\n      dup4\n        /* \"#utility.yul\":1585:1594   */\n      dup13\n        /* \"#utility.yul\":1581:1603   */\n      add\n        /* \"#utility.yul\":1554:1613   */\n      tag_90\n      jump\t// in\n    tag_107:\n        /* \"#utility.yul\":1632:1640   */\n      swap1\n      swap10\n      pop\n        /* \"#utility.yul\":1528:1613   */\n      swap8\n      pop\n        /* \"#utility.yul\":1714:1716   */\n      0x20\n        /* \"#utility.yul\":1699:1717   */\n      dup11\n      add\n        /* \"#utility.yul\":1686:1718   */\n      calldataload\n      swap7\n      pop\n        /* \"#utility.yul\":1768:1770   */\n      0x40\n        /* \"#utility.yul\":1753:1771   */\n      dup11\n      add\n        /* \"#utility.yul\":1740:1772   */\n      calldataload\n      swap2\n      pop\n      sub(shl(0xa0, 0x01), 0x01)\n        /* \"#utility.yul\":1801:1832   */\n      dup3\n      and\n        /* \"#utility.yul\":1791:1833   */\n      dup3\n      eq\n        /* \"#utility.yul\":1781:1783   */\n      tag_108\n      jumpi\n        /* \"#utility.yul\":1852:1858   */\n      dup5\n        /* \"#utility.yul\":1844:1850   */\n      dup6\n        /* \"#utility.yul\":1837:1859   */\n      revert\n        /* \"#utility.yul\":1781:1783   */\n    tag_108:\n        /* \"#utility.yul\":1880:1885   */\n      swap1\n      swap5\n      pop\n        /* \"#utility.yul\":1938:1940   */\n      0x60\n        /* \"#utility.yul\":1923:1941   */\n      dup10\n      add\n        /* \"#utility.yul\":1910:1942   */\n      calldataload\n      swap1\n        /* \"#utility.yul\":1954:1970   */\n      dup1\n      dup3\n      gt\n        /* \"#utility.yul\":1951:1953   */\n      iszero\n      tag_109\n      jumpi\n        /* \"#utility.yul\":1988:1994   */\n      dup5\n        /* \"#utility.yul\":1980:1986   */\n      dup6\n        /* \"#utility.yul\":1973:1995   */\n      revert\n        /* \"#utility.yul\":1951:1953   */\n    tag_109:\n      pop\n        /* \"#utility.yul\":2032:2093   */\n      tag_110\n        /* \"#utility.yul\":2085:2092   */\n      dup11\n        /* \"#utility.yul\":2074:2082   */\n      dup3\n        /* \"#utility.yul\":2063:2072   */\n      dup12\n        /* \"#utility.yul\":2059:2083   */\n      add\n        /* \"#utility.yul\":2032:2093   */\n      tag_90\n      jump\t// in\n    tag_110:\n        /* \"#utility.yul\":2112:2120   */\n      swap1\n      swap5\n      pop\n        /* \"#utility.yul\":2006:2093   */\n      swap3\n      pop\n      pop\n        /* \"#utility.yul\":2199:2202   */\n      0x80\n        /* \"#utility.yul\":2184:2203   */\n      dup9\n      add\n        /* \"#utility.yul\":2171:2204   */\n      calldataload\n        /* \"#utility.yul\":2242:2257   */\n      dup1\n      iszero\n        /* \"#utility.yul\":2235:2258   */\n      iszero\n        /* \"#utility.yul\":2223:2259   */\n      dup2\n      eq\n        /* \"#utility.yul\":2213:2215   */\n      tag_111\n      jumpi\n        /* \"#utility.yul\":2278:2284   */\n      dup2\n        /* \"#utility.yul\":2270:2276   */\n      dup3\n        /* \"#utility.yul\":2263:2285   */\n      revert\n        /* \"#utility.yul\":2213:2215   */\n    tag_111:\n        /* \"#utility.yul\":2306:2313   */\n      dup1\n        /* \"#utility.yul\":2296:2313   */\n      swap2\n      pop\n      pop\n        /* \"#utility.yul\":1310:2319   */\n      swap3\n      swap6\n      swap9\n      swap2\n      swap5\n      swap8\n      pop\n      swap3\n      swap6\n      pop\n      jump\t// out\n        /* \"#utility.yul\":2324:2514   */\n    tag_10:\n        /* \"#utility.yul\":2383:2389   */\n      0x00\n        /* \"#utility.yul\":2436:2438   */\n      0x20\n        /* \"#utility.yul\":2424:2433   */\n      dup3\n        /* \"#utility.yul\":2415:2422   */\n      dup5\n        /* \"#utility.yul\":2411:2434   */\n      sub\n        /* \"#utility.yul\":2407:2439   */\n      slt\n        /* \"#utility.yul\":2404:2406   */\n      iszero\n      tag_113\n      jumpi\n        /* \"#utility.yul\":2457:2463   */\n      dup1\n        /* \"#utility.yul\":2449:2455   */\n      dup2\n        /* \"#utility.yul\":2442:2464   */\n      revert\n        /* \"#utility.yul\":2404:2406   */\n    tag_113:\n      pop\n        /* \"#utility.yul\":2485:2508   */\n      calldataload\n      swap2\n        /* \"#utility.yul\":2394:2514   */\n      swap1\n      pop\n      jump\t// out\n        /* \"#utility.yul\":2519:3229   */\n    tag_19:\n        /* \"#utility.yul\":2625:2631   */\n      0x00\n        /* \"#utility.yul\":2633:2639   */\n      dup1\n        /* \"#utility.yul\":2641:2647   */\n      0x00\n        /* \"#utility.yul\":2649:2655   */\n      dup1\n        /* \"#utility.yul\":2702:2705   */\n      0x80\n        /* \"#utility.yul\":2690:2699   */\n      dup6\n        /* \"#utility.yul\":2681:2688   */\n      dup8\n        /* \"#utility.yul\":2677:2700   */\n      sub\n        /* \"#utility.yul\":2673:2706   */\n      slt\n        /* \"#utility.yul\":2670:2672   */\n      iszero\n      tag_115\n      jumpi\n        /* \"#utility.yul\":2724:2730   */\n      dup4\n        /* \"#utility.yul\":2716:2722   */\n      dup5\n        /* \"#utility.yul\":2709:2731   */\n      revert\n        /* \"#utility.yul\":2670:2672   */\n    tag_115:\n        /* \"#utility.yul\":2765:2774   */\n      dup5\n        /* \"#utility.yul\":2752:2775   */\n      calldataload\n        /* \"#utility.yul\":2742:2775   */\n      swap4\n      pop\n        /* \"#utility.yul\":2826:2828   */\n      0x20\n        /* \"#utility.yul\":2815:2824   */\n      dup6\n        /* \"#utility.yul\":2811:2829   */\n      add\n        /* \"#utility.yul\":2798:2830   */\n      calldataload\n        /* \"#utility.yul\":2849:2867   */\n      0xffffffffffffffff\n        /* \"#utility.yul\":2890:2892   */\n      dup1\n        /* \"#utility.yul\":2882:2888   */\n      dup3\n        /* \"#utility.yul\":2879:2893   */\n      gt\n        /* \"#utility.yul\":2876:2878   */\n      iszero\n      tag_116\n      jumpi\n        /* \"#utility.yul\":2911:2917   */\n      dup5\n        /* \"#utility.yul\":2903:2909   */\n      dup6\n        /* \"#utility.yul\":2896:2918   */\n      revert\n        /* \"#utility.yul\":2876:2878   */\n    tag_116:\n        /* \"#utility.yul\":2939:2989   */\n      tag_117\n        /* \"#utility.yul\":2981:2988   */\n      dup9\n        /* \"#utility.yul\":2972:2978   */\n      dup4\n        /* \"#utility.yul\":2961:2970   */\n      dup10\n        /* \"#utility.yul\":2957:2979   */\n      add\n        /* \"#utility.yul\":2939:2989   */\n      tag_95\n      jump\t// in\n    tag_117:\n        /* \"#utility.yul\":2929:2989   */\n      swap5\n      pop\n        /* \"#utility.yul\":3036:3038   */\n      0x40\n        /* \"#utility.yul\":3025:3034   */\n      dup8\n        /* \"#utility.yul\":3021:3039   */\n      add\n        /* \"#utility.yul\":3008:3040   */\n      calldataload\n        /* \"#utility.yul\":2998:3040   */\n      swap4\n      pop\n        /* \"#utility.yul\":3093:3095   */\n      0x60\n        /* \"#utility.yul\":3082:3091   */\n      dup8\n        /* \"#utility.yul\":3078:3096   */\n      add\n        /* \"#utility.yul\":3065:3097   */\n      calldataload\n        /* \"#utility.yul\":3049:3097   */\n      swap2\n      pop\n        /* \"#utility.yul\":3122:3124   */\n      dup1\n        /* \"#utility.yul\":3112:3120   */\n      dup3\n        /* \"#utility.yul\":3109:3125   */\n      gt\n        /* \"#utility.yul\":3106:3108   */\n      iszero\n      tag_118\n      jumpi\n        /* \"#utility.yul\":3143:3149   */\n      dup3\n        /* \"#utility.yul\":3135:3141   */\n      dup4\n        /* \"#utility.yul\":3128:3150   */\n      revert\n        /* \"#utility.yul\":3106:3108   */\n    tag_118:\n      pop\n        /* \"#utility.yul\":3171:3223   */\n      tag_119\n        /* \"#utility.yul\":3215:3222   */\n      dup8\n        /* \"#utility.yul\":3204:3212   */\n      dup3\n        /* \"#utility.yul\":3193:3202   */\n      dup9\n        /* \"#utility.yul\":3189:3213   */\n      add\n        /* \"#utility.yul\":3171:3223   */\n      tag_95\n      jump\t// in\n    tag_119:\n        /* \"#utility.yul\":3161:3223   */\n      swap2\n      pop\n      pop\n        /* \"#utility.yul\":2660:3229   */\n      swap3\n      swap6\n      swap2\n      swap5\n      pop\n      swap3\n      pop\n      jump\t// out\n        /* \"#utility.yul\":3234:3710   */\n    tag_120:\n        /* \"#utility.yul\":3276:3279   */\n      0x00\n        /* \"#utility.yul\":3314:3319   */\n      dup2\n        /* \"#utility.yul\":3308:3320   */\n      mload\n        /* \"#utility.yul\":3341:3347   */\n      dup1\n        /* \"#utility.yul\":3336:3339   */\n      dup5\n        /* \"#utility.yul\":3329:3348   */\n      mstore\n        /* \"#utility.yul\":3366:3369   */\n      dup2\n        /* \"#utility.yul\":3378:3540   */\n    tag_122:\n        /* \"#utility.yul\":3392:3398   */\n      dup2\n        /* \"#utility.yul\":3389:3390   */\n      dup2\n        /* \"#utility.yul\":3386:3399   */\n      lt\n        /* \"#utility.yul\":3378:3540   */\n      iszero\n      tag_124\n      jumpi\n        /* \"#utility.yul\":3454:3458   */\n      0x20\n        /* \"#utility.yul\":3510:3523   */\n      dup2\n      dup6\n      add\n        /* \"#utility.yul\":3506:3528   */\n      dup2\n      add\n        /* \"#utility.yul\":3500:3529   */\n      mload\n        /* \"#utility.yul\":3482:3493   */\n      dup7\n      dup4\n      add\n        /* \"#utility.yul\":3478:3498   */\n      dup3\n      add\n        /* \"#utility.yul\":3471:3530   */\n      mstore\n        /* \"#utility.yul\":3407:3419   */\n      add\n        /* \"#utility.yul\":3378:3540   */\n      jump(tag_122)\n    tag_124:\n        /* \"#utility.yul\":3558:3564   */\n      dup2\n        /* \"#utility.yul\":3555:3556   */\n      dup2\n        /* \"#utility.yul\":3552:3565   */\n      gt\n        /* \"#utility.yul\":3549:3551   */\n      iszero\n      tag_125\n      jumpi\n        /* \"#utility.yul\":3624:3627   */\n      dup3\n        /* \"#utility.yul\":3617:3621   */\n      0x20\n        /* \"#utility.yul\":3608:3614   */\n      dup4\n        /* \"#utility.yul\":3603:3606   */\n      dup8\n        /* \"#utility.yul\":3599:3615   */\n      add\n        /* \"#utility.yul\":3595:3622   */\n      add\n        /* \"#utility.yul\":3588:3628   */\n      mstore\n        /* \"#utility.yul\":3549:3551   */\n    tag_125:\n      pop\n        /* \"#utility.yul\":3692:3694   */\n      0x1f\n        /* \"#utility.yul\":3671:3686   */\n      add\n      not(0x1f)\n        /* \"#utility.yul\":3667:3696   */\n      and\n        /* \"#utility.yul\":3658:3697   */\n      swap3\n      swap1\n      swap3\n      add\n        /* \"#utility.yul\":3699:3703   */\n      0x20\n        /* \"#utility.yul\":3654:3704   */\n      add\n      swap3\n        /* \"#utility.yul\":3284:3710   */\n      swap2\n      pop\n      pop\n      jump\t// out\n        /* \"#utility.yul\":3715:4350   */\n    tag_13:\n        /* \"#utility.yul\":3990:3993   */\n      0xa0\n        /* \"#utility.yul\":3979:3988   */\n      dup2\n        /* \"#utility.yul\":3972:3994   */\n      mstore\n        /* \"#utility.yul\":3953:3957   */\n      0x00\n        /* \"#utility.yul\":4017:4063   */\n      tag_127\n        /* \"#utility.yul\":4058:4061   */\n      0xa0\n        /* \"#utility.yul\":4047:4056   */\n      dup4\n        /* \"#utility.yul\":4043:4062   */\n      add\n        /* \"#utility.yul\":4035:4041   */\n      dup9\n        /* \"#utility.yul\":4017:4063   */\n      tag_120\n      jump\t// in\n    tag_127:\n        /* \"#utility.yul\":4094:4096   */\n      0x20\n        /* \"#utility.yul\":4079:4097   */\n      dup4\n      add\n        /* \"#utility.yul\":4072:4106   */\n      dup8\n      swap1\n      mstore\n      sub(shl(0xa0, 0x01), 0x01)\n        /* \"#utility.yul\":4142:4174   */\n      dup7\n      and\n        /* \"#utility.yul\":4137:4139   */\n      0x40\n        /* \"#utility.yul\":4122:4140   */\n      dup5\n      add\n        /* \"#utility.yul\":4115:4175   */\n      mstore\n        /* \"#utility.yul\":4211:4233   */\n      dup3\n      dup2\n      sub\n        /* \"#utility.yul\":4206:4208   */\n      0x60\n        /* \"#utility.yul\":4191:4209   */\n      dup5\n      add\n        /* \"#utility.yul\":4184:4234   */\n      mstore\n        /* \"#utility.yul\":4251:4284   */\n      tag_128\n        /* \"#utility.yul\":4215:4221   */\n      dup2\n        /* \"#utility.yul\":4269:4275   */\n      dup7\n        /* \"#utility.yul\":4251:4284   */\n      tag_120\n      jump\t// in\n    tag_128:\n        /* \"#utility.yul\":4243:4284   */\n      swap2\n      pop\n      pop\n        /* \"#utility.yul\":4335:4341   */\n      dup3\n        /* \"#utility.yul\":4328:4342   */\n      iszero\n        /* \"#utility.yul\":4321:4343   */\n      iszero\n        /* \"#utility.yul\":4315:4318   */\n      0x80\n        /* \"#utility.yul\":4304:4313   */\n      dup4\n        /* \"#utility.yul\":4300:4319   */\n      add\n        /* \"#utility.yul\":4293:4344   */\n      mstore\n        /* \"#utility.yul\":3962:4350   */\n      swap7\n      swap6\n      pop\n      pop\n      pop\n      pop\n      pop\n      pop\n      jump\t// out\n        /* \"#utility.yul\":4355:4692   */\n    tag_45:\n        /* \"#utility.yul\":4557:4559   */\n      0x20\n        /* \"#utility.yul\":4539:4560   */\n      dup1\n      dup3\n      mstore\n        /* \"#utility.yul\":4596:4598   */\n      0x0d\n        /* \"#utility.yul\":4576:4594   */\n      swap1\n      dup3\n      add\n        /* \"#utility.yul\":4569:4599   */\n      mstore\n      shl(0x9b, 0x092dcecc2d8d2c840d2dcc8caf)\n        /* \"#utility.yul\":4630:4632   */\n      0x40\n        /* \"#utility.yul\":4615:4633   */\n      dup3\n      add\n        /* \"#utility.yul\":4608:4651   */\n      mstore\n        /* \"#utility.yul\":4683:4685   */\n      0x60\n        /* \"#utility.yul\":4668:4686   */\n      add\n      swap1\n        /* \"#utility.yul\":4529:4692   */\n      jump\t// out\n        /* \"#utility.yul\":4697:5077   */\n    tag_32:\n        /* \"#utility.yul\":4776:4777   */\n      0x01\n        /* \"#utility.yul\":4772:4784   */\n      dup2\n      dup2\n      shr\n      swap1\n        /* \"#utility.yul\":4819:4831   */\n      dup3\n      and\n      dup1\n        /* \"#utility.yul\":4840:4842   */\n      tag_131\n      jumpi\n        /* \"#utility.yul\":4894:4898   */\n      0x7f\n        /* \"#utility.yul\":4886:4892   */\n      dup3\n        /* \"#utility.yul\":4882:4899   */\n      and\n        /* \"#utility.yul\":4872:4899   */\n      swap2\n      pop\n        /* \"#utility.yul\":4840:4842   */\n    tag_131:\n        /* \"#utility.yul\":4947:4949   */\n      0x20\n        /* \"#utility.yul\":4939:4945   */\n      dup3\n        /* \"#utility.yul\":4936:4950   */\n      lt\n        /* \"#utility.yul\":4916:4934   */\n      dup2\n        /* \"#utility.yul\":4913:4951   */\n      eq\n        /* \"#utility.yul\":4910:4912   */\n      iszero\n      tag_132\n      jumpi\n        /* \"#utility.yul\":4993:5003   */\n      0x4e487b71\n        /* \"#utility.yul\":4988:4991   */\n      0xe0\n        /* \"#utility.yul\":4984:5004   */\n      shl\n        /* \"#utility.yul\":4981:4982   */\n      0x00\n        /* \"#utility.yul\":4974:5005   */\n      mstore\n        /* \"#utility.yul\":5028:5032   */\n      0x22\n        /* \"#utility.yul\":5025:5026   */\n      0x04\n        /* \"#utility.yul\":5018:5033   */\n      mstore\n        /* \"#utility.yul\":5056:5060   */\n      0x24\n        /* \"#utility.yul\":5053:5054   */\n      0x00\n        /* \"#utility.yul\":5046:5061   */\n      revert\n        /* \"#utility.yul\":4910:4912   */\n    tag_132:\n      pop\n        /* \"#utility.yul\":4752:5077   */\n      swap2\n      swap1\n      pop\n      jump\t// out\n        /* \"#utility.yul\":5082:5209   */\n    tag_100:\n        /* \"#utility.yul\":5143:5153   */\n      0x4e487b71\n        /* \"#utility.yul\":5138:5141   */\n      0xe0\n        /* \"#utility.yul\":5134:5154   */\n      shl\n        /* \"#utility.yul\":5131:5132   */\n      0x00\n        /* \"#utility.yul\":5124:5155   */\n      mstore\n        /* \"#utility.yul\":5174:5178   */\n      0x41\n        /* \"#utility.yul\":5171:5172   */\n      0x04\n        /* \"#utility.yul\":5164:5179   */\n      mstore\n        /* \"#utility.yul\":5198:5202   */\n      0x24\n        /* \"#utility.yul\":5195:5196   */\n      0x00\n        /* \"#utility.yul\":5188:5203   */\n      revert\n\n    auxdata: 0xa26469706673582212205f711dce7d508c0197be25901917d4b1a29b5a3d03d8e7c404d96c6d2b0fe75764736f6c63430008040033\n}\n",
				"bytecode": {
					"linkReferences": {},
					"object": "608060405234801561001057600080fd5b50610a6c806100206000396000f3fe608060405234801561001057600080fd5b50600436106100575760003560e01c806328de3c9b1461005c5780637da3b5c114610089578063b3f5d0d71461009e578063bb18218d146100b1578063d379dadf146100c4575b600080fd5b61006f61006a366004610897565b6100d7565b60405161008095949392919061096e565b60405180910390f35b61009c610097366004610897565b61023e565b005b61009c6100ac3660046108af565b6102af565b61009c6100bf3660046107e9565b61039b565b61006f6100d2366004610897565b6104ce565b600081815481106100e757600080fd5b906000526020600020906005020160009150905080600001805461010a906109e5565b80601f0160208091040260200160405190810160405280929190818152602001828054610136906109e5565b80156101835780601f1061015857610100808354040283529160200191610183565b820191906000526020600020905b81548152906001019060200180831161016657829003601f168201915b5050505060018301546002840154600385018054949592946001600160a01b039092169350906101b2906109e5565b80601f01602080910402602001604051908101604052809291908181526020018280546101de906109e5565b801561022b5780601f106102005761010080835404028352916020019161022b565b820191906000526020600020905b81548152906001019060200180831161020e57829003601f168201915b5050506004909301549192505060ff1685565b60005481106102685760405162461bcd60e51b815260040161025f906109be565b60405180910390fd5b600080828154811061028a57634e487b7160e01b600052603260045260246000fd5b60009182526020909120600590910201600401805460ff191691151591909117905550565b60005484106102d05760405162461bcd60e51b815260040161025f906109be565b82600085815481106102f257634e487b7160e01b600052603260045260246000fd5b90600052602060002090600502016000019080519060200190610316929190610682565b50816000858154811061033957634e487b7160e01b600052603260045260246000fd5b906000526020600020906005020160010181905550806000858154811061037057634e487b7160e01b600052603260045260246000fd5b90600052602060002090600502016003019080519060200190610394929190610682565b5050505050565b6040805160c06020601f8a01819004028201810190925260a081018881526000928291908b908b908190850183828082843760009201919091525050509082525060208082018990526001600160a01b0388166040808401919091528051601f880183900483028101830190915286815260609092019190879087908190840183828082843760009201829052509385525050508415156020928301528354600181018555938152819020825180519394600502909101926104609284920190610682565b50602082810151600183015560408301516002830180546001600160a01b0319166001600160a01b03909216919091179055606083015180516104a99260038501920190610682565b50608091909101516004909101805460ff191691151591909117905550505050505050565b606060008060606000808054905086106104fa5760405162461bcd60e51b815260040161025f906109be565b600080878154811061051c57634e487b7160e01b600052603260045260246000fd5b60009182526020909120600590910201600181015460028201546004830154835493945084936001600160a01b0390921691600385019160ff16908590610562906109e5565b80601f016020809104026020016040519081016040528092919081815260200182805461058e906109e5565b80156105db5780601f106105b0576101008083540402835291602001916105db565b820191906000526020600020905b8154815290600101906020018083116105be57829003601f168201915b505050505094508180546105ee906109e5565b80601f016020809104026020016040519081016040528092919081815260200182805461061a906109e5565b80156106675780601f1061063c57610100808354040283529160200191610667565b820191906000526020600020905b81548152906001019060200180831161064a57829003601f168201915b50505050509150955095509550955095505091939590929450565b82805461068e906109e5565b90600052602060002090601f0160209004810192826106b057600085556106f6565b82601f106106c957805160ff19168380011785556106f6565b828001600101855582156106f6579182015b828111156106f65782518255916020019190600101906106db565b50610702929150610706565b5090565b5b808211156107025760008155600101610707565b60008083601f84011261072c578081fd5b50813567ffffffffffffffff811115610743578182fd5b60208301915083602082850101111561075b57600080fd5b9250929050565b600082601f830112610772578081fd5b813567ffffffffffffffff8082111561078d5761078d610a20565b604051601f8301601f19908116603f011681019082821181831017156107b5576107b5610a20565b816040528381528660208588010111156107cd578485fd5b8360208701602083013792830160200193909352509392505050565b600080600080600080600060a0888a031215610803578283fd5b873567ffffffffffffffff8082111561081a578485fd5b6108268b838c0161071b565b909950975060208a0135965060408a013591506001600160a01b038216821461084d578485fd5b90945060608901359080821115610862578485fd5b5061086f8a828b0161071b565b90945092505060808801358015158114610887578182fd5b8091505092959891949750929550565b6000602082840312156108a8578081fd5b5035919050565b600080600080608085870312156108c4578384fd5b84359350602085013567ffffffffffffffff808211156108e2578485fd5b6108ee88838901610762565b945060408701359350606087013591508082111561090a578283fd5b5061091787828801610762565b91505092959194509250565b60008151808452815b818110156109485760208185018101518683018201520161092c565b818111156109595782602083870101525b50601f01601f19169290920160200192915050565b60a08152600061098160a0830188610923565b602083018790526001600160a01b038616604084015282810360608401526109a98186610923565b91505082151560808301529695505050505050565b6020808252600d908201526c092dcecc2d8d2c840d2dcc8caf609b1b604082015260600190565b600181811c908216806109f957607f821691505b60208210811415610a1a57634e487b7160e01b600052602260045260246000fd5b50919050565b634e487b7160e01b600052604160045260246000fdfea26469706673582212205f711dce7d508c0197be25901917d4b1a29b5a3d03d8e7c404d96c6d2b0fe75764736f6c63430008040033",
					"opcodes": "PUSH1 0x80 PUSH1 0x40 MSTORE CALLVALUE DUP1 ISZERO PUSH2 0x10 JUMPI PUSH1 0x0 DUP1 REVERT JUMPDEST POP PUSH2 0xA6C DUP1 PUSH2 0x20 PUSH1 0x0 CODECOPY PUSH1 0x0 RETURN INVALID PUSH1 0x80 PUSH1 0x40 MSTORE CALLVALUE DUP1 ISZERO PUSH2 0x10 JUMPI PUSH1 0x0 DUP1 REVERT JUMPDEST POP PUSH1 0x4 CALLDATASIZE LT PUSH2 0x57 JUMPI PUSH1 0x0 CALLDATALOAD PUSH1 0xE0 SHR DUP1 PUSH4 0x28DE3C9B EQ PUSH2 0x5C JUMPI DUP1 PUSH4 0x7DA3B5C1 EQ PUSH2 0x89 JUMPI DUP1 PUSH4 0xB3F5D0D7 EQ PUSH2 0x9E JUMPI DUP1 PUSH4 0xBB18218D EQ PUSH2 0xB1 JUMPI DUP1 PUSH4 0xD379DADF EQ PUSH2 0xC4 JUMPI JUMPDEST PUSH1 0x0 DUP1 REVERT JUMPDEST PUSH2 0x6F PUSH2 0x6A CALLDATASIZE PUSH1 0x4 PUSH2 0x897 JUMP JUMPDEST PUSH2 0xD7 JUMP JUMPDEST PUSH1 0x40 MLOAD PUSH2 0x80 SWAP6 SWAP5 SWAP4 SWAP3 SWAP2 SWAP1 PUSH2 0x96E JUMP JUMPDEST PUSH1 0x40 MLOAD DUP1 SWAP2 SUB SWAP1 RETURN JUMPDEST PUSH2 0x9C PUSH2 0x97 CALLDATASIZE PUSH1 0x4 PUSH2 0x897 JUMP JUMPDEST PUSH2 0x23E JUMP JUMPDEST STOP JUMPDEST PUSH2 0x9C PUSH2 0xAC CALLDATASIZE PUSH1 0x4 PUSH2 0x8AF JUMP JUMPDEST PUSH2 0x2AF JUMP JUMPDEST PUSH2 0x9C PUSH2 0xBF CALLDATASIZE PUSH1 0x4 PUSH2 0x7E9 JUMP JUMPDEST PUSH2 0x39B JUMP JUMPDEST PUSH2 0x6F PUSH2 0xD2 CALLDATASIZE PUSH1 0x4 PUSH2 0x897 JUMP JUMPDEST PUSH2 0x4CE JUMP JUMPDEST PUSH1 0x0 DUP2 DUP2 SLOAD DUP2 LT PUSH2 0xE7 JUMPI PUSH1 0x0 DUP1 REVERT JUMPDEST SWAP1 PUSH1 0x0 MSTORE PUSH1 0x20 PUSH1 0x0 KECCAK256 SWAP1 PUSH1 0x5 MUL ADD PUSH1 0x0 SWAP2 POP SWAP1 POP DUP1 PUSH1 0x0 ADD DUP1 SLOAD PUSH2 0x10A SWAP1 PUSH2 0x9E5 JUMP JUMPDEST DUP1 PUSH1 0x1F ADD PUSH1 0x20 DUP1 SWAP2 DIV MUL PUSH1 0x20 ADD PUSH1 0x40 MLOAD SWAP1 DUP2 ADD PUSH1 0x40 MSTORE DUP1 SWAP3 SWAP2 SWAP1 DUP2 DUP2 MSTORE PUSH1 0x20 ADD DUP3 DUP1 SLOAD PUSH2 0x136 SWAP1 PUSH2 0x9E5 JUMP JUMPDEST DUP1 ISZERO PUSH2 0x183 JUMPI DUP1 PUSH1 0x1F LT PUSH2 0x158 JUMPI PUSH2 0x100 DUP1 DUP4 SLOAD DIV MUL DUP4 MSTORE SWAP2 PUSH1 0x20 ADD SWAP2 PUSH2 0x183 JUMP JUMPDEST DUP3 ADD SWAP2 SWAP1 PUSH1 0x0 MSTORE PUSH1 0x20 PUSH1 0x0 KECCAK256 SWAP1 JUMPDEST DUP2 SLOAD DUP2 MSTORE SWAP1 PUSH1 0x1 ADD SWAP1 PUSH1 0x20 ADD DUP1 DUP4 GT PUSH2 0x166 JUMPI DUP3 SWAP1 SUB PUSH1 0x1F AND DUP3 ADD SWAP2 JUMPDEST POP POP POP POP PUSH1 0x1 DUP4 ADD SLOAD PUSH1 0x2 DUP5 ADD SLOAD PUSH1 0x3 DUP6 ADD DUP1 SLOAD SWAP5 SWAP6 SWAP3 SWAP5 PUSH1 0x1 PUSH1 0x1 PUSH1 0xA0 SHL SUB SWAP1 SWAP3 AND SWAP4 POP SWAP1 PUSH2 0x1B2 SWAP1 PUSH2 0x9E5 JUMP JUMPDEST DUP1 PUSH1 0x1F ADD PUSH1 0x20 DUP1 SWAP2 DIV MUL PUSH1 0x20 ADD PUSH1 0x40 MLOAD SWAP1 DUP2 ADD PUSH1 0x40 MSTORE DUP1 SWAP3 SWAP2 SWAP1 DUP2 DUP2 MSTORE PUSH1 0x20 ADD DUP3 DUP1 SLOAD PUSH2 0x1DE SWAP1 PUSH2 0x9E5 JUMP JUMPDEST DUP1 ISZERO PUSH2 0x22B JUMPI DUP1 PUSH1 0x1F LT PUSH2 0x200 JUMPI PUSH2 0x100 DUP1 DUP4 SLOAD DIV MUL DUP4 MSTORE SWAP2 PUSH1 0x20 ADD SWAP2 PUSH2 0x22B JUMP JUMPDEST DUP3 ADD SWAP2 SWAP1 PUSH1 0x0 MSTORE PUSH1 0x20 PUSH1 0x0 KECCAK256 SWAP1 JUMPDEST DUP2 SLOAD DUP2 MSTORE SWAP1 PUSH1 0x1 ADD SWAP1 PUSH1 0x20 ADD DUP1 DUP4 GT PUSH2 0x20E JUMPI DUP3 SWAP1 SUB PUSH1 0x1F AND DUP3 ADD SWAP2 JUMPDEST POP POP POP PUSH1 0x4 SWAP1 SWAP4 ADD SLOAD SWAP2 SWAP3 POP POP PUSH1 0xFF AND DUP6 JUMP JUMPDEST PUSH1 0x0 SLOAD DUP2 LT PUSH2 0x268 JUMPI PUSH1 0x40 MLOAD PUSH3 0x461BCD PUSH1 0xE5 SHL DUP2 MSTORE PUSH1 0x4 ADD PUSH2 0x25F SWAP1 PUSH2 0x9BE JUMP JUMPDEST PUSH1 0x40 MLOAD DUP1 SWAP2 SUB SWAP1 REVERT JUMPDEST PUSH1 0x0 DUP1 DUP3 DUP2 SLOAD DUP2 LT PUSH2 0x28A JUMPI PUSH4 0x4E487B71 PUSH1 0xE0 SHL PUSH1 0x0 MSTORE PUSH1 0x32 PUSH1 0x4 MSTORE PUSH1 0x24 PUSH1 0x0 REVERT JUMPDEST PUSH1 0x0 SWAP2 DUP3 MSTORE PUSH1 0x20 SWAP1 SWAP2 KECCAK256 PUSH1 0x5 SWAP1 SWAP2 MUL ADD PUSH1 0x4 ADD DUP1 SLOAD PUSH1 0xFF NOT AND SWAP2 ISZERO ISZERO SWAP2 SWAP1 SWAP2 OR SWAP1 SSTORE POP JUMP JUMPDEST PUSH1 0x0 SLOAD DUP5 LT PUSH2 0x2D0 JUMPI PUSH1 0x40 MLOAD PUSH3 0x461BCD PUSH1 0xE5 SHL DUP2 MSTORE PUSH1 0x4 ADD PUSH2 0x25F SWAP1 PUSH2 0x9BE JUMP JUMPDEST DUP3 PUSH1 0x0 DUP6 DUP2 SLOAD DUP2 LT PUSH2 0x2F2 JUMPI PUSH4 0x4E487B71 PUSH1 0xE0 SHL PUSH1 0x0 MSTORE PUSH1 0x32 PUSH1 0x4 MSTORE PUSH1 0x24 PUSH1 0x0 REVERT JUMPDEST SWAP1 PUSH1 0x0 MSTORE PUSH1 0x20 PUSH1 0x0 KECCAK256 SWAP1 PUSH1 0x5 MUL ADD PUSH1 0x0 ADD SWAP1 DUP1 MLOAD SWAP1 PUSH1 0x20 ADD SWAP1 PUSH2 0x316 SWAP3 SWAP2 SWAP1 PUSH2 0x682 JUMP JUMPDEST POP DUP2 PUSH1 0x0 DUP6 DUP2 SLOAD DUP2 LT PUSH2 0x339 JUMPI PUSH4 0x4E487B71 PUSH1 0xE0 SHL PUSH1 0x0 MSTORE PUSH1 0x32 PUSH1 0x4 MSTORE PUSH1 0x24 PUSH1 0x0 REVERT JUMPDEST SWAP1 PUSH1 0x0 MSTORE PUSH1 0x20 PUSH1 0x0 KECCAK256 SWAP1 PUSH1 0x5 MUL ADD PUSH1 0x1 ADD DUP2 SWAP1 SSTORE POP DUP1 PUSH1 0x0 DUP6 DUP2 SLOAD DUP2 LT PUSH2 0x370 JUMPI PUSH4 0x4E487B71 PUSH1 0xE0 SHL PUSH1 0x0 MSTORE PUSH1 0x32 PUSH1 0x4 MSTORE PUSH1 0x24 PUSH1 0x0 REVERT JUMPDEST SWAP1 PUSH1 0x0 MSTORE PUSH1 0x20 PUSH1 0x0 KECCAK256 SWAP1 PUSH1 0x5 MUL ADD PUSH1 0x3 ADD SWAP1 DUP1 MLOAD SWAP1 PUSH1 0x20 ADD SWAP1 PUSH2 0x394 SWAP3 SWAP2 SWAP1 PUSH2 0x682 JUMP JUMPDEST POP POP POP POP POP JUMP JUMPDEST PUSH1 0x40 DUP1 MLOAD PUSH1 0xC0 PUSH1 0x20 PUSH1 0x1F DUP11 ADD DUP2 SWAP1 DIV MUL DUP3 ADD DUP2 ADD SWAP1 SWAP3 MSTORE PUSH1 0xA0 DUP2 ADD DUP9 DUP2 MSTORE PUSH1 0x0 SWAP3 DUP3 SWAP2 SWAP1 DUP12 SWAP1 DUP12 SWAP1 DUP2 SWAP1 DUP6 ADD DUP4 DUP3 DUP1 DUP3 DUP5 CALLDATACOPY PUSH1 0x0 SWAP3 ADD SWAP2 SWAP1 SWAP2 MSTORE POP POP POP SWAP1 DUP3 MSTORE POP PUSH1 0x20 DUP1 DUP3 ADD DUP10 SWAP1 MSTORE PUSH1 0x1 PUSH1 0x1 PUSH1 0xA0 SHL SUB DUP9 AND PUSH1 0x40 DUP1 DUP5 ADD SWAP2 SWAP1 SWAP2 MSTORE DUP1 MLOAD PUSH1 0x1F DUP9 ADD DUP4 SWAP1 DIV DUP4 MUL DUP2 ADD DUP4 ADD SWAP1 SWAP2 MSTORE DUP7 DUP2 MSTORE PUSH1 0x60 SWAP1 SWAP3 ADD SWAP2 SWAP1 DUP8 SWAP1 DUP8 SWAP1 DUP2 SWAP1 DUP5 ADD DUP4 DUP3 DUP1 DUP3 DUP5 CALLDATACOPY PUSH1 0x0 SWAP3 ADD DUP3 SWAP1 MSTORE POP SWAP4 DUP6 MSTORE POP POP POP DUP5 ISZERO ISZERO PUSH1 0x20 SWAP3 DUP4 ADD MSTORE DUP4 SLOAD PUSH1 0x1 DUP2 ADD DUP6 SSTORE SWAP4 DUP2 MSTORE DUP2 SWAP1 KECCAK256 DUP3 MLOAD DUP1 MLOAD SWAP4 SWAP5 PUSH1 0x5 MUL SWAP1 SWAP2 ADD SWAP3 PUSH2 0x460 SWAP3 DUP5 SWAP3 ADD SWAP1 PUSH2 0x682 JUMP JUMPDEST POP PUSH1 0x20 DUP3 DUP2 ADD MLOAD PUSH1 0x1 DUP4 ADD SSTORE PUSH1 0x40 DUP4 ADD MLOAD PUSH1 0x2 DUP4 ADD DUP1 SLOAD PUSH1 0x1 PUSH1 0x1 PUSH1 0xA0 SHL SUB NOT AND PUSH1 0x1 PUSH1 0x1 PUSH1 0xA0 SHL SUB SWAP1 SWAP3 AND SWAP2 SWAP1 SWAP2 OR SWAP1 SSTORE PUSH1 0x60 DUP4 ADD MLOAD DUP1 MLOAD PUSH2 0x4A9 SWAP3 PUSH1 0x3 DUP6 ADD SWAP3 ADD SWAP1 PUSH2 0x682 JUMP JUMPDEST POP PUSH1 0x80 SWAP2 SWAP1 SWAP2 ADD MLOAD PUSH1 0x4 SWAP1 SWAP2 ADD DUP1 SLOAD PUSH1 0xFF NOT AND SWAP2 ISZERO ISZERO SWAP2 SWAP1 SWAP2 OR SWAP1 SSTORE POP POP POP POP POP POP POP JUMP JUMPDEST PUSH1 0x60 PUSH1 0x0 DUP1 PUSH1 0x60 PUSH1 0x0 DUP1 DUP1 SLOAD SWAP1 POP DUP7 LT PUSH2 0x4FA JUMPI PUSH1 0x40 MLOAD PUSH3 0x461BCD PUSH1 0xE5 SHL DUP2 MSTORE PUSH1 0x4 ADD PUSH2 0x25F SWAP1 PUSH2 0x9BE JUMP JUMPDEST PUSH1 0x0 DUP1 DUP8 DUP2 SLOAD DUP2 LT PUSH2 0x51C JUMPI PUSH4 0x4E487B71 PUSH1 0xE0 SHL PUSH1 0x0 MSTORE PUSH1 0x32 PUSH1 0x4 MSTORE PUSH1 0x24 PUSH1 0x0 REVERT JUMPDEST PUSH1 0x0 SWAP2 DUP3 MSTORE PUSH1 0x20 SWAP1 SWAP2 KECCAK256 PUSH1 0x5 SWAP1 SWAP2 MUL ADD PUSH1 0x1 DUP2 ADD SLOAD PUSH1 0x2 DUP3 ADD SLOAD PUSH1 0x4 DUP4 ADD SLOAD DUP4 SLOAD SWAP4 SWAP5 POP DUP5 SWAP4 PUSH1 0x1 PUSH1 0x1 PUSH1 0xA0 SHL SUB SWAP1 SWAP3 AND SWAP2 PUSH1 0x3 DUP6 ADD SWAP2 PUSH1 0xFF AND SWAP1 DUP6 SWAP1 PUSH2 0x562 SWAP1 PUSH2 0x9E5 JUMP JUMPDEST DUP1 PUSH1 0x1F ADD PUSH1 0x20 DUP1 SWAP2 DIV MUL PUSH1 0x20 ADD PUSH1 0x40 MLOAD SWAP1 DUP2 ADD PUSH1 0x40 MSTORE DUP1 SWAP3 SWAP2 SWAP1 DUP2 DUP2 MSTORE PUSH1 0x20 ADD DUP3 DUP1 SLOAD PUSH2 0x58E SWAP1 PUSH2 0x9E5 JUMP JUMPDEST DUP1 ISZERO PUSH2 0x5DB JUMPI DUP1 PUSH1 0x1F LT PUSH2 0x5B0 JUMPI PUSH2 0x100 DUP1 DUP4 SLOAD DIV MUL DUP4 MSTORE SWAP2 PUSH1 0x20 ADD SWAP2 PUSH2 0x5DB JUMP JUMPDEST DUP3 ADD SWAP2 SWAP1 PUSH1 0x0 MSTORE PUSH1 0x20 PUSH1 0x0 KECCAK256 SWAP1 JUMPDEST DUP2 SLOAD DUP2 MSTORE SWAP1 PUSH1 0x1 ADD SWAP1 PUSH1 0x20 ADD DUP1 DUP4 GT PUSH2 0x5BE JUMPI DUP3 SWAP1 SUB PUSH1 0x1F AND DUP3 ADD SWAP2 JUMPDEST POP POP POP POP POP SWAP5 POP DUP2 DUP1 SLOAD PUSH2 0x5EE SWAP1 PUSH2 0x9E5 JUMP JUMPDEST DUP1 PUSH1 0x1F ADD PUSH1 0x20 DUP1 SWAP2 DIV MUL PUSH1 0x20 ADD PUSH1 0x40 MLOAD SWAP1 DUP2 ADD PUSH1 0x40 MSTORE DUP1 SWAP3 SWAP2 SWAP1 DUP2 DUP2 MSTORE PUSH1 0x20 ADD DUP3 DUP1 SLOAD PUSH2 0x61A SWAP1 PUSH2 0x9E5 JUMP JUMPDEST DUP1 ISZERO PUSH2 0x667 JUMPI DUP1 PUSH1 0x1F LT PUSH2 0x63C JUMPI PUSH2 0x100 DUP1 DUP4 SLOAD DIV MUL DUP4 MSTORE SWAP2 PUSH1 0x20 ADD SWAP2 PUSH2 0x667 JUMP JUMPDEST DUP3 ADD SWAP2 SWAP1 PUSH1 0x0 MSTORE PUSH1 0x20 PUSH1 0x0 KECCAK256 SWAP1 JUMPDEST DUP2 SLOAD DUP2 MSTORE SWAP1 PUSH1 0x1 ADD SWAP1 PUSH1 0x20 ADD DUP1 DUP4 GT PUSH2 0x64A JUMPI DUP3 SWAP1 SUB PUSH1 0x1F AND DUP3 ADD SWAP2 JUMPDEST POP POP POP POP POP SWAP2 POP SWAP6 POP SWAP6 POP SWAP6 POP SWAP6 POP SWAP6 POP POP SWAP2 SWAP4 SWAP6 SWAP1 SWAP3 SWAP5 POP JUMP JUMPDEST DUP3 DUP1 SLOAD PUSH2 0x68E SWAP1 PUSH2 0x9E5 JUMP JUMPDEST SWAP1 PUSH1 0x0 MSTORE PUSH1 0x20 PUSH1 0x0 KECCAK256 SWAP1 PUSH1 0x1F ADD PUSH1 0x20 SWAP1 DIV DUP2 ADD SWAP3 DUP3 PUSH2 0x6B0 JUMPI PUSH1 0x0 DUP6 SSTORE PUSH2 0x6F6 JUMP JUMPDEST DUP3 PUSH1 0x1F LT PUSH2 0x6C9 JUMPI DUP1 MLOAD PUSH1 0xFF NOT AND DUP4 DUP1 ADD OR DUP6 SSTORE PUSH2 0x6F6 JUMP JUMPDEST DUP3 DUP1 ADD PUSH1 0x1 ADD DUP6 SSTORE DUP3 ISZERO PUSH2 0x6F6 JUMPI SWAP2 DUP3 ADD JUMPDEST DUP3 DUP2 GT ISZERO PUSH2 0x6F6 JUMPI DUP3 MLOAD DUP3 SSTORE SWAP2 PUSH1 0x20 ADD SWAP2 SWAP1 PUSH1 0x1 ADD SWAP1 PUSH2 0x6DB JUMP JUMPDEST POP PUSH2 0x702 SWAP3 SWAP2 POP PUSH2 0x706 JUMP JUMPDEST POP SWAP1 JUMP JUMPDEST JUMPDEST DUP1 DUP3 GT ISZERO PUSH2 0x702 JUMPI PUSH1 0x0 DUP2 SSTORE PUSH1 0x1 ADD PUSH2 0x707 JUMP JUMPDEST PUSH1 0x0 DUP1 DUP4 PUSH1 0x1F DUP5 ADD SLT PUSH2 0x72C JUMPI DUP1 DUP2 REVERT JUMPDEST POP DUP2 CALLDATALOAD PUSH8 0xFFFFFFFFFFFFFFFF DUP2 GT ISZERO PUSH2 0x743 JUMPI DUP2 DUP3 REVERT JUMPDEST PUSH1 0x20 DUP4 ADD SWAP2 POP DUP4 PUSH1 0x20 DUP3 DUP6 ADD ADD GT ISZERO PUSH2 0x75B JUMPI PUSH1 0x0 DUP1 REVERT JUMPDEST SWAP3 POP SWAP3 SWAP1 POP JUMP JUMPDEST PUSH1 0x0 DUP3 PUSH1 0x1F DUP4 ADD SLT PUSH2 0x772 JUMPI DUP1 DUP2 REVERT JUMPDEST DUP2 CALLDATALOAD PUSH8 0xFFFFFFFFFFFFFFFF DUP1 DUP3 GT ISZERO PUSH2 0x78D JUMPI PUSH2 0x78D PUSH2 0xA20 JUMP JUMPDEST PUSH1 0x40 MLOAD PUSH1 0x1F DUP4 ADD PUSH1 0x1F NOT SWAP1 DUP2 AND PUSH1 0x3F ADD AND DUP2 ADD SWAP1 DUP3 DUP3 GT DUP2 DUP4 LT OR ISZERO PUSH2 0x7B5 JUMPI PUSH2 0x7B5 PUSH2 0xA20 JUMP JUMPDEST DUP2 PUSH1 0x40 MSTORE DUP4 DUP2 MSTORE DUP7 PUSH1 0x20 DUP6 DUP9 ADD ADD GT ISZERO PUSH2 0x7CD JUMPI DUP5 DUP6 REVERT JUMPDEST DUP4 PUSH1 0x20 DUP8 ADD PUSH1 0x20 DUP4 ADD CALLDATACOPY SWAP3 DUP4 ADD PUSH1 0x20 ADD SWAP4 SWAP1 SWAP4 MSTORE POP SWAP4 SWAP3 POP POP POP JUMP JUMPDEST PUSH1 0x0 DUP1 PUSH1 0x0 DUP1 PUSH1 0x0 DUP1 PUSH1 0x0 PUSH1 0xA0 DUP9 DUP11 SUB SLT ISZERO PUSH2 0x803 JUMPI DUP3 DUP4 REVERT JUMPDEST DUP8 CALLDATALOAD PUSH8 0xFFFFFFFFFFFFFFFF DUP1 DUP3 GT ISZERO PUSH2 0x81A JUMPI DUP5 DUP6 REVERT JUMPDEST PUSH2 0x826 DUP12 DUP4 DUP13 ADD PUSH2 0x71B JUMP JUMPDEST SWAP1 SWAP10 POP SWAP8 POP PUSH1 0x20 DUP11 ADD CALLDATALOAD SWAP7 POP PUSH1 0x40 DUP11 ADD CALLDATALOAD SWAP2 POP PUSH1 0x1 PUSH1 0x1 PUSH1 0xA0 SHL SUB DUP3 AND DUP3 EQ PUSH2 0x84D JUMPI DUP5 DUP6 REVERT JUMPDEST SWAP1 SWAP5 POP PUSH1 0x60 DUP10 ADD CALLDATALOAD SWAP1 DUP1 DUP3 GT ISZERO PUSH2 0x862 JUMPI DUP5 DUP6 REVERT JUMPDEST POP PUSH2 0x86F DUP11 DUP3 DUP12 ADD PUSH2 0x71B JUMP JUMPDEST SWAP1 SWAP5 POP SWAP3 POP POP PUSH1 0x80 DUP9 ADD CALLDATALOAD DUP1 ISZERO ISZERO DUP2 EQ PUSH2 0x887 JUMPI DUP2 DUP3 REVERT JUMPDEST DUP1 SWAP2 POP POP SWAP3 SWAP6 SWAP9 SWAP2 SWAP5 SWAP8 POP SWAP3 SWAP6 POP JUMP JUMPDEST PUSH1 0x0 PUSH1 0x20 DUP3 DUP5 SUB SLT ISZERO PUSH2 0x8A8 JUMPI DUP1 DUP2 REVERT JUMPDEST POP CALLDATALOAD SWAP2 SWAP1 POP JUMP JUMPDEST PUSH1 0x0 DUP1 PUSH1 0x0 DUP1 PUSH1 0x80 DUP6 DUP8 SUB SLT ISZERO PUSH2 0x8C4 JUMPI DUP4 DUP5 REVERT JUMPDEST DUP5 CALLDATALOAD SWAP4 POP PUSH1 0x20 DUP6 ADD CALLDATALOAD PUSH8 0xFFFFFFFFFFFFFFFF DUP1 DUP3 GT ISZERO PUSH2 0x8E2 JUMPI DUP5 DUP6 REVERT JUMPDEST PUSH2 0x8EE DUP9 DUP4 DUP10 ADD PUSH2 0x762 JUMP JUMPDEST SWAP5 POP PUSH1 0x40 DUP8 ADD CALLDATALOAD SWAP4 POP PUSH1 0x60 DUP8 ADD CALLDATALOAD SWAP2 POP DUP1 DUP3 GT ISZERO PUSH2 0x90A JUMPI DUP3 DUP4 REVERT JUMPDEST POP PUSH2 0x917 DUP8 DUP3 DUP9 ADD PUSH2 0x762 JUMP JUMPDEST SWAP2 POP POP SWAP3 SWAP6 SWAP2 SWAP5 POP SWAP3 POP JUMP JUMPDEST PUSH1 0x0 DUP2 MLOAD DUP1 DUP5 MSTORE DUP2 JUMPDEST DUP2 DUP2 LT ISZERO PUSH2 0x948 JUMPI PUSH1 0x20 DUP2 DUP6 ADD DUP2 ADD MLOAD DUP7 DUP4 ADD DUP3 ADD MSTORE ADD PUSH2 0x92C JUMP JUMPDEST DUP2 DUP2 GT ISZERO PUSH2 0x959 JUMPI DUP3 PUSH1 0x20 DUP4 DUP8 ADD ADD MSTORE JUMPDEST POP PUSH1 0x1F ADD PUSH1 0x1F NOT AND SWAP3 SWAP1 SWAP3 ADD PUSH1 0x20 ADD SWAP3 SWAP2 POP POP JUMP JUMPDEST PUSH1 0xA0 DUP2 MSTORE PUSH1 0x0 PUSH2 0x981 PUSH1 0xA0 DUP4 ADD DUP9 PUSH2 0x923 JUMP JUMPDEST PUSH1 0x20 DUP4 ADD DUP8 SWAP1 MSTORE PUSH1 0x1 PUSH1 0x1 PUSH1 0xA0 SHL SUB DUP7 AND PUSH1 0x40 DUP5 ADD MSTORE DUP3 DUP2 SUB PUSH1 0x60 DUP5 ADD MSTORE PUSH2 0x9A9 DUP2 DUP7 PUSH2 0x923 JUMP JUMPDEST SWAP2 POP POP DUP3 ISZERO ISZERO PUSH1 0x80 DUP4 ADD MSTORE SWAP7 SWAP6 POP POP POP POP POP POP JUMP JUMPDEST PUSH1 0x20 DUP1 DUP3 MSTORE PUSH1 0xD SWAP1 DUP3 ADD MSTORE PUSH13 0x92DCECC2D8D2C840D2DCC8CAF PUSH1 0x9B SHL PUSH1 0x40 DUP3 ADD MSTORE PUSH1 0x60 ADD SWAP1 JUMP JUMPDEST PUSH1 0x1 DUP2 DUP2 SHR SWAP1 DUP3 AND DUP1 PUSH2 0x9F9 JUMPI PUSH1 0x7F DUP3 AND SWAP2 POP JUMPDEST PUSH1 0x20 DUP3 LT DUP2 EQ ISZERO PUSH2 0xA1A JUMPI PUSH4 0x4E487B71 PUSH1 0xE0 SHL PUSH1 0x0 MSTORE PUSH1 0x22 PUSH1 0x4 MSTORE PUSH1 0x24 PUSH1 0x0 REVERT JUMPDEST POP SWAP2 SWAP1 POP JUMP JUMPDEST PUSH4 0x4E487B71 PUSH1 0xE0 SHL PUSH1 0x0 MSTORE PUSH1 0x41 PUSH1 0x4 MSTORE PUSH1 0x24 PUSH1 0x0 REVERT INVALID LOG2 PUSH5 0x6970667358 0x22 SLT KECCAK256 0x5F PUSH18 0x1DCE7D508C0197BE25901917D4B1A29B5A3D SUB 0xD8 0xE7 0xC4 DIV 0xD9 PUSH13 0x6D2B0FE75764736F6C63430008 DIV STOP CALLER "
				},
				"gasEstimates": {
					"creation": {
						"codeDepositCost": "533600",
						"executionCost": "568",
						"totalCost": "534168"
					},
					"external": {
						"addInfo(string,uint256,address,string,bool)": "infinite",
						"getUserInfo(uint256)": "infinite",
						"infos(uint256)": "infinite",
						"removeInfo(uint256)": "22794",
						"updateUser(uint256,string,uint256,string)": "infinite"
					}
				},
				"methodIdentifiers": {
					"addInfo(string,uint256,address,string,bool)": "bb18218d",
					"getUserInfo(uint256)": "d379dadf",
					"infos(uint256)": "28de3c9b",
					"removeInfo(uint256)": "7da3b5c1",
					"updateUser(uint256,string,uint256,string)": "b3f5d0d7"
				}
			},
			"storageLayout": {
				"storage": [
					{
						"astId": 16,
						"contract": "exercices/exo9/Struct.sol:Struct",
						"label": "infos",
						"offset": 0,
						"slot": "0",
						"type": "t_array(t_struct(Info)12_storage)dyn_storage"
					}
				],
				"types": {
					"t_address": {
						"encoding": "inplace",
						"label": "address",
						"numberOfBytes": "20"
					},
					"t_array(t_struct(Info)12_storage)dyn_storage": {
						"base": "t_struct(Info)12_storage",
						"encoding": "dynamic_array",
						"label": "struct Struct.Info[]",
						"numberOfBytes": "32"
					},
					"t_bool": {
						"encoding": "inplace",
						"label": "bool",
						"numberOfBytes": "1"
					},
					"t_string_storage": {
						"encoding": "bytes",
						"label": "string",
						"numberOfBytes": "32"
					},
					"t_struct(Info)12_storage": {
						"encoding": "inplace",
						"label": "struct Struct.Info",
						"members": [
							{
								"astId": 3,
								"contract": "exercices/exo9/Struct.sol:Struct",
								"label": "username",
								"offset": 0,
								"slot": "0",
								"type": "t_string_storage"
							},
							{
								"astId": 5,
								"contract": "exercices/exo9/Struct.sol:Struct",
								"label": "age",
								"offset": 0,
								"slot": "1",
								"type": "t_uint256"
							},
							{
								"astId": 7,
								"contract": "exercices/exo9/Struct.sol:Struct",
								"label": "account",
								"offset": 0,
								"slot": "2",
								"type": "t_address"
							},
							{
								"astId": 9,
								"contract": "exercices/exo9/Struct.sol:Struct",
								"label": "grade",
								"offset": 0,
								"slot": "3",
								"type": "t_string_storage"
							},
							{
								"astId": 11,
								"contract": "exercices/exo9/Struct.sol:Struct",
								"label": "isAlive",
								"offset": 0,
								"slot": "4",
								"type": "t_bool"
							}
						],
						"numberOfBytes": "160"
					},
					"t_uint256": {
						"encoding": "inplace",
						"label": "uint256",
						"numberOfBytes": "32"
					}
				}
			},
			"userdoc": {
				"kind": "user",
				"methods": {},
				"version": 1
			}
		}
	}
}