{
	"contracts/rush.sol": {
		"RushChapterI": {
			"abi": [
				{
					"inputs": [
						{
							"internalType": "enum RushChapterI.Dish",
							"name": "",
							"type": "uint8"
						}
					],
					"name": "dishQuantity",
					"outputs": [
						{
							"internalType": "uint256",
							"name": "quantity",
							"type": "uint256"
						},
						{
							"internalType": "uint256",
							"name": "remaining",
							"type": "uint256"
						}
					],
					"stateMutability": "view",
					"type": "function"
				},
				{
					"inputs": [
						{
							"internalType": "enum RushChapterI.Dish",
							"name": "dish",
							"type": "uint8"
						},
						{
							"internalType": "uint256",
							"name": "quantity",
							"type": "uint256"
						}
					],
					"name": "fillDish",
					"outputs": [
						{
							"internalType": "uint256",
							"name": "",
							"type": "uint256"
						},
						{
							"internalType": "uint256",
							"name": "",
							"type": "uint256"
						}
					],
					"stateMutability": "nonpayable",
					"type": "function"
				},
				{
					"inputs": [
						{
							"internalType": "enum RushChapterI.Dish",
							"name": "dish",
							"type": "uint8"
						},
						{
							"internalType": "uint256",
							"name": "quantity",
							"type": "uint256"
						}
					],
					"name": "getDish",
					"outputs": [
						{
							"internalType": "enum RushChapterI.Dish",
							"name": "",
							"type": "uint8"
						},
						{
							"internalType": "uint256",
							"name": "",
							"type": "uint256"
						},
						{
							"internalType": "uint256",
							"name": "",
							"type": "uint256"
						}
					],
					"stateMutability": "nonpayable",
					"type": "function"
				},
				{
					"inputs": [],
					"name": "maxItems",
					"outputs": [
						{
							"internalType": "uint256",
							"name": "",
							"type": "uint256"
						}
					],
					"stateMutability": "view",
					"type": "function"
				}
			],
			"devdoc": {
				"kind": "dev",
				"methods": {},
				"version": 1
			},
			"evm": {
				"assembly": "    /* \"contracts/rush.sol\":62:1114  contract RushChapterI {... */\n  mstore(0x40, 0x80)\n    /* \"contracts/rush.sol\":350:352  42 */\n  0x2a\n    /* \"contracts/rush.sol\":326:352  uint256 public maxItems=42 */\n  0x01\n  sstore\n    /* \"contracts/rush.sol\":62:1114  contract RushChapterI {... */\n  callvalue\n  dup1\n  iszero\n  tag_1\n  jumpi\n  0x00\n  dup1\n  revert\ntag_1:\n  pop\n  dataSize(sub_0)\n  dup1\n  dataOffset(sub_0)\n  0x00\n  codecopy\n  0x00\n  return\nstop\n\nsub_0: assembly {\n        /* \"contracts/rush.sol\":62:1114  contract RushChapterI {... */\n      mstore(0x40, 0x80)\n      callvalue\n      dup1\n      iszero\n      tag_1\n      jumpi\n      0x00\n      dup1\n      revert\n    tag_1:\n      pop\n      jumpi(tag_2, lt(calldatasize, 0x04))\n      shr(0xe0, calldataload(0x00))\n      dup1\n      0x3c010a3e\n      eq\n      tag_3\n      jumpi\n      dup1\n      0x8d65df2a\n      eq\n      tag_4\n      jumpi\n      dup1\n      0xc332c3be\n      eq\n      tag_5\n      jumpi\n      dup1\n      0xc79cf758\n      eq\n      tag_6\n      jumpi\n    tag_2:\n      0x00\n      dup1\n      revert\n        /* \"contracts/rush.sol\":326:352  uint256 public maxItems=42 */\n    tag_3:\n      tag_7\n      tag_8\n      jump\t// in\n    tag_7:\n      mload(0x40)\n      tag_9\n      swap2\n      swap1\n      tag_10\n      jump\t// in\n    tag_9:\n      mload(0x40)\n      dup1\n      swap2\n      sub\n      swap1\n      return\n        /* \"contracts/rush.sol\":711:1112  function fillDish(Dish dish, uint256 quantity) public returns (uint256, uint256) {... */\n    tag_4:\n      tag_11\n      0x04\n      dup1\n      calldatasize\n      sub\n      dup2\n      add\n      swap1\n      tag_12\n      swap2\n      swap1\n      tag_13\n      jump\t// in\n    tag_12:\n      tag_14\n      jump\t// in\n    tag_11:\n      mload(0x40)\n      tag_15\n      swap3\n      swap2\n      swap1\n      tag_16\n      jump\t// in\n    tag_15:\n      mload(0x40)\n      dup1\n      swap2\n      sub\n      swap1\n      return\n        /* \"contracts/rush.sol\":359:705  function getDish(Dish dish, uint256 quantity) public returns (Dish,uint,uint) {... */\n    tag_5:\n      tag_17\n      0x04\n      dup1\n      calldatasize\n      sub\n      dup2\n      add\n      swap1\n      tag_18\n      swap2\n      swap1\n      tag_13\n      jump\t// in\n    tag_18:\n      tag_19\n      jump\t// in\n    tag_17:\n      mload(0x40)\n      tag_20\n      swap4\n      swap3\n      swap2\n      swap1\n      tag_21\n      jump\t// in\n    tag_20:\n      mload(0x40)\n      dup1\n      swap2\n      sub\n      swap1\n      return\n        /* \"contracts/rush.sol\":274:320  mapping (Dish => DishData) public dishQuantity */\n    tag_6:\n      tag_22\n      0x04\n      dup1\n      calldatasize\n      sub\n      dup2\n      add\n      swap1\n      tag_23\n      swap2\n      swap1\n      tag_24\n      jump\t// in\n    tag_23:\n      tag_25\n      jump\t// in\n    tag_22:\n      mload(0x40)\n      tag_26\n      swap3\n      swap2\n      swap1\n      tag_16\n      jump\t// in\n    tag_26:\n      mload(0x40)\n      dup1\n      swap2\n      sub\n      swap1\n      return\n        /* \"contracts/rush.sol\":326:352  uint256 public maxItems=42 */\n    tag_8:\n      sload(0x01)\n      dup2\n      jump\t// out\n        /* \"contracts/rush.sol\":711:1112  function fillDish(Dish dish, uint256 quantity) public returns (uint256, uint256) {... */\n    tag_14:\n        /* \"contracts/rush.sol\":774:781  uint256 */\n      0x00\n        /* \"contracts/rush.sol\":783:790  uint256 */\n      dup1\n        /* \"contracts/rush.sol\":821:822  0 */\n      0x00\n        /* \"contracts/rush.sol\":810:818  quantity */\n      dup4\n        /* \"contracts/rush.sol\":810:822  quantity > 0 */\n      gt\n        /* \"contracts/rush.sol\":802:850  require(quantity > 0, \"Quantity must be over 0\") */\n      tag_28\n      jumpi\n      mload(0x40)\n      0x08c379a000000000000000000000000000000000000000000000000000000000\n      dup2\n      mstore\n      0x04\n      add\n      tag_29\n      swap1\n      tag_30\n      jump\t// in\n    tag_29:\n      mload(0x40)\n      dup1\n      swap2\n      sub\n      swap1\n      revert\n    tag_28:\n        /* \"contracts/rush.sol\":910:918  maxItems */\n      sload(0x01)\n        /* \"contracts/rush.sol\":898:906  quantity */\n      dup4\n        /* \"contracts/rush.sol\":868:880  dishQuantity */\n      0x00\n        /* \"contracts/rush.sol\":868:886  dishQuantity[dish] */\n      dup1\n        /* \"contracts/rush.sol\":881:885  dish */\n      dup8\n        /* \"contracts/rush.sol\":868:886  dishQuantity[dish] */\n      0x04\n      dup2\n      gt\n      iszero\n      tag_31\n      jumpi\n      mstore(0x00, 0x4e487b7100000000000000000000000000000000000000000000000000000000)\n      mstore(0x04, 0x21)\n      revert(0x00, 0x24)\n    tag_31:\n      0x04\n      dup2\n      gt\n      iszero\n      tag_32\n      jumpi\n      mstore(0x00, 0x4e487b7100000000000000000000000000000000000000000000000000000000)\n      mstore(0x04, 0x21)\n      revert(0x00, 0x24)\n    tag_32:\n      dup2\n      mstore\n      0x20\n      add\n      swap1\n      dup2\n      mstore\n      0x20\n      add\n      0x00\n      keccak256\n        /* \"contracts/rush.sol\":868:895  dishQuantity[dish].quantity */\n      0x00\n      add\n      sload\n        /* \"contracts/rush.sol\":868:906  dishQuantity[dish].quantity + quantity */\n      tag_33\n      swap2\n      swap1\n      tag_34\n      jump\t// in\n    tag_33:\n        /* \"contracts/rush.sol\":868:918  dishQuantity[dish].quantity + quantity <= maxItems */\n      gt\n      iszero\n        /* \"contracts/rush.sol\":860:940  require(dishQuantity[dish].quantity + quantity <= maxItems, \"Too much quantity\") */\n      tag_35\n      jumpi\n      mload(0x40)\n      0x08c379a000000000000000000000000000000000000000000000000000000000\n      dup2\n      mstore\n      0x04\n      add\n      tag_36\n      swap1\n      tag_37\n      jump\t// in\n    tag_36:\n      mload(0x40)\n      dup1\n      swap2\n      sub\n      swap1\n      revert\n    tag_35:\n        /* \"contracts/rush.sol\":986:994  quantity */\n      dup3\n        /* \"contracts/rush.sol\":955:967  dishQuantity */\n      0x00\n        /* \"contracts/rush.sol\":955:973  dishQuantity[dish] */\n      dup1\n        /* \"contracts/rush.sol\":968:972  dish */\n      dup7\n        /* \"contracts/rush.sol\":955:973  dishQuantity[dish] */\n      0x04\n      dup2\n      gt\n      iszero\n      tag_38\n      jumpi\n      mstore(0x00, 0x4e487b7100000000000000000000000000000000000000000000000000000000)\n      mstore(0x04, 0x21)\n      revert(0x00, 0x24)\n    tag_38:\n      0x04\n      dup2\n      gt\n      iszero\n      tag_39\n      jumpi\n      mstore(0x00, 0x4e487b7100000000000000000000000000000000000000000000000000000000)\n      mstore(0x04, 0x21)\n      revert(0x00, 0x24)\n    tag_39:\n      dup2\n      mstore\n      0x20\n      add\n      swap1\n      dup2\n      mstore\n      0x20\n      add\n      0x00\n      keccak256\n        /* \"contracts/rush.sol\":955:982  dishQuantity[dish].quantity */\n      0x00\n      add\n      0x00\n        /* \"contracts/rush.sol\":955:994  dishQuantity[dish].quantity += quantity */\n      dup3\n      dup3\n      sload\n      tag_40\n      swap2\n      swap1\n      tag_34\n      jump\t// in\n    tag_40:\n      swap3\n      pop\n      pop\n      dup2\n      swap1\n      sstore\n      pop\n        /* \"contracts/rush.sol\":1040:1048  quantity */\n      dup3\n        /* \"contracts/rush.sol\":1008:1020  dishQuantity */\n      0x00\n        /* \"contracts/rush.sol\":1008:1026  dishQuantity[dish] */\n      dup1\n        /* \"contracts/rush.sol\":1021:1025  dish */\n      dup7\n        /* \"contracts/rush.sol\":1008:1026  dishQuantity[dish] */\n      0x04\n      dup2\n      gt\n      iszero\n      tag_41\n      jumpi\n      mstore(0x00, 0x4e487b7100000000000000000000000000000000000000000000000000000000)\n      mstore(0x04, 0x21)\n      revert(0x00, 0x24)\n    tag_41:\n      0x04\n      dup2\n      gt\n      iszero\n      tag_42\n      jumpi\n      mstore(0x00, 0x4e487b7100000000000000000000000000000000000000000000000000000000)\n      mstore(0x04, 0x21)\n      revert(0x00, 0x24)\n    tag_42:\n      dup2\n      mstore\n      0x20\n      add\n      swap1\n      dup2\n      mstore\n      0x20\n      add\n      0x00\n      keccak256\n        /* \"contracts/rush.sol\":1008:1036  dishQuantity[dish].remaining */\n      0x01\n      add\n      0x00\n        /* \"contracts/rush.sol\":1008:1048  dishQuantity[dish].remaining += quantity */\n      dup3\n      dup3\n      sload\n      tag_43\n      swap2\n      swap1\n      tag_34\n      jump\t// in\n    tag_43:\n      swap3\n      pop\n      pop\n      dup2\n      swap1\n      sstore\n      pop\n        /* \"contracts/rush.sol\":1066:1078  dishQuantity */\n      0x00\n        /* \"contracts/rush.sol\":1066:1084  dishQuantity[dish] */\n      dup1\n        /* \"contracts/rush.sol\":1079:1083  dish */\n      dup6\n        /* \"contracts/rush.sol\":1066:1084  dishQuantity[dish] */\n      0x04\n      dup2\n      gt\n      iszero\n      tag_44\n      jumpi\n      mstore(0x00, 0x4e487b7100000000000000000000000000000000000000000000000000000000)\n      mstore(0x04, 0x21)\n      revert(0x00, 0x24)\n    tag_44:\n      0x04\n      dup2\n      gt\n      iszero\n      tag_45\n      jumpi\n      mstore(0x00, 0x4e487b7100000000000000000000000000000000000000000000000000000000)\n      mstore(0x04, 0x21)\n      revert(0x00, 0x24)\n    tag_45:\n      dup2\n      mstore\n      0x20\n      add\n      swap1\n      dup2\n      mstore\n      0x20\n      add\n      0x00\n      keccak256\n        /* \"contracts/rush.sol\":1066:1094  dishQuantity[dish].remaining */\n      0x01\n      add\n      sload\n        /* \"contracts/rush.sol\":1096:1104  quantity */\n      dup4\n        /* \"contracts/rush.sol\":1059:1105  return(dishQuantity[dish].remaining, quantity) */\n      swap2\n      pop\n      swap2\n      pop\n        /* \"contracts/rush.sol\":711:1112  function fillDish(Dish dish, uint256 quantity) public returns (uint256, uint256) {... */\n      swap3\n      pop\n      swap3\n      swap1\n      pop\n      jump\t// out\n        /* \"contracts/rush.sol\":359:705  function getDish(Dish dish, uint256 quantity) public returns (Dish,uint,uint) {... */\n    tag_19:\n        /* \"contracts/rush.sol\":421:425  Dish */\n      0x00\n        /* \"contracts/rush.sol\":426:430  uint */\n      dup1\n        /* \"contracts/rush.sol\":431:435  uint */\n      0x00\n        /* \"contracts/rush.sol\":466:467  0 */\n      dup1\n        /* \"contracts/rush.sol\":455:463  quantity */\n      dup5\n        /* \"contracts/rush.sol\":455:467  quantity < 0 */\n      lt\n        /* \"contracts/rush.sol\":447:499  require(quantity < 0, \"Not enough dishes available\") */\n      tag_47\n      jumpi\n      mload(0x40)\n      0x08c379a000000000000000000000000000000000000000000000000000000000\n      dup2\n      mstore\n      0x04\n      add\n      tag_48\n      swap1\n      tag_49\n      jump\t// in\n    tag_48:\n      mload(0x40)\n      dup1\n      swap2\n      sub\n      swap1\n      revert\n    tag_47:\n        /* \"contracts/rush.sol\":549:557  quantity */\n      dup4\n        /* \"contracts/rush.sol\":517:529  dishQuantity */\n      0x00\n        /* \"contracts/rush.sol\":517:535  dishQuantity[dish] */\n      dup1\n        /* \"contracts/rush.sol\":530:534  dish */\n      dup8\n        /* \"contracts/rush.sol\":517:535  dishQuantity[dish] */\n      0x04\n      dup2\n      gt\n      iszero\n      tag_50\n      jumpi\n      mstore(0x00, 0x4e487b7100000000000000000000000000000000000000000000000000000000)\n      mstore(0x04, 0x21)\n      revert(0x00, 0x24)\n    tag_50:\n      0x04\n      dup2\n      gt\n      iszero\n      tag_51\n      jumpi\n      mstore(0x00, 0x4e487b7100000000000000000000000000000000000000000000000000000000)\n      mstore(0x04, 0x21)\n      revert(0x00, 0x24)\n    tag_51:\n      dup2\n      mstore\n      0x20\n      add\n      swap1\n      dup2\n      mstore\n      0x20\n      add\n      0x00\n      keccak256\n        /* \"contracts/rush.sol\":517:545  dishQuantity[dish].remaining */\n      0x01\n      add\n      sload\n        /* \"contracts/rush.sol\":517:557  dishQuantity[dish].remaining >= quantity */\n      lt\n      iszero\n        /* \"contracts/rush.sol\":509:576  require(dishQuantity[dish].remaining >= quantity, \"No more dishes\") */\n      tag_52\n      jumpi\n      mload(0x40)\n      0x08c379a000000000000000000000000000000000000000000000000000000000\n      dup2\n      mstore\n      0x04\n      add\n      tag_53\n      swap1\n      tag_54\n      jump\t// in\n    tag_53:\n      mload(0x40)\n      dup1\n      swap2\n      sub\n      swap1\n      revert\n    tag_52:\n        /* \"contracts/rush.sol\":627:635  quantity */\n      dup4\n        /* \"contracts/rush.sol\":595:607  dishQuantity */\n      0x00\n        /* \"contracts/rush.sol\":595:613  dishQuantity[dish] */\n      dup1\n        /* \"contracts/rush.sol\":608:612  dish */\n      dup8\n        /* \"contracts/rush.sol\":595:613  dishQuantity[dish] */\n      0x04\n      dup2\n      gt\n      iszero\n      tag_55\n      jumpi\n      mstore(0x00, 0x4e487b7100000000000000000000000000000000000000000000000000000000)\n      mstore(0x04, 0x21)\n      revert(0x00, 0x24)\n    tag_55:\n      0x04\n      dup2\n      gt\n      iszero\n      tag_56\n      jumpi\n      mstore(0x00, 0x4e487b7100000000000000000000000000000000000000000000000000000000)\n      mstore(0x04, 0x21)\n      revert(0x00, 0x24)\n    tag_56:\n      dup2\n      mstore\n      0x20\n      add\n      swap1\n      dup2\n      mstore\n      0x20\n      add\n      0x00\n      keccak256\n        /* \"contracts/rush.sol\":595:623  dishQuantity[dish].remaining */\n      0x01\n      add\n      0x00\n        /* \"contracts/rush.sol\":595:635  dishQuantity[dish].remaining -= quantity */\n      dup3\n      dup3\n      sload\n      tag_57\n      swap2\n      swap1\n      tag_58\n      jump\t// in\n    tag_57:\n      swap3\n      pop\n      pop\n      dup2\n      swap1\n      sstore\n      pop\n        /* \"contracts/rush.sol\":653:657  dish */\n      dup5\n        /* \"contracts/rush.sol\":659:667  quantity */\n      dup5\n        /* \"contracts/rush.sol\":669:681  dishQuantity */\n      0x00\n        /* \"contracts/rush.sol\":669:687  dishQuantity[dish] */\n      dup1\n        /* \"contracts/rush.sol\":682:686  dish */\n      dup9\n        /* \"contracts/rush.sol\":669:687  dishQuantity[dish] */\n      0x04\n      dup2\n      gt\n      iszero\n      tag_59\n      jumpi\n      mstore(0x00, 0x4e487b7100000000000000000000000000000000000000000000000000000000)\n      mstore(0x04, 0x21)\n      revert(0x00, 0x24)\n    tag_59:\n      0x04\n      dup2\n      gt\n      iszero\n      tag_60\n      jumpi\n      mstore(0x00, 0x4e487b7100000000000000000000000000000000000000000000000000000000)\n      mstore(0x04, 0x21)\n      revert(0x00, 0x24)\n    tag_60:\n      dup2\n      mstore\n      0x20\n      add\n      swap1\n      dup2\n      mstore\n      0x20\n      add\n      0x00\n      keccak256\n        /* \"contracts/rush.sol\":669:697  dishQuantity[dish].remaining */\n      0x01\n      add\n      sload\n        /* \"contracts/rush.sol\":646:698  return(dish, quantity, dishQuantity[dish].remaining) */\n      swap3\n      pop\n      swap3\n      pop\n      swap3\n      pop\n        /* \"contracts/rush.sol\":359:705  function getDish(Dish dish, uint256 quantity) public returns (Dish,uint,uint) {... */\n      swap3\n      pop\n      swap3\n      pop\n      swap3\n      jump\t// out\n        /* \"contracts/rush.sol\":274:320  mapping (Dish => DishData) public dishQuantity */\n    tag_25:\n      mstore(0x20, 0x00)\n      dup1\n      0x00\n      mstore\n      keccak256(0x00, 0x40)\n      0x00\n      swap2\n      pop\n      swap1\n      pop\n      dup1\n      0x00\n      add\n      sload\n      swap1\n      dup1\n      0x01\n      add\n      sload\n      swap1\n      pop\n      dup3\n      jump\t// out\n        /* \"#utility.yul\":7:158   */\n    tag_62:\n        /* \"#utility.yul\":59:64   */\n      0x00\n        /* \"#utility.yul\":97:103   */\n      dup2\n        /* \"#utility.yul\":84:104   */\n      calldataload\n        /* \"#utility.yul\":75:104   */\n      swap1\n      pop\n        /* \"#utility.yul\":113:152   */\n      tag_64\n        /* \"#utility.yul\":146:151   */\n      dup2\n        /* \"#utility.yul\":113:152   */\n      tag_65\n      jump\t// in\n    tag_64:\n        /* \"#utility.yul\":65:158   */\n      swap3\n      swap2\n      pop\n      pop\n      jump\t// out\n        /* \"#utility.yul\":164:303   */\n    tag_66:\n        /* \"#utility.yul\":210:215   */\n      0x00\n        /* \"#utility.yul\":248:254   */\n      dup2\n        /* \"#utility.yul\":235:255   */\n      calldataload\n        /* \"#utility.yul\":226:255   */\n      swap1\n      pop\n        /* \"#utility.yul\":264:297   */\n      tag_68\n        /* \"#utility.yul\":291:296   */\n      dup2\n        /* \"#utility.yul\":264:297   */\n      tag_69\n      jump\t// in\n    tag_68:\n        /* \"#utility.yul\":216:303   */\n      swap3\n      swap2\n      pop\n      pop\n      jump\t// out\n        /* \"#utility.yul\":309:583   */\n    tag_24:\n        /* \"#utility.yul\":374:380   */\n      0x00\n        /* \"#utility.yul\":423:425   */\n      0x20\n        /* \"#utility.yul\":411:420   */\n      dup3\n        /* \"#utility.yul\":402:409   */\n      dup5\n        /* \"#utility.yul\":398:421   */\n      sub\n        /* \"#utility.yul\":394:426   */\n      slt\n        /* \"#utility.yul\":391:393   */\n      iszero\n      tag_71\n      jumpi\n        /* \"#utility.yul\":439:440   */\n      0x00\n        /* \"#utility.yul\":436:437   */\n      dup1\n        /* \"#utility.yul\":429:441   */\n      revert\n        /* \"#utility.yul\":391:393   */\n    tag_71:\n        /* \"#utility.yul\":482:483   */\n      0x00\n        /* \"#utility.yul\":507:566   */\n      tag_72\n        /* \"#utility.yul\":558:565   */\n      dup5\n        /* \"#utility.yul\":549:555   */\n      dup3\n        /* \"#utility.yul\":538:547   */\n      dup6\n        /* \"#utility.yul\":534:556   */\n      add\n        /* \"#utility.yul\":507:566   */\n      tag_62\n      jump\t// in\n    tag_72:\n        /* \"#utility.yul\":497:566   */\n      swap2\n      pop\n        /* \"#utility.yul\":453:576   */\n      pop\n        /* \"#utility.yul\":381:583   */\n      swap3\n      swap2\n      pop\n      pop\n      jump\t// out\n        /* \"#utility.yul\":589:1008   */\n    tag_13:\n        /* \"#utility.yul\":663:669   */\n      0x00\n        /* \"#utility.yul\":671:677   */\n      dup1\n        /* \"#utility.yul\":720:722   */\n      0x40\n        /* \"#utility.yul\":708:717   */\n      dup4\n        /* \"#utility.yul\":699:706   */\n      dup6\n        /* \"#utility.yul\":695:718   */\n      sub\n        /* \"#utility.yul\":691:723   */\n      slt\n        /* \"#utility.yul\":688:690   */\n      iszero\n      tag_74\n      jumpi\n        /* \"#utility.yul\":736:737   */\n      0x00\n        /* \"#utility.yul\":733:734   */\n      dup1\n        /* \"#utility.yul\":726:738   */\n      revert\n        /* \"#utility.yul\":688:690   */\n    tag_74:\n        /* \"#utility.yul\":779:780   */\n      0x00\n        /* \"#utility.yul\":804:863   */\n      tag_75\n        /* \"#utility.yul\":855:862   */\n      dup6\n        /* \"#utility.yul\":846:852   */\n      dup3\n        /* \"#utility.yul\":835:844   */\n      dup7\n        /* \"#utility.yul\":831:853   */\n      add\n        /* \"#utility.yul\":804:863   */\n      tag_62\n      jump\t// in\n    tag_75:\n        /* \"#utility.yul\":794:863   */\n      swap3\n      pop\n        /* \"#utility.yul\":750:873   */\n      pop\n        /* \"#utility.yul\":912:914   */\n      0x20\n        /* \"#utility.yul\":938:991   */\n      tag_76\n        /* \"#utility.yul\":983:990   */\n      dup6\n        /* \"#utility.yul\":974:980   */\n      dup3\n        /* \"#utility.yul\":963:972   */\n      dup7\n        /* \"#utility.yul\":959:981   */\n      add\n        /* \"#utility.yul\":938:991   */\n      tag_66\n      jump\t// in\n    tag_76:\n        /* \"#utility.yul\":928:991   */\n      swap2\n      pop\n        /* \"#utility.yul\":883:1001   */\n      pop\n        /* \"#utility.yul\":678:1008   */\n      swap3\n      pop\n      swap3\n      swap1\n      pop\n      jump\t// out\n        /* \"#utility.yul\":1014:1153   */\n    tag_77:\n        /* \"#utility.yul\":1105:1146   */\n      tag_79\n        /* \"#utility.yul\":1140:1145   */\n      dup2\n        /* \"#utility.yul\":1105:1146   */\n      tag_80\n      jump\t// in\n    tag_79:\n        /* \"#utility.yul\":1100:1103   */\n      dup3\n        /* \"#utility.yul\":1093:1147   */\n      mstore\n        /* \"#utility.yul\":1083:1153   */\n      pop\n      pop\n      jump\t// out\n        /* \"#utility.yul\":1159:1525   */\n    tag_81:\n        /* \"#utility.yul\":1301:1304   */\n      0x00\n        /* \"#utility.yul\":1322:1389   */\n      tag_83\n        /* \"#utility.yul\":1386:1388   */\n      0x0e\n        /* \"#utility.yul\":1381:1384   */\n      dup4\n        /* \"#utility.yul\":1322:1389   */\n      tag_84\n      jump\t// in\n    tag_83:\n        /* \"#utility.yul\":1315:1389   */\n      swap2\n      pop\n        /* \"#utility.yul\":1398:1491   */\n      tag_85\n        /* \"#utility.yul\":1487:1490   */\n      dup3\n        /* \"#utility.yul\":1398:1491   */\n      tag_86\n      jump\t// in\n    tag_85:\n        /* \"#utility.yul\":1516:1518   */\n      0x20\n        /* \"#utility.yul\":1511:1514   */\n      dup3\n        /* \"#utility.yul\":1507:1519   */\n      add\n        /* \"#utility.yul\":1500:1519   */\n      swap1\n      pop\n        /* \"#utility.yul\":1305:1525   */\n      swap2\n      swap1\n      pop\n      jump\t// out\n        /* \"#utility.yul\":1531:1897   */\n    tag_87:\n        /* \"#utility.yul\":1673:1676   */\n      0x00\n        /* \"#utility.yul\":1694:1761   */\n      tag_89\n        /* \"#utility.yul\":1758:1760   */\n      0x17\n        /* \"#utility.yul\":1753:1756   */\n      dup4\n        /* \"#utility.yul\":1694:1761   */\n      tag_84\n      jump\t// in\n    tag_89:\n        /* \"#utility.yul\":1687:1761   */\n      swap2\n      pop\n        /* \"#utility.yul\":1770:1863   */\n      tag_90\n        /* \"#utility.yul\":1859:1862   */\n      dup3\n        /* \"#utility.yul\":1770:1863   */\n      tag_91\n      jump\t// in\n    tag_90:\n        /* \"#utility.yul\":1888:1890   */\n      0x20\n        /* \"#utility.yul\":1883:1886   */\n      dup3\n        /* \"#utility.yul\":1879:1891   */\n      add\n        /* \"#utility.yul\":1872:1891   */\n      swap1\n      pop\n        /* \"#utility.yul\":1677:1897   */\n      swap2\n      swap1\n      pop\n      jump\t// out\n        /* \"#utility.yul\":1903:2269   */\n    tag_92:\n        /* \"#utility.yul\":2045:2048   */\n      0x00\n        /* \"#utility.yul\":2066:2133   */\n      tag_94\n        /* \"#utility.yul\":2130:2132   */\n      0x1b\n        /* \"#utility.yul\":2125:2128   */\n      dup4\n        /* \"#utility.yul\":2066:2133   */\n      tag_84\n      jump\t// in\n    tag_94:\n        /* \"#utility.yul\":2059:2133   */\n      swap2\n      pop\n        /* \"#utility.yul\":2142:2235   */\n      tag_95\n        /* \"#utility.yul\":2231:2234   */\n      dup3\n        /* \"#utility.yul\":2142:2235   */\n      tag_96\n      jump\t// in\n    tag_95:\n        /* \"#utility.yul\":2260:2262   */\n      0x20\n        /* \"#utility.yul\":2255:2258   */\n      dup3\n        /* \"#utility.yul\":2251:2263   */\n      add\n        /* \"#utility.yul\":2244:2263   */\n      swap1\n      pop\n        /* \"#utility.yul\":2049:2269   */\n      swap2\n      swap1\n      pop\n      jump\t// out\n        /* \"#utility.yul\":2275:2641   */\n    tag_97:\n        /* \"#utility.yul\":2417:2420   */\n      0x00\n        /* \"#utility.yul\":2438:2505   */\n      tag_99\n        /* \"#utility.yul\":2502:2504   */\n      0x11\n        /* \"#utility.yul\":2497:2500   */\n      dup4\n        /* \"#utility.yul\":2438:2505   */\n      tag_84\n      jump\t// in\n    tag_99:\n        /* \"#utility.yul\":2431:2505   */\n      swap2\n      pop\n        /* \"#utility.yul\":2514:2607   */\n      tag_100\n        /* \"#utility.yul\":2603:2606   */\n      dup3\n        /* \"#utility.yul\":2514:2607   */\n      tag_101\n      jump\t// in\n    tag_100:\n        /* \"#utility.yul\":2632:2634   */\n      0x20\n        /* \"#utility.yul\":2627:2630   */\n      dup3\n        /* \"#utility.yul\":2623:2635   */\n      add\n        /* \"#utility.yul\":2616:2635   */\n      swap1\n      pop\n        /* \"#utility.yul\":2421:2641   */\n      swap2\n      swap1\n      pop\n      jump\t// out\n        /* \"#utility.yul\":2647:2765   */\n    tag_102:\n        /* \"#utility.yul\":2734:2758   */\n      tag_104\n        /* \"#utility.yul\":2752:2757   */\n      dup2\n        /* \"#utility.yul\":2734:2758   */\n      tag_105\n      jump\t// in\n    tag_104:\n        /* \"#utility.yul\":2729:2732   */\n      dup3\n        /* \"#utility.yul\":2722:2759   */\n      mstore\n        /* \"#utility.yul\":2712:2765   */\n      pop\n      pop\n      jump\t// out\n        /* \"#utility.yul\":2771:3221   */\n    tag_21:\n        /* \"#utility.yul\":2924:2928   */\n      0x00\n        /* \"#utility.yul\":2962:2964   */\n      0x60\n        /* \"#utility.yul\":2951:2960   */\n      dup3\n        /* \"#utility.yul\":2947:2965   */\n      add\n        /* \"#utility.yul\":2939:2965   */\n      swap1\n      pop\n        /* \"#utility.yul\":2975:3050   */\n      tag_107\n        /* \"#utility.yul\":3047:3048   */\n      0x00\n        /* \"#utility.yul\":3036:3045   */\n      dup4\n        /* \"#utility.yul\":3032:3049   */\n      add\n        /* \"#utility.yul\":3023:3029   */\n      dup7\n        /* \"#utility.yul\":2975:3050   */\n      tag_77\n      jump\t// in\n    tag_107:\n        /* \"#utility.yul\":3060:3132   */\n      tag_108\n        /* \"#utility.yul\":3128:3130   */\n      0x20\n        /* \"#utility.yul\":3117:3126   */\n      dup4\n        /* \"#utility.yul\":3113:3131   */\n      add\n        /* \"#utility.yul\":3104:3110   */\n      dup6\n        /* \"#utility.yul\":3060:3132   */\n      tag_102\n      jump\t// in\n    tag_108:\n        /* \"#utility.yul\":3142:3214   */\n      tag_109\n        /* \"#utility.yul\":3210:3212   */\n      0x40\n        /* \"#utility.yul\":3199:3208   */\n      dup4\n        /* \"#utility.yul\":3195:3213   */\n      add\n        /* \"#utility.yul\":3186:3192   */\n      dup5\n        /* \"#utility.yul\":3142:3214   */\n      tag_102\n      jump\t// in\n    tag_109:\n        /* \"#utility.yul\":2929:3221   */\n      swap5\n      swap4\n      pop\n      pop\n      pop\n      pop\n      jump\t// out\n        /* \"#utility.yul\":3227:3646   */\n    tag_54:\n        /* \"#utility.yul\":3393:3397   */\n      0x00\n        /* \"#utility.yul\":3431:3433   */\n      0x20\n        /* \"#utility.yul\":3420:3429   */\n      dup3\n        /* \"#utility.yul\":3416:3434   */\n      add\n        /* \"#utility.yul\":3408:3434   */\n      swap1\n      pop\n        /* \"#utility.yul\":3480:3489   */\n      dup2\n        /* \"#utility.yul\":3474:3478   */\n      dup2\n        /* \"#utility.yul\":3470:3490   */\n      sub\n        /* \"#utility.yul\":3466:3467   */\n      0x00\n        /* \"#utility.yul\":3455:3464   */\n      dup4\n        /* \"#utility.yul\":3451:3468   */\n      add\n        /* \"#utility.yul\":3444:3491   */\n      mstore\n        /* \"#utility.yul\":3508:3639   */\n      tag_111\n        /* \"#utility.yul\":3634:3638   */\n      dup2\n        /* \"#utility.yul\":3508:3639   */\n      tag_81\n      jump\t// in\n    tag_111:\n        /* \"#utility.yul\":3500:3639   */\n      swap1\n      pop\n        /* \"#utility.yul\":3398:3646   */\n      swap2\n      swap1\n      pop\n      jump\t// out\n        /* \"#utility.yul\":3652:4071   */\n    tag_30:\n        /* \"#utility.yul\":3818:3822   */\n      0x00\n        /* \"#utility.yul\":3856:3858   */\n      0x20\n        /* \"#utility.yul\":3845:3854   */\n      dup3\n        /* \"#utility.yul\":3841:3859   */\n      add\n        /* \"#utility.yul\":3833:3859   */\n      swap1\n      pop\n        /* \"#utility.yul\":3905:3914   */\n      dup2\n        /* \"#utility.yul\":3899:3903   */\n      dup2\n        /* \"#utility.yul\":3895:3915   */\n      sub\n        /* \"#utility.yul\":3891:3892   */\n      0x00\n        /* \"#utility.yul\":3880:3889   */\n      dup4\n        /* \"#utility.yul\":3876:3893   */\n      add\n        /* \"#utility.yul\":3869:3916   */\n      mstore\n        /* \"#utility.yul\":3933:4064   */\n      tag_113\n        /* \"#utility.yul\":4059:4063   */\n      dup2\n        /* \"#utility.yul\":3933:4064   */\n      tag_87\n      jump\t// in\n    tag_113:\n        /* \"#utility.yul\":3925:4064   */\n      swap1\n      pop\n        /* \"#utility.yul\":3823:4071   */\n      swap2\n      swap1\n      pop\n      jump\t// out\n        /* \"#utility.yul\":4077:4496   */\n    tag_49:\n        /* \"#utility.yul\":4243:4247   */\n      0x00\n        /* \"#utility.yul\":4281:4283   */\n      0x20\n        /* \"#utility.yul\":4270:4279   */\n      dup3\n        /* \"#utility.yul\":4266:4284   */\n      add\n        /* \"#utility.yul\":4258:4284   */\n      swap1\n      pop\n        /* \"#utility.yul\":4330:4339   */\n      dup2\n        /* \"#utility.yul\":4324:4328   */\n      dup2\n        /* \"#utility.yul\":4320:4340   */\n      sub\n        /* \"#utility.yul\":4316:4317   */\n      0x00\n        /* \"#utility.yul\":4305:4314   */\n      dup4\n        /* \"#utility.yul\":4301:4318   */\n      add\n        /* \"#utility.yul\":4294:4341   */\n      mstore\n        /* \"#utility.yul\":4358:4489   */\n      tag_115\n        /* \"#utility.yul\":4484:4488   */\n      dup2\n        /* \"#utility.yul\":4358:4489   */\n      tag_92\n      jump\t// in\n    tag_115:\n        /* \"#utility.yul\":4350:4489   */\n      swap1\n      pop\n        /* \"#utility.yul\":4248:4496   */\n      swap2\n      swap1\n      pop\n      jump\t// out\n        /* \"#utility.yul\":4502:4921   */\n    tag_37:\n        /* \"#utility.yul\":4668:4672   */\n      0x00\n        /* \"#utility.yul\":4706:4708   */\n      0x20\n        /* \"#utility.yul\":4695:4704   */\n      dup3\n        /* \"#utility.yul\":4691:4709   */\n      add\n        /* \"#utility.yul\":4683:4709   */\n      swap1\n      pop\n        /* \"#utility.yul\":4755:4764   */\n      dup2\n        /* \"#utility.yul\":4749:4753   */\n      dup2\n        /* \"#utility.yul\":4745:4765   */\n      sub\n        /* \"#utility.yul\":4741:4742   */\n      0x00\n        /* \"#utility.yul\":4730:4739   */\n      dup4\n        /* \"#utility.yul\":4726:4743   */\n      add\n        /* \"#utility.yul\":4719:4766   */\n      mstore\n        /* \"#utility.yul\":4783:4914   */\n      tag_117\n        /* \"#utility.yul\":4909:4913   */\n      dup2\n        /* \"#utility.yul\":4783:4914   */\n      tag_97\n      jump\t// in\n    tag_117:\n        /* \"#utility.yul\":4775:4914   */\n      swap1\n      pop\n        /* \"#utility.yul\":4673:4921   */\n      swap2\n      swap1\n      pop\n      jump\t// out\n        /* \"#utility.yul\":4927:5149   */\n    tag_10:\n        /* \"#utility.yul\":5020:5024   */\n      0x00\n        /* \"#utility.yul\":5058:5060   */\n      0x20\n        /* \"#utility.yul\":5047:5056   */\n      dup3\n        /* \"#utility.yul\":5043:5061   */\n      add\n        /* \"#utility.yul\":5035:5061   */\n      swap1\n      pop\n        /* \"#utility.yul\":5071:5142   */\n      tag_119\n        /* \"#utility.yul\":5139:5140   */\n      0x00\n        /* \"#utility.yul\":5128:5137   */\n      dup4\n        /* \"#utility.yul\":5124:5141   */\n      add\n        /* \"#utility.yul\":5115:5121   */\n      dup5\n        /* \"#utility.yul\":5071:5142   */\n      tag_102\n      jump\t// in\n    tag_119:\n        /* \"#utility.yul\":5025:5149   */\n      swap3\n      swap2\n      pop\n      pop\n      jump\t// out\n        /* \"#utility.yul\":5155:5487   */\n    tag_16:\n        /* \"#utility.yul\":5276:5280   */\n      0x00\n        /* \"#utility.yul\":5314:5316   */\n      0x40\n        /* \"#utility.yul\":5303:5312   */\n      dup3\n        /* \"#utility.yul\":5299:5317   */\n      add\n        /* \"#utility.yul\":5291:5317   */\n      swap1\n      pop\n        /* \"#utility.yul\":5327:5398   */\n      tag_121\n        /* \"#utility.yul\":5395:5396   */\n      0x00\n        /* \"#utility.yul\":5384:5393   */\n      dup4\n        /* \"#utility.yul\":5380:5397   */\n      add\n        /* \"#utility.yul\":5371:5377   */\n      dup6\n        /* \"#utility.yul\":5327:5398   */\n      tag_102\n      jump\t// in\n    tag_121:\n        /* \"#utility.yul\":5408:5480   */\n      tag_122\n        /* \"#utility.yul\":5476:5478   */\n      0x20\n        /* \"#utility.yul\":5465:5474   */\n      dup4\n        /* \"#utility.yul\":5461:5479   */\n      add\n        /* \"#utility.yul\":5452:5458   */\n      dup5\n        /* \"#utility.yul\":5408:5480   */\n      tag_102\n      jump\t// in\n    tag_122:\n        /* \"#utility.yul\":5281:5487   */\n      swap4\n      swap3\n      pop\n      pop\n      pop\n      jump\t// out\n        /* \"#utility.yul\":5493:5662   */\n    tag_84:\n        /* \"#utility.yul\":5577:5588   */\n      0x00\n        /* \"#utility.yul\":5611:5617   */\n      dup3\n        /* \"#utility.yul\":5606:5609   */\n      dup3\n        /* \"#utility.yul\":5599:5618   */\n      mstore\n        /* \"#utility.yul\":5651:5655   */\n      0x20\n        /* \"#utility.yul\":5646:5649   */\n      dup3\n        /* \"#utility.yul\":5642:5656   */\n      add\n        /* \"#utility.yul\":5627:5656   */\n      swap1\n      pop\n        /* \"#utility.yul\":5589:5662   */\n      swap3\n      swap2\n      pop\n      pop\n      jump\t// out\n        /* \"#utility.yul\":5668:5973   */\n    tag_34:\n        /* \"#utility.yul\":5708:5711   */\n      0x00\n        /* \"#utility.yul\":5727:5747   */\n      tag_125\n        /* \"#utility.yul\":5745:5746   */\n      dup3\n        /* \"#utility.yul\":5727:5747   */\n      tag_105\n      jump\t// in\n    tag_125:\n        /* \"#utility.yul\":5722:5747   */\n      swap2\n      pop\n        /* \"#utility.yul\":5761:5781   */\n      tag_126\n        /* \"#utility.yul\":5779:5780   */\n      dup4\n        /* \"#utility.yul\":5761:5781   */\n      tag_105\n      jump\t// in\n    tag_126:\n        /* \"#utility.yul\":5756:5781   */\n      swap3\n      pop\n        /* \"#utility.yul\":5915:5916   */\n      dup3\n        /* \"#utility.yul\":5847:5913   */\n      0xffffffffffffffffffffffffffffffffffffffffffffffffffffffffffffffff\n        /* \"#utility.yul\":5843:5917   */\n      sub\n        /* \"#utility.yul\":5840:5841   */\n      dup3\n        /* \"#utility.yul\":5837:5918   */\n      gt\n        /* \"#utility.yul\":5834:5836   */\n      iszero\n      tag_127\n      jumpi\n        /* \"#utility.yul\":5921:5939   */\n      tag_128\n      tag_129\n      jump\t// in\n    tag_128:\n        /* \"#utility.yul\":5834:5836   */\n    tag_127:\n        /* \"#utility.yul\":5965:5966   */\n      dup3\n        /* \"#utility.yul\":5962:5963   */\n      dup3\n        /* \"#utility.yul\":5958:5967   */\n      add\n        /* \"#utility.yul\":5951:5967   */\n      swap1\n      pop\n        /* \"#utility.yul\":5712:5973   */\n      swap3\n      swap2\n      pop\n      pop\n      jump\t// out\n        /* \"#utility.yul\":5979:6170   */\n    tag_58:\n        /* \"#utility.yul\":6019:6023   */\n      0x00\n        /* \"#utility.yul\":6039:6059   */\n      tag_131\n        /* \"#utility.yul\":6057:6058   */\n      dup3\n        /* \"#utility.yul\":6039:6059   */\n      tag_105\n      jump\t// in\n    tag_131:\n        /* \"#utility.yul\":6034:6059   */\n      swap2\n      pop\n        /* \"#utility.yul\":6073:6093   */\n      tag_132\n        /* \"#utility.yul\":6091:6092   */\n      dup4\n        /* \"#utility.yul\":6073:6093   */\n      tag_105\n      jump\t// in\n    tag_132:\n        /* \"#utility.yul\":6068:6093   */\n      swap3\n      pop\n        /* \"#utility.yul\":6112:6113   */\n      dup3\n        /* \"#utility.yul\":6109:6110   */\n      dup3\n        /* \"#utility.yul\":6106:6114   */\n      lt\n        /* \"#utility.yul\":6103:6105   */\n      iszero\n      tag_133\n      jumpi\n        /* \"#utility.yul\":6117:6135   */\n      tag_134\n      tag_129\n      jump\t// in\n    tag_134:\n        /* \"#utility.yul\":6103:6105   */\n    tag_133:\n        /* \"#utility.yul\":6162:6163   */\n      dup3\n        /* \"#utility.yul\":6159:6160   */\n      dup3\n        /* \"#utility.yul\":6155:6164   */\n      sub\n        /* \"#utility.yul\":6147:6164   */\n      swap1\n      pop\n        /* \"#utility.yul\":6024:6170   */\n      swap3\n      swap2\n      pop\n      pop\n      jump\t// out\n        /* \"#utility.yul\":6176:6299   */\n    tag_135:\n        /* \"#utility.yul\":6219:6226   */\n      0x00\n        /* \"#utility.yul\":6248:6253   */\n      dup2\n        /* \"#utility.yul\":6237:6253   */\n      swap1\n      pop\n        /* \"#utility.yul\":6254:6293   */\n      tag_137\n        /* \"#utility.yul\":6287:6292   */\n      dup3\n        /* \"#utility.yul\":6254:6293   */\n      tag_138\n      jump\t// in\n    tag_137:\n        /* \"#utility.yul\":6227:6299   */\n      swap2\n      swap1\n      pop\n      jump\t// out\n        /* \"#utility.yul\":6305:6382   */\n    tag_105:\n        /* \"#utility.yul\":6342:6349   */\n      0x00\n        /* \"#utility.yul\":6371:6376   */\n      dup2\n        /* \"#utility.yul\":6360:6376   */\n      swap1\n      pop\n        /* \"#utility.yul\":6350:6382   */\n      swap2\n      swap1\n      pop\n      jump\t// out\n        /* \"#utility.yul\":6388:6511   */\n    tag_80:\n        /* \"#utility.yul\":6442:6451   */\n      0x00\n        /* \"#utility.yul\":6475:6505   */\n      tag_141\n        /* \"#utility.yul\":6499:6504   */\n      dup3\n        /* \"#utility.yul\":6475:6505   */\n      tag_135\n      jump\t// in\n    tag_141:\n        /* \"#utility.yul\":6462:6505   */\n      swap1\n      pop\n        /* \"#utility.yul\":6452:6511   */\n      swap2\n      swap1\n      pop\n      jump\t// out\n        /* \"#utility.yul\":6517:6697   */\n    tag_129:\n        /* \"#utility.yul\":6565:6642   */\n      0x4e487b7100000000000000000000000000000000000000000000000000000000\n        /* \"#utility.yul\":6562:6563   */\n      0x00\n        /* \"#utility.yul\":6555:6643   */\n      mstore\n        /* \"#utility.yul\":6662:6666   */\n      0x11\n        /* \"#utility.yul\":6659:6660   */\n      0x04\n        /* \"#utility.yul\":6652:6667   */\n      mstore\n        /* \"#utility.yul\":6686:6690   */\n      0x24\n        /* \"#utility.yul\":6683:6684   */\n      0x00\n        /* \"#utility.yul\":6676:6691   */\n      revert\n        /* \"#utility.yul\":6703:6883   */\n    tag_143:\n        /* \"#utility.yul\":6751:6828   */\n      0x4e487b7100000000000000000000000000000000000000000000000000000000\n        /* \"#utility.yul\":6748:6749   */\n      0x00\n        /* \"#utility.yul\":6741:6829   */\n      mstore\n        /* \"#utility.yul\":6848:6852   */\n      0x21\n        /* \"#utility.yul\":6845:6846   */\n      0x04\n        /* \"#utility.yul\":6838:6853   */\n      mstore\n        /* \"#utility.yul\":6872:6876   */\n      0x24\n        /* \"#utility.yul\":6869:6870   */\n      0x00\n        /* \"#utility.yul\":6862:6877   */\n      revert\n        /* \"#utility.yul\":6889:7053   */\n    tag_86:\n        /* \"#utility.yul\":7029:7045   */\n      0x4e6f206d6f726520646973686573000000000000000000000000000000000000\n        /* \"#utility.yul\":7025:7026   */\n      0x00\n        /* \"#utility.yul\":7017:7023   */\n      dup3\n        /* \"#utility.yul\":7013:7027   */\n      add\n        /* \"#utility.yul\":7006:7046   */\n      mstore\n        /* \"#utility.yul\":6995:7053   */\n      pop\n      jump\t// out\n        /* \"#utility.yul\":7059:7232   */\n    tag_91:\n        /* \"#utility.yul\":7199:7224   */\n      0x5175616e74697479206d757374206265206f7665722030000000000000000000\n        /* \"#utility.yul\":7195:7196   */\n      0x00\n        /* \"#utility.yul\":7187:7193   */\n      dup3\n        /* \"#utility.yul\":7183:7197   */\n      add\n        /* \"#utility.yul\":7176:7225   */\n      mstore\n        /* \"#utility.yul\":7165:7232   */\n      pop\n      jump\t// out\n        /* \"#utility.yul\":7238:7415   */\n    tag_96:\n        /* \"#utility.yul\":7378:7407   */\n      0x4e6f7420656e6f7567682064697368657320617661696c61626c650000000000\n        /* \"#utility.yul\":7374:7375   */\n      0x00\n        /* \"#utility.yul\":7366:7372   */\n      dup3\n        /* \"#utility.yul\":7362:7376   */\n      add\n        /* \"#utility.yul\":7355:7408   */\n      mstore\n        /* \"#utility.yul\":7344:7415   */\n      pop\n      jump\t// out\n        /* \"#utility.yul\":7421:7588   */\n    tag_101:\n        /* \"#utility.yul\":7561:7580   */\n      0x546f6f206d756368207175616e74697479000000000000000000000000000000\n        /* \"#utility.yul\":7557:7558   */\n      0x00\n        /* \"#utility.yul\":7549:7555   */\n      dup3\n        /* \"#utility.yul\":7545:7559   */\n      add\n        /* \"#utility.yul\":7538:7581   */\n      mstore\n        /* \"#utility.yul\":7527:7588   */\n      pop\n      jump\t// out\n        /* \"#utility.yul\":7594:7705   */\n    tag_138:\n        /* \"#utility.yul\":7673:7674   */\n      0x05\n        /* \"#utility.yul\":7666:7671   */\n      dup2\n        /* \"#utility.yul\":7663:7675   */\n      lt\n        /* \"#utility.yul\":7653:7655   */\n      tag_150\n      jumpi\n        /* \"#utility.yul\":7679:7697   */\n      tag_151\n      tag_143\n      jump\t// in\n    tag_151:\n        /* \"#utility.yul\":7653:7655   */\n    tag_150:\n        /* \"#utility.yul\":7643:7705   */\n      pop\n      jump\t// out\n        /* \"#utility.yul\":7711:7816   */\n    tag_65:\n        /* \"#utility.yul\":7790:7791   */\n      0x05\n        /* \"#utility.yul\":7783:7788   */\n      dup2\n        /* \"#utility.yul\":7780:7792   */\n      lt\n        /* \"#utility.yul\":7770:7772   */\n      tag_153\n      jumpi\n        /* \"#utility.yul\":7806:7807   */\n      0x00\n        /* \"#utility.yul\":7803:7804   */\n      dup1\n        /* \"#utility.yul\":7796:7808   */\n      revert\n        /* \"#utility.yul\":7770:7772   */\n    tag_153:\n        /* \"#utility.yul\":7760:7816   */\n      pop\n      jump\t// out\n        /* \"#utility.yul\":7822:7944   */\n    tag_69:\n        /* \"#utility.yul\":7895:7919   */\n      tag_155\n        /* \"#utility.yul\":7913:7918   */\n      dup2\n        /* \"#utility.yul\":7895:7919   */\n      tag_105\n      jump\t// in\n    tag_155:\n        /* \"#utility.yul\":7888:7893   */\n      dup2\n        /* \"#utility.yul\":7885:7920   */\n      eq\n        /* \"#utility.yul\":7875:7877   */\n      tag_156\n      jumpi\n        /* \"#utility.yul\":7934:7935   */\n      0x00\n        /* \"#utility.yul\":7931:7932   */\n      dup1\n        /* \"#utility.yul\":7924:7936   */\n      revert\n        /* \"#utility.yul\":7875:7877   */\n    tag_156:\n        /* \"#utility.yul\":7865:7944   */\n      pop\n      jump\t// out\n\n    auxdata: 0xa26469706673582212209e5a8713b6f39f7d815ae89d316ebd6230418afcf0762ef73dd2d472148712ad64736f6c63430008040033\n}\n",
				"bytecode": {
					"linkReferences": {},
					"object": "6080604052602a60015534801561001557600080fd5b50610ac3806100256000396000f3fe608060405234801561001057600080fd5b506004361061004c5760003560e01c80633c010a3e146100515780638d65df2a1461006f578063c332c3be146100a0578063c79cf758146100d2575b600080fd5b610059610103565b6040516100669190610842565b60405180910390f35b610089600480360381019061008491906106a5565b610109565b60405161009792919061085d565b60405180910390f35b6100ba60048036038101906100b591906106a5565b6103ee565b6040516100c99392919061078b565b60405180910390f35b6100ec60048036038101906100e7919061067c565b61062e565b6040516100fa92919061085d565b60405180910390f35b60015481565b6000806000831161014f576040517f08c379a0000000000000000000000000000000000000000000000000000000008152600401610146906107e2565b60405180910390fd5b6001548360008087600481111561018f577f4e487b7100000000000000000000000000000000000000000000000000000000600052602160045260246000fd5b60048111156101c7577f4e487b7100000000000000000000000000000000000000000000000000000000600052602160045260246000fd5b8152602001908152602001600020600001546101e39190610897565b1115610224576040517f08c379a000000000000000000000000000000000000000000000000000000000815260040161021b90610822565b60405180910390fd5b82600080866004811115610261577f4e487b7100000000000000000000000000000000000000000000000000000000600052602160045260246000fd5b6004811115610299577f4e487b7100000000000000000000000000000000000000000000000000000000600052602160045260246000fd5b815260200190815260200160002060000160008282546102b99190610897565b92505081905550826000808660048111156102fd577f4e487b7100000000000000000000000000000000000000000000000000000000600052602160045260246000fd5b6004811115610335577f4e487b7100000000000000000000000000000000000000000000000000000000600052602160045260246000fd5b815260200190815260200160002060010160008282546103559190610897565b92505081905550600080856004811115610398577f4e487b7100000000000000000000000000000000000000000000000000000000600052602160045260246000fd5b60048111156103d0577f4e487b7100000000000000000000000000000000000000000000000000000000600052602160045260246000fd5b81526020019081526020016000206001015483915091509250929050565b6000806000808410610435576040517f08c379a000000000000000000000000000000000000000000000000000000000815260040161042c90610802565b60405180910390fd5b83600080876004811115610472577f4e487b7100000000000000000000000000000000000000000000000000000000600052602160045260246000fd5b60048111156104aa577f4e487b7100000000000000000000000000000000000000000000000000000000600052602160045260246000fd5b81526020019081526020016000206001015410156104fd576040517f08c379a00000000000000000000000000000000000000000000000000000000081526004016104f4906107c2565b60405180910390fd5b8360008087600481111561053a577f4e487b7100000000000000000000000000000000000000000000000000000000600052602160045260246000fd5b6004811115610572577f4e487b7100000000000000000000000000000000000000000000000000000000600052602160045260246000fd5b8152602001908152602001600020600101600082825461059291906108ed565b9250508190555084846000808860048111156105d7577f4e487b7100000000000000000000000000000000000000000000000000000000600052602160045260246000fd5b600481111561060f577f4e487b7100000000000000000000000000000000000000000000000000000000600052602160045260246000fd5b8152602001908152602001600020600101549250925092509250925092565b60006020528060005260406000206000915090508060000154908060010154905082565b60008135905061066181610a66565b92915050565b60008135905061067681610a76565b92915050565b60006020828403121561068e57600080fd5b600061069c84828501610652565b91505092915050565b600080604083850312156106b857600080fd5b60006106c685828601610652565b92505060206106d785828601610667565b9150509250929050565b6106ea8161093e565b82525050565b60006106fd600e83610886565b9150610708826109ae565b602082019050919050565b6000610720601783610886565b915061072b826109d7565b602082019050919050565b6000610743601b83610886565b915061074e82610a00565b602082019050919050565b6000610766601183610886565b915061077182610a29565b602082019050919050565b61078581610934565b82525050565b60006060820190506107a060008301866106e1565b6107ad602083018561077c565b6107ba604083018461077c565b949350505050565b600060208201905081810360008301526107db816106f0565b9050919050565b600060208201905081810360008301526107fb81610713565b9050919050565b6000602082019050818103600083015261081b81610736565b9050919050565b6000602082019050818103600083015261083b81610759565b9050919050565b6000602082019050610857600083018461077c565b92915050565b6000604082019050610872600083018561077c565b61087f602083018461077c565b9392505050565b600082825260208201905092915050565b60006108a282610934565b91506108ad83610934565b9250827fffffffffffffffffffffffffffffffffffffffffffffffffffffffffffffffff038211156108e2576108e1610950565b5b828201905092915050565b60006108f882610934565b915061090383610934565b92508282101561091657610915610950565b5b828203905092915050565b600081905061092f82610a52565b919050565b6000819050919050565b600061094982610921565b9050919050565b7f4e487b7100000000000000000000000000000000000000000000000000000000600052601160045260246000fd5b7f4e487b7100000000000000000000000000000000000000000000000000000000600052602160045260246000fd5b7f4e6f206d6f726520646973686573000000000000000000000000000000000000600082015250565b7f5175616e74697479206d757374206265206f7665722030000000000000000000600082015250565b7f4e6f7420656e6f7567682064697368657320617661696c61626c650000000000600082015250565b7f546f6f206d756368207175616e74697479000000000000000000000000000000600082015250565b60058110610a6357610a6261097f565b5b50565b60058110610a7357600080fd5b50565b610a7f81610934565b8114610a8a57600080fd5b5056fea26469706673582212209e5a8713b6f39f7d815ae89d316ebd6230418afcf0762ef73dd2d472148712ad64736f6c63430008040033",
					"opcodes": "PUSH1 0x80 PUSH1 0x40 MSTORE PUSH1 0x2A PUSH1 0x1 SSTORE CALLVALUE DUP1 ISZERO PUSH2 0x15 JUMPI PUSH1 0x0 DUP1 REVERT JUMPDEST POP PUSH2 0xAC3 DUP1 PUSH2 0x25 PUSH1 0x0 CODECOPY PUSH1 0x0 RETURN INVALID PUSH1 0x80 PUSH1 0x40 MSTORE CALLVALUE DUP1 ISZERO PUSH2 0x10 JUMPI PUSH1 0x0 DUP1 REVERT JUMPDEST POP PUSH1 0x4 CALLDATASIZE LT PUSH2 0x4C JUMPI PUSH1 0x0 CALLDATALOAD PUSH1 0xE0 SHR DUP1 PUSH4 0x3C010A3E EQ PUSH2 0x51 JUMPI DUP1 PUSH4 0x8D65DF2A EQ PUSH2 0x6F JUMPI DUP1 PUSH4 0xC332C3BE EQ PUSH2 0xA0 JUMPI DUP1 PUSH4 0xC79CF758 EQ PUSH2 0xD2 JUMPI JUMPDEST PUSH1 0x0 DUP1 REVERT JUMPDEST PUSH2 0x59 PUSH2 0x103 JUMP JUMPDEST PUSH1 0x40 MLOAD PUSH2 0x66 SWAP2 SWAP1 PUSH2 0x842 JUMP JUMPDEST PUSH1 0x40 MLOAD DUP1 SWAP2 SUB SWAP1 RETURN JUMPDEST PUSH2 0x89 PUSH1 0x4 DUP1 CALLDATASIZE SUB DUP2 ADD SWAP1 PUSH2 0x84 SWAP2 SWAP1 PUSH2 0x6A5 JUMP JUMPDEST PUSH2 0x109 JUMP JUMPDEST PUSH1 0x40 MLOAD PUSH2 0x97 SWAP3 SWAP2 SWAP1 PUSH2 0x85D JUMP JUMPDEST PUSH1 0x40 MLOAD DUP1 SWAP2 SUB SWAP1 RETURN JUMPDEST PUSH2 0xBA PUSH1 0x4 DUP1 CALLDATASIZE SUB DUP2 ADD SWAP1 PUSH2 0xB5 SWAP2 SWAP1 PUSH2 0x6A5 JUMP JUMPDEST PUSH2 0x3EE JUMP JUMPDEST PUSH1 0x40 MLOAD PUSH2 0xC9 SWAP4 SWAP3 SWAP2 SWAP1 PUSH2 0x78B JUMP JUMPDEST PUSH1 0x40 MLOAD DUP1 SWAP2 SUB SWAP1 RETURN JUMPDEST PUSH2 0xEC PUSH1 0x4 DUP1 CALLDATASIZE SUB DUP2 ADD SWAP1 PUSH2 0xE7 SWAP2 SWAP1 PUSH2 0x67C JUMP JUMPDEST PUSH2 0x62E JUMP JUMPDEST PUSH1 0x40 MLOAD PUSH2 0xFA SWAP3 SWAP2 SWAP1 PUSH2 0x85D JUMP JUMPDEST PUSH1 0x40 MLOAD DUP1 SWAP2 SUB SWAP1 RETURN JUMPDEST PUSH1 0x1 SLOAD DUP2 JUMP JUMPDEST PUSH1 0x0 DUP1 PUSH1 0x0 DUP4 GT PUSH2 0x14F JUMPI PUSH1 0x40 MLOAD PUSH32 0x8C379A000000000000000000000000000000000000000000000000000000000 DUP2 MSTORE PUSH1 0x4 ADD PUSH2 0x146 SWAP1 PUSH2 0x7E2 JUMP JUMPDEST PUSH1 0x40 MLOAD DUP1 SWAP2 SUB SWAP1 REVERT JUMPDEST PUSH1 0x1 SLOAD DUP4 PUSH1 0x0 DUP1 DUP8 PUSH1 0x4 DUP2 GT ISZERO PUSH2 0x18F JUMPI PUSH32 0x4E487B7100000000000000000000000000000000000000000000000000000000 PUSH1 0x0 MSTORE PUSH1 0x21 PUSH1 0x4 MSTORE PUSH1 0x24 PUSH1 0x0 REVERT JUMPDEST PUSH1 0x4 DUP2 GT ISZERO PUSH2 0x1C7 JUMPI PUSH32 0x4E487B7100000000000000000000000000000000000000000000000000000000 PUSH1 0x0 MSTORE PUSH1 0x21 PUSH1 0x4 MSTORE PUSH1 0x24 PUSH1 0x0 REVERT JUMPDEST DUP2 MSTORE PUSH1 0x20 ADD SWAP1 DUP2 MSTORE PUSH1 0x20 ADD PUSH1 0x0 KECCAK256 PUSH1 0x0 ADD SLOAD PUSH2 0x1E3 SWAP2 SWAP1 PUSH2 0x897 JUMP JUMPDEST GT ISZERO PUSH2 0x224 JUMPI PUSH1 0x40 MLOAD PUSH32 0x8C379A000000000000000000000000000000000000000000000000000000000 DUP2 MSTORE PUSH1 0x4 ADD PUSH2 0x21B SWAP1 PUSH2 0x822 JUMP JUMPDEST PUSH1 0x40 MLOAD DUP1 SWAP2 SUB SWAP1 REVERT JUMPDEST DUP3 PUSH1 0x0 DUP1 DUP7 PUSH1 0x4 DUP2 GT ISZERO PUSH2 0x261 JUMPI PUSH32 0x4E487B7100000000000000000000000000000000000000000000000000000000 PUSH1 0x0 MSTORE PUSH1 0x21 PUSH1 0x4 MSTORE PUSH1 0x24 PUSH1 0x0 REVERT JUMPDEST PUSH1 0x4 DUP2 GT ISZERO PUSH2 0x299 JUMPI PUSH32 0x4E487B7100000000000000000000000000000000000000000000000000000000 PUSH1 0x0 MSTORE PUSH1 0x21 PUSH1 0x4 MSTORE PUSH1 0x24 PUSH1 0x0 REVERT JUMPDEST DUP2 MSTORE PUSH1 0x20 ADD SWAP1 DUP2 MSTORE PUSH1 0x20 ADD PUSH1 0x0 KECCAK256 PUSH1 0x0 ADD PUSH1 0x0 DUP3 DUP3 SLOAD PUSH2 0x2B9 SWAP2 SWAP1 PUSH2 0x897 JUMP JUMPDEST SWAP3 POP POP DUP2 SWAP1 SSTORE POP DUP3 PUSH1 0x0 DUP1 DUP7 PUSH1 0x4 DUP2 GT ISZERO PUSH2 0x2FD JUMPI PUSH32 0x4E487B7100000000000000000000000000000000000000000000000000000000 PUSH1 0x0 MSTORE PUSH1 0x21 PUSH1 0x4 MSTORE PUSH1 0x24 PUSH1 0x0 REVERT JUMPDEST PUSH1 0x4 DUP2 GT ISZERO PUSH2 0x335 JUMPI PUSH32 0x4E487B7100000000000000000000000000000000000000000000000000000000 PUSH1 0x0 MSTORE PUSH1 0x21 PUSH1 0x4 MSTORE PUSH1 0x24 PUSH1 0x0 REVERT JUMPDEST DUP2 MSTORE PUSH1 0x20 ADD SWAP1 DUP2 MSTORE PUSH1 0x20 ADD PUSH1 0x0 KECCAK256 PUSH1 0x1 ADD PUSH1 0x0 DUP3 DUP3 SLOAD PUSH2 0x355 SWAP2 SWAP1 PUSH2 0x897 JUMP JUMPDEST SWAP3 POP POP DUP2 SWAP1 SSTORE POP PUSH1 0x0 DUP1 DUP6 PUSH1 0x4 DUP2 GT ISZERO PUSH2 0x398 JUMPI PUSH32 0x4E487B7100000000000000000000000000000000000000000000000000000000 PUSH1 0x0 MSTORE PUSH1 0x21 PUSH1 0x4 MSTORE PUSH1 0x24 PUSH1 0x0 REVERT JUMPDEST PUSH1 0x4 DUP2 GT ISZERO PUSH2 0x3D0 JUMPI PUSH32 0x4E487B7100000000000000000000000000000000000000000000000000000000 PUSH1 0x0 MSTORE PUSH1 0x21 PUSH1 0x4 MSTORE PUSH1 0x24 PUSH1 0x0 REVERT JUMPDEST DUP2 MSTORE PUSH1 0x20 ADD SWAP1 DUP2 MSTORE PUSH1 0x20 ADD PUSH1 0x0 KECCAK256 PUSH1 0x1 ADD SLOAD DUP4 SWAP2 POP SWAP2 POP SWAP3 POP SWAP3 SWAP1 POP JUMP JUMPDEST PUSH1 0x0 DUP1 PUSH1 0x0 DUP1 DUP5 LT PUSH2 0x435 JUMPI PUSH1 0x40 MLOAD PUSH32 0x8C379A000000000000000000000000000000000000000000000000000000000 DUP2 MSTORE PUSH1 0x4 ADD PUSH2 0x42C SWAP1 PUSH2 0x802 JUMP JUMPDEST PUSH1 0x40 MLOAD DUP1 SWAP2 SUB SWAP1 REVERT JUMPDEST DUP4 PUSH1 0x0 DUP1 DUP8 PUSH1 0x4 DUP2 GT ISZERO PUSH2 0x472 JUMPI PUSH32 0x4E487B7100000000000000000000000000000000000000000000000000000000 PUSH1 0x0 MSTORE PUSH1 0x21 PUSH1 0x4 MSTORE PUSH1 0x24 PUSH1 0x0 REVERT JUMPDEST PUSH1 0x4 DUP2 GT ISZERO PUSH2 0x4AA JUMPI PUSH32 0x4E487B7100000000000000000000000000000000000000000000000000000000 PUSH1 0x0 MSTORE PUSH1 0x21 PUSH1 0x4 MSTORE PUSH1 0x24 PUSH1 0x0 REVERT JUMPDEST DUP2 MSTORE PUSH1 0x20 ADD SWAP1 DUP2 MSTORE PUSH1 0x20 ADD PUSH1 0x0 KECCAK256 PUSH1 0x1 ADD SLOAD LT ISZERO PUSH2 0x4FD JUMPI PUSH1 0x40 MLOAD PUSH32 0x8C379A000000000000000000000000000000000000000000000000000000000 DUP2 MSTORE PUSH1 0x4 ADD PUSH2 0x4F4 SWAP1 PUSH2 0x7C2 JUMP JUMPDEST PUSH1 0x40 MLOAD DUP1 SWAP2 SUB SWAP1 REVERT JUMPDEST DUP4 PUSH1 0x0 DUP1 DUP8 PUSH1 0x4 DUP2 GT ISZERO PUSH2 0x53A JUMPI PUSH32 0x4E487B7100000000000000000000000000000000000000000000000000000000 PUSH1 0x0 MSTORE PUSH1 0x21 PUSH1 0x4 MSTORE PUSH1 0x24 PUSH1 0x0 REVERT JUMPDEST PUSH1 0x4 DUP2 GT ISZERO PUSH2 0x572 JUMPI PUSH32 0x4E487B7100000000000000000000000000000000000000000000000000000000 PUSH1 0x0 MSTORE PUSH1 0x21 PUSH1 0x4 MSTORE PUSH1 0x24 PUSH1 0x0 REVERT JUMPDEST DUP2 MSTORE PUSH1 0x20 ADD SWAP1 DUP2 MSTORE PUSH1 0x20 ADD PUSH1 0x0 KECCAK256 PUSH1 0x1 ADD PUSH1 0x0 DUP3 DUP3 SLOAD PUSH2 0x592 SWAP2 SWAP1 PUSH2 0x8ED JUMP JUMPDEST SWAP3 POP POP DUP2 SWAP1 SSTORE POP DUP5 DUP5 PUSH1 0x0 DUP1 DUP9 PUSH1 0x4 DUP2 GT ISZERO PUSH2 0x5D7 JUMPI PUSH32 0x4E487B7100000000000000000000000000000000000000000000000000000000 PUSH1 0x0 MSTORE PUSH1 0x21 PUSH1 0x4 MSTORE PUSH1 0x24 PUSH1 0x0 REVERT JUMPDEST PUSH1 0x4 DUP2 GT ISZERO PUSH2 0x60F JUMPI PUSH32 0x4E487B7100000000000000000000000000000000000000000000000000000000 PUSH1 0x0 MSTORE PUSH1 0x21 PUSH1 0x4 MSTORE PUSH1 0x24 PUSH1 0x0 REVERT JUMPDEST DUP2 MSTORE PUSH1 0x20 ADD SWAP1 DUP2 MSTORE PUSH1 0x20 ADD PUSH1 0x0 KECCAK256 PUSH1 0x1 ADD SLOAD SWAP3 POP SWAP3 POP SWAP3 POP SWAP3 POP SWAP3 POP SWAP3 JUMP JUMPDEST PUSH1 0x0 PUSH1 0x20 MSTORE DUP1 PUSH1 0x0 MSTORE PUSH1 0x40 PUSH1 0x0 KECCAK256 PUSH1 0x0 SWAP2 POP SWAP1 POP DUP1 PUSH1 0x0 ADD SLOAD SWAP1 DUP1 PUSH1 0x1 ADD SLOAD SWAP1 POP DUP3 JUMP JUMPDEST PUSH1 0x0 DUP2 CALLDATALOAD SWAP1 POP PUSH2 0x661 DUP2 PUSH2 0xA66 JUMP JUMPDEST SWAP3 SWAP2 POP POP JUMP JUMPDEST PUSH1 0x0 DUP2 CALLDATALOAD SWAP1 POP PUSH2 0x676 DUP2 PUSH2 0xA76 JUMP JUMPDEST SWAP3 SWAP2 POP POP JUMP JUMPDEST PUSH1 0x0 PUSH1 0x20 DUP3 DUP5 SUB SLT ISZERO PUSH2 0x68E JUMPI PUSH1 0x0 DUP1 REVERT JUMPDEST PUSH1 0x0 PUSH2 0x69C DUP5 DUP3 DUP6 ADD PUSH2 0x652 JUMP JUMPDEST SWAP2 POP POP SWAP3 SWAP2 POP POP JUMP JUMPDEST PUSH1 0x0 DUP1 PUSH1 0x40 DUP4 DUP6 SUB SLT ISZERO PUSH2 0x6B8 JUMPI PUSH1 0x0 DUP1 REVERT JUMPDEST PUSH1 0x0 PUSH2 0x6C6 DUP6 DUP3 DUP7 ADD PUSH2 0x652 JUMP JUMPDEST SWAP3 POP POP PUSH1 0x20 PUSH2 0x6D7 DUP6 DUP3 DUP7 ADD PUSH2 0x667 JUMP JUMPDEST SWAP2 POP POP SWAP3 POP SWAP3 SWAP1 POP JUMP JUMPDEST PUSH2 0x6EA DUP2 PUSH2 0x93E JUMP JUMPDEST DUP3 MSTORE POP POP JUMP JUMPDEST PUSH1 0x0 PUSH2 0x6FD PUSH1 0xE DUP4 PUSH2 0x886 JUMP JUMPDEST SWAP2 POP PUSH2 0x708 DUP3 PUSH2 0x9AE JUMP JUMPDEST PUSH1 0x20 DUP3 ADD SWAP1 POP SWAP2 SWAP1 POP JUMP JUMPDEST PUSH1 0x0 PUSH2 0x720 PUSH1 0x17 DUP4 PUSH2 0x886 JUMP JUMPDEST SWAP2 POP PUSH2 0x72B DUP3 PUSH2 0x9D7 JUMP JUMPDEST PUSH1 0x20 DUP3 ADD SWAP1 POP SWAP2 SWAP1 POP JUMP JUMPDEST PUSH1 0x0 PUSH2 0x743 PUSH1 0x1B DUP4 PUSH2 0x886 JUMP JUMPDEST SWAP2 POP PUSH2 0x74E DUP3 PUSH2 0xA00 JUMP JUMPDEST PUSH1 0x20 DUP3 ADD SWAP1 POP SWAP2 SWAP1 POP JUMP JUMPDEST PUSH1 0x0 PUSH2 0x766 PUSH1 0x11 DUP4 PUSH2 0x886 JUMP JUMPDEST SWAP2 POP PUSH2 0x771 DUP3 PUSH2 0xA29 JUMP JUMPDEST PUSH1 0x20 DUP3 ADD SWAP1 POP SWAP2 SWAP1 POP JUMP JUMPDEST PUSH2 0x785 DUP2 PUSH2 0x934 JUMP JUMPDEST DUP3 MSTORE POP POP JUMP JUMPDEST PUSH1 0x0 PUSH1 0x60 DUP3 ADD SWAP1 POP PUSH2 0x7A0 PUSH1 0x0 DUP4 ADD DUP7 PUSH2 0x6E1 JUMP JUMPDEST PUSH2 0x7AD PUSH1 0x20 DUP4 ADD DUP6 PUSH2 0x77C JUMP JUMPDEST PUSH2 0x7BA PUSH1 0x40 DUP4 ADD DUP5 PUSH2 0x77C JUMP JUMPDEST SWAP5 SWAP4 POP POP POP POP JUMP JUMPDEST PUSH1 0x0 PUSH1 0x20 DUP3 ADD SWAP1 POP DUP2 DUP2 SUB PUSH1 0x0 DUP4 ADD MSTORE PUSH2 0x7DB DUP2 PUSH2 0x6F0 JUMP JUMPDEST SWAP1 POP SWAP2 SWAP1 POP JUMP JUMPDEST PUSH1 0x0 PUSH1 0x20 DUP3 ADD SWAP1 POP DUP2 DUP2 SUB PUSH1 0x0 DUP4 ADD MSTORE PUSH2 0x7FB DUP2 PUSH2 0x713 JUMP JUMPDEST SWAP1 POP SWAP2 SWAP1 POP JUMP JUMPDEST PUSH1 0x0 PUSH1 0x20 DUP3 ADD SWAP1 POP DUP2 DUP2 SUB PUSH1 0x0 DUP4 ADD MSTORE PUSH2 0x81B DUP2 PUSH2 0x736 JUMP JUMPDEST SWAP1 POP SWAP2 SWAP1 POP JUMP JUMPDEST PUSH1 0x0 PUSH1 0x20 DUP3 ADD SWAP1 POP DUP2 DUP2 SUB PUSH1 0x0 DUP4 ADD MSTORE PUSH2 0x83B DUP2 PUSH2 0x759 JUMP JUMPDEST SWAP1 POP SWAP2 SWAP1 POP JUMP JUMPDEST PUSH1 0x0 PUSH1 0x20 DUP3 ADD SWAP1 POP PUSH2 0x857 PUSH1 0x0 DUP4 ADD DUP5 PUSH2 0x77C JUMP JUMPDEST SWAP3 SWAP2 POP POP JUMP JUMPDEST PUSH1 0x0 PUSH1 0x40 DUP3 ADD SWAP1 POP PUSH2 0x872 PUSH1 0x0 DUP4 ADD DUP6 PUSH2 0x77C JUMP JUMPDEST PUSH2 0x87F PUSH1 0x20 DUP4 ADD DUP5 PUSH2 0x77C JUMP JUMPDEST SWAP4 SWAP3 POP POP POP JUMP JUMPDEST PUSH1 0x0 DUP3 DUP3 MSTORE PUSH1 0x20 DUP3 ADD SWAP1 POP SWAP3 SWAP2 POP POP JUMP JUMPDEST PUSH1 0x0 PUSH2 0x8A2 DUP3 PUSH2 0x934 JUMP JUMPDEST SWAP2 POP PUSH2 0x8AD DUP4 PUSH2 0x934 JUMP JUMPDEST SWAP3 POP DUP3 PUSH32 0xFFFFFFFFFFFFFFFFFFFFFFFFFFFFFFFFFFFFFFFFFFFFFFFFFFFFFFFFFFFFFFFF SUB DUP3 GT ISZERO PUSH2 0x8E2 JUMPI PUSH2 0x8E1 PUSH2 0x950 JUMP JUMPDEST JUMPDEST DUP3 DUP3 ADD SWAP1 POP SWAP3 SWAP2 POP POP JUMP JUMPDEST PUSH1 0x0 PUSH2 0x8F8 DUP3 PUSH2 0x934 JUMP JUMPDEST SWAP2 POP PUSH2 0x903 DUP4 PUSH2 0x934 JUMP JUMPDEST SWAP3 POP DUP3 DUP3 LT ISZERO PUSH2 0x916 JUMPI PUSH2 0x915 PUSH2 0x950 JUMP JUMPDEST JUMPDEST DUP3 DUP3 SUB SWAP1 POP SWAP3 SWAP2 POP POP JUMP JUMPDEST PUSH1 0x0 DUP2 SWAP1 POP PUSH2 0x92F DUP3 PUSH2 0xA52 JUMP JUMPDEST SWAP2 SWAP1 POP JUMP JUMPDEST PUSH1 0x0 DUP2 SWAP1 POP SWAP2 SWAP1 POP JUMP JUMPDEST PUSH1 0x0 PUSH2 0x949 DUP3 PUSH2 0x921 JUMP JUMPDEST SWAP1 POP SWAP2 SWAP1 POP JUMP JUMPDEST PUSH32 0x4E487B7100000000000000000000000000000000000000000000000000000000 PUSH1 0x0 MSTORE PUSH1 0x11 PUSH1 0x4 MSTORE PUSH1 0x24 PUSH1 0x0 REVERT JUMPDEST PUSH32 0x4E487B7100000000000000000000000000000000000000000000000000000000 PUSH1 0x0 MSTORE PUSH1 0x21 PUSH1 0x4 MSTORE PUSH1 0x24 PUSH1 0x0 REVERT JUMPDEST PUSH32 0x4E6F206D6F726520646973686573000000000000000000000000000000000000 PUSH1 0x0 DUP3 ADD MSTORE POP JUMP JUMPDEST PUSH32 0x5175616E74697479206D757374206265206F7665722030000000000000000000 PUSH1 0x0 DUP3 ADD MSTORE POP JUMP JUMPDEST PUSH32 0x4E6F7420656E6F7567682064697368657320617661696C61626C650000000000 PUSH1 0x0 DUP3 ADD MSTORE POP JUMP JUMPDEST PUSH32 0x546F6F206D756368207175616E74697479000000000000000000000000000000 PUSH1 0x0 DUP3 ADD MSTORE POP JUMP JUMPDEST PUSH1 0x5 DUP2 LT PUSH2 0xA63 JUMPI PUSH2 0xA62 PUSH2 0x97F JUMP JUMPDEST JUMPDEST POP JUMP JUMPDEST PUSH1 0x5 DUP2 LT PUSH2 0xA73 JUMPI PUSH1 0x0 DUP1 REVERT JUMPDEST POP JUMP JUMPDEST PUSH2 0xA7F DUP2 PUSH2 0x934 JUMP JUMPDEST DUP2 EQ PUSH2 0xA8A JUMPI PUSH1 0x0 DUP1 REVERT JUMPDEST POP JUMP INVALID LOG2 PUSH5 0x6970667358 0x22 SLT KECCAK256 SWAP15 GAS DUP8 SGT 0xB6 RETURN SWAP16 PUSH30 0x815AE89D316EBD6230418AFCF0762EF73DD2D472148712AD64736F6C6343 STOP ADDMOD DIV STOP CALLER "
				},
				"gasEstimates": {
					"creation": {
						"codeDepositCost": "551000",
						"executionCost": "20593",
						"totalCost": "571593"
					},
					"external": {
						"dishQuantity(uint8)": "infinite",
						"fillDish(uint8,uint256)": "infinite",
						"getDish(uint8,uint256)": "875",
						"maxItems()": "1107"
					}
				},
				"methodIdentifiers": {
					"dishQuantity(uint8)": "c79cf758",
					"fillDish(uint8,uint256)": "8d65df2a",
					"getDish(uint8,uint256)": "c332c3be",
					"maxItems()": "3c010a3e"
				}
			},
			"storageLayout": {
				"storage": [
					{
						"astId": 18,
						"contract": "contracts/rush.sol:RushChapterI",
						"label": "dishQuantity",
						"offset": 0,
						"slot": "0",
						"type": "t_mapping(t_enum(Dish)7,t_struct(DishData)12_storage)"
					},
					{
						"astId": 21,
						"contract": "contracts/rush.sol:RushChapterI",
						"label": "maxItems",
						"offset": 0,
						"slot": "1",
						"type": "t_uint256"
					}
				],
				"types": {
					"t_enum(Dish)7": {
						"encoding": "inplace",
						"label": "enum RushChapterI.Dish",
						"numberOfBytes": "1"
					},
					"t_mapping(t_enum(Dish)7,t_struct(DishData)12_storage)": {
						"encoding": "mapping",
						"key": "t_enum(Dish)7",
						"label": "mapping(enum RushChapterI.Dish => struct RushChapterI.DishData)",
						"numberOfBytes": "32",
						"value": "t_struct(DishData)12_storage"
					},
					"t_struct(DishData)12_storage": {
						"encoding": "inplace",
						"label": "struct RushChapterI.DishData",
						"members": [
							{
								"astId": 9,
								"contract": "contracts/rush.sol:RushChapterI",
								"label": "quantity",
								"offset": 0,
								"slot": "0",
								"type": "t_uint256"
							},
							{
								"astId": 11,
								"contract": "contracts/rush.sol:RushChapterI",
								"label": "remaining",
								"offset": 0,
								"slot": "1",
								"type": "t_uint256"
							}
						],
						"numberOfBytes": "64"
					},
					"t_uint256": {
						"encoding": "inplace",
						"label": "uint256",
						"numberOfBytes": "32"
					}
				}
			},
			"userdoc": {
				"kind": "user",
				"methods": {},
				"version": 1
			}
		}
	}
}