{
	"contracts/RushChapterI.sol": {
		"RushChapterI": {
			"abi": [
				{
					"inputs": [
						{
							"internalType": "enum RushChapterI.Dish",
							"name": "",
							"type": "uint8"
						}
					],
					"name": "dishQuantity",
					"outputs": [
						{
							"internalType": "uint256",
							"name": "quantity",
							"type": "uint256"
						},
						{
							"internalType": "uint256",
							"name": "remaining",
							"type": "uint256"
						}
					],
					"stateMutability": "view",
					"type": "function"
				},
				{
					"inputs": [
						{
							"internalType": "enum RushChapterI.Dish",
							"name": "dish",
							"type": "uint8"
						},
						{
							"internalType": "uint256",
							"name": "quantity",
							"type": "uint256"
						}
					],
					"name": "fillDish",
					"outputs": [
						{
							"internalType": "uint256",
							"name": "",
							"type": "uint256"
						},
						{
							"internalType": "uint256",
							"name": "",
							"type": "uint256"
						}
					],
					"stateMutability": "nonpayable",
					"type": "function"
				},
				{
					"inputs": [
						{
							"internalType": "enum RushChapterI.Dish",
							"name": "dish",
							"type": "uint8"
						},
						{
							"internalType": "uint256",
							"name": "quantity",
							"type": "uint256"
						}
					],
					"name": "getDish",
					"outputs": [
						{
							"internalType": "enum RushChapterI.Dish",
							"name": "",
							"type": "uint8"
						},
						{
							"internalType": "uint256",
							"name": "",
							"type": "uint256"
						},
						{
							"internalType": "uint256",
							"name": "",
							"type": "uint256"
						}
					],
					"stateMutability": "nonpayable",
					"type": "function"
				},
				{
					"inputs": [],
					"name": "maxItems",
					"outputs": [
						{
							"internalType": "uint256",
							"name": "",
							"type": "uint256"
						}
					],
					"stateMutability": "view",
					"type": "function"
				}
			],
			"devdoc": {
				"kind": "dev",
				"methods": {},
				"version": 1
			},
			"evm": {
				"assembly": "    /* \"contracts/RushChapterI.sol\":62:1117  contract RushChapterI {... */\n  mstore(0x40, 0x80)\n    /* \"contracts/RushChapterI.sol\":350:352  42 */\n  0x2a\n    /* \"contracts/RushChapterI.sol\":326:352  uint256 public maxItems=42 */\n  0x01\n  sstore\n    /* \"contracts/RushChapterI.sol\":62:1117  contract RushChapterI {... */\n  callvalue\n  dup1\n  iszero\n  tag_1\n  jumpi\n  0x00\n  dup1\n  revert\ntag_1:\n  pop\n  dataSize(sub_0)\n  dup1\n  dataOffset(sub_0)\n  0x00\n  codecopy\n  0x00\n  return\nstop\n\nsub_0: assembly {\n        /* \"contracts/RushChapterI.sol\":62:1117  contract RushChapterI {... */\n      mstore(0x40, 0x80)\n      callvalue\n      dup1\n      iszero\n      tag_1\n      jumpi\n      0x00\n      dup1\n      revert\n    tag_1:\n      pop\n      jumpi(tag_2, lt(calldatasize, 0x04))\n      shr(0xe0, calldataload(0x00))\n      dup1\n      0x3c010a3e\n      eq\n      tag_3\n      jumpi\n      dup1\n      0x8d65df2a\n      eq\n      tag_4\n      jumpi\n      dup1\n      0xc332c3be\n      eq\n      tag_5\n      jumpi\n      dup1\n      0xc79cf758\n      eq\n      tag_6\n      jumpi\n    tag_2:\n      0x00\n      dup1\n      revert\n        /* \"contracts/RushChapterI.sol\":326:352  uint256 public maxItems=42 */\n    tag_3:\n      tag_7\n      tag_8\n      jump\t// in\n    tag_7:\n      mload(0x40)\n      tag_9\n      swap2\n      swap1\n      tag_10\n      jump\t// in\n    tag_9:\n      mload(0x40)\n      dup1\n      swap2\n      sub\n      swap1\n      return\n        /* \"contracts/RushChapterI.sol\":707:1115  function fillDish(Dish dish, uint256 quantity) public returns (uint256, uint256) {... */\n    tag_4:\n      tag_11\n      0x04\n      dup1\n      calldatasize\n      sub\n      dup2\n      add\n      swap1\n      tag_12\n      swap2\n      swap1\n      tag_13\n      jump\t// in\n    tag_12:\n      tag_14\n      jump\t// in\n    tag_11:\n      mload(0x40)\n      tag_15\n      swap3\n      swap2\n      swap1\n      tag_16\n      jump\t// in\n    tag_15:\n      mload(0x40)\n      dup1\n      swap2\n      sub\n      swap1\n      return\n        /* \"contracts/RushChapterI.sol\":359:701  function getDish(Dish dish, uint256 quantity) public returns (Dish,uint,uint) {... */\n    tag_5:\n      tag_17\n      0x04\n      dup1\n      calldatasize\n      sub\n      dup2\n      add\n      swap1\n      tag_18\n      swap2\n      swap1\n      tag_13\n      jump\t// in\n    tag_18:\n      tag_19\n      jump\t// in\n    tag_17:\n      mload(0x40)\n      tag_20\n      swap4\n      swap3\n      swap2\n      swap1\n      tag_21\n      jump\t// in\n    tag_20:\n      mload(0x40)\n      dup1\n      swap2\n      sub\n      swap1\n      return\n        /* \"contracts/RushChapterI.sol\":274:320  mapping (Dish => DishData) public dishQuantity */\n    tag_6:\n      tag_22\n      0x04\n      dup1\n      calldatasize\n      sub\n      dup2\n      add\n      swap1\n      tag_23\n      swap2\n      swap1\n      tag_24\n      jump\t// in\n    tag_23:\n      tag_25\n      jump\t// in\n    tag_22:\n      mload(0x40)\n      tag_26\n      swap3\n      swap2\n      swap1\n      tag_16\n      jump\t// in\n    tag_26:\n      mload(0x40)\n      dup1\n      swap2\n      sub\n      swap1\n      return\n        /* \"contracts/RushChapterI.sol\":326:352  uint256 public maxItems=42 */\n    tag_8:\n      sload(0x01)\n      dup2\n      jump\t// out\n        /* \"contracts/RushChapterI.sol\":707:1115  function fillDish(Dish dish, uint256 quantity) public returns (uint256, uint256) {... */\n    tag_14:\n        /* \"contracts/RushChapterI.sol\":770:777  uint256 */\n      0x00\n        /* \"contracts/RushChapterI.sol\":779:786  uint256 */\n      dup1\n        /* \"contracts/RushChapterI.sol\":817:818  0 */\n      0x00\n        /* \"contracts/RushChapterI.sol\":806:814  quantity */\n      dup4\n        /* \"contracts/RushChapterI.sol\":806:818  quantity > 0 */\n      gt\n        /* \"contracts/RushChapterI.sol\":798:859  require(quantity > 0, \"La quantite doit etre superieure a 0\") */\n      tag_28\n      jumpi\n      mload(0x40)\n      0x08c379a000000000000000000000000000000000000000000000000000000000\n      dup2\n      mstore\n      0x04\n      add\n      tag_29\n      swap1\n      tag_30\n      jump\t// in\n    tag_29:\n      mload(0x40)\n      dup1\n      swap2\n      sub\n      swap1\n      revert\n    tag_28:\n        /* \"contracts/RushChapterI.sol\":919:927  maxItems */\n      sload(0x01)\n        /* \"contracts/RushChapterI.sol\":907:915  quantity */\n      dup4\n        /* \"contracts/RushChapterI.sol\":877:889  dishQuantity */\n      0x00\n        /* \"contracts/RushChapterI.sol\":877:895  dishQuantity[dish] */\n      dup1\n        /* \"contracts/RushChapterI.sol\":890:894  dish */\n      dup8\n        /* \"contracts/RushChapterI.sol\":877:895  dishQuantity[dish] */\n      0x04\n      dup2\n      gt\n      iszero\n      tag_31\n      jumpi\n      tag_32\n      tag_33\n      jump\t// in\n    tag_32:\n    tag_31:\n      0x04\n      dup2\n      gt\n      iszero\n      tag_34\n      jumpi\n      tag_35\n      tag_33\n      jump\t// in\n    tag_35:\n    tag_34:\n      dup2\n      mstore\n      0x20\n      add\n      swap1\n      dup2\n      mstore\n      0x20\n      add\n      0x00\n      keccak256\n        /* \"contracts/RushChapterI.sol\":877:904  dishQuantity[dish].quantity */\n      0x00\n      add\n      sload\n        /* \"contracts/RushChapterI.sol\":877:915  dishQuantity[dish].quantity + quantity */\n      tag_36\n      swap2\n      swap1\n      tag_37\n      jump\t// in\n    tag_36:\n        /* \"contracts/RushChapterI.sol\":877:927  dishQuantity[dish].quantity + quantity <= maxItems */\n      gt\n      iszero\n        /* \"contracts/RushChapterI.sol\":869:943  require(dishQuantity[dish].quantity + quantity <= maxItems, \"Trop ajoute\") */\n      tag_38\n      jumpi\n      mload(0x40)\n      0x08c379a000000000000000000000000000000000000000000000000000000000\n      dup2\n      mstore\n      0x04\n      add\n      tag_39\n      swap1\n      tag_40\n      jump\t// in\n    tag_39:\n      mload(0x40)\n      dup1\n      swap2\n      sub\n      swap1\n      revert\n    tag_38:\n        /* \"contracts/RushChapterI.sol\":989:997  quantity */\n      dup3\n        /* \"contracts/RushChapterI.sol\":958:970  dishQuantity */\n      0x00\n        /* \"contracts/RushChapterI.sol\":958:976  dishQuantity[dish] */\n      dup1\n        /* \"contracts/RushChapterI.sol\":971:975  dish */\n      dup7\n        /* \"contracts/RushChapterI.sol\":958:976  dishQuantity[dish] */\n      0x04\n      dup2\n      gt\n      iszero\n      tag_41\n      jumpi\n      tag_42\n      tag_33\n      jump\t// in\n    tag_42:\n    tag_41:\n      0x04\n      dup2\n      gt\n      iszero\n      tag_43\n      jumpi\n      tag_44\n      tag_33\n      jump\t// in\n    tag_44:\n    tag_43:\n      dup2\n      mstore\n      0x20\n      add\n      swap1\n      dup2\n      mstore\n      0x20\n      add\n      0x00\n      keccak256\n        /* \"contracts/RushChapterI.sol\":958:985  dishQuantity[dish].quantity */\n      0x00\n      add\n      0x00\n        /* \"contracts/RushChapterI.sol\":958:997  dishQuantity[dish].quantity += quantity */\n      dup3\n      dup3\n      sload\n      tag_45\n      swap2\n      swap1\n      tag_37\n      jump\t// in\n    tag_45:\n      swap3\n      pop\n      pop\n      dup2\n      swap1\n      sstore\n      pop\n        /* \"contracts/RushChapterI.sol\":1043:1051  quantity */\n      dup3\n        /* \"contracts/RushChapterI.sol\":1011:1023  dishQuantity */\n      0x00\n        /* \"contracts/RushChapterI.sol\":1011:1029  dishQuantity[dish] */\n      dup1\n        /* \"contracts/RushChapterI.sol\":1024:1028  dish */\n      dup7\n        /* \"contracts/RushChapterI.sol\":1011:1029  dishQuantity[dish] */\n      0x04\n      dup2\n      gt\n      iszero\n      tag_46\n      jumpi\n      tag_47\n      tag_33\n      jump\t// in\n    tag_47:\n    tag_46:\n      0x04\n      dup2\n      gt\n      iszero\n      tag_48\n      jumpi\n      tag_49\n      tag_33\n      jump\t// in\n    tag_49:\n    tag_48:\n      dup2\n      mstore\n      0x20\n      add\n      swap1\n      dup2\n      mstore\n      0x20\n      add\n      0x00\n      keccak256\n        /* \"contracts/RushChapterI.sol\":1011:1039  dishQuantity[dish].remaining */\n      0x01\n      add\n      0x00\n        /* \"contracts/RushChapterI.sol\":1011:1051  dishQuantity[dish].remaining += quantity */\n      dup3\n      dup3\n      sload\n      tag_50\n      swap2\n      swap1\n      tag_37\n      jump\t// in\n    tag_50:\n      swap3\n      pop\n      pop\n      dup2\n      swap1\n      sstore\n      pop\n        /* \"contracts/RushChapterI.sol\":1069:1081  dishQuantity */\n      0x00\n        /* \"contracts/RushChapterI.sol\":1069:1087  dishQuantity[dish] */\n      dup1\n        /* \"contracts/RushChapterI.sol\":1082:1086  dish */\n      dup6\n        /* \"contracts/RushChapterI.sol\":1069:1087  dishQuantity[dish] */\n      0x04\n      dup2\n      gt\n      iszero\n      tag_51\n      jumpi\n      tag_52\n      tag_33\n      jump\t// in\n    tag_52:\n    tag_51:\n      0x04\n      dup2\n      gt\n      iszero\n      tag_53\n      jumpi\n      tag_54\n      tag_33\n      jump\t// in\n    tag_54:\n    tag_53:\n      dup2\n      mstore\n      0x20\n      add\n      swap1\n      dup2\n      mstore\n      0x20\n      add\n      0x00\n      keccak256\n        /* \"contracts/RushChapterI.sol\":1069:1097  dishQuantity[dish].remaining */\n      0x01\n      add\n      sload\n        /* \"contracts/RushChapterI.sol\":1099:1107  quantity */\n      dup4\n        /* \"contracts/RushChapterI.sol\":1062:1108  return(dishQuantity[dish].remaining, quantity) */\n      swap2\n      pop\n      swap2\n      pop\n        /* \"contracts/RushChapterI.sol\":707:1115  function fillDish(Dish dish, uint256 quantity) public returns (uint256, uint256) {... */\n      swap3\n      pop\n      swap3\n      swap1\n      pop\n      jump\t// out\n        /* \"contracts/RushChapterI.sol\":359:701  function getDish(Dish dish, uint256 quantity) public returns (Dish,uint,uint) {... */\n    tag_19:\n        /* \"contracts/RushChapterI.sol\":421:425  Dish */\n      0x00\n        /* \"contracts/RushChapterI.sol\":426:430  uint */\n      dup1\n        /* \"contracts/RushChapterI.sol\":431:435  uint */\n      0x00\n        /* \"contracts/RushChapterI.sol\":466:467  0 */\n      dup1\n        /* \"contracts/RushChapterI.sol\":455:463  quantity */\n      dup5\n        /* \"contracts/RushChapterI.sol\":455:467  quantity < 0 */\n      lt\n        /* \"contracts/RushChapterI.sol\":447:496  require(quantity < 0, \"Pas assez de plats dispo\") */\n      tag_56\n      jumpi\n      mload(0x40)\n      0x08c379a000000000000000000000000000000000000000000000000000000000\n      dup2\n      mstore\n      0x04\n      add\n      tag_57\n      swap1\n      tag_58\n      jump\t// in\n    tag_57:\n      mload(0x40)\n      dup1\n      swap2\n      sub\n      swap1\n      revert\n    tag_56:\n        /* \"contracts/RushChapterI.sol\":546:554  quantity */\n      dup4\n        /* \"contracts/RushChapterI.sol\":514:526  dishQuantity */\n      0x00\n        /* \"contracts/RushChapterI.sol\":514:532  dishQuantity[dish] */\n      dup1\n        /* \"contracts/RushChapterI.sol\":527:531  dish */\n      dup8\n        /* \"contracts/RushChapterI.sol\":514:532  dishQuantity[dish] */\n      0x04\n      dup2\n      gt\n      iszero\n      tag_59\n      jumpi\n      tag_60\n      tag_33\n      jump\t// in\n    tag_60:\n    tag_59:\n      0x04\n      dup2\n      gt\n      iszero\n      tag_61\n      jumpi\n      tag_62\n      tag_33\n      jump\t// in\n    tag_62:\n    tag_61:\n      dup2\n      mstore\n      0x20\n      add\n      swap1\n      dup2\n      mstore\n      0x20\n      add\n      0x00\n      keccak256\n        /* \"contracts/RushChapterI.sol\":514:542  dishQuantity[dish].remaining */\n      0x01\n      add\n      sload\n        /* \"contracts/RushChapterI.sol\":514:554  dishQuantity[dish].remaining >= quantity */\n      lt\n      iszero\n        /* \"contracts/RushChapterI.sol\":506:572  require(dishQuantity[dish].remaining >= quantity, \"Plus de plats\") */\n      tag_63\n      jumpi\n      mload(0x40)\n      0x08c379a000000000000000000000000000000000000000000000000000000000\n      dup2\n      mstore\n      0x04\n      add\n      tag_64\n      swap1\n      tag_65\n      jump\t// in\n    tag_64:\n      mload(0x40)\n      dup1\n      swap2\n      sub\n      swap1\n      revert\n    tag_63:\n        /* \"contracts/RushChapterI.sol\":623:631  quantity */\n      dup4\n        /* \"contracts/RushChapterI.sol\":591:603  dishQuantity */\n      0x00\n        /* \"contracts/RushChapterI.sol\":591:609  dishQuantity[dish] */\n      dup1\n        /* \"contracts/RushChapterI.sol\":604:608  dish */\n      dup8\n        /* \"contracts/RushChapterI.sol\":591:609  dishQuantity[dish] */\n      0x04\n      dup2\n      gt\n      iszero\n      tag_66\n      jumpi\n      tag_67\n      tag_33\n      jump\t// in\n    tag_67:\n    tag_66:\n      0x04\n      dup2\n      gt\n      iszero\n      tag_68\n      jumpi\n      tag_69\n      tag_33\n      jump\t// in\n    tag_69:\n    tag_68:\n      dup2\n      mstore\n      0x20\n      add\n      swap1\n      dup2\n      mstore\n      0x20\n      add\n      0x00\n      keccak256\n        /* \"contracts/RushChapterI.sol\":591:619  dishQuantity[dish].remaining */\n      0x01\n      add\n      0x00\n        /* \"contracts/RushChapterI.sol\":591:631  dishQuantity[dish].remaining -= quantity */\n      dup3\n      dup3\n      sload\n      tag_70\n      swap2\n      swap1\n      tag_71\n      jump\t// in\n    tag_70:\n      swap3\n      pop\n      pop\n      dup2\n      swap1\n      sstore\n      pop\n        /* \"contracts/RushChapterI.sol\":649:653  dish */\n      dup5\n        /* \"contracts/RushChapterI.sol\":655:663  quantity */\n      dup5\n        /* \"contracts/RushChapterI.sol\":665:677  dishQuantity */\n      0x00\n        /* \"contracts/RushChapterI.sol\":665:683  dishQuantity[dish] */\n      dup1\n        /* \"contracts/RushChapterI.sol\":678:682  dish */\n      dup9\n        /* \"contracts/RushChapterI.sol\":665:683  dishQuantity[dish] */\n      0x04\n      dup2\n      gt\n      iszero\n      tag_72\n      jumpi\n      tag_73\n      tag_33\n      jump\t// in\n    tag_73:\n    tag_72:\n      0x04\n      dup2\n      gt\n      iszero\n      tag_74\n      jumpi\n      tag_75\n      tag_33\n      jump\t// in\n    tag_75:\n    tag_74:\n      dup2\n      mstore\n      0x20\n      add\n      swap1\n      dup2\n      mstore\n      0x20\n      add\n      0x00\n      keccak256\n        /* \"contracts/RushChapterI.sol\":665:693  dishQuantity[dish].remaining */\n      0x01\n      add\n      sload\n        /* \"contracts/RushChapterI.sol\":642:694  return(dish, quantity, dishQuantity[dish].remaining) */\n      swap3\n      pop\n      swap3\n      pop\n      swap3\n      pop\n        /* \"contracts/RushChapterI.sol\":359:701  function getDish(Dish dish, uint256 quantity) public returns (Dish,uint,uint) {... */\n      swap3\n      pop\n      swap3\n      pop\n      swap3\n      jump\t// out\n        /* \"contracts/RushChapterI.sol\":274:320  mapping (Dish => DishData) public dishQuantity */\n    tag_25:\n      mstore(0x20, 0x00)\n      dup1\n      0x00\n      mstore\n      keccak256(0x00, 0x40)\n      0x00\n      swap2\n      pop\n      swap1\n      pop\n      dup1\n      0x00\n      add\n      sload\n      swap1\n      dup1\n      0x01\n      add\n      sload\n      swap1\n      pop\n      dup3\n      jump\t// out\n        /* \"#utility.yul\":7:84   */\n    tag_76:\n        /* \"#utility.yul\":44:51   */\n      0x00\n        /* \"#utility.yul\":73:78   */\n      dup2\n        /* \"#utility.yul\":62:78   */\n      swap1\n      pop\n        /* \"#utility.yul\":7:84   */\n      swap2\n      swap1\n      pop\n      jump\t// out\n        /* \"#utility.yul\":90:208   */\n    tag_77:\n        /* \"#utility.yul\":177:201   */\n      tag_102\n        /* \"#utility.yul\":195:200   */\n      dup2\n        /* \"#utility.yul\":177:201   */\n      tag_76\n      jump\t// in\n    tag_102:\n        /* \"#utility.yul\":172:175   */\n      dup3\n        /* \"#utility.yul\":165:202   */\n      mstore\n        /* \"#utility.yul\":90:208   */\n      pop\n      pop\n      jump\t// out\n        /* \"#utility.yul\":214:436   */\n    tag_10:\n        /* \"#utility.yul\":307:311   */\n      0x00\n        /* \"#utility.yul\":345:347   */\n      0x20\n        /* \"#utility.yul\":334:343   */\n      dup3\n        /* \"#utility.yul\":330:348   */\n      add\n        /* \"#utility.yul\":322:348   */\n      swap1\n      pop\n        /* \"#utility.yul\":358:429   */\n      tag_104\n        /* \"#utility.yul\":426:427   */\n      0x00\n        /* \"#utility.yul\":415:424   */\n      dup4\n        /* \"#utility.yul\":411:428   */\n      add\n        /* \"#utility.yul\":402:408   */\n      dup5\n        /* \"#utility.yul\":358:429   */\n      tag_77\n      jump\t// in\n    tag_104:\n        /* \"#utility.yul\":214:436   */\n      swap3\n      swap2\n      pop\n      pop\n      jump\t// out\n        /* \"#utility.yul\":523:640   */\n    tag_79:\n        /* \"#utility.yul\":632:633   */\n      0x00\n        /* \"#utility.yul\":629:630   */\n      dup1\n        /* \"#utility.yul\":622:634   */\n      revert\n        /* \"#utility.yul\":769:874   */\n    tag_81:\n        /* \"#utility.yul\":848:849   */\n      0x05\n        /* \"#utility.yul\":841:846   */\n      dup2\n        /* \"#utility.yul\":838:850   */\n      lt\n        /* \"#utility.yul\":828:868   */\n      tag_109\n      jumpi\n        /* \"#utility.yul\":864:865   */\n      0x00\n        /* \"#utility.yul\":861:862   */\n      dup1\n        /* \"#utility.yul\":854:866   */\n      revert\n        /* \"#utility.yul\":828:868   */\n    tag_109:\n        /* \"#utility.yul\":769:874   */\n      pop\n      jump\t// out\n        /* \"#utility.yul\":880:1031   */\n    tag_82:\n        /* \"#utility.yul\":932:937   */\n      0x00\n        /* \"#utility.yul\":970:976   */\n      dup2\n        /* \"#utility.yul\":957:977   */\n      calldataload\n        /* \"#utility.yul\":948:977   */\n      swap1\n      pop\n        /* \"#utility.yul\":986:1025   */\n      tag_111\n        /* \"#utility.yul\":1019:1024   */\n      dup2\n        /* \"#utility.yul\":986:1025   */\n      tag_81\n      jump\t// in\n    tag_111:\n        /* \"#utility.yul\":880:1031   */\n      swap3\n      swap2\n      pop\n      pop\n      jump\t// out\n        /* \"#utility.yul\":1037:1159   */\n    tag_83:\n        /* \"#utility.yul\":1110:1134   */\n      tag_113\n        /* \"#utility.yul\":1128:1133   */\n      dup2\n        /* \"#utility.yul\":1110:1134   */\n      tag_76\n      jump\t// in\n    tag_113:\n        /* \"#utility.yul\":1103:1108   */\n      dup2\n        /* \"#utility.yul\":1100:1135   */\n      eq\n        /* \"#utility.yul\":1090:1153   */\n      tag_114\n      jumpi\n        /* \"#utility.yul\":1149:1150   */\n      0x00\n        /* \"#utility.yul\":1146:1147   */\n      dup1\n        /* \"#utility.yul\":1139:1151   */\n      revert\n        /* \"#utility.yul\":1090:1153   */\n    tag_114:\n        /* \"#utility.yul\":1037:1159   */\n      pop\n      jump\t// out\n        /* \"#utility.yul\":1165:1304   */\n    tag_84:\n        /* \"#utility.yul\":1211:1216   */\n      0x00\n        /* \"#utility.yul\":1249:1255   */\n      dup2\n        /* \"#utility.yul\":1236:1256   */\n      calldataload\n        /* \"#utility.yul\":1227:1256   */\n      swap1\n      pop\n        /* \"#utility.yul\":1265:1298   */\n      tag_116\n        /* \"#utility.yul\":1292:1297   */\n      dup2\n        /* \"#utility.yul\":1265:1298   */\n      tag_83\n      jump\t// in\n    tag_116:\n        /* \"#utility.yul\":1165:1304   */\n      swap3\n      swap2\n      pop\n      pop\n      jump\t// out\n        /* \"#utility.yul\":1310:1796   */\n    tag_13:\n        /* \"#utility.yul\":1384:1390   */\n      0x00\n        /* \"#utility.yul\":1392:1398   */\n      dup1\n        /* \"#utility.yul\":1441:1443   */\n      0x40\n        /* \"#utility.yul\":1429:1438   */\n      dup4\n        /* \"#utility.yul\":1420:1427   */\n      dup6\n        /* \"#utility.yul\":1416:1439   */\n      sub\n        /* \"#utility.yul\":1412:1444   */\n      slt\n        /* \"#utility.yul\":1409:1528   */\n      iszero\n      tag_118\n      jumpi\n        /* \"#utility.yul\":1447:1526   */\n      tag_119\n      tag_79\n      jump\t// in\n    tag_119:\n        /* \"#utility.yul\":1409:1528   */\n    tag_118:\n        /* \"#utility.yul\":1567:1568   */\n      0x00\n        /* \"#utility.yul\":1592:1651   */\n      tag_120\n        /* \"#utility.yul\":1643:1650   */\n      dup6\n        /* \"#utility.yul\":1634:1640   */\n      dup3\n        /* \"#utility.yul\":1623:1632   */\n      dup7\n        /* \"#utility.yul\":1619:1641   */\n      add\n        /* \"#utility.yul\":1592:1651   */\n      tag_82\n      jump\t// in\n    tag_120:\n        /* \"#utility.yul\":1582:1651   */\n      swap3\n      pop\n        /* \"#utility.yul\":1538:1661   */\n      pop\n        /* \"#utility.yul\":1700:1702   */\n      0x20\n        /* \"#utility.yul\":1726:1779   */\n      tag_121\n        /* \"#utility.yul\":1771:1778   */\n      dup6\n        /* \"#utility.yul\":1762:1768   */\n      dup3\n        /* \"#utility.yul\":1751:1760   */\n      dup7\n        /* \"#utility.yul\":1747:1769   */\n      add\n        /* \"#utility.yul\":1726:1779   */\n      tag_84\n      jump\t// in\n    tag_121:\n        /* \"#utility.yul\":1716:1779   */\n      swap2\n      pop\n        /* \"#utility.yul\":1671:1789   */\n      pop\n        /* \"#utility.yul\":1310:1796   */\n      swap3\n      pop\n      swap3\n      swap1\n      pop\n      jump\t// out\n        /* \"#utility.yul\":1802:2134   */\n    tag_16:\n        /* \"#utility.yul\":1923:1927   */\n      0x00\n        /* \"#utility.yul\":1961:1963   */\n      0x40\n        /* \"#utility.yul\":1950:1959   */\n      dup3\n        /* \"#utility.yul\":1946:1964   */\n      add\n        /* \"#utility.yul\":1938:1964   */\n      swap1\n      pop\n        /* \"#utility.yul\":1974:2045   */\n      tag_123\n        /* \"#utility.yul\":2042:2043   */\n      0x00\n        /* \"#utility.yul\":2031:2040   */\n      dup4\n        /* \"#utility.yul\":2027:2044   */\n      add\n        /* \"#utility.yul\":2018:2024   */\n      dup6\n        /* \"#utility.yul\":1974:2045   */\n      tag_77\n      jump\t// in\n    tag_123:\n        /* \"#utility.yul\":2055:2127   */\n      tag_124\n        /* \"#utility.yul\":2123:2125   */\n      0x20\n        /* \"#utility.yul\":2112:2121   */\n      dup4\n        /* \"#utility.yul\":2108:2126   */\n      add\n        /* \"#utility.yul\":2099:2105   */\n      dup5\n        /* \"#utility.yul\":2055:2127   */\n      tag_77\n      jump\t// in\n    tag_124:\n        /* \"#utility.yul\":1802:2134   */\n      swap4\n      swap3\n      pop\n      pop\n      pop\n      jump\t// out\n        /* \"#utility.yul\":2140:2320   */\n    tag_33:\n        /* \"#utility.yul\":2188:2265   */\n      0x4e487b7100000000000000000000000000000000000000000000000000000000\n        /* \"#utility.yul\":2185:2186   */\n      0x00\n        /* \"#utility.yul\":2178:2266   */\n      mstore\n        /* \"#utility.yul\":2285:2289   */\n      0x21\n        /* \"#utility.yul\":2282:2283   */\n      0x04\n        /* \"#utility.yul\":2275:2290   */\n      mstore\n        /* \"#utility.yul\":2309:2313   */\n      0x24\n        /* \"#utility.yul\":2306:2307   */\n      0x00\n        /* \"#utility.yul\":2299:2314   */\n      revert\n        /* \"#utility.yul\":2326:2437   */\n    tag_85:\n        /* \"#utility.yul\":2405:2406   */\n      0x05\n        /* \"#utility.yul\":2398:2403   */\n      dup2\n        /* \"#utility.yul\":2395:2407   */\n      lt\n        /* \"#utility.yul\":2385:2431   */\n      tag_127\n      jumpi\n        /* \"#utility.yul\":2411:2429   */\n      tag_128\n      tag_33\n      jump\t// in\n    tag_128:\n        /* \"#utility.yul\":2385:2431   */\n    tag_127:\n        /* \"#utility.yul\":2326:2437   */\n      pop\n      jump\t// out\n        /* \"#utility.yul\":2443:2566   */\n    tag_86:\n        /* \"#utility.yul\":2486:2493   */\n      0x00\n        /* \"#utility.yul\":2515:2520   */\n      dup2\n        /* \"#utility.yul\":2504:2520   */\n      swap1\n      pop\n        /* \"#utility.yul\":2521:2560   */\n      tag_130\n        /* \"#utility.yul\":2554:2559   */\n      dup3\n        /* \"#utility.yul\":2521:2560   */\n      tag_85\n      jump\t// in\n    tag_130:\n        /* \"#utility.yul\":2443:2566   */\n      swap2\n      swap1\n      pop\n      jump\t// out\n        /* \"#utility.yul\":2572:2695   */\n    tag_87:\n        /* \"#utility.yul\":2626:2635   */\n      0x00\n        /* \"#utility.yul\":2659:2689   */\n      tag_132\n        /* \"#utility.yul\":2683:2688   */\n      dup3\n        /* \"#utility.yul\":2659:2689   */\n      tag_86\n      jump\t// in\n    tag_132:\n        /* \"#utility.yul\":2646:2689   */\n      swap1\n      pop\n        /* \"#utility.yul\":2572:2695   */\n      swap2\n      swap1\n      pop\n      jump\t// out\n        /* \"#utility.yul\":2701:2840   */\n    tag_88:\n        /* \"#utility.yul\":2792:2833   */\n      tag_134\n        /* \"#utility.yul\":2827:2832   */\n      dup2\n        /* \"#utility.yul\":2792:2833   */\n      tag_87\n      jump\t// in\n    tag_134:\n        /* \"#utility.yul\":2787:2790   */\n      dup3\n        /* \"#utility.yul\":2780:2834   */\n      mstore\n        /* \"#utility.yul\":2701:2840   */\n      pop\n      pop\n      jump\t// out\n        /* \"#utility.yul\":2846:3296   */\n    tag_21:\n        /* \"#utility.yul\":2999:3003   */\n      0x00\n        /* \"#utility.yul\":3037:3039   */\n      0x60\n        /* \"#utility.yul\":3026:3035   */\n      dup3\n        /* \"#utility.yul\":3022:3040   */\n      add\n        /* \"#utility.yul\":3014:3040   */\n      swap1\n      pop\n        /* \"#utility.yul\":3050:3125   */\n      tag_136\n        /* \"#utility.yul\":3122:3123   */\n      0x00\n        /* \"#utility.yul\":3111:3120   */\n      dup4\n        /* \"#utility.yul\":3107:3124   */\n      add\n        /* \"#utility.yul\":3098:3104   */\n      dup7\n        /* \"#utility.yul\":3050:3125   */\n      tag_88\n      jump\t// in\n    tag_136:\n        /* \"#utility.yul\":3135:3207   */\n      tag_137\n        /* \"#utility.yul\":3203:3205   */\n      0x20\n        /* \"#utility.yul\":3192:3201   */\n      dup4\n        /* \"#utility.yul\":3188:3206   */\n      add\n        /* \"#utility.yul\":3179:3185   */\n      dup6\n        /* \"#utility.yul\":3135:3207   */\n      tag_77\n      jump\t// in\n    tag_137:\n        /* \"#utility.yul\":3217:3289   */\n      tag_138\n        /* \"#utility.yul\":3285:3287   */\n      0x40\n        /* \"#utility.yul\":3274:3283   */\n      dup4\n        /* \"#utility.yul\":3270:3288   */\n      add\n        /* \"#utility.yul\":3261:3267   */\n      dup5\n        /* \"#utility.yul\":3217:3289   */\n      tag_77\n      jump\t// in\n    tag_138:\n        /* \"#utility.yul\":2846:3296   */\n      swap5\n      swap4\n      pop\n      pop\n      pop\n      pop\n      jump\t// out\n        /* \"#utility.yul\":3302:3643   */\n    tag_24:\n        /* \"#utility.yul\":3367:3373   */\n      0x00\n        /* \"#utility.yul\":3416:3418   */\n      0x20\n        /* \"#utility.yul\":3404:3413   */\n      dup3\n        /* \"#utility.yul\":3395:3402   */\n      dup5\n        /* \"#utility.yul\":3391:3414   */\n      sub\n        /* \"#utility.yul\":3387:3419   */\n      slt\n        /* \"#utility.yul\":3384:3503   */\n      iszero\n      tag_140\n      jumpi\n        /* \"#utility.yul\":3422:3501   */\n      tag_141\n      tag_79\n      jump\t// in\n    tag_141:\n        /* \"#utility.yul\":3384:3503   */\n    tag_140:\n        /* \"#utility.yul\":3542:3543   */\n      0x00\n        /* \"#utility.yul\":3567:3626   */\n      tag_142\n        /* \"#utility.yul\":3618:3625   */\n      dup5\n        /* \"#utility.yul\":3609:3615   */\n      dup3\n        /* \"#utility.yul\":3598:3607   */\n      dup6\n        /* \"#utility.yul\":3594:3616   */\n      add\n        /* \"#utility.yul\":3567:3626   */\n      tag_82\n      jump\t// in\n    tag_142:\n        /* \"#utility.yul\":3557:3626   */\n      swap2\n      pop\n        /* \"#utility.yul\":3513:3636   */\n      pop\n        /* \"#utility.yul\":3302:3643   */\n      swap3\n      swap2\n      pop\n      pop\n      jump\t// out\n        /* \"#utility.yul\":3649:3818   */\n    tag_89:\n        /* \"#utility.yul\":3733:3744   */\n      0x00\n        /* \"#utility.yul\":3767:3773   */\n      dup3\n        /* \"#utility.yul\":3762:3765   */\n      dup3\n        /* \"#utility.yul\":3755:3774   */\n      mstore\n        /* \"#utility.yul\":3807:3811   */\n      0x20\n        /* \"#utility.yul\":3802:3805   */\n      dup3\n        /* \"#utility.yul\":3798:3812   */\n      add\n        /* \"#utility.yul\":3783:3812   */\n      swap1\n      pop\n        /* \"#utility.yul\":3649:3818   */\n      swap3\n      swap2\n      pop\n      pop\n      jump\t// out\n        /* \"#utility.yul\":3824:4047   */\n    tag_90:\n        /* \"#utility.yul\":3964:3998   */\n      0x4c61207175616e7469746520646f697420657472652073757065726965757265\n        /* \"#utility.yul\":3960:3961   */\n      0x00\n        /* \"#utility.yul\":3952:3958   */\n      dup3\n        /* \"#utility.yul\":3948:3962   */\n      add\n        /* \"#utility.yul\":3941:3999   */\n      mstore\n        /* \"#utility.yul\":4033:4039   */\n      0x2061203000000000000000000000000000000000000000000000000000000000\n        /* \"#utility.yul\":4028:4030   */\n      0x20\n        /* \"#utility.yul\":4020:4026   */\n      dup3\n        /* \"#utility.yul\":4016:4031   */\n      add\n        /* \"#utility.yul\":4009:4040   */\n      mstore\n        /* \"#utility.yul\":3824:4047   */\n      pop\n      jump\t// out\n        /* \"#utility.yul\":4053:4419   */\n    tag_91:\n        /* \"#utility.yul\":4195:4198   */\n      0x00\n        /* \"#utility.yul\":4216:4283   */\n      tag_146\n        /* \"#utility.yul\":4280:4282   */\n      0x24\n        /* \"#utility.yul\":4275:4278   */\n      dup4\n        /* \"#utility.yul\":4216:4283   */\n      tag_89\n      jump\t// in\n    tag_146:\n        /* \"#utility.yul\":4209:4283   */\n      swap2\n      pop\n        /* \"#utility.yul\":4292:4385   */\n      tag_147\n        /* \"#utility.yul\":4381:4384   */\n      dup3\n        /* \"#utility.yul\":4292:4385   */\n      tag_90\n      jump\t// in\n    tag_147:\n        /* \"#utility.yul\":4410:4412   */\n      0x40\n        /* \"#utility.yul\":4405:4408   */\n      dup3\n        /* \"#utility.yul\":4401:4413   */\n      add\n        /* \"#utility.yul\":4394:4413   */\n      swap1\n      pop\n        /* \"#utility.yul\":4053:4419   */\n      swap2\n      swap1\n      pop\n      jump\t// out\n        /* \"#utility.yul\":4425:4844   */\n    tag_30:\n        /* \"#utility.yul\":4591:4595   */\n      0x00\n        /* \"#utility.yul\":4629:4631   */\n      0x20\n        /* \"#utility.yul\":4618:4627   */\n      dup3\n        /* \"#utility.yul\":4614:4632   */\n      add\n        /* \"#utility.yul\":4606:4632   */\n      swap1\n      pop\n        /* \"#utility.yul\":4678:4687   */\n      dup2\n        /* \"#utility.yul\":4672:4676   */\n      dup2\n        /* \"#utility.yul\":4668:4688   */\n      sub\n        /* \"#utility.yul\":4664:4665   */\n      0x00\n        /* \"#utility.yul\":4653:4662   */\n      dup4\n        /* \"#utility.yul\":4649:4666   */\n      add\n        /* \"#utility.yul\":4642:4689   */\n      mstore\n        /* \"#utility.yul\":4706:4837   */\n      tag_149\n        /* \"#utility.yul\":4832:4836   */\n      dup2\n        /* \"#utility.yul\":4706:4837   */\n      tag_91\n      jump\t// in\n    tag_149:\n        /* \"#utility.yul\":4698:4837   */\n      swap1\n      pop\n        /* \"#utility.yul\":4425:4844   */\n      swap2\n      swap1\n      pop\n      jump\t// out\n        /* \"#utility.yul\":4850:5030   */\n    tag_92:\n        /* \"#utility.yul\":4898:4975   */\n      0x4e487b7100000000000000000000000000000000000000000000000000000000\n        /* \"#utility.yul\":4895:4896   */\n      0x00\n        /* \"#utility.yul\":4888:4976   */\n      mstore\n        /* \"#utility.yul\":4995:4999   */\n      0x11\n        /* \"#utility.yul\":4992:4993   */\n      0x04\n        /* \"#utility.yul\":4985:5000   */\n      mstore\n        /* \"#utility.yul\":5019:5023   */\n      0x24\n        /* \"#utility.yul\":5016:5017   */\n      0x00\n        /* \"#utility.yul\":5009:5024   */\n      revert\n        /* \"#utility.yul\":5036:5227   */\n    tag_37:\n        /* \"#utility.yul\":5076:5079   */\n      0x00\n        /* \"#utility.yul\":5095:5115   */\n      tag_152\n        /* \"#utility.yul\":5113:5114   */\n      dup3\n        /* \"#utility.yul\":5095:5115   */\n      tag_76\n      jump\t// in\n    tag_152:\n        /* \"#utility.yul\":5090:5115   */\n      swap2\n      pop\n        /* \"#utility.yul\":5129:5149   */\n      tag_153\n        /* \"#utility.yul\":5147:5148   */\n      dup4\n        /* \"#utility.yul\":5129:5149   */\n      tag_76\n      jump\t// in\n    tag_153:\n        /* \"#utility.yul\":5124:5149   */\n      swap3\n      pop\n        /* \"#utility.yul\":5172:5173   */\n      dup3\n        /* \"#utility.yul\":5169:5170   */\n      dup3\n        /* \"#utility.yul\":5165:5174   */\n      add\n        /* \"#utility.yul\":5158:5174   */\n      swap1\n      pop\n        /* \"#utility.yul\":5193:5196   */\n      dup1\n        /* \"#utility.yul\":5190:5191   */\n      dup3\n        /* \"#utility.yul\":5187:5197   */\n      gt\n        /* \"#utility.yul\":5184:5220   */\n      iszero\n      tag_154\n      jumpi\n        /* \"#utility.yul\":5200:5218   */\n      tag_155\n      tag_92\n      jump\t// in\n    tag_155:\n        /* \"#utility.yul\":5184:5220   */\n    tag_154:\n        /* \"#utility.yul\":5036:5227   */\n      swap3\n      swap2\n      pop\n      pop\n      jump\t// out\n        /* \"#utility.yul\":5233:5394   */\n    tag_93:\n        /* \"#utility.yul\":5373:5386   */\n      0x54726f7020616a6f757465000000000000000000000000000000000000000000\n        /* \"#utility.yul\":5369:5370   */\n      0x00\n        /* \"#utility.yul\":5361:5367   */\n      dup3\n        /* \"#utility.yul\":5357:5371   */\n      add\n        /* \"#utility.yul\":5350:5387   */\n      mstore\n        /* \"#utility.yul\":5233:5394   */\n      pop\n      jump\t// out\n        /* \"#utility.yul\":5400:5766   */\n    tag_94:\n        /* \"#utility.yul\":5542:5545   */\n      0x00\n        /* \"#utility.yul\":5563:5630   */\n      tag_158\n        /* \"#utility.yul\":5627:5629   */\n      0x0b\n        /* \"#utility.yul\":5622:5625   */\n      dup4\n        /* \"#utility.yul\":5563:5630   */\n      tag_89\n      jump\t// in\n    tag_158:\n        /* \"#utility.yul\":5556:5630   */\n      swap2\n      pop\n        /* \"#utility.yul\":5639:5732   */\n      tag_159\n        /* \"#utility.yul\":5728:5731   */\n      dup3\n        /* \"#utility.yul\":5639:5732   */\n      tag_93\n      jump\t// in\n    tag_159:\n        /* \"#utility.yul\":5757:5759   */\n      0x20\n        /* \"#utility.yul\":5752:5755   */\n      dup3\n        /* \"#utility.yul\":5748:5760   */\n      add\n        /* \"#utility.yul\":5741:5760   */\n      swap1\n      pop\n        /* \"#utility.yul\":5400:5766   */\n      swap2\n      swap1\n      pop\n      jump\t// out\n        /* \"#utility.yul\":5772:6191   */\n    tag_40:\n        /* \"#utility.yul\":5938:5942   */\n      0x00\n        /* \"#utility.yul\":5976:5978   */\n      0x20\n        /* \"#utility.yul\":5965:5974   */\n      dup3\n        /* \"#utility.yul\":5961:5979   */\n      add\n        /* \"#utility.yul\":5953:5979   */\n      swap1\n      pop\n        /* \"#utility.yul\":6025:6034   */\n      dup2\n        /* \"#utility.yul\":6019:6023   */\n      dup2\n        /* \"#utility.yul\":6015:6035   */\n      sub\n        /* \"#utility.yul\":6011:6012   */\n      0x00\n        /* \"#utility.yul\":6000:6009   */\n      dup4\n        /* \"#utility.yul\":5996:6013   */\n      add\n        /* \"#utility.yul\":5989:6036   */\n      mstore\n        /* \"#utility.yul\":6053:6184   */\n      tag_161\n        /* \"#utility.yul\":6179:6183   */\n      dup2\n        /* \"#utility.yul\":6053:6184   */\n      tag_94\n      jump\t// in\n    tag_161:\n        /* \"#utility.yul\":6045:6184   */\n      swap1\n      pop\n        /* \"#utility.yul\":5772:6191   */\n      swap2\n      swap1\n      pop\n      jump\t// out\n        /* \"#utility.yul\":6197:6371   */\n    tag_95:\n        /* \"#utility.yul\":6337:6363   */\n      0x50617320617373657a20646520706c61747320646973706f0000000000000000\n        /* \"#utility.yul\":6333:6334   */\n      0x00\n        /* \"#utility.yul\":6325:6331   */\n      dup3\n        /* \"#utility.yul\":6321:6335   */\n      add\n        /* \"#utility.yul\":6314:6364   */\n      mstore\n        /* \"#utility.yul\":6197:6371   */\n      pop\n      jump\t// out\n        /* \"#utility.yul\":6377:6743   */\n    tag_96:\n        /* \"#utility.yul\":6519:6522   */\n      0x00\n        /* \"#utility.yul\":6540:6607   */\n      tag_164\n        /* \"#utility.yul\":6604:6606   */\n      0x18\n        /* \"#utility.yul\":6599:6602   */\n      dup4\n        /* \"#utility.yul\":6540:6607   */\n      tag_89\n      jump\t// in\n    tag_164:\n        /* \"#utility.yul\":6533:6607   */\n      swap2\n      pop\n        /* \"#utility.yul\":6616:6709   */\n      tag_165\n        /* \"#utility.yul\":6705:6708   */\n      dup3\n        /* \"#utility.yul\":6616:6709   */\n      tag_95\n      jump\t// in\n    tag_165:\n        /* \"#utility.yul\":6734:6736   */\n      0x20\n        /* \"#utility.yul\":6729:6732   */\n      dup3\n        /* \"#utility.yul\":6725:6737   */\n      add\n        /* \"#utility.yul\":6718:6737   */\n      swap1\n      pop\n        /* \"#utility.yul\":6377:6743   */\n      swap2\n      swap1\n      pop\n      jump\t// out\n        /* \"#utility.yul\":6749:7168   */\n    tag_58:\n        /* \"#utility.yul\":6915:6919   */\n      0x00\n        /* \"#utility.yul\":6953:6955   */\n      0x20\n        /* \"#utility.yul\":6942:6951   */\n      dup3\n        /* \"#utility.yul\":6938:6956   */\n      add\n        /* \"#utility.yul\":6930:6956   */\n      swap1\n      pop\n        /* \"#utility.yul\":7002:7011   */\n      dup2\n        /* \"#utility.yul\":6996:7000   */\n      dup2\n        /* \"#utility.yul\":6992:7012   */\n      sub\n        /* \"#utility.yul\":6988:6989   */\n      0x00\n        /* \"#utility.yul\":6977:6986   */\n      dup4\n        /* \"#utility.yul\":6973:6990   */\n      add\n        /* \"#utility.yul\":6966:7013   */\n      mstore\n        /* \"#utility.yul\":7030:7161   */\n      tag_167\n        /* \"#utility.yul\":7156:7160   */\n      dup2\n        /* \"#utility.yul\":7030:7161   */\n      tag_96\n      jump\t// in\n    tag_167:\n        /* \"#utility.yul\":7022:7161   */\n      swap1\n      pop\n        /* \"#utility.yul\":6749:7168   */\n      swap2\n      swap1\n      pop\n      jump\t// out\n        /* \"#utility.yul\":7174:7337   */\n    tag_97:\n        /* \"#utility.yul\":7314:7329   */\n      0x506c757320646520706c61747300000000000000000000000000000000000000\n        /* \"#utility.yul\":7310:7311   */\n      0x00\n        /* \"#utility.yul\":7302:7308   */\n      dup3\n        /* \"#utility.yul\":7298:7312   */\n      add\n        /* \"#utility.yul\":7291:7330   */\n      mstore\n        /* \"#utility.yul\":7174:7337   */\n      pop\n      jump\t// out\n        /* \"#utility.yul\":7343:7709   */\n    tag_98:\n        /* \"#utility.yul\":7485:7488   */\n      0x00\n        /* \"#utility.yul\":7506:7573   */\n      tag_170\n        /* \"#utility.yul\":7570:7572   */\n      0x0d\n        /* \"#utility.yul\":7565:7568   */\n      dup4\n        /* \"#utility.yul\":7506:7573   */\n      tag_89\n      jump\t// in\n    tag_170:\n        /* \"#utility.yul\":7499:7573   */\n      swap2\n      pop\n        /* \"#utility.yul\":7582:7675   */\n      tag_171\n        /* \"#utility.yul\":7671:7674   */\n      dup3\n        /* \"#utility.yul\":7582:7675   */\n      tag_97\n      jump\t// in\n    tag_171:\n        /* \"#utility.yul\":7700:7702   */\n      0x20\n        /* \"#utility.yul\":7695:7698   */\n      dup3\n        /* \"#utility.yul\":7691:7703   */\n      add\n        /* \"#utility.yul\":7684:7703   */\n      swap1\n      pop\n        /* \"#utility.yul\":7343:7709   */\n      swap2\n      swap1\n      pop\n      jump\t// out\n        /* \"#utility.yul\":7715:8134   */\n    tag_65:\n        /* \"#utility.yul\":7881:7885   */\n      0x00\n        /* \"#utility.yul\":7919:7921   */\n      0x20\n        /* \"#utility.yul\":7908:7917   */\n      dup3\n        /* \"#utility.yul\":7904:7922   */\n      add\n        /* \"#utility.yul\":7896:7922   */\n      swap1\n      pop\n        /* \"#utility.yul\":7968:7977   */\n      dup2\n        /* \"#utility.yul\":7962:7966   */\n      dup2\n        /* \"#utility.yul\":7958:7978   */\n      sub\n        /* \"#utility.yul\":7954:7955   */\n      0x00\n        /* \"#utility.yul\":7943:7952   */\n      dup4\n        /* \"#utility.yul\":7939:7956   */\n      add\n        /* \"#utility.yul\":7932:7979   */\n      mstore\n        /* \"#utility.yul\":7996:8127   */\n      tag_173\n        /* \"#utility.yul\":8122:8126   */\n      dup2\n        /* \"#utility.yul\":7996:8127   */\n      tag_98\n      jump\t// in\n    tag_173:\n        /* \"#utility.yul\":7988:8127   */\n      swap1\n      pop\n        /* \"#utility.yul\":7715:8134   */\n      swap2\n      swap1\n      pop\n      jump\t// out\n        /* \"#utility.yul\":8140:8334   */\n    tag_71:\n        /* \"#utility.yul\":8180:8184   */\n      0x00\n        /* \"#utility.yul\":8200:8220   */\n      tag_175\n        /* \"#utility.yul\":8218:8219   */\n      dup3\n        /* \"#utility.yul\":8200:8220   */\n      tag_76\n      jump\t// in\n    tag_175:\n        /* \"#utility.yul\":8195:8220   */\n      swap2\n      pop\n        /* \"#utility.yul\":8234:8254   */\n      tag_176\n        /* \"#utility.yul\":8252:8253   */\n      dup4\n        /* \"#utility.yul\":8234:8254   */\n      tag_76\n      jump\t// in\n    tag_176:\n        /* \"#utility.yul\":8229:8254   */\n      swap3\n      pop\n        /* \"#utility.yul\":8278:8279   */\n      dup3\n        /* \"#utility.yul\":8275:8276   */\n      dup3\n        /* \"#utility.yul\":8271:8280   */\n      sub\n        /* \"#utility.yul\":8263:8280   */\n      swap1\n      pop\n        /* \"#utility.yul\":8302:8303   */\n      dup2\n        /* \"#utility.yul\":8296:8300   */\n      dup2\n        /* \"#utility.yul\":8293:8304   */\n      gt\n        /* \"#utility.yul\":8290:8327   */\n      iszero\n      tag_177\n      jumpi\n        /* \"#utility.yul\":8307:8325   */\n      tag_178\n      tag_92\n      jump\t// in\n    tag_178:\n        /* \"#utility.yul\":8290:8327   */\n    tag_177:\n        /* \"#utility.yul\":8140:8334   */\n      swap3\n      swap2\n      pop\n      pop\n      jump\t// out\n\n    auxdata: 0xa2646970667358221220f19e9fbe18dcc61a92614648dc106a475bcce19e7f82a68b5f2e5384da07473f64736f6c63430008120033\n}\n",
				"bytecode": {
					"linkReferences": {},
					"object": "6080604052602a60015534801561001557600080fd5b506108c0806100256000396000f3fe608060405234801561001057600080fd5b506004361061004c5760003560e01c80633c010a3e146100515780638d65df2a1461006f578063c332c3be146100a0578063c79cf758146100d2575b600080fd5b610059610103565b6040516100669190610457565b60405180910390f35b610089600480360381019061008491906104c8565b610109565b604051610097929190610508565b60405180910390f35b6100ba60048036038101906100b591906104c8565b6102be565b6040516100c9939291906105a8565b60405180910390f35b6100ec60048036038101906100e791906105df565b61041a565b6040516100fa929190610508565b60405180910390f35b60015481565b6000806000831161014f576040517f08c379a00000000000000000000000000000000000000000000000000000000081526004016101469061068f565b60405180910390fd5b6001548360008087600481111561016957610168610531565b5b600481111561017b5761017a610531565b5b81526020019081526020016000206000015461019791906106de565b11156101d8576040517f08c379a00000000000000000000000000000000000000000000000000000000081526004016101cf9061075e565b60405180910390fd5b826000808660048111156101ef576101ee610531565b5b600481111561020157610200610531565b5b8152602001908152602001600020600001600082825461022191906106de565b925050819055508260008086600481111561023f5761023e610531565b5b600481111561025157610250610531565b5b8152602001908152602001600020600101600082825461027191906106de565b9250508190555060008085600481111561028e5761028d610531565b5b60048111156102a05761029f610531565b5b81526020019081526020016000206001015483915091509250929050565b6000806000808410610305576040517f08c379a00000000000000000000000000000000000000000000000000000000081526004016102fc906107ca565b60405180910390fd5b8360008087600481111561031c5761031b610531565b5b600481111561032e5761032d610531565b5b8152602001908152602001600020600101541015610381576040517f08c379a000000000000000000000000000000000000000000000000000000000815260040161037890610836565b60405180910390fd5b8360008087600481111561039857610397610531565b5b60048111156103aa576103a9610531565b5b815260200190815260200160002060010160008282546103ca9190610856565b9250508190555084846000808860048111156103e9576103e8610531565b5b60048111156103fb576103fa610531565b5b8152602001908152602001600020600101549250925092509250925092565b60006020528060005260406000206000915090508060000154908060010154905082565b6000819050919050565b6104518161043e565b82525050565b600060208201905061046c6000830184610448565b92915050565b600080fd5b6005811061048457600080fd5b50565b60008135905061049681610477565b92915050565b6104a58161043e565b81146104b057600080fd5b50565b6000813590506104c28161049c565b92915050565b600080604083850312156104df576104de610472565b5b60006104ed85828601610487565b92505060206104fe858286016104b3565b9150509250929050565b600060408201905061051d6000830185610448565b61052a6020830184610448565b9392505050565b7f4e487b7100000000000000000000000000000000000000000000000000000000600052602160045260246000fd5b6005811061057157610570610531565b5b50565b600081905061058282610560565b919050565b600061059282610574565b9050919050565b6105a281610587565b82525050565b60006060820190506105bd6000830186610599565b6105ca6020830185610448565b6105d76040830184610448565b949350505050565b6000602082840312156105f5576105f4610472565b5b600061060384828501610487565b91505092915050565b600082825260208201905092915050565b7f4c61207175616e7469746520646f69742065747265207375706572696575726560008201527f2061203000000000000000000000000000000000000000000000000000000000602082015250565b600061067960248361060c565b91506106848261061d565b604082019050919050565b600060208201905081810360008301526106a88161066c565b9050919050565b7f4e487b7100000000000000000000000000000000000000000000000000000000600052601160045260246000fd5b60006106e98261043e565b91506106f48361043e565b925082820190508082111561070c5761070b6106af565b5b92915050565b7f54726f7020616a6f757465000000000000000000000000000000000000000000600082015250565b6000610748600b8361060c565b915061075382610712565b602082019050919050565b600060208201905081810360008301526107778161073b565b9050919050565b7f50617320617373657a20646520706c61747320646973706f0000000000000000600082015250565b60006107b460188361060c565b91506107bf8261077e565b602082019050919050565b600060208201905081810360008301526107e3816107a7565b9050919050565b7f506c757320646520706c61747300000000000000000000000000000000000000600082015250565b6000610820600d8361060c565b915061082b826107ea565b602082019050919050565b6000602082019050818103600083015261084f81610813565b9050919050565b60006108618261043e565b915061086c8361043e565b9250828203905081811115610884576108836106af565b5b9291505056fea2646970667358221220f19e9fbe18dcc61a92614648dc106a475bcce19e7f82a68b5f2e5384da07473f64736f6c63430008120033",
					"opcodes": "PUSH1 0x80 PUSH1 0x40 MSTORE PUSH1 0x2A PUSH1 0x1 SSTORE CALLVALUE DUP1 ISZERO PUSH2 0x15 JUMPI PUSH1 0x0 DUP1 REVERT JUMPDEST POP PUSH2 0x8C0 DUP1 PUSH2 0x25 PUSH1 0x0 CODECOPY PUSH1 0x0 RETURN INVALID PUSH1 0x80 PUSH1 0x40 MSTORE CALLVALUE DUP1 ISZERO PUSH2 0x10 JUMPI PUSH1 0x0 DUP1 REVERT JUMPDEST POP PUSH1 0x4 CALLDATASIZE LT PUSH2 0x4C JUMPI PUSH1 0x0 CALLDATALOAD PUSH1 0xE0 SHR DUP1 PUSH4 0x3C010A3E EQ PUSH2 0x51 JUMPI DUP1 PUSH4 0x8D65DF2A EQ PUSH2 0x6F JUMPI DUP1 PUSH4 0xC332C3BE EQ PUSH2 0xA0 JUMPI DUP1 PUSH4 0xC79CF758 EQ PUSH2 0xD2 JUMPI JUMPDEST PUSH1 0x0 DUP1 REVERT JUMPDEST PUSH2 0x59 PUSH2 0x103 JUMP JUMPDEST PUSH1 0x40 MLOAD PUSH2 0x66 SWAP2 SWAP1 PUSH2 0x457 JUMP JUMPDEST PUSH1 0x40 MLOAD DUP1 SWAP2 SUB SWAP1 RETURN JUMPDEST PUSH2 0x89 PUSH1 0x4 DUP1 CALLDATASIZE SUB DUP2 ADD SWAP1 PUSH2 0x84 SWAP2 SWAP1 PUSH2 0x4C8 JUMP JUMPDEST PUSH2 0x109 JUMP JUMPDEST PUSH1 0x40 MLOAD PUSH2 0x97 SWAP3 SWAP2 SWAP1 PUSH2 0x508 JUMP JUMPDEST PUSH1 0x40 MLOAD DUP1 SWAP2 SUB SWAP1 RETURN JUMPDEST PUSH2 0xBA PUSH1 0x4 DUP1 CALLDATASIZE SUB DUP2 ADD SWAP1 PUSH2 0xB5 SWAP2 SWAP1 PUSH2 0x4C8 JUMP JUMPDEST PUSH2 0x2BE JUMP JUMPDEST PUSH1 0x40 MLOAD PUSH2 0xC9 SWAP4 SWAP3 SWAP2 SWAP1 PUSH2 0x5A8 JUMP JUMPDEST PUSH1 0x40 MLOAD DUP1 SWAP2 SUB SWAP1 RETURN JUMPDEST PUSH2 0xEC PUSH1 0x4 DUP1 CALLDATASIZE SUB DUP2 ADD SWAP1 PUSH2 0xE7 SWAP2 SWAP1 PUSH2 0x5DF JUMP JUMPDEST PUSH2 0x41A JUMP JUMPDEST PUSH1 0x40 MLOAD PUSH2 0xFA SWAP3 SWAP2 SWAP1 PUSH2 0x508 JUMP JUMPDEST PUSH1 0x40 MLOAD DUP1 SWAP2 SUB SWAP1 RETURN JUMPDEST PUSH1 0x1 SLOAD DUP2 JUMP JUMPDEST PUSH1 0x0 DUP1 PUSH1 0x0 DUP4 GT PUSH2 0x14F JUMPI PUSH1 0x40 MLOAD PUSH32 0x8C379A000000000000000000000000000000000000000000000000000000000 DUP2 MSTORE PUSH1 0x4 ADD PUSH2 0x146 SWAP1 PUSH2 0x68F JUMP JUMPDEST PUSH1 0x40 MLOAD DUP1 SWAP2 SUB SWAP1 REVERT JUMPDEST PUSH1 0x1 SLOAD DUP4 PUSH1 0x0 DUP1 DUP8 PUSH1 0x4 DUP2 GT ISZERO PUSH2 0x169 JUMPI PUSH2 0x168 PUSH2 0x531 JUMP JUMPDEST JUMPDEST PUSH1 0x4 DUP2 GT ISZERO PUSH2 0x17B JUMPI PUSH2 0x17A PUSH2 0x531 JUMP JUMPDEST JUMPDEST DUP2 MSTORE PUSH1 0x20 ADD SWAP1 DUP2 MSTORE PUSH1 0x20 ADD PUSH1 0x0 KECCAK256 PUSH1 0x0 ADD SLOAD PUSH2 0x197 SWAP2 SWAP1 PUSH2 0x6DE JUMP JUMPDEST GT ISZERO PUSH2 0x1D8 JUMPI PUSH1 0x40 MLOAD PUSH32 0x8C379A000000000000000000000000000000000000000000000000000000000 DUP2 MSTORE PUSH1 0x4 ADD PUSH2 0x1CF SWAP1 PUSH2 0x75E JUMP JUMPDEST PUSH1 0x40 MLOAD DUP1 SWAP2 SUB SWAP1 REVERT JUMPDEST DUP3 PUSH1 0x0 DUP1 DUP7 PUSH1 0x4 DUP2 GT ISZERO PUSH2 0x1EF JUMPI PUSH2 0x1EE PUSH2 0x531 JUMP JUMPDEST JUMPDEST PUSH1 0x4 DUP2 GT ISZERO PUSH2 0x201 JUMPI PUSH2 0x200 PUSH2 0x531 JUMP JUMPDEST JUMPDEST DUP2 MSTORE PUSH1 0x20 ADD SWAP1 DUP2 MSTORE PUSH1 0x20 ADD PUSH1 0x0 KECCAK256 PUSH1 0x0 ADD PUSH1 0x0 DUP3 DUP3 SLOAD PUSH2 0x221 SWAP2 SWAP1 PUSH2 0x6DE JUMP JUMPDEST SWAP3 POP POP DUP2 SWAP1 SSTORE POP DUP3 PUSH1 0x0 DUP1 DUP7 PUSH1 0x4 DUP2 GT ISZERO PUSH2 0x23F JUMPI PUSH2 0x23E PUSH2 0x531 JUMP JUMPDEST JUMPDEST PUSH1 0x4 DUP2 GT ISZERO PUSH2 0x251 JUMPI PUSH2 0x250 PUSH2 0x531 JUMP JUMPDEST JUMPDEST DUP2 MSTORE PUSH1 0x20 ADD SWAP1 DUP2 MSTORE PUSH1 0x20 ADD PUSH1 0x0 KECCAK256 PUSH1 0x1 ADD PUSH1 0x0 DUP3 DUP3 SLOAD PUSH2 0x271 SWAP2 SWAP1 PUSH2 0x6DE JUMP JUMPDEST SWAP3 POP POP DUP2 SWAP1 SSTORE POP PUSH1 0x0 DUP1 DUP6 PUSH1 0x4 DUP2 GT ISZERO PUSH2 0x28E JUMPI PUSH2 0x28D PUSH2 0x531 JUMP JUMPDEST JUMPDEST PUSH1 0x4 DUP2 GT ISZERO PUSH2 0x2A0 JUMPI PUSH2 0x29F PUSH2 0x531 JUMP JUMPDEST JUMPDEST DUP2 MSTORE PUSH1 0x20 ADD SWAP1 DUP2 MSTORE PUSH1 0x20 ADD PUSH1 0x0 KECCAK256 PUSH1 0x1 ADD SLOAD DUP4 SWAP2 POP SWAP2 POP SWAP3 POP SWAP3 SWAP1 POP JUMP JUMPDEST PUSH1 0x0 DUP1 PUSH1 0x0 DUP1 DUP5 LT PUSH2 0x305 JUMPI PUSH1 0x40 MLOAD PUSH32 0x8C379A000000000000000000000000000000000000000000000000000000000 DUP2 MSTORE PUSH1 0x4 ADD PUSH2 0x2FC SWAP1 PUSH2 0x7CA JUMP JUMPDEST PUSH1 0x40 MLOAD DUP1 SWAP2 SUB SWAP1 REVERT JUMPDEST DUP4 PUSH1 0x0 DUP1 DUP8 PUSH1 0x4 DUP2 GT ISZERO PUSH2 0x31C JUMPI PUSH2 0x31B PUSH2 0x531 JUMP JUMPDEST JUMPDEST PUSH1 0x4 DUP2 GT ISZERO PUSH2 0x32E JUMPI PUSH2 0x32D PUSH2 0x531 JUMP JUMPDEST JUMPDEST DUP2 MSTORE PUSH1 0x20 ADD SWAP1 DUP2 MSTORE PUSH1 0x20 ADD PUSH1 0x0 KECCAK256 PUSH1 0x1 ADD SLOAD LT ISZERO PUSH2 0x381 JUMPI PUSH1 0x40 MLOAD PUSH32 0x8C379A000000000000000000000000000000000000000000000000000000000 DUP2 MSTORE PUSH1 0x4 ADD PUSH2 0x378 SWAP1 PUSH2 0x836 JUMP JUMPDEST PUSH1 0x40 MLOAD DUP1 SWAP2 SUB SWAP1 REVERT JUMPDEST DUP4 PUSH1 0x0 DUP1 DUP8 PUSH1 0x4 DUP2 GT ISZERO PUSH2 0x398 JUMPI PUSH2 0x397 PUSH2 0x531 JUMP JUMPDEST JUMPDEST PUSH1 0x4 DUP2 GT ISZERO PUSH2 0x3AA JUMPI PUSH2 0x3A9 PUSH2 0x531 JUMP JUMPDEST JUMPDEST DUP2 MSTORE PUSH1 0x20 ADD SWAP1 DUP2 MSTORE PUSH1 0x20 ADD PUSH1 0x0 KECCAK256 PUSH1 0x1 ADD PUSH1 0x0 DUP3 DUP3 SLOAD PUSH2 0x3CA SWAP2 SWAP1 PUSH2 0x856 JUMP JUMPDEST SWAP3 POP POP DUP2 SWAP1 SSTORE POP DUP5 DUP5 PUSH1 0x0 DUP1 DUP9 PUSH1 0x4 DUP2 GT ISZERO PUSH2 0x3E9 JUMPI PUSH2 0x3E8 PUSH2 0x531 JUMP JUMPDEST JUMPDEST PUSH1 0x4 DUP2 GT ISZERO PUSH2 0x3FB JUMPI PUSH2 0x3FA PUSH2 0x531 JUMP JUMPDEST JUMPDEST DUP2 MSTORE PUSH1 0x20 ADD SWAP1 DUP2 MSTORE PUSH1 0x20 ADD PUSH1 0x0 KECCAK256 PUSH1 0x1 ADD SLOAD SWAP3 POP SWAP3 POP SWAP3 POP SWAP3 POP SWAP3 POP SWAP3 JUMP JUMPDEST PUSH1 0x0 PUSH1 0x20 MSTORE DUP1 PUSH1 0x0 MSTORE PUSH1 0x40 PUSH1 0x0 KECCAK256 PUSH1 0x0 SWAP2 POP SWAP1 POP DUP1 PUSH1 0x0 ADD SLOAD SWAP1 DUP1 PUSH1 0x1 ADD SLOAD SWAP1 POP DUP3 JUMP JUMPDEST PUSH1 0x0 DUP2 SWAP1 POP SWAP2 SWAP1 POP JUMP JUMPDEST PUSH2 0x451 DUP2 PUSH2 0x43E JUMP JUMPDEST DUP3 MSTORE POP POP JUMP JUMPDEST PUSH1 0x0 PUSH1 0x20 DUP3 ADD SWAP1 POP PUSH2 0x46C PUSH1 0x0 DUP4 ADD DUP5 PUSH2 0x448 JUMP JUMPDEST SWAP3 SWAP2 POP POP JUMP JUMPDEST PUSH1 0x0 DUP1 REVERT JUMPDEST PUSH1 0x5 DUP2 LT PUSH2 0x484 JUMPI PUSH1 0x0 DUP1 REVERT JUMPDEST POP JUMP JUMPDEST PUSH1 0x0 DUP2 CALLDATALOAD SWAP1 POP PUSH2 0x496 DUP2 PUSH2 0x477 JUMP JUMPDEST SWAP3 SWAP2 POP POP JUMP JUMPDEST PUSH2 0x4A5 DUP2 PUSH2 0x43E JUMP JUMPDEST DUP2 EQ PUSH2 0x4B0 JUMPI PUSH1 0x0 DUP1 REVERT JUMPDEST POP JUMP JUMPDEST PUSH1 0x0 DUP2 CALLDATALOAD SWAP1 POP PUSH2 0x4C2 DUP2 PUSH2 0x49C JUMP JUMPDEST SWAP3 SWAP2 POP POP JUMP JUMPDEST PUSH1 0x0 DUP1 PUSH1 0x40 DUP4 DUP6 SUB SLT ISZERO PUSH2 0x4DF JUMPI PUSH2 0x4DE PUSH2 0x472 JUMP JUMPDEST JUMPDEST PUSH1 0x0 PUSH2 0x4ED DUP6 DUP3 DUP7 ADD PUSH2 0x487 JUMP JUMPDEST SWAP3 POP POP PUSH1 0x20 PUSH2 0x4FE DUP6 DUP3 DUP7 ADD PUSH2 0x4B3 JUMP JUMPDEST SWAP2 POP POP SWAP3 POP SWAP3 SWAP1 POP JUMP JUMPDEST PUSH1 0x0 PUSH1 0x40 DUP3 ADD SWAP1 POP PUSH2 0x51D PUSH1 0x0 DUP4 ADD DUP6 PUSH2 0x448 JUMP JUMPDEST PUSH2 0x52A PUSH1 0x20 DUP4 ADD DUP5 PUSH2 0x448 JUMP JUMPDEST SWAP4 SWAP3 POP POP POP JUMP JUMPDEST PUSH32 0x4E487B7100000000000000000000000000000000000000000000000000000000 PUSH1 0x0 MSTORE PUSH1 0x21 PUSH1 0x4 MSTORE PUSH1 0x24 PUSH1 0x0 REVERT JUMPDEST PUSH1 0x5 DUP2 LT PUSH2 0x571 JUMPI PUSH2 0x570 PUSH2 0x531 JUMP JUMPDEST JUMPDEST POP JUMP JUMPDEST PUSH1 0x0 DUP2 SWAP1 POP PUSH2 0x582 DUP3 PUSH2 0x560 JUMP JUMPDEST SWAP2 SWAP1 POP JUMP JUMPDEST PUSH1 0x0 PUSH2 0x592 DUP3 PUSH2 0x574 JUMP JUMPDEST SWAP1 POP SWAP2 SWAP1 POP JUMP JUMPDEST PUSH2 0x5A2 DUP2 PUSH2 0x587 JUMP JUMPDEST DUP3 MSTORE POP POP JUMP JUMPDEST PUSH1 0x0 PUSH1 0x60 DUP3 ADD SWAP1 POP PUSH2 0x5BD PUSH1 0x0 DUP4 ADD DUP7 PUSH2 0x599 JUMP JUMPDEST PUSH2 0x5CA PUSH1 0x20 DUP4 ADD DUP6 PUSH2 0x448 JUMP JUMPDEST PUSH2 0x5D7 PUSH1 0x40 DUP4 ADD DUP5 PUSH2 0x448 JUMP JUMPDEST SWAP5 SWAP4 POP POP POP POP JUMP JUMPDEST PUSH1 0x0 PUSH1 0x20 DUP3 DUP5 SUB SLT ISZERO PUSH2 0x5F5 JUMPI PUSH2 0x5F4 PUSH2 0x472 JUMP JUMPDEST JUMPDEST PUSH1 0x0 PUSH2 0x603 DUP5 DUP3 DUP6 ADD PUSH2 0x487 JUMP JUMPDEST SWAP2 POP POP SWAP3 SWAP2 POP POP JUMP JUMPDEST PUSH1 0x0 DUP3 DUP3 MSTORE PUSH1 0x20 DUP3 ADD SWAP1 POP SWAP3 SWAP2 POP POP JUMP JUMPDEST PUSH32 0x4C61207175616E7469746520646F697420657472652073757065726965757265 PUSH1 0x0 DUP3 ADD MSTORE PUSH32 0x2061203000000000000000000000000000000000000000000000000000000000 PUSH1 0x20 DUP3 ADD MSTORE POP JUMP JUMPDEST PUSH1 0x0 PUSH2 0x679 PUSH1 0x24 DUP4 PUSH2 0x60C JUMP JUMPDEST SWAP2 POP PUSH2 0x684 DUP3 PUSH2 0x61D JUMP JUMPDEST PUSH1 0x40 DUP3 ADD SWAP1 POP SWAP2 SWAP1 POP JUMP JUMPDEST PUSH1 0x0 PUSH1 0x20 DUP3 ADD SWAP1 POP DUP2 DUP2 SUB PUSH1 0x0 DUP4 ADD MSTORE PUSH2 0x6A8 DUP2 PUSH2 0x66C JUMP JUMPDEST SWAP1 POP SWAP2 SWAP1 POP JUMP JUMPDEST PUSH32 0x4E487B7100000000000000000000000000000000000000000000000000000000 PUSH1 0x0 MSTORE PUSH1 0x11 PUSH1 0x4 MSTORE PUSH1 0x24 PUSH1 0x0 REVERT JUMPDEST PUSH1 0x0 PUSH2 0x6E9 DUP3 PUSH2 0x43E JUMP JUMPDEST SWAP2 POP PUSH2 0x6F4 DUP4 PUSH2 0x43E JUMP JUMPDEST SWAP3 POP DUP3 DUP3 ADD SWAP1 POP DUP1 DUP3 GT ISZERO PUSH2 0x70C JUMPI PUSH2 0x70B PUSH2 0x6AF JUMP JUMPDEST JUMPDEST SWAP3 SWAP2 POP POP JUMP JUMPDEST PUSH32 0x54726F7020616A6F757465000000000000000000000000000000000000000000 PUSH1 0x0 DUP3 ADD MSTORE POP JUMP JUMPDEST PUSH1 0x0 PUSH2 0x748 PUSH1 0xB DUP4 PUSH2 0x60C JUMP JUMPDEST SWAP2 POP PUSH2 0x753 DUP3 PUSH2 0x712 JUMP JUMPDEST PUSH1 0x20 DUP3 ADD SWAP1 POP SWAP2 SWAP1 POP JUMP JUMPDEST PUSH1 0x0 PUSH1 0x20 DUP3 ADD SWAP1 POP DUP2 DUP2 SUB PUSH1 0x0 DUP4 ADD MSTORE PUSH2 0x777 DUP2 PUSH2 0x73B JUMP JUMPDEST SWAP1 POP SWAP2 SWAP1 POP JUMP JUMPDEST PUSH32 0x50617320617373657A20646520706C61747320646973706F0000000000000000 PUSH1 0x0 DUP3 ADD MSTORE POP JUMP JUMPDEST PUSH1 0x0 PUSH2 0x7B4 PUSH1 0x18 DUP4 PUSH2 0x60C JUMP JUMPDEST SWAP2 POP PUSH2 0x7BF DUP3 PUSH2 0x77E JUMP JUMPDEST PUSH1 0x20 DUP3 ADD SWAP1 POP SWAP2 SWAP1 POP JUMP JUMPDEST PUSH1 0x0 PUSH1 0x20 DUP3 ADD SWAP1 POP DUP2 DUP2 SUB PUSH1 0x0 DUP4 ADD MSTORE PUSH2 0x7E3 DUP2 PUSH2 0x7A7 JUMP JUMPDEST SWAP1 POP SWAP2 SWAP1 POP JUMP JUMPDEST PUSH32 0x506C757320646520706C61747300000000000000000000000000000000000000 PUSH1 0x0 DUP3 ADD MSTORE POP JUMP JUMPDEST PUSH1 0x0 PUSH2 0x820 PUSH1 0xD DUP4 PUSH2 0x60C JUMP JUMPDEST SWAP2 POP PUSH2 0x82B DUP3 PUSH2 0x7EA JUMP JUMPDEST PUSH1 0x20 DUP3 ADD SWAP1 POP SWAP2 SWAP1 POP JUMP JUMPDEST PUSH1 0x0 PUSH1 0x20 DUP3 ADD SWAP1 POP DUP2 DUP2 SUB PUSH1 0x0 DUP4 ADD MSTORE PUSH2 0x84F DUP2 PUSH2 0x813 JUMP JUMPDEST SWAP1 POP SWAP2 SWAP1 POP JUMP JUMPDEST PUSH1 0x0 PUSH2 0x861 DUP3 PUSH2 0x43E JUMP JUMPDEST SWAP2 POP PUSH2 0x86C DUP4 PUSH2 0x43E JUMP JUMPDEST SWAP3 POP DUP3 DUP3 SUB SWAP1 POP DUP2 DUP2 GT ISZERO PUSH2 0x884 JUMPI PUSH2 0x883 PUSH2 0x6AF JUMP JUMPDEST JUMPDEST SWAP3 SWAP2 POP POP JUMP INVALID LOG2 PUSH5 0x6970667358 0x22 SLT KECCAK256 CALL SWAP15 SWAP16 0xBE XOR 0xDC 0xC6 BYTE SWAP3 PUSH2 0x4648 0xDC LT PUSH11 0x475BCCE19E7F82A68B5F2E MSTORE8 DUP5 0xDA SMOD SELFBALANCE EXTCODEHASH PUSH5 0x736F6C6343 STOP ADDMOD SLT STOP CALLER "
				},
				"gasEstimates": {
					"creation": {
						"codeDepositCost": "448000",
						"executionCost": "22586",
						"totalCost": "470586"
					},
					"external": {
						"dishQuantity(uint8)": "infinite",
						"fillDish(uint8,uint256)": "infinite",
						"getDish(uint8,uint256)": "875",
						"maxItems()": "2407"
					}
				},
				"methodIdentifiers": {
					"dishQuantity(uint8)": "c79cf758",
					"fillDish(uint8,uint256)": "8d65df2a",
					"getDish(uint8,uint256)": "c332c3be",
					"maxItems()": "3c010a3e"
				}
			},
			"storageLayout": {
				"storage": [
					{
						"astId": 18,
						"contract": "contracts/RushChapterI.sol:RushChapterI",
						"label": "dishQuantity",
						"offset": 0,
						"slot": "0",
						"type": "t_mapping(t_enum(Dish)7,t_struct(DishData)12_storage)"
					},
					{
						"astId": 21,
						"contract": "contracts/RushChapterI.sol:RushChapterI",
						"label": "maxItems",
						"offset": 0,
						"slot": "1",
						"type": "t_uint256"
					}
				],
				"types": {
					"t_enum(Dish)7": {
						"encoding": "inplace",
						"label": "enum RushChapterI.Dish",
						"numberOfBytes": "1"
					},
					"t_mapping(t_enum(Dish)7,t_struct(DishData)12_storage)": {
						"encoding": "mapping",
						"key": "t_enum(Dish)7",
						"label": "mapping(enum RushChapterI.Dish => struct RushChapterI.DishData)",
						"numberOfBytes": "32",
						"value": "t_struct(DishData)12_storage"
					},
					"t_struct(DishData)12_storage": {
						"encoding": "inplace",
						"label": "struct RushChapterI.DishData",
						"members": [
							{
								"astId": 9,
								"contract": "contracts/RushChapterI.sol:RushChapterI",
								"label": "quantity",
								"offset": 0,
								"slot": "0",
								"type": "t_uint256"
							},
							{
								"astId": 11,
								"contract": "contracts/RushChapterI.sol:RushChapterI",
								"label": "remaining",
								"offset": 0,
								"slot": "1",
								"type": "t_uint256"
							}
						],
						"numberOfBytes": "64"
					},
					"t_uint256": {
						"encoding": "inplace",
						"label": "uint256",
						"numberOfBytes": "32"
					}
				}
			},
			"userdoc": {
				"kind": "user",
				"methods": {},
				"version": 1
			}
		}
	}
}