{
	"data": {
		"bytecode": {
			"linkReferences": {},
			"object": "6101c0604052602a608090815260551960a052604560c052601e60e05262014e3a196101005260006101208190526101408190526101608190526101808190526101a081905261005091600a610063565b5034801561005d57600080fd5b506100b6565b82600a8101928215610091579160200282015b82811115610091578251825591602001919060010190610076565b5061009d9291506100a1565b5090565b5b8082111561009d57600081556001016100a2565b6101ad806100c56000396000f3fe608060405234801561001057600080fd5b50600436106100415760003560e01c806338d94193146100465780634ac56d571461006b578063f72d0b3b14610080575b600080fd5b6100596100543660046100e6565b610093565b60405190815260200160405180910390f35b61007e610079366004610115565b6100aa565b005b61005961008e36600461013f565b6100c7565b600081600a81106100a357600080fd5b0154905081565b8060008360ff16600a81106100c1576100c1610161565b01555050565b6000808260ff16600a81106100de576100de610161565b015492915050565b6000602082840312156100f857600080fd5b5035919050565b803560ff8116811461011057600080fd5b919050565b6000806040838503121561012857600080fd5b610131836100ff565b946020939093013593505050565b60006020828403121561015157600080fd5b61015a826100ff565b9392505050565b634e487b7160e01b600052603260045260246000fdfea264697066735822122092e879c9d9430724a47fe7bd67ef837de02949953b46ddc4075427717c01c54564736f6c63430008120033",
			"opcodes": "PUSH2 0x1C0 PUSH1 0x40 MSTORE PUSH1 0x2A PUSH1 0x80 SWAP1 DUP2 MSTORE PUSH1 0x55 NOT PUSH1 0xA0 MSTORE PUSH1 0x45 PUSH1 0xC0 MSTORE PUSH1 0x1E PUSH1 0xE0 MSTORE PUSH3 0x14E3A NOT PUSH2 0x100 MSTORE PUSH1 0x0 PUSH2 0x120 DUP2 SWAP1 MSTORE PUSH2 0x140 DUP2 SWAP1 MSTORE PUSH2 0x160 DUP2 SWAP1 MSTORE PUSH2 0x180 DUP2 SWAP1 MSTORE PUSH2 0x1A0 DUP2 SWAP1 MSTORE PUSH2 0x50 SWAP2 PUSH1 0xA PUSH2 0x63 JUMP JUMPDEST POP CALLVALUE DUP1 ISZERO PUSH2 0x5D JUMPI PUSH1 0x0 DUP1 REVERT JUMPDEST POP PUSH2 0xB6 JUMP JUMPDEST DUP3 PUSH1 0xA DUP2 ADD SWAP3 DUP3 ISZERO PUSH2 0x91 JUMPI SWAP2 PUSH1 0x20 MUL DUP3 ADD JUMPDEST DUP3 DUP2 GT ISZERO PUSH2 0x91 JUMPI DUP3 MLOAD DUP3 SSTORE SWAP2 PUSH1 0x20 ADD SWAP2 SWAP1 PUSH1 0x1 ADD SWAP1 PUSH2 0x76 JUMP JUMPDEST POP PUSH2 0x9D SWAP3 SWAP2 POP PUSH2 0xA1 JUMP JUMPDEST POP SWAP1 JUMP JUMPDEST JUMPDEST DUP1 DUP3 GT ISZERO PUSH2 0x9D JUMPI PUSH1 0x0 DUP2 SSTORE PUSH1 0x1 ADD PUSH2 0xA2 JUMP JUMPDEST PUSH2 0x1AD DUP1 PUSH2 0xC5 PUSH1 0x0 CODECOPY PUSH1 0x0 RETURN INVALID PUSH1 0x80 PUSH1 0x40 MSTORE CALLVALUE DUP1 ISZERO PUSH2 0x10 JUMPI PUSH1 0x0 DUP1 REVERT JUMPDEST POP PUSH1 0x4 CALLDATASIZE LT PUSH2 0x41 JUMPI PUSH1 0x0 CALLDATALOAD PUSH1 0xE0 SHR DUP1 PUSH4 0x38D94193 EQ PUSH2 0x46 JUMPI DUP1 PUSH4 0x4AC56D57 EQ PUSH2 0x6B JUMPI DUP1 PUSH4 0xF72D0B3B EQ PUSH2 0x80 JUMPI JUMPDEST PUSH1 0x0 DUP1 REVERT JUMPDEST PUSH2 0x59 PUSH2 0x54 CALLDATASIZE PUSH1 0x4 PUSH2 0xE6 JUMP JUMPDEST PUSH2 0x93 JUMP JUMPDEST PUSH1 0x40 MLOAD SWAP1 DUP2 MSTORE PUSH1 0x20 ADD PUSH1 0x40 MLOAD DUP1 SWAP2 SUB SWAP1 RETURN JUMPDEST PUSH2 0x7E PUSH2 0x79 CALLDATASIZE PUSH1 0x4 PUSH2 0x115 JUMP JUMPDEST PUSH2 0xAA JUMP JUMPDEST STOP JUMPDEST PUSH2 0x59 PUSH2 0x8E CALLDATASIZE PUSH1 0x4 PUSH2 0x13F JUMP JUMPDEST PUSH2 0xC7 JUMP JUMPDEST PUSH1 0x0 DUP2 PUSH1 0xA DUP2 LT PUSH2 0xA3 JUMPI PUSH1 0x0 DUP1 REVERT JUMPDEST ADD SLOAD SWAP1 POP DUP2 JUMP JUMPDEST DUP1 PUSH1 0x0 DUP4 PUSH1 0xFF AND PUSH1 0xA DUP2 LT PUSH2 0xC1 JUMPI PUSH2 0xC1 PUSH2 0x161 JUMP JUMPDEST ADD SSTORE POP POP JUMP JUMPDEST PUSH1 0x0 DUP1 DUP3 PUSH1 0xFF AND PUSH1 0xA DUP2 LT PUSH2 0xDE JUMPI PUSH2 0xDE PUSH2 0x161 JUMP JUMPDEST ADD SLOAD SWAP3 SWAP2 POP POP JUMP JUMPDEST PUSH1 0x0 PUSH1 0x20 DUP3 DUP5 SUB SLT ISZERO PUSH2 0xF8 JUMPI PUSH1 0x0 DUP1 REVERT JUMPDEST POP CALLDATALOAD SWAP2 SWAP1 POP JUMP JUMPDEST DUP1 CALLDATALOAD PUSH1 0xFF DUP2 AND DUP2 EQ PUSH2 0x110 JUMPI PUSH1 0x0 DUP1 REVERT JUMPDEST SWAP2 SWAP1 POP JUMP JUMPDEST PUSH1 0x0 DUP1 PUSH1 0x40 DUP4 DUP6 SUB SLT ISZERO PUSH2 0x128 JUMPI PUSH1 0x0 DUP1 REVERT JUMPDEST PUSH2 0x131 DUP4 PUSH2 0xFF JUMP JUMPDEST SWAP5 PUSH1 0x20 SWAP4 SWAP1 SWAP4 ADD CALLDATALOAD SWAP4 POP POP POP JUMP JUMPDEST PUSH1 0x0 PUSH1 0x20 DUP3 DUP5 SUB SLT ISZERO PUSH2 0x151 JUMPI PUSH1 0x0 DUP1 REVERT JUMPDEST PUSH2 0x15A DUP3 PUSH2 0xFF JUMP JUMPDEST SWAP4 SWAP3 POP POP POP JUMP JUMPDEST PUSH4 0x4E487B71 PUSH1 0xE0 SHL PUSH1 0x0 MSTORE PUSH1 0x32 PUSH1 0x4 MSTORE PUSH1 0x24 PUSH1 0x0 REVERT INVALID LOG2 PUSH5 0x6970667358 0x22 SLT KECCAK256 SWAP3 0xE8 PUSH26 0xC9D9430724A47FE7BD67EF837DE02949953B46DDC4075427717C ADD 0xC5 GASLIMIT PUSH5 0x736F6C6343 STOP ADDMOD SLT STOP CALLER "
		},
		"gasEstimates": {
			"creation": {
				"codeDepositCost": "85800",
				"executionCost": "infinite",
				"totalCost": "infinite"
			},
			"external": {
				"array(uint256)": "2384",
				"get(uint8)": "2508",
				"set(uint8,int256)": "22456"
			}
		},
		"methodIdentifiers": {
			"array(uint256)": "38d94193",
			"get(uint8)": "f72d0b3b",
			"set(uint8,int256)": "4ac56d57"
		}
	},
	"abi": [
		{
			"inputs": [
				{
					"internalType": "uint256",
					"name": "",
					"type": "uint256"
				}
			],
			"name": "array",
			"outputs": [
				{
					"internalType": "int256",
					"name": "",
					"type": "int256"
				}
			],
			"stateMutability": "view",
			"type": "function"
		},
		{
			"inputs": [
				{
					"internalType": "uint8",
					"name": "index",
					"type": "uint8"
				}
			],
			"name": "get",
			"outputs": [
				{
					"internalType": "int256",
					"name": "",
					"type": "int256"
				}
			],
			"stateMutability": "view",
			"type": "function"
		},
		{
			"inputs": [
				{
					"internalType": "uint8",
					"name": "index",
					"type": "uint8"
				},
				{
					"internalType": "int256",
					"name": "value",
					"type": "int256"
				}
			],
			"name": "set",
			"outputs": [],
			"stateMutability": "nonpayable",
			"type": "function"
		}
	]
}