{
	"data": {
		"bytecode": {
			"linkReferences": {},
			"object": "6080604052602a60015534801561001557600080fd5b50610ac3806100256000396000f3fe608060405234801561001057600080fd5b506004361061004c5760003560e01c80633c010a3e146100515780638d65df2a1461006f578063c332c3be146100a0578063c79cf758146100d2575b600080fd5b610059610103565b6040516100669190610842565b60405180910390f35b610089600480360381019061008491906106a5565b610109565b60405161009792919061085d565b60405180910390f35b6100ba60048036038101906100b591906106a5565b6103ee565b6040516100c99392919061078b565b60405180910390f35b6100ec60048036038101906100e7919061067c565b61062e565b6040516100fa92919061085d565b60405180910390f35b60015481565b6000806000831161014f576040517f08c379a0000000000000000000000000000000000000000000000000000000008152600401610146906107e2565b60405180910390fd5b6001548360008087600481111561018f577f4e487b7100000000000000000000000000000000000000000000000000000000600052602160045260246000fd5b60048111156101c7577f4e487b7100000000000000000000000000000000000000000000000000000000600052602160045260246000fd5b8152602001908152602001600020600001546101e39190610897565b1115610224576040517f08c379a000000000000000000000000000000000000000000000000000000000815260040161021b90610822565b60405180910390fd5b82600080866004811115610261577f4e487b7100000000000000000000000000000000000000000000000000000000600052602160045260246000fd5b6004811115610299577f4e487b7100000000000000000000000000000000000000000000000000000000600052602160045260246000fd5b815260200190815260200160002060000160008282546102b99190610897565b92505081905550826000808660048111156102fd577f4e487b7100000000000000000000000000000000000000000000000000000000600052602160045260246000fd5b6004811115610335577f4e487b7100000000000000000000000000000000000000000000000000000000600052602160045260246000fd5b815260200190815260200160002060010160008282546103559190610897565b92505081905550600080856004811115610398577f4e487b7100000000000000000000000000000000000000000000000000000000600052602160045260246000fd5b60048111156103d0577f4e487b7100000000000000000000000000000000000000000000000000000000600052602160045260246000fd5b81526020019081526020016000206001015483915091509250929050565b6000806000808410610435576040517f08c379a000000000000000000000000000000000000000000000000000000000815260040161042c90610802565b60405180910390fd5b83600080876004811115610472577f4e487b7100000000000000000000000000000000000000000000000000000000600052602160045260246000fd5b60048111156104aa577f4e487b7100000000000000000000000000000000000000000000000000000000600052602160045260246000fd5b81526020019081526020016000206001015410156104fd576040517f08c379a00000000000000000000000000000000000000000000000000000000081526004016104f4906107c2565b60405180910390fd5b8360008087600481111561053a577f4e487b7100000000000000000000000000000000000000000000000000000000600052602160045260246000fd5b6004811115610572577f4e487b7100000000000000000000000000000000000000000000000000000000600052602160045260246000fd5b8152602001908152602001600020600101600082825461059291906108ed565b9250508190555084846000808860048111156105d7577f4e487b7100000000000000000000000000000000000000000000000000000000600052602160045260246000fd5b600481111561060f577f4e487b7100000000000000000000000000000000000000000000000000000000600052602160045260246000fd5b8152602001908152602001600020600101549250925092509250925092565b60006020528060005260406000206000915090508060000154908060010154905082565b60008135905061066181610a66565b92915050565b60008135905061067681610a76565b92915050565b60006020828403121561068e57600080fd5b600061069c84828501610652565b91505092915050565b600080604083850312156106b857600080fd5b60006106c685828601610652565b92505060206106d785828601610667565b9150509250929050565b6106ea8161093e565b82525050565b60006106fd600e83610886565b9150610708826109ae565b602082019050919050565b6000610720601783610886565b915061072b826109d7565b602082019050919050565b6000610743601b83610886565b915061074e82610a00565b602082019050919050565b6000610766601183610886565b915061077182610a29565b602082019050919050565b61078581610934565b82525050565b60006060820190506107a060008301866106e1565b6107ad602083018561077c565b6107ba604083018461077c565b949350505050565b600060208201905081810360008301526107db816106f0565b9050919050565b600060208201905081810360008301526107fb81610713565b9050919050565b6000602082019050818103600083015261081b81610736565b9050919050565b6000602082019050818103600083015261083b81610759565b9050919050565b6000602082019050610857600083018461077c565b92915050565b6000604082019050610872600083018561077c565b61087f602083018461077c565b9392505050565b600082825260208201905092915050565b60006108a282610934565b91506108ad83610934565b9250827fffffffffffffffffffffffffffffffffffffffffffffffffffffffffffffffff038211156108e2576108e1610950565b5b828201905092915050565b60006108f882610934565b915061090383610934565b92508282101561091657610915610950565b5b828203905092915050565b600081905061092f82610a52565b919050565b6000819050919050565b600061094982610921565b9050919050565b7f4e487b7100000000000000000000000000000000000000000000000000000000600052601160045260246000fd5b7f4e487b7100000000000000000000000000000000000000000000000000000000600052602160045260246000fd5b7f4e6f206d6f726520646973686573000000000000000000000000000000000000600082015250565b7f5175616e74697479206d757374206265206f7665722030000000000000000000600082015250565b7f4e6f7420656e6f7567682064697368657320617661696c61626c650000000000600082015250565b7f546f6f206d756368207175616e74697479000000000000000000000000000000600082015250565b60058110610a6357610a6261097f565b5b50565b60058110610a7357600080fd5b50565b610a7f81610934565b8114610a8a57600080fd5b5056fea2646970667358221220eaee4c72eeb7c1fa0ea4bf59a1fd741a4c46356ef672ac613c96410736641b7b64736f6c63430008040033",
			"opcodes": "PUSH1 0x80 PUSH1 0x40 MSTORE PUSH1 0x2A PUSH1 0x1 SSTORE CALLVALUE DUP1 ISZERO PUSH2 0x15 JUMPI PUSH1 0x0 DUP1 REVERT JUMPDEST POP PUSH2 0xAC3 DUP1 PUSH2 0x25 PUSH1 0x0 CODECOPY PUSH1 0x0 RETURN INVALID PUSH1 0x80 PUSH1 0x40 MSTORE CALLVALUE DUP1 ISZERO PUSH2 0x10 JUMPI PUSH1 0x0 DUP1 REVERT JUMPDEST POP PUSH1 0x4 CALLDATASIZE LT PUSH2 0x4C JUMPI PUSH1 0x0 CALLDATALOAD PUSH1 0xE0 SHR DUP1 PUSH4 0x3C010A3E EQ PUSH2 0x51 JUMPI DUP1 PUSH4 0x8D65DF2A EQ PUSH2 0x6F JUMPI DUP1 PUSH4 0xC332C3BE EQ PUSH2 0xA0 JUMPI DUP1 PUSH4 0xC79CF758 EQ PUSH2 0xD2 JUMPI JUMPDEST PUSH1 0x0 DUP1 REVERT JUMPDEST PUSH2 0x59 PUSH2 0x103 JUMP JUMPDEST PUSH1 0x40 MLOAD PUSH2 0x66 SWAP2 SWAP1 PUSH2 0x842 JUMP JUMPDEST PUSH1 0x40 MLOAD DUP1 SWAP2 SUB SWAP1 RETURN JUMPDEST PUSH2 0x89 PUSH1 0x4 DUP1 CALLDATASIZE SUB DUP2 ADD SWAP1 PUSH2 0x84 SWAP2 SWAP1 PUSH2 0x6A5 JUMP JUMPDEST PUSH2 0x109 JUMP JUMPDEST PUSH1 0x40 MLOAD PUSH2 0x97 SWAP3 SWAP2 SWAP1 PUSH2 0x85D JUMP JUMPDEST PUSH1 0x40 MLOAD DUP1 SWAP2 SUB SWAP1 RETURN JUMPDEST PUSH2 0xBA PUSH1 0x4 DUP1 CALLDATASIZE SUB DUP2 ADD SWAP1 PUSH2 0xB5 SWAP2 SWAP1 PUSH2 0x6A5 JUMP JUMPDEST PUSH2 0x3EE JUMP JUMPDEST PUSH1 0x40 MLOAD PUSH2 0xC9 SWAP4 SWAP3 SWAP2 SWAP1 PUSH2 0x78B JUMP JUMPDEST PUSH1 0x40 MLOAD DUP1 SWAP2 SUB SWAP1 RETURN JUMPDEST PUSH2 0xEC PUSH1 0x4 DUP1 CALLDATASIZE SUB DUP2 ADD SWAP1 PUSH2 0xE7 SWAP2 SWAP1 PUSH2 0x67C JUMP JUMPDEST PUSH2 0x62E JUMP JUMPDEST PUSH1 0x40 MLOAD PUSH2 0xFA SWAP3 SWAP2 SWAP1 PUSH2 0x85D JUMP JUMPDEST PUSH1 0x40 MLOAD DUP1 SWAP2 SUB SWAP1 RETURN JUMPDEST PUSH1 0x1 SLOAD DUP2 JUMP JUMPDEST PUSH1 0x0 DUP1 PUSH1 0x0 DUP4 GT PUSH2 0x14F JUMPI PUSH1 0x40 MLOAD PUSH32 0x8C379A000000000000000000000000000000000000000000000000000000000 DUP2 MSTORE PUSH1 0x4 ADD PUSH2 0x146 SWAP1 PUSH2 0x7E2 JUMP JUMPDEST PUSH1 0x40 MLOAD DUP1 SWAP2 SUB SWAP1 REVERT JUMPDEST PUSH1 0x1 SLOAD DUP4 PUSH1 0x0 DUP1 DUP8 PUSH1 0x4 DUP2 GT ISZERO PUSH2 0x18F JUMPI PUSH32 0x4E487B7100000000000000000000000000000000000000000000000000000000 PUSH1 0x0 MSTORE PUSH1 0x21 PUSH1 0x4 MSTORE PUSH1 0x24 PUSH1 0x0 REVERT JUMPDEST PUSH1 0x4 DUP2 GT ISZERO PUSH2 0x1C7 JUMPI PUSH32 0x4E487B7100000000000000000000000000000000000000000000000000000000 PUSH1 0x0 MSTORE PUSH1 0x21 PUSH1 0x4 MSTORE PUSH1 0x24 PUSH1 0x0 REVERT JUMPDEST DUP2 MSTORE PUSH1 0x20 ADD SWAP1 DUP2 MSTORE PUSH1 0x20 ADD PUSH1 0x0 KECCAK256 PUSH1 0x0 ADD SLOAD PUSH2 0x1E3 SWAP2 SWAP1 PUSH2 0x897 JUMP JUMPDEST GT ISZERO PUSH2 0x224 JUMPI PUSH1 0x40 MLOAD PUSH32 0x8C379A000000000000000000000000000000000000000000000000000000000 DUP2 MSTORE PUSH1 0x4 ADD PUSH2 0x21B SWAP1 PUSH2 0x822 JUMP JUMPDEST PUSH1 0x40 MLOAD DUP1 SWAP2 SUB SWAP1 REVERT JUMPDEST DUP3 PUSH1 0x0 DUP1 DUP7 PUSH1 0x4 DUP2 GT ISZERO PUSH2 0x261 JUMPI PUSH32 0x4E487B7100000000000000000000000000000000000000000000000000000000 PUSH1 0x0 MSTORE PUSH1 0x21 PUSH1 0x4 MSTORE PUSH1 0x24 PUSH1 0x0 REVERT JUMPDEST PUSH1 0x4 DUP2 GT ISZERO PUSH2 0x299 JUMPI PUSH32 0x4E487B7100000000000000000000000000000000000000000000000000000000 PUSH1 0x0 MSTORE PUSH1 0x21 PUSH1 0x4 MSTORE PUSH1 0x24 PUSH1 0x0 REVERT JUMPDEST DUP2 MSTORE PUSH1 0x20 ADD SWAP1 DUP2 MSTORE PUSH1 0x20 ADD PUSH1 0x0 KECCAK256 PUSH1 0x0 ADD PUSH1 0x0 DUP3 DUP3 SLOAD PUSH2 0x2B9 SWAP2 SWAP1 PUSH2 0x897 JUMP JUMPDEST SWAP3 POP POP DUP2 SWAP1 SSTORE POP DUP3 PUSH1 0x0 DUP1 DUP7 PUSH1 0x4 DUP2 GT ISZERO PUSH2 0x2FD JUMPI PUSH32 0x4E487B7100000000000000000000000000000000000000000000000000000000 PUSH1 0x0 MSTORE PUSH1 0x21 PUSH1 0x4 MSTORE PUSH1 0x24 PUSH1 0x0 REVERT JUMPDEST PUSH1 0x4 DUP2 GT ISZERO PUSH2 0x335 JUMPI PUSH32 0x4E487B7100000000000000000000000000000000000000000000000000000000 PUSH1 0x0 MSTORE PUSH1 0x21 PUSH1 0x4 MSTORE PUSH1 0x24 PUSH1 0x0 REVERT JUMPDEST DUP2 MSTORE PUSH1 0x20 ADD SWAP1 DUP2 MSTORE PUSH1 0x20 ADD PUSH1 0x0 KECCAK256 PUSH1 0x1 ADD PUSH1 0x0 DUP3 DUP3 SLOAD PUSH2 0x355 SWAP2 SWAP1 PUSH2 0x897 JUMP JUMPDEST SWAP3 POP POP DUP2 SWAP1 SSTORE POP PUSH1 0x0 DUP1 DUP6 PUSH1 0x4 DUP2 GT ISZERO PUSH2 0x398 JUMPI PUSH32 0x4E487B7100000000000000000000000000000000000000000000000000000000 PUSH1 0x0 MSTORE PUSH1 0x21 PUSH1 0x4 MSTORE PUSH1 0x24 PUSH1 0x0 REVERT JUMPDEST PUSH1 0x4 DUP2 GT ISZERO PUSH2 0x3D0 JUMPI PUSH32 0x4E487B7100000000000000000000000000000000000000000000000000000000 PUSH1 0x0 MSTORE PUSH1 0x21 PUSH1 0x4 MSTORE PUSH1 0x24 PUSH1 0x0 REVERT JUMPDEST DUP2 MSTORE PUSH1 0x20 ADD SWAP1 DUP2 MSTORE PUSH1 0x20 ADD PUSH1 0x0 KECCAK256 PUSH1 0x1 ADD SLOAD DUP4 SWAP2 POP SWAP2 POP SWAP3 POP SWAP3 SWAP1 POP JUMP JUMPDEST PUSH1 0x0 DUP1 PUSH1 0x0 DUP1 DUP5 LT PUSH2 0x435 JUMPI PUSH1 0x40 MLOAD PUSH32 0x8C379A000000000000000000000000000000000000000000000000000000000 DUP2 MSTORE PUSH1 0x4 ADD PUSH2 0x42C SWAP1 PUSH2 0x802 JUMP JUMPDEST PUSH1 0x40 MLOAD DUP1 SWAP2 SUB SWAP1 REVERT JUMPDEST DUP4 PUSH1 0x0 DUP1 DUP8 PUSH1 0x4 DUP2 GT ISZERO PUSH2 0x472 JUMPI PUSH32 0x4E487B7100000000000000000000000000000000000000000000000000000000 PUSH1 0x0 MSTORE PUSH1 0x21 PUSH1 0x4 MSTORE PUSH1 0x24 PUSH1 0x0 REVERT JUMPDEST PUSH1 0x4 DUP2 GT ISZERO PUSH2 0x4AA JUMPI PUSH32 0x4E487B7100000000000000000000000000000000000000000000000000000000 PUSH1 0x0 MSTORE PUSH1 0x21 PUSH1 0x4 MSTORE PUSH1 0x24 PUSH1 0x0 REVERT JUMPDEST DUP2 MSTORE PUSH1 0x20 ADD SWAP1 DUP2 MSTORE PUSH1 0x20 ADD PUSH1 0x0 KECCAK256 PUSH1 0x1 ADD SLOAD LT ISZERO PUSH2 0x4FD JUMPI PUSH1 0x40 MLOAD PUSH32 0x8C379A000000000000000000000000000000000000000000000000000000000 DUP2 MSTORE PUSH1 0x4 ADD PUSH2 0x4F4 SWAP1 PUSH2 0x7C2 JUMP JUMPDEST PUSH1 0x40 MLOAD DUP1 SWAP2 SUB SWAP1 REVERT JUMPDEST DUP4 PUSH1 0x0 DUP1 DUP8 PUSH1 0x4 DUP2 GT ISZERO PUSH2 0x53A JUMPI PUSH32 0x4E487B7100000000000000000000000000000000000000000000000000000000 PUSH1 0x0 MSTORE PUSH1 0x21 PUSH1 0x4 MSTORE PUSH1 0x24 PUSH1 0x0 REVERT JUMPDEST PUSH1 0x4 DUP2 GT ISZERO PUSH2 0x572 JUMPI PUSH32 0x4E487B7100000000000000000000000000000000000000000000000000000000 PUSH1 0x0 MSTORE PUSH1 0x21 PUSH1 0x4 MSTORE PUSH1 0x24 PUSH1 0x0 REVERT JUMPDEST DUP2 MSTORE PUSH1 0x20 ADD SWAP1 DUP2 MSTORE PUSH1 0x20 ADD PUSH1 0x0 KECCAK256 PUSH1 0x1 ADD PUSH1 0x0 DUP3 DUP3 SLOAD PUSH2 0x592 SWAP2 SWAP1 PUSH2 0x8ED JUMP JUMPDEST SWAP3 POP POP DUP2 SWAP1 SSTORE POP DUP5 DUP5 PUSH1 0x0 DUP1 DUP9 PUSH1 0x4 DUP2 GT ISZERO PUSH2 0x5D7 JUMPI PUSH32 0x4E487B7100000000000000000000000000000000000000000000000000000000 PUSH1 0x0 MSTORE PUSH1 0x21 PUSH1 0x4 MSTORE PUSH1 0x24 PUSH1 0x0 REVERT JUMPDEST PUSH1 0x4 DUP2 GT ISZERO PUSH2 0x60F JUMPI PUSH32 0x4E487B7100000000000000000000000000000000000000000000000000000000 PUSH1 0x0 MSTORE PUSH1 0x21 PUSH1 0x4 MSTORE PUSH1 0x24 PUSH1 0x0 REVERT JUMPDEST DUP2 MSTORE PUSH1 0x20 ADD SWAP1 DUP2 MSTORE PUSH1 0x20 ADD PUSH1 0x0 KECCAK256 PUSH1 0x1 ADD SLOAD SWAP3 POP SWAP3 POP SWAP3 POP SWAP3 POP SWAP3 POP SWAP3 JUMP JUMPDEST PUSH1 0x0 PUSH1 0x20 MSTORE DUP1 PUSH1 0x0 MSTORE PUSH1 0x40 PUSH1 0x0 KECCAK256 PUSH1 0x0 SWAP2 POP SWAP1 POP DUP1 PUSH1 0x0 ADD SLOAD SWAP1 DUP1 PUSH1 0x1 ADD SLOAD SWAP1 POP DUP3 JUMP JUMPDEST PUSH1 0x0 DUP2 CALLDATALOAD SWAP1 POP PUSH2 0x661 DUP2 PUSH2 0xA66 JUMP JUMPDEST SWAP3 SWAP2 POP POP JUMP JUMPDEST PUSH1 0x0 DUP2 CALLDATALOAD SWAP1 POP PUSH2 0x676 DUP2 PUSH2 0xA76 JUMP JUMPDEST SWAP3 SWAP2 POP POP JUMP JUMPDEST PUSH1 0x0 PUSH1 0x20 DUP3 DUP5 SUB SLT ISZERO PUSH2 0x68E JUMPI PUSH1 0x0 DUP1 REVERT JUMPDEST PUSH1 0x0 PUSH2 0x69C DUP5 DUP3 DUP6 ADD PUSH2 0x652 JUMP JUMPDEST SWAP2 POP POP SWAP3 SWAP2 POP POP JUMP JUMPDEST PUSH1 0x0 DUP1 PUSH1 0x40 DUP4 DUP6 SUB SLT ISZERO PUSH2 0x6B8 JUMPI PUSH1 0x0 DUP1 REVERT JUMPDEST PUSH1 0x0 PUSH2 0x6C6 DUP6 DUP3 DUP7 ADD PUSH2 0x652 JUMP JUMPDEST SWAP3 POP POP PUSH1 0x20 PUSH2 0x6D7 DUP6 DUP3 DUP7 ADD PUSH2 0x667 JUMP JUMPDEST SWAP2 POP POP SWAP3 POP SWAP3 SWAP1 POP JUMP JUMPDEST PUSH2 0x6EA DUP2 PUSH2 0x93E JUMP JUMPDEST DUP3 MSTORE POP POP JUMP JUMPDEST PUSH1 0x0 PUSH2 0x6FD PUSH1 0xE DUP4 PUSH2 0x886 JUMP JUMPDEST SWAP2 POP PUSH2 0x708 DUP3 PUSH2 0x9AE JUMP JUMPDEST PUSH1 0x20 DUP3 ADD SWAP1 POP SWAP2 SWAP1 POP JUMP JUMPDEST PUSH1 0x0 PUSH2 0x720 PUSH1 0x17 DUP4 PUSH2 0x886 JUMP JUMPDEST SWAP2 POP PUSH2 0x72B DUP3 PUSH2 0x9D7 JUMP JUMPDEST PUSH1 0x20 DUP3 ADD SWAP1 POP SWAP2 SWAP1 POP JUMP JUMPDEST PUSH1 0x0 PUSH2 0x743 PUSH1 0x1B DUP4 PUSH2 0x886 JUMP JUMPDEST SWAP2 POP PUSH2 0x74E DUP3 PUSH2 0xA00 JUMP JUMPDEST PUSH1 0x20 DUP3 ADD SWAP1 POP SWAP2 SWAP1 POP JUMP JUMPDEST PUSH1 0x0 PUSH2 0x766 PUSH1 0x11 DUP4 PUSH2 0x886 JUMP JUMPDEST SWAP2 POP PUSH2 0x771 DUP3 PUSH2 0xA29 JUMP JUMPDEST PUSH1 0x20 DUP3 ADD SWAP1 POP SWAP2 SWAP1 POP JUMP JUMPDEST PUSH2 0x785 DUP2 PUSH2 0x934 JUMP JUMPDEST DUP3 MSTORE POP POP JUMP JUMPDEST PUSH1 0x0 PUSH1 0x60 DUP3 ADD SWAP1 POP PUSH2 0x7A0 PUSH1 0x0 DUP4 ADD DUP7 PUSH2 0x6E1 JUMP JUMPDEST PUSH2 0x7AD PUSH1 0x20 DUP4 ADD DUP6 PUSH2 0x77C JUMP JUMPDEST PUSH2 0x7BA PUSH1 0x40 DUP4 ADD DUP5 PUSH2 0x77C JUMP JUMPDEST SWAP5 SWAP4 POP POP POP POP JUMP JUMPDEST PUSH1 0x0 PUSH1 0x20 DUP3 ADD SWAP1 POP DUP2 DUP2 SUB PUSH1 0x0 DUP4 ADD MSTORE PUSH2 0x7DB DUP2 PUSH2 0x6F0 JUMP JUMPDEST SWAP1 POP SWAP2 SWAP1 POP JUMP JUMPDEST PUSH1 0x0 PUSH1 0x20 DUP3 ADD SWAP1 POP DUP2 DUP2 SUB PUSH1 0x0 DUP4 ADD MSTORE PUSH2 0x7FB DUP2 PUSH2 0x713 JUMP JUMPDEST SWAP1 POP SWAP2 SWAP1 POP JUMP JUMPDEST PUSH1 0x0 PUSH1 0x20 DUP3 ADD SWAP1 POP DUP2 DUP2 SUB PUSH1 0x0 DUP4 ADD MSTORE PUSH2 0x81B DUP2 PUSH2 0x736 JUMP JUMPDEST SWAP1 POP SWAP2 SWAP1 POP JUMP JUMPDEST PUSH1 0x0 PUSH1 0x20 DUP3 ADD SWAP1 POP DUP2 DUP2 SUB PUSH1 0x0 DUP4 ADD MSTORE PUSH2 0x83B DUP2 PUSH2 0x759 JUMP JUMPDEST SWAP1 POP SWAP2 SWAP1 POP JUMP JUMPDEST PUSH1 0x0 PUSH1 0x20 DUP3 ADD SWAP1 POP PUSH2 0x857 PUSH1 0x0 DUP4 ADD DUP5 PUSH2 0x77C JUMP JUMPDEST SWAP3 SWAP2 POP POP JUMP JUMPDEST PUSH1 0x0 PUSH1 0x40 DUP3 ADD SWAP1 POP PUSH2 0x872 PUSH1 0x0 DUP4 ADD DUP6 PUSH2 0x77C JUMP JUMPDEST PUSH2 0x87F PUSH1 0x20 DUP4 ADD DUP5 PUSH2 0x77C JUMP JUMPDEST SWAP4 SWAP3 POP POP POP JUMP JUMPDEST PUSH1 0x0 DUP3 DUP3 MSTORE PUSH1 0x20 DUP3 ADD SWAP1 POP SWAP3 SWAP2 POP POP JUMP JUMPDEST PUSH1 0x0 PUSH2 0x8A2 DUP3 PUSH2 0x934 JUMP JUMPDEST SWAP2 POP PUSH2 0x8AD DUP4 PUSH2 0x934 JUMP JUMPDEST SWAP3 POP DUP3 PUSH32 0xFFFFFFFFFFFFFFFFFFFFFFFFFFFFFFFFFFFFFFFFFFFFFFFFFFFFFFFFFFFFFFFF SUB DUP3 GT ISZERO PUSH2 0x8E2 JUMPI PUSH2 0x8E1 PUSH2 0x950 JUMP JUMPDEST JUMPDEST DUP3 DUP3 ADD SWAP1 POP SWAP3 SWAP2 POP POP JUMP JUMPDEST PUSH1 0x0 PUSH2 0x8F8 DUP3 PUSH2 0x934 JUMP JUMPDEST SWAP2 POP PUSH2 0x903 DUP4 PUSH2 0x934 JUMP JUMPDEST SWAP3 POP DUP3 DUP3 LT ISZERO PUSH2 0x916 JUMPI PUSH2 0x915 PUSH2 0x950 JUMP JUMPDEST JUMPDEST DUP3 DUP3 SUB SWAP1 POP SWAP3 SWAP2 POP POP JUMP JUMPDEST PUSH1 0x0 DUP2 SWAP1 POP PUSH2 0x92F DUP3 PUSH2 0xA52 JUMP JUMPDEST SWAP2 SWAP1 POP JUMP JUMPDEST PUSH1 0x0 DUP2 SWAP1 POP SWAP2 SWAP1 POP JUMP JUMPDEST PUSH1 0x0 PUSH2 0x949 DUP3 PUSH2 0x921 JUMP JUMPDEST SWAP1 POP SWAP2 SWAP1 POP JUMP JUMPDEST PUSH32 0x4E487B7100000000000000000000000000000000000000000000000000000000 PUSH1 0x0 MSTORE PUSH1 0x11 PUSH1 0x4 MSTORE PUSH1 0x24 PUSH1 0x0 REVERT JUMPDEST PUSH32 0x4E487B7100000000000000000000000000000000000000000000000000000000 PUSH1 0x0 MSTORE PUSH1 0x21 PUSH1 0x4 MSTORE PUSH1 0x24 PUSH1 0x0 REVERT JUMPDEST PUSH32 0x4E6F206D6F726520646973686573000000000000000000000000000000000000 PUSH1 0x0 DUP3 ADD MSTORE POP JUMP JUMPDEST PUSH32 0x5175616E74697479206D757374206265206F7665722030000000000000000000 PUSH1 0x0 DUP3 ADD MSTORE POP JUMP JUMPDEST PUSH32 0x4E6F7420656E6F7567682064697368657320617661696C61626C650000000000 PUSH1 0x0 DUP3 ADD MSTORE POP JUMP JUMPDEST PUSH32 0x546F6F206D756368207175616E74697479000000000000000000000000000000 PUSH1 0x0 DUP3 ADD MSTORE POP JUMP JUMPDEST PUSH1 0x5 DUP2 LT PUSH2 0xA63 JUMPI PUSH2 0xA62 PUSH2 0x97F JUMP JUMPDEST JUMPDEST POP JUMP JUMPDEST PUSH1 0x5 DUP2 LT PUSH2 0xA73 JUMPI PUSH1 0x0 DUP1 REVERT JUMPDEST POP JUMP JUMPDEST PUSH2 0xA7F DUP2 PUSH2 0x934 JUMP JUMPDEST DUP2 EQ PUSH2 0xA8A JUMPI PUSH1 0x0 DUP1 REVERT JUMPDEST POP JUMP INVALID LOG2 PUSH5 0x6970667358 0x22 SLT KECCAK256 0xEA 0xEE 0x4C PUSH19 0xEEB7C1FA0EA4BF59A1FD741A4C46356EF672AC PUSH2 0x3C96 COINBASE SMOD CALLDATASIZE PUSH5 0x1B7B64736F PUSH13 0x63430008040033000000000000 "
		},
		"gasEstimates": {
			"creation": {
				"codeDepositCost": "551000",
				"executionCost": "20593",
				"totalCost": "571593"
			},
			"external": {
				"dishQuantity(uint8)": "infinite",
				"fillDish(uint8,uint256)": "infinite",
				"getDish(uint8,uint256)": "875",
				"maxItems()": "1107"
			}
		},
		"methodIdentifiers": {
			"dishQuantity(uint8)": "c79cf758",
			"fillDish(uint8,uint256)": "8d65df2a",
			"getDish(uint8,uint256)": "c332c3be",
			"maxItems()": "3c010a3e"
		}
	},
	"abi": [
		{
			"inputs": [
				{
					"internalType": "enum RushChapterI.Dish",
					"name": "",
					"type": "uint8"
				}
			],
			"name": "dishQuantity",
			"outputs": [
				{
					"internalType": "uint256",
					"name": "quantity",
					"type": "uint256"
				},
				{
					"internalType": "uint256",
					"name": "remaining",
					"type": "uint256"
				}
			],
			"stateMutability": "view",
			"type": "function"
		},
		{
			"inputs": [
				{
					"internalType": "enum RushChapterI.Dish",
					"name": "dish",
					"type": "uint8"
				},
				{
					"internalType": "uint256",
					"name": "quantity",
					"type": "uint256"
				}
			],
			"name": "fillDish",
			"outputs": [
				{
					"internalType": "uint256",
					"name": "",
					"type": "uint256"
				},
				{
					"internalType": "uint256",
					"name": "",
					"type": "uint256"
				}
			],
			"stateMutability": "nonpayable",
			"type": "function"
		},
		{
			"inputs": [
				{
					"internalType": "enum RushChapterI.Dish",
					"name": "dish",
					"type": "uint8"
				},
				{
					"internalType": "uint256",
					"name": "quantity",
					"type": "uint256"
				}
			],
			"name": "getDish",
			"outputs": [
				{
					"internalType": "enum RushChapterI.Dish",
					"name": "",
					"type": "uint8"
				},
				{
					"internalType": "uint256",
					"name": "",
					"type": "uint256"
				},
				{
					"internalType": "uint256",
					"name": "",
					"type": "uint256"
				}
			],
			"stateMutability": "nonpayable",
			"type": "function"
		},
		{
			"inputs": [],
			"name": "maxItems",
			"outputs": [
				{
					"internalType": "uint256",
					"name": "",
					"type": "uint256"
				}
			],
			"stateMutability": "view",
			"type": "function"
		}
	]
}