{
	"data": {
		"bytecode": {
			"linkReferences": {},
			"object": "608060405234801561001057600080fd5b506101e0806100206000396000f3fe608060405234801561001057600080fd5b50600436106100415760003560e01c806372aeb0a41461004657806399ddb29b146100885780639b8fefdc146100ab575b600080fd5b610072610054366004610128565b6001600160a01b031660009081526020819052604090205460ff1690565b60405161007f9190610182565b60405180910390f35b610072610096366004610128565b60006020819052908152604090205460ff1681565b6100be6100b9366004610149565b6100c0565b005b6001600160a01b0382166000908152602081905260409020805482919060ff1916600183600381111561010357634e487b7160e01b600052602160045260246000fd5b02179055505050565b80356001600160a01b038116811461012357600080fd5b919050565b600060208284031215610139578081fd5b6101428261010c565b9392505050565b6000806040838503121561015b578081fd5b6101648361010c565b9150602083013560048110610177578182fd5b809150509250929050565b60208101600483106101a457634e487b7160e01b600052602160045260246000fd5b9190529056fea2646970667358221220a97b305d3c671835e04ca2eca77fc406d2138d750831b42213070bcd7e389d5364736f6c63430008040033",
			"opcodes": "PUSH1 0x80 PUSH1 0x40 MSTORE CALLVALUE DUP1 ISZERO PUSH2 0x10 JUMPI PUSH1 0x0 DUP1 REVERT JUMPDEST POP PUSH2 0x1E0 DUP1 PUSH2 0x20 PUSH1 0x0 CODECOPY PUSH1 0x0 RETURN INVALID PUSH1 0x80 PUSH1 0x40 MSTORE CALLVALUE DUP1 ISZERO PUSH2 0x10 JUMPI PUSH1 0x0 DUP1 REVERT JUMPDEST POP PUSH1 0x4 CALLDATASIZE LT PUSH2 0x41 JUMPI PUSH1 0x0 CALLDATALOAD PUSH1 0xE0 SHR DUP1 PUSH4 0x72AEB0A4 EQ PUSH2 0x46 JUMPI DUP1 PUSH4 0x99DDB29B EQ PUSH2 0x88 JUMPI DUP1 PUSH4 0x9B8FEFDC EQ PUSH2 0xAB JUMPI JUMPDEST PUSH1 0x0 DUP1 REVERT JUMPDEST PUSH2 0x72 PUSH2 0x54 CALLDATASIZE PUSH1 0x4 PUSH2 0x128 JUMP JUMPDEST PUSH1 0x1 PUSH1 0x1 PUSH1 0xA0 SHL SUB AND PUSH1 0x0 SWAP1 DUP2 MSTORE PUSH1 0x20 DUP2 SWAP1 MSTORE PUSH1 0x40 SWAP1 KECCAK256 SLOAD PUSH1 0xFF AND SWAP1 JUMP JUMPDEST PUSH1 0x40 MLOAD PUSH2 0x7F SWAP2 SWAP1 PUSH2 0x182 JUMP JUMPDEST PUSH1 0x40 MLOAD DUP1 SWAP2 SUB SWAP1 RETURN JUMPDEST PUSH2 0x72 PUSH2 0x96 CALLDATASIZE PUSH1 0x4 PUSH2 0x128 JUMP JUMPDEST PUSH1 0x0 PUSH1 0x20 DUP2 SWAP1 MSTORE SWAP1 DUP2 MSTORE PUSH1 0x40 SWAP1 KECCAK256 SLOAD PUSH1 0xFF AND DUP2 JUMP JUMPDEST PUSH2 0xBE PUSH2 0xB9 CALLDATASIZE PUSH1 0x4 PUSH2 0x149 JUMP JUMPDEST PUSH2 0xC0 JUMP JUMPDEST STOP JUMPDEST PUSH1 0x1 PUSH1 0x1 PUSH1 0xA0 SHL SUB DUP3 AND PUSH1 0x0 SWAP1 DUP2 MSTORE PUSH1 0x20 DUP2 SWAP1 MSTORE PUSH1 0x40 SWAP1 KECCAK256 DUP1 SLOAD DUP3 SWAP2 SWAP1 PUSH1 0xFF NOT AND PUSH1 0x1 DUP4 PUSH1 0x3 DUP2 GT ISZERO PUSH2 0x103 JUMPI PUSH4 0x4E487B71 PUSH1 0xE0 SHL PUSH1 0x0 MSTORE PUSH1 0x21 PUSH1 0x4 MSTORE PUSH1 0x24 PUSH1 0x0 REVERT JUMPDEST MUL OR SWAP1 SSTORE POP POP POP JUMP JUMPDEST DUP1 CALLDATALOAD PUSH1 0x1 PUSH1 0x1 PUSH1 0xA0 SHL SUB DUP2 AND DUP2 EQ PUSH2 0x123 JUMPI PUSH1 0x0 DUP1 REVERT JUMPDEST SWAP2 SWAP1 POP JUMP JUMPDEST PUSH1 0x0 PUSH1 0x20 DUP3 DUP5 SUB SLT ISZERO PUSH2 0x139 JUMPI DUP1 DUP2 REVERT JUMPDEST PUSH2 0x142 DUP3 PUSH2 0x10C JUMP JUMPDEST SWAP4 SWAP3 POP POP POP JUMP JUMPDEST PUSH1 0x0 DUP1 PUSH1 0x40 DUP4 DUP6 SUB SLT ISZERO PUSH2 0x15B JUMPI DUP1 DUP2 REVERT JUMPDEST PUSH2 0x164 DUP4 PUSH2 0x10C JUMP JUMPDEST SWAP2 POP PUSH1 0x20 DUP4 ADD CALLDATALOAD PUSH1 0x4 DUP2 LT PUSH2 0x177 JUMPI DUP2 DUP3 REVERT JUMPDEST DUP1 SWAP2 POP POP SWAP3 POP SWAP3 SWAP1 POP JUMP JUMPDEST PUSH1 0x20 DUP2 ADD PUSH1 0x4 DUP4 LT PUSH2 0x1A4 JUMPI PUSH4 0x4E487B71 PUSH1 0xE0 SHL PUSH1 0x0 MSTORE PUSH1 0x21 PUSH1 0x4 MSTORE PUSH1 0x24 PUSH1 0x0 REVERT JUMPDEST SWAP2 SWAP1 MSTORE SWAP1 JUMP INVALID LOG2 PUSH5 0x6970667358 0x22 SLT KECCAK256 0xA9 PUSH28 0x305D3C671835E04CA2ECA77FC406D2138D750831B42213070BCD7E38 SWAP14 MSTORE8 PUSH5 0x736F6C6343 STOP ADDMOD DIV STOP CALLER "
		},
		"gasEstimates": {
			"creation": {
				"codeDepositCost": "96000",
				"executionCost": "141",
				"totalCost": "96141"
			},
			"external": {
				"addressType(address)": "1275",
				"getAddressType(address)": "1271",
				"setAddressType(address,uint8)": "21341"
			}
		},
		"methodIdentifiers": {
			"addressType(address)": "99ddb29b",
			"getAddressType(address)": "72aeb0a4",
			"setAddressType(address,uint8)": "9b8fefdc"
		}
	},
	"abi": [
		{
			"inputs": [
				{
					"internalType": "address",
					"name": "",
					"type": "address"
				}
			],
			"name": "addressType",
			"outputs": [
				{
					"internalType": "enum Enum.Types",
					"name": "",
					"type": "uint8"
				}
			],
			"stateMutability": "view",
			"type": "function"
		},
		{
			"inputs": [
				{
					"internalType": "address",
					"name": "addr",
					"type": "address"
				}
			],
			"name": "getAddressType",
			"outputs": [
				{
					"internalType": "enum Enum.Types",
					"name": "",
					"type": "uint8"
				}
			],
			"stateMutability": "view",
			"type": "function"
		},
		{
			"inputs": [
				{
					"internalType": "address",
					"name": "addr",
					"type": "address"
				},
				{
					"internalType": "enum Enum.Types",
					"name": "_type",
					"type": "uint8"
				}
			],
			"name": "setAddressType",
			"outputs": [],
			"stateMutability": "nonpayable",
			"type": "function"
		}
	]
}