{
	"data": {
		"bytecode": {
			"linkReferences": {},
			"object": "6082610038600b82828239805160001a607314602b57634e487b7160e01b600052600060045260246000fd5b30600052607381538281f3fe730000000000000000000000000000000000000000301460806040526004361060335760003560e01c8063db613e81146038575b600080fd5b604080516000815290519081900360200190f3fea264697066735822122021269085eb932720eaf6a72ddf7383e4ddb20c0901002015d1e6d0b1d66eda3a64736f6c63430008120033",
			"opcodes": "PUSH1 0x82 PUSH2 0x38 PUSH1 0xB DUP3 DUP3 DUP3 CODECOPY DUP1 MLOAD PUSH1 0x0 BYTE PUSH1 0x73 EQ PUSH1 0x2B JUMPI PUSH4 0x4E487B71 PUSH1 0xE0 SHL PUSH1 0x0 MSTORE PUSH1 0x0 PUSH1 0x4 MSTORE PUSH1 0x24 PUSH1 0x0 REVERT JUMPDEST ADDRESS PUSH1 0x0 MSTORE PUSH1 0x73 DUP2 MSTORE8 DUP3 DUP2 RETURN INVALID PUSH20 0x0 ADDRESS EQ PUSH1 0x80 PUSH1 0x40 MSTORE PUSH1 0x4 CALLDATASIZE LT PUSH1 0x33 JUMPI PUSH1 0x0 CALLDATALOAD PUSH1 0xE0 SHR DUP1 PUSH4 0xDB613E81 EQ PUSH1 0x38 JUMPI JUMPDEST PUSH1 0x0 DUP1 REVERT JUMPDEST PUSH1 0x40 DUP1 MLOAD PUSH1 0x0 DUP2 MSTORE SWAP1 MLOAD SWAP1 DUP2 SWAP1 SUB PUSH1 0x20 ADD SWAP1 RETURN INVALID LOG2 PUSH5 0x6970667358 0x22 SLT KECCAK256 0x21 0x26 SWAP1 DUP6 0xEB SWAP4 0x27 KECCAK256 0xEA 0xF6 0xA7 0x2D 0xDF PUSH20 0x83E4DDB20C0901002015D1E6D0B1D66EDA3A6473 PUSH16 0x6C634300081200330000000000000000 "
		},
		"gasEstimates": {
			"creation": {
				"codeDepositCost": "26000",
				"executionCost": "112",
				"totalCost": "26112"
			},
			"external": {
				"getAccount()": "133"
			}
		},
		"methodIdentifiers": {
			"getAccount()": "db613e81"
		}
	},
	"abi": [
		{
			"inputs": [],
			"name": "getAccount",
			"outputs": [
				{
					"internalType": "address",
					"name": "",
					"type": "address"
				}
			],
			"stateMutability": "pure",
			"type": "function"
		}
	]
}